S0190000416D657265785F47455F5665725F312E312E7372656343
S21442000028480020159C4200859B4200859B420062
S214420010859B4200859B4200859B42000000000073
S214420020000000000000000000000000859B420027
S214420030859B420000000000859B4200916642007C
S214420040859B4200859B4200859B4200859B4200E1
S214420050859B4200859B4200859B4200859B4200D1
S214420060859B4200E1894200F9894200859B420015
S214420070118A4200859B4200859B4200859B420036
S214420080859B4200859B4200859B4200859B4200A1
S214420090859B4200AD664200859B4200859B42009E
S2144200A0859B4200859B4200859B4200859B420081
S2144200B0859B4200859B42006D2742008527420071
S2144200C0859B4200859B4200859B4200859B420061
S2144200D0859B420021604200859B4200859B4200F0
S2144200E0859B4200859B4200859B4200859B420041
S2144200F0859B4200859B420010B5054C237833B958
S214420100044B13B10448AFF300800123237010BDA3
S214420110340B0020000000001C0543000C4B43B18A
S2144201200C480D4910B5AFF300800C48036823B95C
S21442013010BD0A48036833B97047094B002BF7D005
S214420140BDE810401847064B002BF5D0184700BFB5
S214420150000000001C054300380B00201C0543002D
S2144201600000000080B483B000AF78600B467B800E
S21442017000BF0C37BD465DF8047B704780B485B03F
S21442018000AF78600B46FB707B685B68FB60FB7871
S214420190FF2B04D1FB6843F08003FB6007E0FB685B
S2144201A023F08F03FB60FB78FA681343FB607B689F
S2144201B0FA685A6000BF1437BD465DF8047B704744
S2144201C080B483B000AF78607B6802221A6000BFBA
S2144201D00C37BD465DF8047B7047000080B582B0A0
S2144201E000AF78600B467B807B8848F23F029342A2
S2144201F004D07B88194678680A4B98477B8848F231
S2144202003F02934205D07B88012202FA03F31A4644
S21442021001E048F23F027B685A6100BF0837BD469C
S21442022080BD00BF6501420080B582B000AF7860F5
S2144202300B467B807B8819467868054B98477A88B8
S2144202407B685A667B689B6E18460837BD4680BDFB
S2144202506501420080B582B000AF78600B467B8075
S21442026013463B807B8819467868074B98477A88BE
S2144202707B685A663B88C3F30B027B68DA6600BF2C
S2144202800837BD4680BD00BF6501420080B483B0DA
S21442029000AF78607B681B6B18460C37BD465DF82E
S2144202A0047B704780B485B000AF78600023FB6063
S2144202B07B68094A934202D1084BFB6005E07B68A3
S2144202C0074A934201D1074BFB60FB681846143736
S2144202D0BD465DF8047B704700000B4000010B40B2
S2144202E000400B4000410B4080B48BB000AF7860BA
S2144202F00B46FB707B687B62FB7887F823307B6A11
S214420300FB61FB69BB61BB695B097B617B6903F58A
S214420310001303F207735B023B6197F82330002B0E
S21442032009D07B6AFB60FB6803F01F0301229A40F8
S2144203303B691A6308E07B6ABB60BB6803F01F0335
S21442034001229A403B695A6300BF2C37BD465DF88E
S214420350047B704780B582B000AF1648164B98476C
S214420360034603F00063B3F1006F1ED10023FB7116
S21442037011E0FB7903F00103DBB2002B08D1FB79D5
S214420380FA790E4931F8122091B20C4A22F813102B
S214420390FB790133FB71FB790B2BEAD9084B1B68BF
S2144203A0002208491846084B984700BF0837BD4602
S2144203B080BD00BF00000B408D024200E8170020BF
S2144203C010150020CC140020E52E420080B500AF68
S2144203D002210448044B98470246044B1A6000BF69
S2144203E080BD00BF00400B4029024200601500203D
S2144203F080B500AF03210448044B98470246044B9D
S2144204001A6000BF80BD00BF00400B402902420078
S214420410B415002098B500AF6548664B98476648C5
S214420420644B9847654B1B78DBB219466448654B6C
S214420430984763495E48644B984761495E48624BB9
S21442044098476248624B9847604A00215848614B39
S21442045098475E4A012156485E4B98475B4A0221BE
S21442046053485C4B9847594A03215148594B984741
S214420470564A04214E48574B9847544A05214C4801
S214420480544B9847514A02214B48524B98474F4A41
S214420490032149484F4B98474FF400620021444895
S2144204A04D4B98474FF40062012141484A4B9847CA
S2144204B04FF4006202213E48474B98474FF4006291
S2144204C003213B48444B98474FF400620421384886
S2144204D0414B98474FF40062052135483E4B9847BA
S2144204E04FF40062022134483B4B98474FF4006277
S2144204F003213148384B984700212D48374B9847BF
S21442050000212D48354B984700212948344B9847BF
S21442051001212748324B984702212548304B9847BD
S214420520032123482E4B9847042121482C4B9847B9
S21442053005211F482A4B984702211F48284B9847B7
S21442054003211D48264B98471948264B9847024692
S214420550254B1A60254A264B1A60254B0C225A60B8
S214420560214B1B68002222491846224B98471E4BB5
S2144205701B6801211846204B984700231F4A0A2130
S2144205800B481F4CA04701231E4A02210A481C4C16
S214420590A04701231C4A03210748194CA047044898
S2144205A01A4B98470448194B984700BF98BD00BF5E
S2144205B000000B409D27420000400B40D013002015
S2144205C01415002009244200A9244200BC1400202D
S2144205D08924420075234200550242007D014200B2
S2144205E0DD014200A502420010150020E817002057
S2144205F0CC140020E52E4200292F4200550342002B
S21442060041254200CD034200F1034200C1014200AF
S21442061080B483B000AF7860144B1B781A46144BF4
S21442062053F822307A68D21A124B1B681344114A86
S21442063013600E4B1B7819460D4A7B6842F82130F0
S2144206400A4B1B783F2B04D0084B1B780133DBB296
S21442065000E00023054A1370064B1B689B091846A8
S2144206600C37BD465DF8047B704700BFC40B0020C4
S214420670C80B0020C80C002080B483B000AF78605E
S214420680144B1B781A46144B53F822307A68D21A07
S214420690124B1B681344114A13600E4B1B781946C3
S2144206A00D4A7B6842F821300A4B1B783F2B04D018
S2144206B0084B1B780133DBB200E00023054A137077
S2144206C0064B1B689B0918460C37BD465DF8047BF3
S2144206D0704700BFCC0C0020D00C0020D00D00206C
S2144206E080B483B000AF7860144B1B781A46144B24
S2144206F053F822307A68D21A124B1B681344114AB6
S21442070013600E4B1B7819460D4A7B6842F821301F
S2144207100A4B1B783F2B04D0084B1B780133DBB2C5
S21442072000E00023054A1370064B1B689B091846D7
S2144207300C37BD465DF8047B704700BFD40D0020E1
S214420740D80D0020D80E002080B483B000AF786069
S214420750144B1B781A46144B53F822307A68D21A36
S214420760124B1B681344114A13600E4B1B781946F2
S2144207700D4A7B6842F821300A4B1B783F2B04D047
S214420780084B1B780133DBB200E00023054A1370A6
S214420790064B1B689B0918460C37BD465DF8047B22
S2144207A0704700BFDC0E0020E00E0020E00F002065
S2144207B080B483B000AF7860144B1B781A46144B53
S2144207C053F822307A68D21A124B1B681344114AE5
S2144207D013600E4B1B7819460D4A7B6842F821304F
S2144207E00A4B1B783F2B04D0084B1B780133DBB2F5
S2144207F000E00023054A1370064B1B689B09184607
S2144208000C37BD465DF8047B704700BFE40F0020FE
S214420810E80F0020E810002080B582B000AF002329
S2144208207B60124B9B889BB207EE903AB8EEE77A13
S2144208300F4BD3ED007A27EE277ADFED0E6AC7EE2E
S214420840267A9FED0D7A67EE877AFCEEE77A17EE08
S214420850903A7B60094A7B6813607868084B9847F1
S21442086078607B6818460837BD4680BDE81700208A
S214420870F400002000F07F4500007A44C00B0020C0
S2144208801106420080B582B000AF00237B60124B57
S2144208901B889BB207EE903AB8EEE77A0F4BD3ED41
S2144208A0007A27EE277ADFED0E6AC7EE267A9FEDAC
S2144208B00D7A67EE877AFCEEE77A17EE903A7B601F
S2144208C0094A7B6813607868084B984778607B686B
S2144208D018460837BD4680BDE8170020F4000020C1
S2144208E000F07F4500007A44BC0B002079064200A7
S2144208F080B582B000AF124B1B899BB207EE903A8E
S214420900B8EEE77A0F4BD3ED007A27EE277ADFED83
S2144209100E6AC7EE267A9FED0D7A67EE877AFCEE70
S214420920E77A17EE903A7B60094A7B6813607868EC
S214420930084B9847034618460837BD4680BD00BF59
S214420940E8170020F400002000F07F4500F01C4528
S214420950EC150020E106420080B582B000AF104B95
S2144209609B8A9BB207EE903AB8EEE77A0D4BD3EDF0
S214420970007A27EE277ADFED0C6AC7EE267A9FEDDD
S2144209800B7A67EE877AFCEEE77A17EE903A7B6050
S2144209907868074B9847034618460837BD4680BDD9
S2144209A0E8170020F400002000F07F45009C6546D2
S2144209B04907420080B483B000AF78600E4B1B6894
S2144209C007EE903AB8EE677A0C4BD3ED007A27EEF4
S2144209D0277ADFED0B6AC7EE267A9FED0A7A67EE34
S2144209E0877AFCEEE77A17EE903A18460C37BD4601
S2144209F05DF8047B704700BFB4150020F400002069
S214420A0000F07F4500007A4480B483B000AF78603F
S214420A100E4B1B6807EE903AB8EE677A0C4BD3ED56
S214420A20007A27EE277ADFED0B6AC7EE267A9FED2D
S214420A300A7A67EE877AFCEEE77A17EE903A18461D
S214420A400C37BD465DF8047B704700BF601500203A
S214420A50F400002000F07F4500007A4480B582B062
S214420A6000AF104B9B899BB207EE903AB8EEE77AFE
S214420A700D4BD3ED007A27EE277ADFED0C6AC7EEF0
S214420A80267A9FED0B7A67EE877AFCEEE77A17EEC8
S214420A90903A7B607868074B984703461846083773
S214420AA0BD4680BDE8170020F400002000F07F45D8
S214420AB000B0A645B107420080B582B000AF002321
S214420AC0FB710023FB7125E01648174B9847174BDE
S214420AD098470246164B1A60164B984703469AB2F8
S214420AE0154B1A80154B984703469AB2144B1A80F8
S214420AF0144B984703469AB2134B1A80134B9847A7
S214420B0003469AB2124B1A800220124B9847FB7940
S214420B100133FB71FB79812BD6D900BF0837BD461E
S214420B2080BD00BF50180E40893B42005909420022
S214420B30600B0020F1084200640B0020850842004A
S214420B40660B002019084200680B00205D0A42002E
S214420B506A0B00202584420080B500AF904B1B787C
S214420B6083F00103DBB2002B00F0ED818D4B1A6857
S214420B708D4B1B68D31AF92B19D9012163208B4B55
S214420B80984701216020894B984700216220874B75
S214420B90984700216120854B9847824B1B68824AC2
S214420BA01360834B1B780133DAB2814B1A70804B49
S214420BB01B78013B032B00F2178101A252F823F067
S214420BC0D10B4200450C4200B90C42002D0D4200AA
S214420BD0784B1B7883F00103DBB2002B17D0754BA2
S214420BE001221A706F4B1B686F4A13600121602006
S214420BF06E4B9847012161206C4B98470021632039
S214420C006A4B984700216220684B984738E1654B0B
S214420C101A68654B1B68D31A132B40F23181664B18
S214420C201B889BB201339AB2634B1A80634B1B6894
S214420C301846634B98470246624B1B681344614A08
S214420C4013601DE1604B1B7883F00103DBB2002B7F
S214420C5017D05D4B01221A70524B1B68524A1360E2
S214420C6000216020514B9847002161204F4B984706
S214420C70012163204D4B9847012162204B4B9847F8
S214420C8000E1484B1A68484B1B68D31A142B40F2B3
S214420C90F9804E4B1B889BB201339AB24B4B1A805B
S214420CA04B4B1B6818464B4B98470246454B5B6876
S214420CB01344444A5360E5E0474B1B7883F00103F4
S214420CC0DBB2002B17D0444B01221A70354B1B68FF
S214420CD0354A136001216020344B98470021612039
S214420CE0324B984700216320304B984700216220C0
S214420CF02E4B9847C8E02B4B1A682B4B1B68D31ACF
S214420D00142B40F2C180354B1B889BB201339AB2FA
S214420D10324B1A80294B1B681846294B9847024685
S214420D20284B9B681344274A9360ADE02C4B1B78B4
S214420D3083F00103DBB2002B17D0294B01221A7035
S214420D40184B1B68184A136000216020174B9847BF
S214420D5000216120154B984701216320134B984789
S214420D6000216220114B984790E00E4B1A680E4BBA
S214420D701B68D31A142B40F289801A4B1B889BB2ED
S214420D8001339AB2174B1A80114B1B681846114B07
S214420D90984702460B4BDB6813440A4AD36075E019
S214420DA0550B00204C130020A80B0020E9024200FD
S214420DB0540B0020740B0020780B0020B415002042
S214420DC0B5094200800B0020750B00207A0B0020EC
S214420DD060150020090A4200760B00207C0B00209A
S214420DE0770B00207E0B0020574B01221A70574B80
S214420DF01B68574A128892B2B3FBF2F39AB2554B2B
S214420E001A80524B5B68544A128892B2B3FBF2F392
S214420E109AB2524B1A804D4B9B68514A128892B2F4
S214420E20B3FBF2F39AB24F4B1A80484BDB684E4AFA
S214420E30128892B2B3FBF2F39AB24C4B1A804A4BE8
S214420E4000221A80464B00221A80434B00221A8008
S214420E503F4B00221A80464B00221A70454B002216
S214420E601A70454B00221A70444B00221A70444BAB
S214420E7001221A70282200213448424B984706E045
S214420E8000BF04E000BF02E000BF00E000BF3C4BF2
S214420E901B7883F00103DBB2002B53D12D4B1B880A
S214420EA040F6E702934215D82C4B1B8840F6E702E1
S214420EB093420FD82B4B1B8840F6FC02934209D92B
S214420EC02A4B1B8840F6FC02934203D92E4B002243
S214420ED01A7012E01F4B1B8840F6E702934205D871
S214420EE01E4B1B8840F6E702934203D9264B01224B
S214420EF01A7002E0244B02221A70244B1A78224BB4
S214420F001B789A421FD0204B1A78204B1A70204BDF
S214420F109847204B04221A711B4B1B78002B03D197
S214420F201C4B00229A7102E01A4B01229A71164B10
S214420F301A78184B5A711748174B9847174B042282
S214420F401A7000E000BF80BD540B0020800B0020CA
S214420F50780B00206C0B00207A0B00206E0B0020D2
S214420F607C0B0020700B00207E0B0020720B0020B2
S214420F70740B0020750B0020760B0020770B0020A8
S214420F80EC100020EDAC42005C0B0020ED1000207F
S214420F9071794200FC000020A9754200FC10002036
S214420FA080B500AF634B1B8841F2EC32934211D9B5
S214420FB0614B1B6841F2EC3293420BD95F4B1B6884
S214420FC05F4A13605D4B1B685E4A13605E4B0022AD
S214420FD01A7048E0584B1B6841F2873293422BD82E
S214420FE0544B1B8841F28732934225D8574B1B7885
S214420FF0002B21D0514B1A68524B1B68D31AB3F5BB
S214421000FA6F30D3524B9847524B10221A71494BC3
S2144210101B88514AA2FB03231B099BB2DAB24D4BF3
S214421020DA714C484D4B98474D484E4B98474E4B7D
S21442103098474E4B984716E0404B1A68404B1B6801
S214421040D31A4CF2503293420DD93F4B01221A70BA
S2144210503A4B1B683B4A1360384B1B68384A13604E
S214421060434B06221A70434B1A78374B1B789A42E8
S2144210701AD0374B9847374B06221A71324B1B7899
S2144210801A46344B9A712B4B1B88334AA2FB0323D6
S2144210901B099BB2DAB22F4BDA712E482F4B984778
S2144210A0294B1A78334B1A70334B1B6842F2FC12A8
S2144210B0934207D9214B1B68304A1360234B0022C8
S2144210C01A7011E01D4B1A682C4B1B68D31AB3F5E5
S2144210D02F7F09D9194B1B68284A13601B4B0122E4
S2144210E01A70234B05221A70254B1A78174B1B7819
S2144210F09A421DD0164B9847164B05221A71134B2F
S2144211001B781A46134B9A711B4B1B68124AA2FB5A
S21442111003231B09DAB20F4BDA710E480F4B98477E
S2144211200A4B1A78164B1A7000217820154B9847AE
S21442113000BF80BD640B0020EC1500204C1300203D
S214421140B00B0020B80B00205A0B0020590B002091
S21442115071794200FC0000201F85EB51A9754200C0
S214421160C8FF420049A94200DD3D4200C1A34200F9
S214421170FC100020EE100020600B0020B40B002074
S214421180EF100020E902420080B500AF354B1A68E6
S214421190354B1B68D31AB3F57A7F60D9334B1B881D
S2144211A043F66C12934211D9314B1B785A1ED1B278
S2144211B02F4A1170012B24D82E482F4B98472C4B80
S2144211C0B4221A702D4B00221A701AE0274B1B8845
S2144211D043F2BB42934211D8254B1B785A1ED1B2DA
S2144211E0234A1170012B0CD82248254B9847204B96
S2144211F0B4221A70214B01221A7002E01C4BB42210
S2144212001A701E4B1A781F4B1B789A4223D01E4BDD
S21442121098471E4B0E221A71184B1B781A461B4BC8
S2144212209A71124B1B881A4AA2FB0323DB089BB215
S214421230DAB2164BDA71154BDB79164AA2FB032358
S2144212401B09DAB2114BDA711048134B98470B4B15
S2144212501A780C4B1A70034B1B68034A136000BF84
S21442126080BD00BF4C130020AC0B00206A0B002050
S214421270F8000020C0140020DD8442005B0B0020F2
S2144212809D844200F010002071794200FC0000204C
S214421290CDCCCCCC1F85EB51A975420080B586B02B
S2144212A000AF78602B4B1B7818462B4B98477B68D1
S2144212B09B7A1A467B685B681B061A437B685B68A8
S2144212C01B0203F47F031A437B685B681B0A03F422
S2144212D07F431343FB607B68DB7A1A4607F10C03B5
S2144212E0114618461D4B98470346FB7597F917302B
S2144212F0002B01D0082328E07B689B7A022B03D080
S2144213007B689B7A012B0AD17B681A687B681B89AB
S21442131019461046114B98470346FB7509E07B6811
S2144213201A687B681B89194610460D4B9847034638
S214421330FB7597F91730002B01D0082305E0054BC3
S2144213401B781846074B9847002318461837BD4661
S21442135080BD00BFF9000020F51842006D1942001A
S214421360451942001D19420080B582B000AF0023E5
S214421370FB7111E07B1D18460B4B98470346BB7129
S214421380BB79002B01D0BB790AE07B7903F00103DD
S214421390002B01D10123FB71FB79002BEAD00023FD
S2144213A018460837BD4680BD8914420080B586B0CF
S2144213B000AF78609F23BB740123FB747B68BB60DD
S2144213C003233B820023FB6007F108031846074BC2
S2144213D098470346FB757B681B6823F07F427B6811
S2144213E01A60FB7D18461837BD4680BD9D124200E6
S2144213F080B584B000AF0623BB720123FB72002384
S2144214003B6000233B8100237B603B461846044BEF
S21442141098470346FB73FB7B18461037BD4680BD94
S2144214209D12420080B500AF024B984700231846F3
S21442143080BD00BFB118420080B483B000AF0346FF
S214421440FB71044AFB79137000BF0C37BD465DF84A
S214421450047B7047F900002080B582B000AF0023BD
S2144214607B603B1D1846064B98477B68054A93426D
S21442147001D1002300E0042318460837BD4680BD4C
S214421480AD134200C223130080B586B000AF786029
S2144214900523BB740123FB747B68BB6001233B823C
S2144214A00023FB6007F108031846044B984703469F
S2144214B0FB75FB7D18461837BD4680BD9D1242001F
S2144214C080B588B000AF78600323BB610023FB6120
S2144214D04EE07B68B3F5800F01D909234DE007F152
S2144214E016031846274B98470346FB75FB7D002B91
S2144214F001D0FB7D41E0BB7D03F00103002B01D010
S21442150006233AE0BB7D03F00C03002B01D00723F1
S21442151033E01D4B98470346FB75FB7D002B01D0FD
S214421520FB7D2AE0D823BB740423FB740023BB60F4
S21442153000233B827B68FB6007F108031846134B87
S21442154098470346FB75FB7D002B01D0FB7D14E0DC
S2144215500F4B98470346FB75FB7D002B01D0FB7D66
S2144215600BE07B6803F580337B60FB690133FB61EC
S214421570FA69BB699A42ACD3002318462037BD4667
S21442158080BD00BF89144200F11342009D12420002
S2144215906913420080B588B000AF78607B685B68AC
S2144215A003F6FF737B617B685B6823F47F6323F0FB
S2144215B00F037A6853607B685B687A69D31A03F6CE
S2144215C0FF731B0B3B610023BB615AE0314B1B7818
S2144215D01846314B98477B689B7A1A467B685B680D
S2144215E01B061A437B685B681B0203F47F031A439D
S2144215F07B685B681B0A03F47F431343BB607B68CC
S214421600DB7A1A4607F1080311461846234B9847D9
S2144216100346FB7797F91F30002B01D0082335E0AD
S2144216207B689B7A022B03D07B689B7A012B0AD17C
S2144216307B681A687B681B8919461046174B984781
S2144216400346FB7709E07B681A687B681B89194664
S2144216501046134B98470346FB7797F91F30002BEB
S21442166001D0082312E07B685B6803F580527B68F2
S2144216705A60084B1B7818460A4B9847BB69013399
S214421680BB61BA693B699A42A0D300231846203709
S214421690BD4680BDF9000020F51842006D19420093
S2144216A0451942001D19420080B586B000AF7860E9
S2144216B039607B68B3F5800F01D9092342E007F110
S2144216C016031846214B98470346FB75FB7D002BB5
S2144216D001D0FB7D36E0BB7D03F00103002B01D039
S2144216E006232FE0BB7D03F00C03002B01D007231B
S2144216F028E0174B98470346FB75FB7D002B01D02D
S214421700FB7D1FE02023BB740423FB740023BB60D5
S21442171000233B827B68FB6007F1080318460D4BAB
S21442172098470346FB75FB7D002B01D0FB7D09E005
S214421730094B98470346FB75FB7D002B01D0FB7D8A
S21442174000E0002318461837BD4680BD8914420083
S214421750F1134200951542006913420080B58AB0E3
S21442176000AFF8600B467A607B817A897B681344C7
S214421770B3F5800F56D9092358E07B68DBB2C3F530
S21442178080727B89934228BF13467B62294B9847D7
S2144217900223BB770423FB77FB687B617B6A9BB2A1
S2144217A0BB837B68BB6107F114031846224B9847FC
S2144217B0034687F8233097F82330002B02D097F859
S2144217C0233033E01D4B9847034687F8233097F87B
S2144217D02330002B02D097F8233027E007F122036C
S2144217E01846174B9847034687F8233097F8233016
S2144217F0002B02D097F8233018E097F8223003F0F7
S2144218002003002B01D0052310E0FA687B6A1344BC
S214421810FB607B6A9BB27A89D31A7B817A687B6A41
S21442182013447B607B89002BA7D1002318462837B8
S214421830BD4680BDF11342009D124200691342002C
S2144218408914420080B588B000AFF8600B467A60D3
S2144218507B817A897B681344B3F5800F01D90923CB
S21442186011E00323BB760423FB76FB683B617B894E
S2144218703B837B687B6107F110031846044B98470D
S2144218800346FB77FB7F18462037BD4680BD00BF28
S2144218909D12420080B483B000AF78607B6801221C
S2144218A01A6000BF0C37BD465DF8047B70470000E7
S2144218B090B583B002AF0948094B9847002300937E
S2144218C0084B002208490548084CA0470348084BE5
S2144218D0984700BF0437BD4690BD00BF0080084011
S2144218E02D1C4200001BB700F41000209D1C420035
S2144218F09518420080B582B000AF0346FB7104499A
S2144219000448054B984700BF0837BD4680BD00BF18
S214421910F410002000800840511D420080B582B07D
S21442192000AF0346FB7104490448054B984700BF85
S2144219300837BD4680BD00BFF41000200080084036
S214421940A91D420080B582B000AF786039603A681F
S21442195079680448044B9847034618460837BD46FC
S21442196080BD00BF00800840591E420080B582B04C
S21442197000AF786039603A6879680448044B984703
S214421980034618460837BD4680BD00BF0080084063
S214421990E51D420080B483B000AF78607B68072BB9
S2144219A025D801A252F823F0C9194200CF194200A5
S2144219B0D5194200DB194200DF194200E319420002
S2144219C0E7194200EB1942004FF4FA4310E04FF495
S2144219D000430DE04FF400430AE0084B08E0084B92
S2144219E006E0084B04E0074B02E0064B00E000230B
S2144219F018460C37BD465DF8047B704700093D002B
S214421A0000127A00001BB70080B500AF0520044BD9
S214421A109847024613469B0013445B00184680BD17
S214421A209519420080B500AF024B984703465B08C3
S214421A30184680BD091A420080B483B000AF786071
S214421A407B6880221A6000BF0C37BD465DF8047B77
S214421A50704780B483B000AF78607B684FF0807286
S214421A601A6000BF0C37BD465DF8047B704780B4F1
S214421A7083B000AF78607B685B6843F001027B68A6
S214421A805A6000BF0C37BD465DF8047B704780B491
S214421A9083B000AF78607B685B6823F002027B68A5
S214421AA05A6000BF0C37BD465DF8047B704780B471
S214421AB083B000AF78607B685B6823F004027B6883
S214421AC05A6000BF0C37BD465DF8047B704780B451
S214421AD083B000AF78607B685B6803F00403002B3A
S214421AE001D0012300E0002318460C37BD465DF8BE
S214421AF0047B704780B483B000AF78607B685B68D5
S214421B0043F010027B685A6000BF0C37BD465DF852
S214421B10047B704780B483B000AF78607B685B68B4
S214421B2023F080027B685A6000BF0C37BD465DF8E2
S214421B30047B704780B483B000AF78600B467B80EE
S214421B407A887B68DA6000BF0C37BD465DF8047B56
S214421B50704780B483B000AF78607B689B689BB266
S214421B6018460C37BD465DF8047B704780B483B098
S214421B7000AF78607B681B6903F40073002B01D0CA
S214421B80012300E0002318460C37BD465DF8047B6F
S214421B90704780B483B000AF78607B681B6903F0FF
S214421BA00203002B01D0012300E0002318460C3725
S214421BB0BD465DF8047B704780B483B000AF786062
S214421BC07B681A6940F20123134040F20122934295
S214421BD001D1012300E0002318460C37BD465DF8CC
S214421BE0047B704780B582B000AF78600B46FB70CE
S214421BF0FB789BB219467868024B984700BF083775
S214421C00BD4680BD351B420080B582B000AF7860CD
S214421C1039607868044B98470346DAB23B681A70D4
S214421C2000BF0837BD4680BD531B420080B582B018
S214421C3000AF78607868104B984778680F4B9847A3
S214421C4078680F4B984778680E4B984778680E4BE3
S214421C509847002178680D4B984778680C4B984710
S214421C6078680C4B9847002178680B4B984700BF22
S214421C700837BD4680BD00BF892F4200391A420050
S214421C806F1A4200F51A4200151B4200A52F420069
S214421C908F1A4200AF1A4200D92F420090B587B041
S214421CA000AFF860B9603B601346FB71204B984723
S214421CB00346194638681F4B98470346FB82BB6863
S214421CC0196800230022F8681B4CA047BB681B68B3
S214421CD000221946F868194B9847BB681B68FA8A6F
S214421CE0D2B21946F868164B9847BB681B6808225A
S214421CF01946F868134B9847BB681968FB795B0826
S214421D00DBB21A46F868104B9847BB681968FB79ED
S214421D1003F00103002B0CBF01230023DBB21A465B
S214421D20F8680A4B984700BF1C37BD4690BD00BFB7
S214421D30251A420099314200333242004F31420066
S214421D40D5314200A93042000930420059304200A3
S214421D5080B582B000AF786039607868104B98479B
S214421D600346002B0AD03B681B680F2B14D83B68EF
S214421D701B68194678680B4B98470DE03B681B6812
S214421D80032B09D83B681B68012202FA03F3DB43A4
S214421D9019467868034B984700BF0837BD4680BD52
S214421DA0CF1A4200A52F420080B582B000AF7860BD
S214421DB0396000BF7868084B98470346002BF9D035
S214421DC00F217868054B98477868054B984700BFBF
S214421DD00837BD4680BD00BF6D1B4200A52F42009E
S214421DE0531A420080B588B000AFF860B9607A6096
S214421DF043F69823FB610023BB6121E043F6982318
S214421E00FB6107E0FB695A1EFA61002B02D16FF0B4
S214421E10020319E0F8680E4B98470346002BF1D0B0
S214421E20BA68BB6913441B78FB75FB7D1946F86894
S214421E30084B9847BB690133BB617B68013B7B60BB
S214421E407B68002BDAD1002318462037BD4680BD7A
S214421E50931B4200E51B420080B588B000AFF86095
S214421E60B9607A6043F69823FB610023BB6138E091
S214421E7043F69823FB6107E0FB695A1EFA61002B82
S214421E8002D16FF0020330E0F8681A4B98470346D7
S214421E90002BF1D0FF21F868174B984743F698235A
S214421EA0FB6107E0FB695A1EFA61002B02D16FF014
S214421EB002031AE0F868114B98470346002BF1D00C
S214421EC007F117031946F8680D4B9847BA68BB697D
S214421ED01344FA7D1A70BB690133BB617B68013BD0
S214421EE07B607B68002BC3D1002318462037BD4653
S214421EF080BD00BF931B4200E51B4200B91B420057
S214421F00091C420080B586B000AFF860B9607A60BE
S214421F1000237B61FB68002B12D04FF0FF3313E0A7
S214421F200B4B1B680B4A1268B96810469847BB6849
S214421F300133BB607B6901337B617B68013B7B601D
S214421F407B68002BECDC7B6918461837BD4680BDA3
S214421F501C1600202416002080B586B000AFF8601C
S214421F60B9607A6000237B61FB68012B1ED0FB6858
S214421F70022B1BD0FB68032B18D04FF0FF3319E01F
S214421F800E4B1A680E4B1868BB68591CB9601B7812
S214421F90194690470346002B02DA4FF0FF3309E01A
S214421FA07B6901337B617B68013B7B607B68002BEE
S214421FB0E6D17B6918461837BD4680BD20160020FC
S214421FC02416002080B483B000AF0346FB7197F915
S214421FD00730002B0BDB094997F907305B09FA7982
S214421FE002F01F02012000FA02F241F8232000BF4D
S214421FF00C37BD465DF8047B704700BF00E100E049
S21442200080B483B000AF0346FB7197F90730002BCC
S2144220100CDB094997F907305B09FA7902F01F028F
S214422020012000FA02F2603341F8232000BF0C3749
S214422030BD465DF8047B704700E100E080B483B0A3
S21442204000AF03463960FB7197F90730002B0ADB75
S2144220500D4997F907303A68D2B21201D2B20B4410
S21442206083F800230AE00949FB7903F00F03043B97
S2144220703A68D2B21201D2B20B441A7600BF0C377B
S214422080BD465DF8047B704700E100E000ED00E0ED
S21442209080B483B000AFEFF310837B607B68002B85
S2144220A00CBF01230023DBB23B6072B6BFF35F8FE7
S2144220B0044B00221A703B6818460C37BD465DF842
S2144220C0047B70473501002080B483B000AF78604F
S2144220D07B68002B14BF01230023DBB218460C3763
S2144220E0BD465DF8047B704780B582B000AF78602D
S2144220F07868074B98470346002B05D0054B0122CC
S2144221001A70BFF35F8F62B600BF0837BD4680BD08
S214422110C92042003501002080B483B000AF786009
S2144221200B467B8000BF0C37BD465DF8047B70478C
S21442213080B483B000AF78607B681B6B18460C3760
S214422140BD465DF8047B704780B483B000AF7860CC
S2144221507B68DB6A18460C37BD465DF8047B7047E1
S21442216080B584B000AF0346FB71FB790A4AD35C64
S214422170FF2B00D1FEE7094B9847F860FB79064AE9
S214422180D25C0132D1B2044AD154F868044B984723
S21442219000BF1037BD4680BD141600209120420075
S2144221A0E920420080B483B000AF78607B68072B9A
S2144221B025D801A252F823F0D9214200DF2142005D
S2144221C0E5214200EB214200EF214200F32142008A
S2144221D0F7214200FB2142004FF4FA4310E04FF44D
S2144221E000430DE04FF400430AE0084B08E0084B7A
S2144221F006E0084B04E0074B02E0064B00E00023F3
S21442220018460C37BD465DF8047B704700093D0012
S21442221000127A00001BB70080B500AF0520044BC1
S2144222209847024613469B0013445B00184680BDFF
S214422230A521420080B500AF024B984703465B0893
S214422240184680BD1922420080B483B000AF786041
S2144222507B68094A934201D1012306E07B68074A1C
S214422260934201D1002300E0002318460C37BD46B6
S2144222705DF8047B704700BF00400B4000000B40F7
S21442228080B483B000AF78607B68094A934201D13C
S2144222901F2306E07B68074A934201D11E2300E0D3
S2144222A01E2318460C37BD465DF8047B704700BFB8
S2144222B000400B4000000B4080B485B000AF786011
S2144222C039600023FB603B68DB7D002B02D04FF079
S2144222D0004200E000223B689B7D002B02D04FF478
S2144222E0000300E000231A433B6859683B689B683A
S2144222F05B00B1FBF3F3013B1B029BB21A433B6804
S2144223001B691A433B681B7D1B0603F070631A4326
S2144223103B685B7D1B0703F040531A433B68DB6810
S2144223201343FB607B68FA685A603B681B7E002B4F
S21442233002D04FF0807200E000223B681B681A43CE
S2144223403B685B7E002B02D04FF0007300E0002318
S2144223501A437B689A603B689B7E1B0203F440727A
S2144223607B68C3F8942000BF1437BD465DF8047BF3
S2144223707047000080B586B000AFF8600B467A60C2
S2144223807B817B891946F8681E4B984700237B6100
S214422390FB681B6E7B617B89012202FA03F3DB43F7
S2144223A07A6913407B617B681B78002B04D07B895B
S2144223B0012202FA03F300E000237A6913437B61A9
S2144223C0FB687A691A66FB685B6D7B617B895B009A
S2144223D0032202FA03F3DB437A6913407B617B688C
S2144223E05B781A467B895B0002FA03F31A467B69DE
S2144223F013437B61FB687A695A6500BF1837BD464E
S21442240080BD00BF1921420080B582B000AF78601F
S2144224100B46FB707B6800221A60FB7883F0010350
S214422420DBB2002B03D0154B9847024600E0144A15
S2144224307B685A607B68134A9A607B684FF48032A6
S214422440DA607B6800221A617B6802221A757B6812
S21442245001225A757B6801229A757B680022DA75DA
S2144224607B6801221A767B6801225A767B680122B3
S2144224709A7600BF0837BD4680BD00BF352242006F
S21442248000093D0040420F0080B483B000AF786040
S2144224907B6800221A707B6801225A7000BF0C3794
S2144224A0BD465DF8047B704780B584B000AF786067
S2144224B0396078681D4B9847034603F08073B3F142
S2144224C0807F01D119232CE07B6801221A6039688B
S2144224D07868174B98477B68164A93420DD100237B
S2144224E0FB6007E0144AFB68002142F82310FB68B1
S2144224F00133FB60FB680D2BF4D97B680F4A93428D
S2144225000ED10023FB6008E00B4AFB680E33002125
S21442251042F82310FB680133FB60FB680D2BF3D9AE
S214422520002318461037BD4680BD00BF3121420009
S214422530B922420000000B402816002000400B4003
S21442254080B586B000AFF860B9607A60FB70F86814
S214422550194B9847786119497A691346DB009B1AEA
S2144225605B00BA6813447A6841F823207B69002BE3
S2144225700BD11E20124B9847FB7819461E20114B52
S21442258098471E20104B98470DE07B69012B0AD1D5
S2144225901F200B4B9847FB7819461F20094B98473C
S2144225A01F20094B9847B968F868084B984700BF00
S2144225B01837BD4680BD00BF49224200281600207B
S2144225C0012042003D204200C51F4200D125420064
S2144225D080B483B000AF786039603B68194A934252
S2144225E003D17B68174A5A6226E03B68062B0FD80F
S2144225F03B68062B04D17B684FF400425A621BE0CC
S21442260001223B6802FA03F31A467B685A6213E0D9
S2144226103B680B2B08D83B681133012202FA03F3BE
S2144226201A467B685A6207E03B681233012202FA76
S21442263003F31A467B685A620C37BD465DF8047B44
S214422640704700BF3F8000DF80B582B000AF0346D0
S2144226503960FB71FA790D491346DB009B1A5B0021
S2144226603A68134451F82330002B0AD0FA790749C6
S2144226701346DB009B1A5B003A68134451F823303A
S214422680984700BF0837BD4680BD00BF28160020C9
S21442269090B587B000AF78607868304B984704466C
S2144226A078682F4B984703462340FB6078682D4B4B
S2144226B09847386100237B6148E07B69062B1ED829
S2144226C07B69062B0BD1FB6803F40043002B3AD000
S2144226D03B69DBB279691846234B984733E00122BF
S2144226E07B6902FA03F31A46FB681340002B2AD092
S2144226F03B69DBB2796918461B4B984723E07B69F6
S2144227000B2B10D87B691133012202FA03F31A46C7
S214422710FB681340002B16D03B69DBB2796918463A
S214422720114B98470FE07B691233012202FA03F3FA
S2144227301A46FB681340002B05D03B69DBB2796929
S2144227401846094B98477B6901337B617B690D2BA1
S214422750B3D900BF1C37BD4690BD00BF31214200F1
S21442276049214200492242004926420080B500AF34
S2144227700248034B984700BF80BD00BF00000B4095
S2144227809126420080B500AF0248034B984700BFEF
S21442279080BD00BF00400B409126420080B584B009
S2144227A000AF78607868064B9847F860F868054B43
S2144227B098470220044B984700BF1037BD4680BD5D
S2144227C081224200659142006121420080B58AB072
S2144227D000AFF860B9607A607B6846F2A81202FBE6
S2144227E003F2BB6813445A1E7B6846F2A81101FBEB
S2144227F003F3B2FBF3F3802B01D9002386E0BB68D8
S2144228005A087B684FF4FA5101FB03F39A4201D20D
S21442281000237BE0082387F827304FF0FF333B62E4
S2144228200823FB772AE0FB7F7A6802FB03F34FF428
S2144228307A7202FB03F3BA68B2FBF3F3802B1AD820
S214422840FB7F7A6802FB03F34FF47A7202FB03F2D1
S214422850BB68B3FBF2F102FB01F29B1ABB61BA6999
S2144228603B6A9A4207D2BB693B62FB7F87F82730B6
S2144228703B6A002B06D0FB7F0133FB77FB7F192B8D
S214422880D1D900E000BF97F827307A6802FB03F3FD
S2144228904FF47A7202FB03F3BA68B2FBF3F3FB75AA
S2144228A0FB7D012B01D8002330E097F82730A3F1B7
S2144228B0080213465B0013445B00164A13443B610E
S2144228C0F868154B98473B69DB78013B03F00702F3
S2144228D03B699B78013B1B0103F070031A433B693B
S2144228E05B78013B1B0203F4E0631A433B691B79A6
S2144228F0013B1B0303F440531A43FB7D013B1B047D
S21442290003F4FE031A43FB685A610123184628372C
S214422910BD4680BDDCFF4200C529420080B586B078
S21442292000AFF860B9607A607A68B968F868174BA1
S214422930984778617B69002B01D1002321E0F86833
S214422940134B9847F868134B984700237B61002344
S2144229503B6106E0F868104B984778613B69013363
S2144229603B617B6903F40013002B03D13B690B4A9E
S2144229709342EFD93B690A4A934201D1002300E0D1
S214422980012318461837BD4680BD00BFCD274200FA
S214422990612D4200A52942001D2A42009F86010061
S2144229A0A086010080B483B000AF78607B681B6865
S2144229B043F001027B681A6000BF0C37BD465DF8E3
S2144229C0047B704780B483B000AF78607B681B6836
S2144229D023F001027B681A6000BF0C37BD465DF8E3
S2144229E0047B704780B483B000AF786039607B6800
S2144229F03A685A6000BF0C37BD465DF8047B7047A4
S214422A0080B483B000AF786039607B683A689A6079
S214422A1000BF0C37BD465DF8047B704780B483B078
S214422A2000AF78607B681B6918460C37BD465DF878
S214422A30047B704780B485B000AF78600B46FB706D
S214422A407B685B6A23F0FF03FB60FA78FB681A43F5
S214422A507B685A6200BF1437BD465DF8047B7047F8
S214422A6080B483B000AF78600B46FB70FB787A6820
S214422A705B01134403F504731B6818460C37BD46C6
S214422A805DF8047B704780B485B000AF78603960EB
S214422A903B681B68FB73FB7B3A689279120402F42C
S214422AA0702242F4000279685B010B4403F5077317
S214422AB01A6000BF1437BD465DF8047B704780B489
S214422AC085B000AF786039603B681B68FB733B6833
S214422AD01B79002B2FD1FB7B7A6810335B011344A2
S214422AE000221A60FB7B7A6810335B01134404337E
S214422AF000221A60FB7B7A685B01134403F502737B
S214422B0000221A60FB7B7A685B01134403F5057367
S214422B1000221A60FB7B7A685B01134403F5067356
S214422B2000221A60FB7B7A685B01134403F5077345
S214422B3000221A6050E0FB7BFA7B79681032520121
S214422B400A44126822F470223968C97909040A4391
S214422B50796810335B010B441A603B685B79002B43
S214422B6016D0FB7B3A68D26842F00052796810333E
S214422B705B010B4404331A60FB7B3A68126942F0ED
S214422B80005279685B010B4403F502731A6011E048
S214422B90FB7B3A68D268796810335B010B44043396
S214422BA01A60FB7B3A68126979685B010B4403F54D
S214422BB002731A60FB7BFA7B7968103252010A4430
S214422BC0126822F0E0623968097909060A43796890
S214422BD010335B010B441A601437BD465DF8047B24
S214422BE07047000080B586B000AF78603960002339
S214422BF07B613B681B68FB743B689B68FB60FB68B9
S214422C0003F40003002B06D0FB6803F08073002B0E
S214422C1001D002237B61FB7C7A685B01134403F597
S214422C2003731B6823F060423B685A61FB681B0CC7
S214422C30DBB203F00F03DAB23B689A71FB7C7A6828
S214422C405B01134403F505731A683B689A613B6857
S214422C509B79042B08D9FB7C7A685B01134403F505
S214422C6006731A683B68DA61FB7C7A685B01134438
S214422C7003F504731A683B689A603B689B68FB607E
S214422C80FB6803F08073002B03D07B6943F0040398
S214422C907B6139687868034B98477B6918461837D2
S214422CA0BD4680BD872A420080B584B000AF7860BA
S214422CB039603B681B68FB73FB7B19467868274B79
S214422CC0984702463B689A603B689B68BB60BB6815
S214422CD003F40003002B01D101233BE03B685B7900
S214422CE0002B0BD0FB7B3A68126942F0005279689F
S214422CF05B010B4403F502731A6008E0FB7B3A68FB
S214422D00126979685B010B4403F502731A60FB7B18
S214422D103A68926979685B010B4403F505731A6059
S214422D203B689B79042B08D9FB7B3A68D269796861
S214422D305B010B4403F506731A60FB7B3A68927993
S214422D40120402F4702279685B010B4403F50773A0
S214422D501A60002318461037BD4680BD612A4200DD
S214422D6080B58CB000AF786000233B74002387F8B0
S214422D702F300DE097F82F30FB6007F10C03194611
S214422D807868074B984797F82F30013387F82F30EB
S214422D9097F82F30072BEDD900BF3037BD4680BDA0
S214422DA0BF2A420080B483B000AFEFF310837B604B
S214422DB07B68002B0CBF01230023DBB23B6072B65C
S214422DC0BFF35F8F044B00221A703B6818460C37DD
S214422DD0BD465DF8047B70473501002080B483B061
S214422DE000AF78607B68002B14BF01230023DBB260
S214422DF018460C37BD465DF8047B704780B582B0F6
S214422E0000AF78607868074B98470346002B05D09A
S214422E10054B01221A70BFF35F8F62B600BF0837B8
S214422E20BD4680BDDD2D42003501002080B584B010
S214422E3000AFF860B9607A607B681B0203F4706288
S214422E40BB68134343F080631946F868034B9847C0
S214422E50002318461037BD4680BD00BFA50000209F
S214422E6080B586B000AFF860B9607A60BB680E2B5A
S214422E7002D0BB680F2B02D14FF0FF3316E00D4B4A
S214422E80984778617B681B0223F07F4323F0FF0359
S214422E90BA68D2B2134343F0B4431946F868064BB5
S214422EA0984738617869054B98473B691846183702
S214422EB0BD4680BDA52D4200C1000020FD2D42002A
S214422EC080B485B000AF7860054BFB60FB687A68DB
S214422ED0C3F8142100BF1437BD465DF8047B704723
S214422EE000020E4080B485B000AFF860B9607A60E8
S214422EF0BB68002B07D0BB681A68FB681A60BB68C1
S214422F005A68FB685A607B68002B07D07B681A6851
S214422F10FB681A617B685A68FB685A6100BF1437BF
S214422F20BD465DF8047B704780B483B000AF7860DE
S214422F3039603A6840F2011313407A68136200BF60
S214422F400C37BD465DF8047B7047000080B483B002
S214422F5000AF78607B68044A1A6000BF0C37BD46F3
S214422F605DF8047B704700BF050000A580B582B0BF
S214422F7000AF78607868034B984700BF0837BD4675
S214422F8080BD00BF6591420080B582B000AF7860D8
S214422F901320034B984700BF0837BD4680BD00BF8D
S214422FA06D2F420080B483B000AF786039607B6892
S214422FB05B6823F470227B685A607B685A683B6879
S214422FC01B0403F470231A437B685A6000BF0C3715
S214422FD0BD465DF8047B704780B483B000AF78602E
S214422FE039607B685B6823F07F427B685A607B6807
S214422FF05A683B681B061A437B685A6000BF0C3708
S214423000BD465DF8047B704780B485B000AFF8607B
S214423010B9607A607B68002B0CD0FB68BA680C32C9
S21442302053F8223043F00101FB68BA680C3243F889
S21442303022100BE0FB68BA680C3253F8223023F0B9
S2144230400101FB68BA680C3243F8221000BF1437FD
S214423050BD465DF8047B704780B485B000AFF8602B
S214423060B9607A607B68002B0CD0FB68BA680C3279
S21442307053F8223043F00201FB68BA680C3243F838
S21442308022100BE0FB68BA680C3253F8223023F069
S2144230900201FB68BA680C3243F8221000BF1437AC
S2144230A0BD465DF8047B704780B485B000AFF860DB
S2144230B0B9607A607B68042B18D1FB68BA680C3218
S2144230C053F8223023F00801FB68BA680C3243F802
S2144230D02210FB68BA680C3253F8223043F00401DF
S2144230E0FB68BA680C3243F822102AE07B68002B51
S2144230F018D1FB68BA680C3253F8223023F0080124
S214423100FB68BA680C3243F82210FB68BA680C3285
S21442311053F8223023F00401FB68BA680C3243F8B5
S21442312022100EE07B68082B0BD1FB68BA680C3283
S21442313053F8223043F00801FB68BA680C3243F871
S214423140221000BF1437BD465DF8047B704780B43A
S21442315085B000AFF860B9607A60FB68BA680C3236
S21442316053F8223023F0F001FB68BA680C3243F879
S2144231702210FB68BA680C3253F822207B6842EA77
S2144231800301FB68BA680C3243F8221000BF1437BA
S214423190BD465DF8047B704780B485B000AF78606A
S2144231A039603A687B6813445A1E7B68B2FBF3F375
S2144231B0FB60FB68002B02DDFB68FF2B02DD4FF055
S2144231C0FF3301E0FB681BB218461437BD465DF874
S2144231D0047B704780B485B000AFF860B960134690
S2144231E0FB71FB79002B02D14FF0FF331BE0FB68EB
S2144231F0BA680C3253F8223023F47F41FB68BA682F
S2144232000C3243F82210FB68BA680C3253F822207C
S214423210FB791B029BB242EA0301FB68BA680C3296
S21442322043F82210002318461437BD465DF8047B47
S214423230704780B485B000AFF860B96011461A4650
S2144232400B46FB711346BB71FB68BA680C3253F8E7
S214423250223099B2FB68BA680C3243F82210FB68F7
S214423260BA680C3253F82220FB791B0403F47F031E
S214423270B97909060B4342EA0301FB68BA680C3285
S21442328043F8221000BF1437BD465DF8047B7047F2
S21442329080B485B000AFF860B9607A60BA687B687F
S2144232A01A43FB681A6100BF1437BD465DF8047BBB
S2144232B0704780B487B000AFF860B9607A60FA6849
S2144232C0BB689B0113447B617B6902221A607B695F
S2144232D04FF0FF329A627B691B6A7B697A685A6052
S2144232E000BF1C37BD465DF8047B704780B483B090
S2144232F000AF786039607A683B689B0113440522C8
S2144233001A6000BF0C37BD465DF8047B704780B438
S21442331083B000AF786039607A683B689B0113449B
S21442332002221A6000BF0C37BD465DF8047B704728
S21442333080B485B000AFF860B9607A60FA68BB685E
S2144233409B0113441C337A681A6000BF1437BD468B
S2144233505DF8047B704780B487B000AFF860B96010
S2144233607A60FA68BB689B0113447B617B697A6822
S2144233705A6200BF1C37BD465DF8047B704780B476
S21442338085B000AF786039607A683B689B01134429
S214423390FB60FB681B6A18461437BD465DF8047B23
S2144233A0704780B483B000AF78607B6808221A60AA
S2144233B07B6820221A607B6804221A6000BF0C37A2
S2144233C0BD465DF8047B704780B584B000AF786038
S2144233D039600023FB607B684FF0FF329A627B685D
S2144233E01B6A78680E4B984778680E4B98473B683E
S2144233F059683B681B681A4678680B4B98470346E1
S214423400012B01D10123FB603B685B7A012B02D181
S2144234107B6840221A60FB6818461037BD4680BD5E
S21442342065374200A33342002D34420080B489B04F
S21442343000AFF860B9607A600023FB61BB68344A2B
S214423440934201D901235DE0BB68324A934237D9A1
S2144234507B68314AA2FB03239B0B043B7B61BA6821
S2144234602E4B13449B007A68B2FBF3F3043B3B615A
S21442347005E0FB690133FB617B695B087B617B6925
S214423480FF2B09D9FB69062BF3D905E0FB6901330B
S214423490FB613B695B083B613B69FF2B02D9FB69D9
S2144234A0062BF3D97B69DAB23B691B029BB21A43FD
S2144234B0FB691B0403F4E0231A43FB681A6120E00D
S2144234C0BB685B007A68B2FBF3F3043BBB6105E082
S2144234D0FB690133FB61BB695B08BB61BB69FF2BC0
S2144234E002D9FB69062BF3D9BB69DAB2BB691B0268
S2144234F09BB21A43FB691B0403F4E0231A43FB689E
S2144235001A61002318462437BD465DF8047B70478F
S214423510801A060000DC0500F11976050012FD3F10
S21442352080B485B000AF786039603B68002B01D12B
S21442353000231DE07B681B78FB603B68012B09DD9E
S214423540FB681B02FB607B6801331B781A46FB68EC
S2144235501343FB603B68022B09DDFB681B02FB60E2
S2144235607B6802331B781A46FB681343FB60FB6892
S21442357018461437BD465DF8047B704780B588B060
S21442358000AF786039603B68DB68FB613B689B68EC
S214423590BB610023FB7547F230533B61FB69002B4E
S2144235A001D1012369E07B6800225A603B681B7C9C
S2144235B01B0403F4FE023B685B681B0203F4407381
S2144235C0134343F480527B685A607B680022DA6079
S2144235D03A683B685B68194610462A4B984702464B
S2144235E07B68DA60FB69012B05D17B6803221A608F
S2144235F00123FB7534E07B6801221A600023FB75C9
S2144236002EE07B681B6AFB60FB6803F48073002B2A
S21442361001D0052331E03B695A1E3A61002B01D1A5
S21442362009232AE0FB69012B07D1FB7D002B04D13D
S2144236307B6802221A600123FB75FB6803F00203D3
S214423640002B00D10CE0BB695A1CBA617A68126B37
S214423650D2B21A70FB69013BFB6147F230533B61C1
S214423660FB69002BCDD100BF7B681B6A03F00103C8
S214423670002BF9D07B681B6A002318462037BD46CC
S21442368080BD00BF2135420080B586B000AF78606D
S21442369039603B68DB687B613B689B683B617B6962
S2144236A0002B01D1012356E07B6800225A603B681A
S2144236B01B7C1B0403F4FE023B685B681B0203F49C
S2144236C040731A437B685A607B680022DA603A6825
S2144236D03B685B6819461046214B984702467B6812
S2144236E0DA6019E07B681B6AFB60FB6803F4807350
S2144236F0002B01D005232EE0FB6803F00403002BC9
S21442370000D109E03B695A1C3A611B781A467B682D
S2144237105A637B69013B7B617B69002BE2D17B6804
S2144237201B6AFB60FB6803F48073002B01D0052301
S21442373011E0FB6803F00403002B00D1EFE700BF63
S2144237407B6802221A6000BF7B681B6A03F0010393
S214423750002BF9D0002318461837BD4680BD00BF5F
S2144237602135420080B483B000AF78607B68802207
S2144237701A607B681B6B00BF0C37BD465DF8047B46
S214423780704780B485B000AF786039600023FB6034
S2144237907B68AC221A603B681A683B685B68B2FB7F
S2144237A0F3F31B09FB60FB68002B03D0FB68B3F501
S2144237B0803F01D301230FE07B68FA681A623B68B8
S2144237C09A687B685A607B6840F20222C3F82021DE
S2144237D07B6850221A60002318461437BD465DF8AF
S2144237E0047B704780B483B000AF78600B46FB70B2
S2144237F07B685B6903F00203002B01D1012303E0DF
S214423800FA787B68DA61002318460C37BD465DF8C5
S214423810047B704780B483B000AF786039607B68C1
S2144238205B6903F00103002B01D1012305E07B68AD
S2144238309B69DAB23B681A70002318460C37BD46BD
S2144238405DF8047B704780B489B000AFF860B96019
S2144238507A60BB681A017B689A4202D81023FB61E1
S21442386001E00823FB617B68DA00FB69B96801FB6B
S21442387003F35B081A44FB69B96801FB03F3B2FB26
S214423880F3F3BB61BB69DB087B61BB6903F00703EB
S2144238903B617B69002B03D07B69B3F5803F01D344
S2144238A001230FE0FB69082B05D1FB685B6843F4F4
S2144238B00022FB685A603B691A047B691A43FB681C
S2144238C01A62002318462437BD465DF8047B7047CB
S2144238D080B582B000AF786078680F4B98477B68B7
S2144238E000225A607B6800225A627B6800229A62F3
S2144238F078680A4B98477868094B98477868094B26
S21442390098477868084B98477868084B984700BFAE
S2144239100837BD4680BD00BFD93A4200CF39420083
S214423920033A42001D3A4200553A4200393A4200B2
S21442393080B584B000AFF860B9607A60F8681A4B18
S21442394098471A4B00221A60BB68002B09D0BB6806
S2144239501B687A681946F868154B98470346002B49
S21442396001D001231BE0BB685A68BB689B681A43B8
S214423970BB681B691A43BB68DB681A430B4B1B6860
S21442398013430A4A1360094B1B68084A1360FB68D4
S2144239905A68064B1B681A43FB685A60002318464F
S2144239A01037BD4680BD00BFD1384200F810002017
S2144239B04738420080B483B000AF78607B684022CC
S2144239C01A6000BF0C37BD465DF8047B704780B472
S2144239D083B000AF78607B6888221A6000BF0C37DD
S2144239E0BD465DF8047B704780B483B000AF786014
S2144239F07B6810221A6000BF0C37BD465DF8047B18
S214423A00704780B483B000AF78607B6824221A6027
S214423A1000BF0C37BD465DF8047B704780B483B068
S214423A2000AF78607B684FF480721A6000BF0C3734
S214423A30BD465DF8047B704780B483B000AF7860C3
S214423A407B684FF400321A6000BF0C37BD465DF803
S214423A50047B704780B483B000AF78607B684FF4D5
S214423A6000221A6000BF0C37BD465DF8047B7047E3
S214423A7080B483B000AF786039607B685B6903F0DE
S214423A800203002B01D1012305E03B68C3F3080281
S214423A907B68DA61002318460C37BD465DF8047B26
S214423AA0704780B483B000AF786039607B685B69EA
S214423AB003F00103002B01D1012306E07B689B69DA
S214423AC0C3F308023B681A60002318460C37BD460B
S214423AD05DF8047B7047000080B483B000AF786026
S214423AE07B68044AC3F8E42000BF0C37BD465DF845
S214423AF0047B70470041535580B485B000AF786070
S214423B003960104A3B68B2FBF3F3FB60FA6813462F
S214423B101B039B1ABB607A68FB689A4203D37A6897
S214423B20BB689A4202D94FF6FF7305E07A68FB6893
S214423B30B2FBF3F3C3F30B0318461437BD465DF8E6
S214423B40047B70470020A10780B485B000AFF860C0
S214423B50B96011461A460B46FB801346BB80FB886B
S214423B60C3F30B02BB681A43BB881B041946054BBA
S214423B700B401A43FB685A6000BF1437BD465DF8D7
S214423B80047B70470000FF0F80B483B000AF7860BC
S214423B907B68064A934202D17B68054A1A6000BF98
S214423BA00C37BD465DF8047B704700BF50180E4088
S214423BB0010000A580B483B000AF78607B68072B15
S214423BC025D801A252F823F0E93B4200EF3B4200DF
S214423BD0F53B4200FB3B4200FF3B4200033C4200B7
S214423BE0073C42000B3C42004FF4FA4310E04FF4CD
S214423BF000430DE04FF400430AE0084B08E0084B50
S214423C0006E0084B04E0074B02E0064B00E00023C8
S214423C1018460C37BD465DF8047B704700093D00E8
S214423C2000127A00001BB70080B500AF0520044B97
S214423C309847024613469B0013445B00184680BDD5
S214423C40B53B420080B500AF024B984703465B083F
S214423C50184680BD293C420080B48BB000AF7860E5
S214423C600B46FB707B687B62FB7887F823307B6A67
S214423C70FB61FB69BB61BB695B097B617B6903F5E1
S214423C80001303F207735B023B6197F82330002B65
S214423C9009D07B6AFB60FB6803F01F0301229A404F
S214423CA03B691A6308E07B6ABB60BB6803F01F038C
S214423CB001229A403B695A6300BF2C37BD465DF8E5
S214423CC0047B704780B500AF4FF00040394B9847B1
S214423CD00120394B984732214FF4FA70374B9847B8
S214423CE06420374B984732214FF47A70334B9847CB
S214423CF001212A20334B98476420314B9847322182
S214423D0040F2DC502D4B984701212D202D4B9847F1
S214423D1064202B4B98474FF00050264B9847322151
S214423D204FF4FA60254B984701212B20254B9847A4
S214423D306420234B9847322140F6C4101F4B9847C5
S214423D4001212E201F4B984764201D4B9847002187
S214423D5040F6C410194B98474FF08040154B984791
S214423D60194B5B68DBB21846184B98471848194BF4
S214423D709847194B98471648164B984700211E20DD
S214423D80104B9847104B1B7F002B14BF0123002378
S214423D90DBB2194617200B4B98470B4B1B7F002B69
S214423DA014BF01230023DBB219461820054B98475F
S214423DB000BF80BDA5674200A1694200C53E4200E1
S214423DC025844200593C4200CC150020997142009D
S214423DD050180E40893B4200B90A420080B500AFF7
S214423DE03148324B984700212B20314B984732219D
S214423DF04FF4FA702F4B98474FF080402E4B98471F
S214423E0064202E4B984732214FF47A70294B9847BC
S214423E1001212E20264B98476420284B98474FF086
S214423E200050254B98472048204B9847322140F275
S214423E30DC50204B984701212B201D4B984764208D
S214423E401E4B984732214FF4FA601A4B984701218D
S214423E502D20174B98476420184B9847322140F63E
S214423E60C410144B984701212A20114B98476420CE
S214423E70124B98474FF000400F4B98470120104B8B
S214423E80984732214FF4FA700A4B984764200B4BFE
S214423E90984700214FF4FA70064B98470248034B66
S214423EA0984700BF80BD00BF50180E40893B420075
S214423EB0593C4200C53E4200A56742002584420066
S214423EC0A169420080B582B000AF78600B467B8025
S214423ED0264B1B881A467B689A4204D1244B1B8881
S214423EE07A889A423ED07B689AB2204B1A80204A01
S214423EF07B8813807B68642202FB03F31D4A1360AF
S214423F001D4B1B78DBB283F00103DBB2002B05D0DE
S214423F101A4B98470246174B9A6002E0154B184ACE
S214423F209A6014494FF08040164B9847164B03222E
S214423F301A607B88144AD360134B00221A81124BB4
S214423F4001229A72104B0B225A600F4B64221A615E
S214423F500D494FF080400D4B984703214FF080406B
S214423F600B4B984700BF0837BD4680BD0411002062
S214423F7006110020D4140020D0130020453C4200F5
S214423F8000093D00A5924200E0140020259342001D
S214423F901B96420080B582B000AF0346FB71FB79A8
S214423FA0002B0CD100214FF4FA602F4B98472F4B31
S214423FB01A882F4B1A802F4B01221A7050E0FB7939
S214423FC0012B09D1322140F6C410274B98472A4B81
S214423FD01B682A4A136043E0274B1A68274B1B6824
S214423FE0D31A234A128893423AD3234B1B68234A56
S214423FF01360234B1B68012B12D11E4B1B78022BDE
S2144240000ED1204B1A881A4B1A801D4B00221A607A
S214424010184B01221A70184B1B681B4A13601FE08C
S214424020144B1B78012B0CD1104B1A88104B1A805C
S214424030104B00221A70322140F6C4100A4B9847A1
S2144240400EE00C4B1B78002B0AD1094B01221A803A
S214424050084B02221A70002140F6C410024B9847C1
S21442406000BF0837BD4680BDC53E4200FA00430049
S214424070FA000020FF1000204C1300200011002000
S21442408098130020FC0043008413002080B500AF44
S214424090334B1B78002B11D0324B1B7883F0010335
S2144240A0DBB2002B0AD0304B1B7883F00103DBB225
S2144240B0002B03D003202D4B984716E02C4B1B7841
S2144240C0DBB2022B0ED0274B1B78002B0AD0264B96
S2144240D01B7883F00103DBB2002B03D00120234B75
S2144240E0984702E00020214B98471E4B1B78002B36
S2144240F034D01F4B1B78DBB2022B2FD01D4B1B78C4
S214424100012B02D11C4B01221A701C4B1B78012B2F
S21442411002D11B4B01221A70174B1B781A46184BBA
S2144241201B781344DBB2174A12781344DAB2164BA2
S2144241301A70154B1A78154B1B789A420AD00A4BBE
S21442414000221A7000211248124B9847124B1B68E5
S214424150124A13600C4B1A780C4B1A7000BF80BD83
S214424160D9130020550B0020A9130020953F42008A
S214424170B8130020560B0020FD100020570B0020DD
S214424180FE100020C913002008110020091100204B
S214424190000009400F3342004C1300203411002027
S2144241A080B582B000AF78600120064B98477868A9
S2144241B0054B98470020034B984700BF0837BD463B
S2144241C080BD00BF953F42002584420080B483B044
S2144241D000AF0346FB7197F90730002B0BDB09490A
S2144241E097F907305B09FA7902F01F02012000FABC
S2144241F002F241F8232000BF0C37BD465DF8047B2F
S214424200704700BF00E100E080B483B000AF786042
S2144242107B68072B25D801A252F823F03D42420084
S21442422043424200494242004F4242005342420009
S214424230574242005B4242005F4242004FF4FA431A
S21442424010E04FF400430DE04FF400430AE0084B01
S21442425008E0084B06E0084B04E0074B02E0064B3A
S21442426000E0002318460C37BD465DF8047B7047D5
S21442427000093D0000127A00001BB70080B500AF6F
S2144242800520044B9847024613469B0013445B00A6
S214424290184680BD0942420080B500AF024B98479F
S2144242A003465B08184680BD7D42420080B48BB010
S2144242B000AF78600B46FB707B687B62FB7887F8C2
S2144242C023307B6AFB61FB69BB61BB695B097B612F
S2144242D07B6903F5001303F207735B023B6197F8B1
S2144242E02330002B09D07B6AFB60FB6803F01F0378
S2144242F001229A403B691A6308E07B6ABB60BB684E
S21442430003F01F0301229A403B695A6300BF2C37D1
S214424310BD465DF8047B704780B483B000AF7860DA
S2144243207B6800221A607B6800221A717B68002232
S2144243305A717B6800229A717B680022DA717B6828
S21442434000229A607B680022DA607B6800221A614B
S2144243507B6800225A617B6800229A617B68002251
S214424360DA6100BF0C37BD465DF8047B704700003B
S21442437080B588B000AFF8607B600B467B81134601
S2144243807B7207F1100300221A605A601A812023BA
S2144243903B747B891B0A9BB2DBB27B747B89DBB2A4
S2144243A0BB747B7AFB74FF233B757B681B0CDBB2CA
S2144243B07B757B681B0ADBB2BB757B68DBB2FB7521
S2144243C00023FB612DE007F11002FB6913441978C4
S2144243D0364AFB6913440A461A70FB690133FA6986
S2144243E0013207F120010A4412F8101C2F4AD15418
S2144243F0FB690233FA69023207F120010A4412F8D5
S214424400101C2A4AD154FB690333FA69033207F176
S21442441020010A4412F8101C244AD154FB69043382
S214424420FB61FB69042BCEDD2148224B98470346AD
S21442443003F08043002B06D01F4B01221A601E4910
S2144244401B481E4B98471C4B01221A601A4B0322EC
S2144244501A71194B0F22DA71174B01225A71164BF9
S2144244600022DA6014491248144B9847124AFB68F5
S2144244701361114B08229A710C4B5B680E4AD3614A
S2144244800A4B1B680C4A93610B4909480C4B9847E8
S214424490022107480B4B98470B4B984705200B4B7E
S2144244A0984700BF2037BD4680BD00BF4417002056
S2144244B0000001401D2A42006C150020BF2A42001F
S2144244C0A92C4200352A4200D144420025844200AB
S2144244D080B500AF1922FF212A482B4B98472B4B19
S2144244E01B881B0A9BB2DAB2294B5A70274B1B8891
S2144244F0DAB2274B9A70274B1B881B0A9BB2DAB25A
S214424500234BDA70234B1B88DAB2214B1A71224BAB
S2144245101B78002B06D01E4B00225A711C4B0122E0
S2144245209A7105E01A4B00225A71194B00229A7171
S2144245301A4B1B881B0A9BB2DAB2154B1A72174BE0
S2144245401B88DAB2124B5A72154B1B681B0ADAB238
S2144245500F4B9A72124B1B68DAB20D4BDA72114B42
S2144245601B881B0A9BB2DAB2094B1A730D4B1B8887
S214424570DAB2074B5A730C4B1B78DAB2044B9A7377
S21442458000BF80BD9D160020EDAC4200660B0020A9
S2144245909C160020680B0020CA1300206A0B0020DD
S2144245A0600B0020640B0020C017002080B586B048
S2144245B000AF78600B46FB7007F10C0300221A60CE
S2144245C05A60FB78002B36D15C4B1B78002B02D10D
S2144245D05A4B01221A70594B1B78012B0BD1574B61
S2144245E01B783B7307F10C030133072254491846E4
S2144245F0544B984729E0514B1B78022B0BD14F4B1B
S2144246001B783B7307F10C03013307224E491846C9
S2144246104C4B984719E0494B1B78032B15D1474B17
S2144246201B783B7307F10C030133072247491846B0
S214424630444B984709E005233B7307F10C030133CB
S2144246400722434918463F4B984700237B612DE09B
S21442465007F10C027B69134419783E4A7B6913447E
S2144246600A461A707B6901337A69013207F11801EA
S2144246700A4412F80C1C374AD1547B6902337A69D1
S214424680023207F118010A4412F80C1C314AD1547E
S2144246907B6903337A69033207F118010A4412F838
S2144246A00C1C2C4AD1547B6904337B617B69042BF6
S2144246B0CEDD2948294B9847034603F08043002B1A
S2144246C006D0274B01221A6025492348254B984796
S2144246D02348254B9847224B01221A60204B03223F
S2144246E01A711F4B0F22DA711D4B01225A711C4B55
S2144246F00022DA601A4918481A4B9847FB78002B72
S21442470001D17B6801E04FF4E013154A1361144B64
S21442471008229A710F4B5B68114AD3610D4B1B6896
S2144247200F4A93610E490C48104B984702210A489B
S2144247300F4B984700BF1837BD4680BD9C160020D9
S2144247409D160020B9AB4200A4160020AB160020EE
S214424750C4170020B8160020000001401D2A42005F
S2144247606C150020BF2A420019434200A92C420081
S214424770352A420080B485B000AF0346FB80002352
S214424780FB601A4A137843F007031370174A1378EC
S2144247906FF3C3031370154A13786FF30413137041
S2144247A0124B00225A70114B1B78C3F30203DBB242
S2144247B09A060E4B1B78C3F30013DBB25B061A4312
S2144247C00A4B1B78C3F3C003DBB21B061A43FB88B3
S2144247D01B021343054A52781343FB60FB68184694
S2144247E01437BD465DF8047B704700BF341700207F
S2144247F098B500AF454B1B7883F00103DBB2002B24
S21442480000F08280424B1B7883F00103DBB2002B20
S2144248107AD0404B1A68404B1B68D31AB3F5FA6FEE
S21442482072D93E4B1B7883F00103DBB2002B6BD070
S2144248303B4B1B78002B67D1364B1B68364A1360BE
S214424840384B1B78032B3AD8374B1B78002B36D184
S214424850344B1B78002B13D101217820334B9847D9
S2144248604FF46C40324B98470246324B1A60314BFB
S21442487018684FF65F33032218212F4CA0470CE0EE
S2144248804FF46B402A4B984702462A4B1A60294BF4
S2144248901B6800211846294B9847224B1B78013348
S2144248A0DAB2204B1A701F4B1B78032B2CD90021EF
S2144248B078201E4B98471B4B00221A7024E01A4B56
S2144248C01B78012B20D11E4B1B68002B15D01C4B8E
S2144248D01A681C4B1B689A420FD3134B1B78012B4A
S2144248E00BD1184B1B689BB21846174B9847154B73
S2144248F01B680133134A136006E00B4B00221A7002
S214424900104B00221A60FFE700BF98BD590B0020EB
S214424910A81300204C13002014110020521300202C
S214424920651300209C16002064130020AD4242000E
S214424930754742000C11002071434200AD454200CB
S2144249405815002018110020D176420080B500AFDD
S214424950204B9B69012B02D14FF4FA7300E0FA23F5
S2144249601D4A13601D4B984701461B4B1B681A464F
S2144249701B481C4B98470346002B29D04FF0FF316B
S2144249801748194B98471648184B98471848194BDA
S2144249909847174B00221A60154B01221A71144B86
S2144249A06FF06042DA60124B4FF4E0121A6110491F
S2144249B00B48114B984701210948104B9847104B1A
S2144249C001221A70BFF35F8F62B625200D4B9847BF
S2144249D000BF80BDCC150020101100209942420035
S2144249E0000001401D294200012A4200612D42007A
S2144249F0F015002019434200BF2A4200E529420032
S214424A0035010020CD41420080B48BB000AF7860C3
S214424A100B46FB707B687B62FB7887F823307B6AA9
S214424A20FB61FB69BB61BB695B097B617B6903F523
S214424A30001303F207735B023B6197F82330002BA7
S214424A4009D07B6AFB60FB6803F01F0301229A4091
S214424A503B691A6308E07B6ABB60BB6803F01F03CE
S214424A6001229A403B695A6300BF2C37BD465DF827
S214424A70047B704780B489B000AF78607B68FB6186
S214424A80FB69BB61BB697B617B695B093B613B69D7
S214424A9003F5001303F207735B02DA6BFB69FB60F4
S214424AA0FB6803F01F03012101FA03F31340002BB6
S214424AB014BF01230023DBB218462437BD465DF8F7
S214424AC0047B704780B588B000AF8E4B1A688E4B19
S214424AD01B68D31A41F28732934240F291828B4B43
S214424AE05B68DBB218468A4B98470020894B98474A
S214424AF0844B1B68FB61834B1B68BB61814B1B6805
S214424B007B6100233B6100237B600023FB60002324
S214424B10BB6000211F20804B984700211D207E4B02
S214424B20984700211E207C4B98477C4B98477C4BED
S214424B300B221A717A4B01229A717948794B98471F
S214424B40704B1B68784A1360784B01221A7000211A
S214424B503220774B98474FF4FA70764B9847764B0D
S214424B6098477648764B9847664B1A68FB69D31A3D
S214424B70B3F5FA7F0CD36D4B1B78002B08D0614BF4
S214424B801B68FB613B69DBB203211846684B9847BA
S214424B905C4B1A68644B1B68D31A44F620629342F5
S214424BA006D96848684B98472820684B984727E2BA
S214424BB00020674B9847034683F00103DBB2002B85
S214424BC032D0504B1A68BB69D31A41F288329342AC
S214424BD01ED94C4B1B684C4A136000213220544B62
S214424BE098474A4B01225A77484B3B603868594BA4
S214424BF0984703469AB2584B1A80574B1B88012B4C
S214424C0002D15648564B98472820504B9847F7E1D2
S214424C103C4B1A687B69D31A632B40D9BB68002B7E
S214424C203DD00123FB603AE0364B1B68BB61354BF7
S214424C301B687B610123BB60FB68002B2FD00023DF
S214424C40FB60304B1B68384A1360384B01221A709F
S214424C5000213220364B98470020424B984732215B
S214424C604FF4FA70404B984701211D202A4B984733
S214424C70C820304B984700214FF4FA703A4B984779
S214424C8000211D20244B98470020384B98473B690B
S214424C9001333B613B69062B01D100233B613B69F3
S214424CA0052B00F28D8101A252F823F0C54C42003A
S214424CB0A74D4200034E42007F4E4200FD4E420048
S214424CC05F4F42002A4B984778607B68022B0CD194
S214424CD00E4B1B68632B05D80C4B1B680A330B4ADA
S214424CE0136049E0144B984746E07B68012B43D15A
S214424CF0064B1B680A2B3DD9044B1B680A3B034AEA
S214424D00136039E04C130020A4130020CC15002079
S214424D1099714200953F4200094A42007179420029
S214424D20FC000020A97542001C110020080100204A
S214424D3069514200258442004551420050180E40B7
S214424D40893B420000000140A5294200A1414200A1
S214424D50754A42006D7542002011002000180E4030
S214424D604D2F4200896A4200C53E42001968420001
S214424D7009504200934B98477B68002B00F03E81D7
S214424D803B69DBB2012118468F4B98478F4B1B6815
S214424D90DBB218468E4B98478C4B1B68DBB21846E4
S214424DA08C4B98472AE18C4B00221A708B4B9847C3
S214424DB078607B68022B0CD1844B5B68632B05D8EA
S214424DC0824B5B680A33814A536011E07D4B9847B9
S214424DD00EE07B68012B0BD17C4B5B680A2B05D916
S214424DE07A4B5B680A3B794A536001E0754B9847B9
S214424DF07B68002B01D07A4B98470120794B984725
S214424E00FDE0754B00221A70744B98477860642018
S214424E10754B98477B68022B0FD16C4BDB6841F28F
S214424E206F72934206D8694BDB6803F57A73674A1A
S214424E30D36013E0634B984710E07B68012B0DD19B
S214424E40624BDB68B3F57A7F06D9604BDB68A3F525
S214424E507A735E4AD36001E05A4B98477B68002BD0
S214424E6002D00020614B9847584BDB68604AA2FB51
S214424E7003239B09DBB218465C4B9847BFE0564B70
S214424E8000221A70554B98477860012101204E4BFC
S214424E9098477B68022B0FD14C4B1B6941F26F72CD
S214424EA0934206D8494B1B6903F57A73474A136106
S214424EB013E0444B984710E07B68012B0DD1434BDF
S214424EC01B69B3F57A7F06D9404B1B69A3F57A7303
S214424ED03E4A136101E03B4B98477B68002B02D069
S214424EE00020424B9847394B1B69414AA2FB032399
S214424EF09B09DBB218463D4B984780E001203D4B6C
S214424F009847354B00221A70344B984778607B6836
S214424F10022B0AD12D4B9B69012B03D82B4B022225
S214424F209A610FE0274B98470CE07B68012B09D12A
S214424F30264B9B69022B03D1244B01229A6101E046
S214424F40204B98477B68002B02D00020274B98477F
S214424F501E4B9B69DBB21846244B98474FE0012113
S214424F602D20254B98471C4B00221A701B4B984706
S214424F7078607B68022B0AD1144B1B7F002B03D12F
S214424F80124B01221A770FE00E4B98470CE07B68D3
S214424F90012B09D10D4B1B7F012B03D10B4B00225A
S214424FA01A7701E0074B98477B68002B02D0002017
S214424FB00E4B9847054B1B7F18460C4B98471EE0F6
S214424FC000BFCEE54551420069514200CC15002053
S214424FD039714200697142000801002009504200BE
S214424FE0715242002D6D4200AD6B4200896A42000A
S214424FF0D34D621019684200094A420000BFB0E52C
S21442500000BF2037BD4680BD80B500AF0220434B6F
S2144250109847034683F00103DBB2002B2CD0404B6B
S2144250201B7883F00103DBB2002B25D03D4B0022D8
S2144250301A703D4B1B780133DAB23B4B1A703A4B2F
S2144250401B78642B24D9394B00221A70322140F245
S214425050DC50374B98476420364B9847304B0122FA
S2144250601A70354B1B68354A1360002140F2DC50FB
S2144250702F4B984702234EE00220284B9847034680
S214425080002B05D0284B00221A70254B00221A709E
S2144250900120224B9847034683F00103DBB2002BE4
S2144250A02CD0274B1B7883F00103DBB2002B25D094
S2144250B01D4B00221A701B4B1B780133DAB2194B78
S2144250C01A70184B1B78642B24D9184B00221A707E
S2144250D0322140F2DC50164B98476420154B9847D5
S2144250E0174B01221A70144B1B68144A1360002196
S2144250F040F2DC500E4B984701230CE00120074B50
S21442510098470346002B05D00D4B00221A70054BDC
S21442511000221A700023184680BD00BF754A42001E
S2144251202E1100202F1100203011002008010020EF
S214425130C53E4200258442004C1300201C1100202C
S2144251403111002080B500AF6420054B98473220CD
S214425150044B98476420024B984700BF80BD00BF6F
S214425160A14142002584420080B582B000AF03468A
S2144251700A46FB711346BB71BB79012B03D1374BF1
S21442518001221A7015E0BB79002B03D1334B002263
S2144251901A700EE0314B1B78002B14BF01230023FC
S2144251A0DBB283F00103DBB203F00103DAB22B4B2E
S2144251B01A70FB79042B45D801A252F823F000BF9F
S2144251C0D5514200E1514200FF514200295242006D
S2144251D037524200214B1B781846214B984738E0FD
S2144251E01E4B1B78002B06D01E4B5B68DBB2184664
S2144251F01D4B98472DE000201B4B984729E0174B44
S2144252001B78002B06D0174B5B68DBB21846164B52
S214425210984702E00020144B9847104B1B781946DB
S2144252202D20124B984714E00C4B1B7819462D2024
S2144252300E4B98470DE0094B1B78194664200B4BE2
S214425240984706E00020064B98470020064B9847B2
S21442525000BF00BF0837BD4680BD00BF32110020E8
S2144252604D6E4200CC15002099714200094A420018
S21442527080B483B000AF0D4B5B684FF4FA72B2FB5A
S214425280F3F3FB80FB88DAB2094B1A70074B5B6874
S214425290DBB25B00DBB2013BDAB2064B1A7000BFF0
S2144252A00C37BD465DF8047B704700BFCC15002026
S2144252B00E0100200F01002080B48BB000AF786052
S2144252C00B46FB707B687B62FB7887F823307B6AF1
S2144252D0FB61FB69BB61BB695B097B617B6903F56B
S2144252E0001303F207735B023B6197F82330002BEF
S2144252F009D07B6AFB60FB6803F01F0301229A40D9
S2144253003B691A6308E07B6ABB60BB6803F01F0315
S21442531001229A403B695A6300BF2C37BD465DF86E
S214425320047B704780B500AF354B1B78002B64D0AA
S21442533001216320334B984701216020314B984727
S214425340002162202F4B9847002161202D4B984721
S2144253502D4B1B78002B50D02C4B1B7883F001032F
S214425360DBB2002B49D0264B1B78002B45D0274B6F
S21442537001221A700520264B984701211A20214BFC
S21442538098473220224B984700211A201D4B9847B7
S2144253904FF4FA701E4B984701211A20194B984732
S2144253A032201B4B984700211A20164B9847322032
S2144253B0174B9847174B9847174B08221A71164BAC
S2144253C001229A71154B1B789B00DAB2144B1B785C
S2144253D0012B01D1022300E000231343DAB2114B22
S2144253E01B78012B01D1012300E000231343DAB2DC
S2144253F0094B5A7108480C4B984700BF80BD00BF06
S214425400550B0020B9524200580B00203C11002098
S2144254102584420071794200FC000020C813002017
S214425420570B0020560B0020A975420080B500AFEE
S2144254309A4B1B8840F65332934219D9974B1B8896
S21442544040F61B42934213D8954B1B6840F65332A4
S21442545093420DD9924B1B6840F61B42934207D8A3
S214425460904B00221A70904B1B68904A136081E062
S2144254708A4B1B88B3F5FA7F26D8894B1B68B3F54F
S214425480FA7F21D88A4B1B78002B07D0894B1B7892
S214425490002B03D0834B01221A706AE0824B1A68B3
S2144254A0824B1B68D31AB3F5FA7F62D97E4B1B68D0
S2144254B07E4A13607E4B01221A707E4B01221A707E
S2144254C0784B01221A7054E0744B1B88B3F5486F30
S2144254D013D3734B1B68B3F5486F0ED3724B1A68DF
S2144254E0724B1B68D31AFA2B44D96F4B1B686F4A10
S2144254F013606C4B02221A703CE0684B1B88B3F573
S2144255007A7F1DD3654B1B88B3F52F6F18D2644B39
S2144255101B68B3F57A7F13D3614B1B68B3F52F6FC5
S2144255200ED2614B1A68614B1B68D31AFA2B21D9EB
S2144255305D4B1B685D4A13605A4B03221A7019E092
S214425540564B1B88B3F5FA7F14D9554B1B68B3F5F7
S214425550FA7F0FD9544B1A68544B1B68D31AFA2B4E
S21442556008D9514B1B68514A13604E4B04221A709D
S21442557000E000BF504B1A784A4B1B789A4227D01D
S2144255804E4B98474E4B01221A71464B1B78002BC6
S21442559003D14B4B00229A7102E0494B01229A7189
S2144255A0404B1A78464B5A713C4B1B88454AA2FBE5
S2144255B003231B099BB2DAB2414BDA714048424B95
S2144255C09847384B1A783C4B1A70404B01221A7057
S2144255D03F4B1B8840F65332934219D93C4B1B88AB
S2144255E040F61B42934213D83A4B1B6840F653325E
S2144255F093420DD9374B1B6840F61B42934207D85D
S214425600354B00221A70284B1B68344A1360A4E0BC
S2144256102F4B1B88B3F5FA7F27D82E4B1B68B3F562
S214425620FA7F22D8224B1B78002B07D0214B1B78BF
S214425630002B03D0284B01221A708DE01A4B1A68B1
S214425640264B1B68D31AB3F5FA7F40F28580164B79
S2144256501B68224A1360164B01221A70154B012210
S2144256601A701D4B01221A7076E0194B1B88B3F54F
S214425670486F35D3174B1B68B3F5486F30D30A4B88
S2144256801A68164B1B68D31AFA2B66D9064B1B6848
S214425690124A1360104B02221A705EE0660B00201C
S2144256A0BC0B0020560B00204C130020401100205B
S2144256B0550B0020580B00204811002071794200FB
S2144256C0FC0000201F85EB51A9754200FC1000200B
S2144256D0680B0020C00B0020570B0020441100200E
S2144256E0364B1B88B3F57A7F1DD3344B1B88B3F5F4
S2144256F02F6F18D2324B1B68B3F57A7F13D3304BD9
S2144257001B68B3F52F6F0ED22E4B1A682E4B1B68B2
S214425710D31AFA2B21D92B4B1B682B4A13602B4BDF
S21442572003221A7019E0254B1B88B3F5FA7F14D969
S214425730234B1B68B3F5FA7F0FD9224B1A68224BCC
S2144257401B68D31AFA2B08D91E4B1B681E4A1360D5
S2144257501E4B04221A7000E000BF1D4B1A781B4BEA
S2144257601B789A4227D01B4B98471B4B02221A7132
S214425770164B1B78002B03D1174B00229A7102E07E
S214425780154B01229A71114B1A78134B5A710B4BD7
S2144257901B88124AA2FB03231B099BB2DAB20E4BAA
S2144257A0DA710D480E4B9847084B1A78084B1A7018
S2144257B00C4B02221A7000BF80BD00BF680B00204F
S2144257C0C00B00204C13002044110020570B002031
S2144257D04911002071794200FC0000201F85EB51E0
S2144257E0A9754200FC10002080B400AF144B1B7811
S2144257F0002B1BD0134B1B78DBB2022B16D1124B5D
S2144258001B7883F00103DBB2002B0FD00F4B1A68D4
S2144258100F4B1B68D31A42F20F7293420AD9094BB6
S21442582000221A700B4B01221A7003E0074B1B68CA
S214425830074A136000BFBD465DF8047B704700BF51
S214425840550B0020B8130020A81300204C1300204C
S21442585038110020B913002080B487B000AFF8603A
S214425860B9607A603B60124B7B61BB68A3F58003EC
S2144258705B0A7B82BB689BB2C3F308033B82FB682E
S214425880002B02D0FB687A691A607B68002B02D034
S2144258907B687A8A1A803B68002B02D03B683A8A39
S2144258A01A8000BF1C37BD465DF8047B704700BFB8
S2144258B0000A0E4080B487B000AFF8607B600B46AB
S2144258C07B8113463B817B8903F500535A023B8911
