:020000040040BA
:10000000403500208D0E4000FD0D4000FD0D4000EC
:10001000FD0D4000FD0D4000FD0D40000000000002
:10002000000000000000000000000000FD0D400086
:10003000FD0D400000000000FD0D4000FD0D4000E2
:10004000FD0D4000FD0D4000FD0D4000FD0D400088
:10005000FD0D4000FD0D4000FD0D4000FD0D400078
:10006000FD0D40000D04400025044000FD0D400042
:100070003D044000FD0D4000FD0D4000FD0D400021
:10008000FD0D4000FD0D4000FD0D4000FD0D400048
:10009000FD0D4000FD0D4000FD0D4000FD0D400038
:1000A000FD0D4000FD0D4000FD0D4000FD0D400028
:1000B000FD0D4000FD0D4000FD0D4000FD0D400018
:1000C000FD0D4000FD0D4000FD0D4000FD0D400008
:1000D000FD0D4000FD0D4000FD0D4000FD0D4000F8
:1000E000FD0D4000FD0D4000FD0D4000FD0D4000E8
:1000F000FD0D4000FD0D400010B5054C237833B9CF
:10010000044B13B10448AFF300800123237010BDEA
:100110004404002000000000481F40000C4B43B185
:100120000C480D4910B5AFF300800C48036823B9A3
:1001300010BD0A48036833B97047094B002BF7D04C
:10014000BDE810401847064B002BF5D0184700BFFC
:1001500000000000481F400048040020481F4000E5
:100160000000000080B485B000AF7860054BFB60F4
:10017000FB687A68C3F8142100BF1437BD465DF8E8
:10018000047B704700020E4080B483B000AF03468A
:10019000FB7197F90730002B0BDB094997F9073002
:1001A0005B09FA7902F01F02012000FA02F241F81D
:1001B000232000BF0C37BD465DF8047B704700BFAD
:1001C00000E100E080B483B000AF0346FB7197F913
:1001D0000730002B10DB0B4997F907305B09FA79E0
:1001E00002F01F02012000FA02F2203341F823201E
:1001F000BFF34F8FBFF36F8F00BF0C37BD465DF865
:10020000047B704700E100E080B483B000AF034698
:10021000FB7197F90730002B0CDB094997F9073080
:100220005B09FA7902F01F02012000FA02F2603342
:1002300041F8232000BF0C37BD465DF8047B7047B2
:1002400000E100E080B483B000AF03463960FB7189
:1002500097F90730002B0ADB0D4997F907303A6808
:10026000D2B21201D2B20B4483F800230AE009494A
:10027000FB7903F00F03043B3A68D2B21201D2B209
:100280000B441A7600BF0C37BD465DF8047B7047FF
:1002900000E100E000ED00E080B584B000AF7860E0
:1002A000396078682C4B9847F86078682B4B9847F2
:1002B0000246FB681340FB60FB68002B3CD0002328
:1002C000BB6034E0264ABB681B0113441A683B68D4
:1002D0009A4226D1224ABB681B01134404331A6890
:1002E000FB681340002B1CD01D4ABB681B01134444
:1002F0000C331B681A49BA6812010A44106818497D
:10030000BA6812010A440432126811469847144A26
:10031000BB681B01134404331B68DB43FA681340BA
:10032000FB60BB680133BB60BB68062B03D8FB686E
:10033000002BC7D100E000BF0A4B1B68002B07D081
:10034000094B1B68002B03D0074B1B687868984744
:1003500000BF1037BD4680BD2D0640004506400059
:1003600060040020DC040020D404002080B586B0A6
:1003700000AFF860B9607A603B60214B1B68062BC8
:1003800001D9012338E00023FB7511E0FB7D1B013F
:100390001C4A13443B613B691A68BB689A4204D10A
:1003A0003B695A687B689A4208D0FB7D0133FB7534
:1003B000FA7D134B1B689A42E8D900E000BF3B6905
:1003C000BA681A603B697A685A603B693A689A6011
:1003D0003B693A6ADA60FA7D094B1B6801339A423D
:1003E00004D1074B1B680133054A13603A687968EA
:1003F000F868054B9847002318461837BD4680BD5E
:10040000D0040020600400208905400080B500AFC2
:1004100009210248024B984700BF80BD000E0E40E4
:100420009902400080B500AF0A210248024B98476C
:1004300000BF80BD00100E409902400080B500AFA3
:100440000C210248024B984700BF80BD00140E40AB
:100450009902400080B586B000AFF8600B467A6024
:10046000FB7200237B61F868134B984778614FF06B
:10047000FF31F868114B9847F868114B984797F986
:100480000B3018460F4B984797F90B3018460E4B18
:10049000984797F90B30796818460C4B984797F9AD
:1004A0000B3018460A4B98477969F868094B98470A
:1004B00000BF1837BD4680BD45064000110640000C
:1004C0002D064000C50140000902400045024000E1
:1004D00089014000F505400080B400AF024B18468A
:1004E000BD465DF8047B704700093D0080B500AF54
:1004F000024B98470346184680BD00BFD904400010
:1005000080B582B000AF0748074B9847074B984724
:10051000074B984703461846034B984700BF0837D8
:10052000BD4680BD000E2707A51040003D0F4000CE
:10053000ED04400080B485B000AFF860B9607A6027
:10054000FB68BA68C3F884207B685B004FF4004204
:10055000B2FBF3F3013BC3F30D02FB68C3F88C203D
:1005600000BF1437BD465DF8047B704780B483B08C
:1005700000AF786039607B683A689A6300BF0C37D7
:10058000BD465DF8047B704780B485B000AFF8606D
:10059000B9607A607B6803F01003002B20D0FB6801
:1005A000BA68C3F8B0207B6803F02003002B04D0A6
:1005B000FB68BA68C3F8D42003E0FB68BA68C3F8E4
:1005C000D0207B6803F04003002B04D0FB68BA689E
:1005D000C3F8C02008E0FB68BA68C3F8C42003E091
:1005E000FB68BA68C3F8B42000BF1437BD465DF895
:1005F000047B704780B483B000AF786039607B685B
:100600003A681A6400BF0C37BD465DF8047B70473A
:1006100080B483B000AF786039607B683A685A6410
:1006200000BF0C37BD465DF8047B704780B483B0D3
:1006300000AF78607B68DB6C18460C37BD465DF810
:10064000047B704780B483B000AF78607B689B6C9C
:1006500018460C37BD465DF8047B704780B483B004
:1006600000AF78607B682F2B01D901232FE07B68D6
:100670001F2B13D8194B9A6901217B6801FA03F3E8
:100680001A4001217B6801FA03F39A421ED0134AF3
:1006900001217B6801FA03F3136117E07B68203BBB
:1006A0007B600E4BD3F8082101217B6801FA03F32C
:1006B0001A4001217B6801FA03F39A4206D0074AE7
:1006C00001217B6801FA03F3C2F8003100231846C8
:1006D0000C37BD465DF8047B704700BF00040E4038
:1006E000B0B491B000AF786039601B4B07F10C04D7
:1006F0001D460FCD0FC40FCD0FC495E8070084E849
:1007000007000023FB63FB6B9B0007F140021344CF
:1007100053F8343C3A68B2FBF3F27B68B2FBF3F374
:10072000BB63BB6BB3F5807F06D9FB6B0133FB6307
:10073000FB6B0A2BE7D900E000BFFB6B0A2B04D848
:10074000FB6B1A02BB6B134301E04FF6FF731846B5
:100750004437BD46B0BC7047EC1E400080B584B045
:1007600000AF786039600023FB603B681B68002B9A
:1007700011D03B681A683B689B6819461046164BB7
:100780009847B860BB684FF6FF72934201D1BB68CF
:100790001EE0BB68FB603B685B68002B14D03B68C5
:1007A0005A683B689B68194610460B4B9847B860DF
:1007B000BB684FF6FF72934201D1BB6808E0BB688B
:1007C0001B04FA681343FB607B68FA681A60002315
:1007D00018461037BD4680BDE106400080B487B0A2
:1007E00000AF7860396000237B613B681B683B6128
:1007F0003B685B6803F00F033A68927A5202134336
:100800003A68928A13433A68927D120413433A6815
:10081000D27D520413433A68127E920413433A681D
:10082000128913437B617A683B6910335B0113447F
:100830007A691A603B68DA6879683B6910335B0152
:100840000B4404331A603B681A6979683B695B01A1
:100850000B4403F503731A603B689B7D002B0DD09E
:100860003B689B8B1B041A463B685B8B1A43796879
:100870003B695B010B4403F506731A607B689A6C55
:100880004FF001113B6901FA03F3DB4313407B6135
:100890003B689B7F1A463B699A403B68DB7F194661
:1008A0003B6901FA03F31B0413431A467B691343A4
:1008B0007B617B687A699A647B685A6C4FF001119E
:1008C0003B6901FA03F3DB4313407B613B6893F818
:1008D00020301A463B699A403B6893F8213019460C
:1008E0003B6901FA03F31B0413431A467B69134364
:1008F0007B617B687A695A6401223B6902FA03F3DF
:10090000FB603B6893F82230002B06D07B681A6AA4
:10091000FB681A437B681A6206E07B681A6AFB6808
:10092000DB431A407B681A623B6893F82430022B41
:100930000BD17B68D3F8C03001213A6901FA02F289
:100940001A437B68C3F8C02024E07B68D3F8C0302A
:1009500001213A6901FA02F2D2431A407B68C3F8D6
:10096000C0203B6893F82430012B09D17B689B6E33
:1009700001213A6901FA02F21A437B689A6609E09A
:100980007B689B6E01213A6901FA02F2D2431A4058
:100990007B689A663B6893F82530022B0CD17B6804
:1009A000D3F8C03001213A6901FA02F212041A4365
:1009B0007B68C3F8C02027E07B68D3F8C0300121F2
:1009C0003A6901FA02F21204D2431A407B68C3F872
:1009D000C0203B6893F82530012B0AD17B689B6EC1
:1009E00001213A6901FA02F212041A437B689A66FD
:1009F0000AE07B689B6E01213A6901FA02F2120457
:100A0000D2431A407B689A660023BB603B69DB00D7
:100A10003B617B68DB6EBB60FF223B6902FA03F33C
:100A2000DB431A46BB681340BB603B6893F8233036
:100A30001A463B6902FA03F31A46BB681343BB60CC
:100A40007B68BA68DA663B681B683B613B69002BD0
:100A500015D13B6893F82C30012B09D13B689B6A78
:100A600023F07F4343F080727B68C3F8A02006E048
:100A70003B689B6A23F07F427B68C3F8A020002379
:100A800018461C37BD465DF8047B704780B487B0BC
:100A900000AFF860B9607A60BB681B687B61BB68B7
:100AA0001A697B689A4202D24FF6FF730BE0BB686B
:100AB0007A68DA60FA687B695B01134403F50273B4
:100AC0007A681A60002318461C37BD465DF8047B1F
:100AD000704780B483B000AF7860396001223B6812
:100AE00002FA03F31A467B685A6000BF0C37BD4612
:100AF0005DF8047B704780B483B000AF78603960E4
:100B000001223B6802FA03F31A467B689A6000BF31
:100B10000C37BD465DF8047B7047000080B582B09D
:100B200000AF78607868034B984700BF0837BD4630
:100B300080BD00BF5D06400080B500AF0920054BB9
:100B400098470A20034B98470C20024B984700BF58
:100B500080BD00BF1D0B400080B489B000AF78603D
:100B60007B68FB61FB69BB61BB695A09FB697B61FF
:100B70007B6903F01F03012101FA03F33A61FB6073
:100B80003B69BB60BB6803F5001303F207735B02AC
:100B90001A46FB68536000BF2437BD465DF8047BEE
:100BA000704780B48DB000AF786039607B68FB62BD
:100BB0003B68BB62FB6A7B627B6A5A09FB6A3B62E9
:100BC0003B6A03F01F03012101FA03F3FA61BB61E1
:100BD000BB6A7B61FB693B613B6903F5001303F270
:100BE00007735B02FB607B6903F00803002B03D0F3
:100BF000FB68BA695A6602E0FB68BA691A667B69E3
:100C000003F01003002B04D0FB68BA69C3F89420EA
:100C100003E0FB68BA69C3F890207B6903F0200306
:100C2000002B03D0FB68BA691A6502E0FB68BA6959
:100C30005A657B6903F0C003002B03D0FB68BA69D7
:100C40001A6202E0FB68BA695A627B6903F08003AA
:100C5000002B04D0FB68BA69C3F8842003E0FB686A
:100C6000BA69C3F880207B6903F00103002B06D02A
:100C7000FB681A6FBB691A43FB681A6706E0FB68DA
:100C80001A6FBB69DB431A40FB681A677B6903F084
:100C90000203002B06D0FB685A6FBB691A43FB683E
:100CA0005A6706E0FB685A6FBB69DB431A40FB6872
:100CB0005A6700BF3437BD465DF8047B704780B487
:100CC0008DB000AF78600B46FB707B68FB62FB78F1
:100CD00087F82B30FB6A7B627B6A3B623B6A5B096D
:100CE000FB61FB6903F5001303F207735B02BB6151
:100CF00097F82B30012B09D1FB6A7B617B6903F0EC
:100D00001F0301229A40BB691A610CE097F82B304F
:100D1000002B08D1FB6A3B613B6903F01F030122F2
:100D20009A40BB695A61FB6AFB60FB6803F01F03D2
:100D300001229A40BB69C3F8A02000BF3437BD46EA
:100D40005DF8047B7047000080B500AF274B9847E3
:100D500001216E20264B984701211F20244B9847E4
:100D600001211D20224B984701211E20204B98472E
:100D700001212B201E4B984701212E201C4B984708
:100D800001212A201A4B984701216420184B9847CB
:100D900001212D20164B984701211A20144B98470A
:100DA00001216C20124B984701217020104B98476D
:100DB000002174200F4B984774200F4B9847002157
:100DC00075200C4B984775200B4B984700217620D7
:100DD000084B98477620084B984700217720054B11
:100DE00098477720044B984700BF80BD390B4000DF
:100DF000BF0C4000A30B4000590B400080B400AF73
:100E0000FEE7000080B483B000AFEFF310837B6097
:100E10007B68002B0CBF01230023DBB23B6072B662
:100E2000BFF35F8F044B00221A703B6818460C37E3
:100E3000BD465DF8047B70470A00002080B483B093
:100E400000AF78607B68002B14BF01230023DBB266
:100E500018460C37BD465DF8047B704780B582B0FC
:100E600000AF78607868074B98470346002B05D0A1
:100E7000054B01221A70BFF35F8F62B600BF0837BF
:100E8000BD4680BD3D0E40000A00002080B584B004
:100E900000AF1E4BFB601E4BBB60FA68BB689A42FA
:100EA0000CD007E0BB681A1DBA60FA68111DF96022
:100EB00012681A60BB68174A9342F3D3164BBB60A3
:100EC00004E0BB681A1DBA6000221A60BB68134AAE
:100ED0009342F6D3124BFB60124AFB6823F07F0368
:100EE0009360114B98477860104A104B1B6843F48D
:100EF00070031360BFF34F8FBFF36F8F78680C4B95
:100F000098470C4B98470C4B9847FEE7481F40000A
:100F1000000000204404002044040020400500207C
:100F20000000400000ED00E0050E400088ED00E00C
:100F30005D0E40007D1D40000D12400080B400AFEA
:100F4000524B1B6B03F00303012B14D0012B02D374
:100F5000022B38D07AE04E4B5B6903F08003002B04
:100F600004D04C4B4FF400421A606FE0494B4FF4F1
:100F7000FA421A606AE0454B1B6A03F08073002B4B
:100F800003D0444B444A1A6060E0424B434A1A6023
:100F90003E4B1B6A03F07003102B04D0202B08D0AB
:100FA000002B0ED00EE03B4B1B685B00394A1360F0
:100FB00008E0384B1A6813465B001344354A136047
:100FC00000E000BF42E0314B1B6A03F08073002B4E
:100FD00003D0304B304A1A601CE02E4B2F4A1A6067
:100FE0002A4B1B6A03F07003102B04D0202B08D06F
:100FF000002B0ED00EE0274B1B685B00254A1360C8
:1010000008E0244B1A6813465B001344214A13601E
:1010100000E000BF1D4B1B6B03F00303022B14D138
:101020001A4B9B6A1B0CC3F30A030133194A12685B
:1010300002FB03F3174A1360144B9B6ADBB2154A99
:101040001268B2FBF3F3134A136000BF0F4B1B6B24
:1010500003F07003702B08D10E4B1B68104AA2FBE3
:1010600003235B080B4A13600AE0084B1B6B1B0948
:1010700003F00703074A126822FA03F3054A1360D4
:1010800000BFBD465DF8047B704700BF00040E4002
:1010900010180E400C000020001BB70000093D0096
:1010A000ABAAAAAA80B483B000AF78607B68194A63
:1010B000934204D8184B4FF080621A6023E07B689B
:1010C000164A934203D8144B154A1A601BE07B68FA
:1010D000144A934203D8104B134A1A6013E07B68FA
:1010E000124A934203D80C4B114A1A600BE07B68FA
:1010F000104A934204D8084B4FF004221A6002E0D1
:10110000054B0D4A1A6000BF0C37BD465DF8047BE5
:10111000704700BFFF2C3101000A0E40FF596202E8
:1011200000010004FF86930300020004FFB3C4041F
:1011300000030004FFE0F5050005000480B483B05F
:1011400000AF0346FB7197F90730002B0BDB094911
:1011500097F907305B09FA7902F01F02012000FAC3
:1011600002F241F8232000BF0C37BD465DF8047B36
:10117000704700BF00E100E080B400AF024B1846AA
:10118000BD465DF8047B704700093D0080B500AFA7
:10119000024B98470346184680BD00BF79114000B6
:1011A00080B48BB000AF78600B46FB707B687B62CD
:1011B000FB7887F823307B6AFB61FB69BB61BB6905
:1011C0005B097B617B6903F5001303F207735B0224
:1011D0003B6197F82330002B09D07B6AFB60FB68EA
:1011E00003F01F0301229A403B691A6308E07B6AFF
:1011F000BB60BB6803F01F0301229A403B695A633E
:1012000000BF2C37BD465DF8047B704780B500AF4A
:101210000B4B98470B4B4FF400425A600A4B9847D0
:101220004FF44060094B98470920094B9847094BF8
:101230009847094B9847094B9847094B9847FEE751
:101240000105400050180E40490D40006501400066
:101250005D064000651240008912400025144000E0
:101260008D19400080B500AF01216E20054B9847D5
:1012700001216C20034B984701217020014B9847B6
:1012800000BF80BDA111400080B500AF24202E4BCF
:10129000984700214FF080402C4B984701214FF098
:1012A00080402A4B984702214FF08040274B9847B7
:1012B00003214FF08040254B9847254B254A1A6063
:1012C000234B00225A60244B98470246204B9A60D9
:1012D0001F494FF08040214B9847214B00221A8133
:1012E0001F4B00229A721E4B0B225A601C4B642229
:1012F0001A611B4B0A22DA60194B01221A60184945
:101300004FF08040174B984701214FF08040164B1B
:1013100098470A2212494FF08040144B9847104BCF
:1013200000221A600E494FF080400E4B9847002172
:101330004FF080400C4B98470A2209494FF08040FB
:101340000A4B984700BF80BD5D064000F70A400089
:10135000E004002090D003008D1140005D074000A4
:10136000EC040020DD074000D30A40008D0A400055
:1013700080B582B000AF78600B467B80204B1B8825
:101380001A467B689A4204D11E4B1B887A889A427F
:1013900032D07B689AB21A4B1A801A4A7B88138023
:1013A00003214FF08040184B9847184B03221A60D6
:1013B0007B68642202FB03F3154A136014494FF063
:1013C0008040144B984711494FF08040124B98478A
:1013D00003214FF08040114B98477B881A460B49F8
:1013E0004FF080400E4B98477B88002B04D103219F
:1013F0004FF08040044B984700BF0837BD4680BD82
:10140000D8040020DA040020F70A4000EC04002091
:10141000E00400205D074000DD074000D30A4000E3
:101420008D0A40002DE9F04F8BB000AF4FF0004126
:10143000BC48BD4B984701216420BC4B98476321B1
:101440003220BB4B9847BB4B9847034619464FF099
:1014500000020B461446DB1844EB04045B1844EB13
:101460000204660146EAD3665D015B1944EB06049B
:101470005B1844EB020443F2AF614FF000025D18C9
:1014800044EB020628463146AB4C43F2B0624FF0C3
:101490000003A04703460C461846A84B9847632113
:1014A0004FF47A70A24B984701212A209F4B98470E
:1014B000A04B9847034619464FF000020B461446CE
:1014C000DB1844EB04045B1844EB02044FEA441BB2
:1014D0004BEAD36B4FEA431A13EB0A0344EB0B04BA
:1014E000C91842EB040243F2AF634FF00004CD1879
:1014F00042EB0406284631468F4C43F2B0624FF06F
:101500000003A04703460C4618468C4B98476321BE
:1015100040F2DC50864B984701212D20834B9847A1
:10152000844B9847034619464FF000020B46144679
:10153000DB1844EB04045B1844EB0204600178629E
:10154000786A40EAD360786258013862D7E9085671
:10155000ED1846EB04062B4634465B1844EB0204B8
:1015600043F2AF614FF000025D1844EB02062846DB
:101570003146714C43F2B0624FF00003A04703467E
:101580000C4618466D4B98474FF080416548664BB6
:10159000984763214FF4FA60654B984701212B204F
:1015A000624B9847634B9847034619464FF0000239
:1015B0000B461446DB1844EB04045B1844EB0204AE
:1015C0006001F861F86940EAD360F8615801B861D8
:1015D000D7E90656ED1846EB04062B4634465B1851
:1015E00044EB020443F2AF614FF000025D1844EB9C
:1015F000020628463146504C43F2B0624FF00003D9
:10160000A04703460C4618464C4B9847632140F6CA
:10161000C410474B984701212E20444B9847454B17
:101620009847034619464FF000020B461446DB1854
:1016300044EB04045B1844EB0204600178617869B0
:1016400040EAD360786158013861D7E90456ED1853
:1016500046EB04062B4634465B1844EB020443F287
:10166000AF614FF000025D1844EB02062846314698
:10167000314C43F2B0624FF00003A04703460C46E2
:1016800018462E4B98474FF000512648264B984756
:1016900000211A20254B9847294B2A4A1A602849CD
:1016A0004FF08040284B9847284B02221A60274968
:1016B0004FF08040264B984702214FF08040254B49
:1016C00098470A2221494FF08040234B9847002138
:1016D0003220174B9847174B9847034619464FF04F
:1016E00000020B461446A000F860F86840EA9370C8
:1016F000F8609B00BB60D7E902345B1844EB02043E
:101700004FEA041949EA13794FEA0318B8EB0308C2
:1017100069EB04094FEA89037B607B6843EA9873AD
:101720001CE000BF000E0E406D054000A1114000FE
:10173000711340008D1140006D1A4000010000201F
:10174000E0040020A02526005D074000EC040020F6
:10175000DD074000D30A40008D0A40007B604FEA5D
:1017600088033B60D7E9008941464A4643F2AF63AC
:101770004FF00004CD1842EB040628463146084CD1
:1017800043F2B0624FF00003A04703460C461846F0
:10179000044B984700BF2C37BD46BDE8F08F00BF13
:1017A0006D1A40000100002080B582B000AF0346F2
:1017B000FB71FB79002B21D14C4B1B78DBB2002B4A
:1017C00014BF01230023DBB283F00103DBB203F07B
:1017D0000103DAB2454B1A70444B1B78DBB283F03D
:1017E0000103DBB2002B04D001212B20404B984792
:1017F00078E000212B203E4B984773E0FB79012BCA
:1018000021D13A4B1B78DBB2002B14BF01230023FC
:10181000DBB283F00103DBB203F00103DAB2334B36
:101820001A70324B1B78DBB283F00103DBB2002B62
:1018300004D001212E202E4B984753E000212E206A
:101840002B4B98474EE0FB79022B4BD1274B1B7853
:10185000DBB2002B35D001211A20254B9847254BB0
:1018600002221A6023494FF08040234B98470221FF
:101870004FF08040214B98470A221E494FF080408C
:101880001F4B9847194B00221A701A4B03221A60FB
:101890001C4B1D4A1A601B494FF080401B4B984758
:1018A00014494FF08040144B984703214FF080407B
:1018B000124B98470A220F494FF08040104B98472F
:1018C00010E000211A200A4B984702214FF0804077
:1018D0000F4B9847054B01221A7003214FF08040AF
:1018E0000B4B984700BF0837BD4680BD1000002055
:1018F000A1114000EC040020DD074000D30A4000A5
:101900008D0A4000E004002090D003005D074000F5
:10191000F70A400080B582B000AF786039607B681C
:10192000092B05D13B68022B02D10020024B9847BE
:1019300000BF0837BD4680BDA917400080B582B002
:1019400000AF786039607B68092B05D13B68042BB8
:1019500002D10120024B984700BF0837BD4680BD29
:10196000A917400080B582B000AF786039607B680D
:10197000092B05D13B68202B02D10220024B98474E
:1019800000BF0837BD4680BDA917400090B583B0A1
:1019900002AF09202B4B98470A2202212A482B4BE1
:1019A00098472B4B00937923022209212648294C82
:1019B000A0470920284B9847002209212248274B9D
:1019C000984702212048264B984709201D4B9847ED
:1019D0000A2204211C481D4B9847224B009379236F
:1019E0000422092118481B4CA04709201A4B98478C
:1019F000002209211448194B984704211248184B1A
:101A0000984709200F4B98470A2220210E480F4B78
:101A10009847154B00937923202209210A480D4C41
:101A2000A04709200C4B98470022092106480B4B80
:101A30009847202104480A4B984700BF0437BD4609
:101A400090BD00BF5D064000000E0E403505400011
:101A5000151940006D0340003D1140005504400041
:101A6000F50540003D1940006519400053B94AB9D9
:101A7000002908BF00281CBF4FF0FF314FF0FF3096
:101A800000F07AB9ADF1080C6DE904CE00F006F86B
:101A9000DDF804E0DDE9022304B070472DE9F047EA
:101AA0008C460D460446089E002B51D18A421746AB
:101AB0006DD9B2FA82FEBEF1000F0BD0CEF1200C30
:101AC00001FA0EF520FA0CFC02FA0EF74CEA050CAE
:101AD00000FA0EF44FEA174A250CBCFBFAF81FFA7D
:101AE00087F90AFB18CC45EA0C4508FB09F3AB4221
:101AF0000AD9ED1908F1FF3280F02381AB4240F2A0
:101B00002081A8F102083D44ED1AA4B2B5FBFAF019
:101B10000AFB105544EA054400FB09F9A14509D91F
:101B2000E41900F1FF3380F00A81A14540F20781FA
:101B300002383C44A4EB090440EA08400021002E8E
:101B400061D024FA0EF4002334607360BDE8F0879E
:101B50008B4207D9002E54D0002186E82100084688
:101B6000BDE8F087B3FA83F1002940F08E80AB42E4
:101B700002D3824200F2FA80841A65EB0305012049
:101B8000AC46002E3FD086E81010BDE8F08712B9B1
:101B90000127B7FBF2F7B7FA87FEBEF1000F34D189
:101BA000EB1B3A0C1FFA87FC0121B3FBF2F8250C62
:101BB00002FB183345EA03450CFB08F3AB4207D997
:101BC000ED1908F1FF3002D2AB4200F2D18080461D
:101BD000ED1AA3B2B5FBF2F002FB105543EA05443F
:101BE0000CFB00FCA44507D9E41900F1FF3302D235
:101BF000A44500F2B8801846A4EB0C0440EA084063
:101C00009DE731463046BDE8F087CEF1200405FA65
:101C10000EF307FA0EF720FA04F83A0C25FA04F44A
:101C200048EA0308B4FBF2F14FEA184502FB1144FD
:101C30001FFA87FC45EA044501FB0CF3AB4200FAAE
:101C40000EF409D9ED1901F1FF3080F08A80AB4222
:101C500040F2878002393D44EB1A1FFA88F5B3FB46
:101C6000F2F002FB103345EA034500FB0CF3AB42F4
:101C700007D9ED1900F1FF386FD2AB426DD90238A8
:101C80003D44EB1A40EA01418FE7C1F1200722FAF7
:101C900007F88B4005FA01F448EA030320FA07FE2F
:101CA0004FEA134CFD404EEA040EB5FBFCF94FEA37
:101CB0001E440CFB19551FFA83F844EA054509FB3D
:101CC00008F4AC4202FA01F200FA01FA08D9ED1860
:101CD00009F1FF3043D2AC4241D9A9F102091D44B8
:101CE0002D1B1FFA8EFEB5FBFCF00CFB10554EEAC7
:101CF000054400FB08F8A04507D9E41800F1FF35BA
:101D000029D2A04527D902381C4440EA0940A4EB57
:101D10000804A0FB02894C45C6464D4615D312D097
:101D200056B1BAEB0E0364EB050404FA07F7CB4097
:101D30001F43CC40376074600021BDE8F08718462F
:101D4000F8E69046E0E6C245EAD2B8EB020E69EB4F
:101D500003050138E4E72846D7E7404691E7814686
:101D6000BEE7014678E702383C4445E7084608E705
:101D7000A8F102083D442BE7704700BF70B50F4E35
:101D80000F4D761BB61018BF002405D0013455F84E
:101D9000043B9847A642F9D10A4E0B4D761B00F042
:101DA000BDF8B61018BF002406D0013455F8043B26
:101DB0009847A642F9D170BD70BD00BF281F4000F2
:101DC000281F4000301F4000281F4000024B13B165
:101DD000024800F005B8704700000000ED1D40000B
:101DE000002301461A46184600F01EB838B50A4CC2
:101DF0000A4D641BA4100AD004F18043013B05EB9B
:101E00008305013C55F804399847002CF9D1BDE809
:101E1000384000F08DB800BF401F40003C1F40001C
:101E2000704700BF704700BF2DE9F8432C4D0646B0
:101E3000286898460F469146FFF7F2FF294B1C6829
:101E4000D4F84831002B3ED05A681F2A1CDC02F11E
:101E5000010E76B103EB82010124C1F88890D3F81A
:101E6000880194402043022EC3F88801C1F80881FC
:101E700023D00232C3F804E0286843F82270FFF749
:101E8000D1FF0020BDE8F883174B0BB34FF4C870A7
:101E9000AFF300800346D8B1D4F848210260002196
:101EA00041600A46C4F848014FF0010EC0F888119D
:101EB000C0F88C11002EDCD0CCE7D3F88C110C4389
:101EC000C3F88C41D5E704F5A673C4F84831BBE7E5
:101ED0002868FFF7A7FF4FF0FF30BDE8F88300BF89
:101EE00040040020181F4000000000000100000016
:101EF00002000000040000000800000010000000C4
:101F000020000000400000008000000000010000F0
:101F1000000200000004000018000020F8B500BF17
:101F2000F8BC08BC9E467047CD1D40001D01400016
:101F3000F8B500BFF8BC08BC9E467047F9004000E9
:081F40005CFBFF7F01000000C3
:101F4800BFF35F8F0138FBD17047010000093D00E6
:101F58000100000000000000000000000403002051
:101F68006C030020D40300200000000000000000E3
:101F78000000000000000000000000000000000059
:101F88000000000000000000000000000000000049
:101F98000000000000000000000000000000000039
:101FA8000000000000000000000000000000000029
:101FB8000000000000000000000000000000000019
:101FC8000000000000000000000000000000000009
:101FD80000000000000000000000000000000000F9
:101FE80000000000000000000000000000000000E9
:101FF80000000000000000000000000000000000D9
:1020080001000000000000000E33CDAB34126DE675
:10201800ECDE05000B0000000000000000000000DE
:1020280000000000000000000000000000000000A8
:102038000000000000000000000000000000000098
:102048000000000000000000000000000000000088
:102058000000000000000000000000000000000078
:042388001C05002010
:0400000500400E8D1C
:00000001FF
