:020000040040BA
:1000000058430020254D4000214D4000214D400027
:10001000214D4000214D4000214D400000000000D6
:10002000000000000000000000000000214D400022
:10003000214D400000000000214D4000792F40007C
:10004000214D4000214D4000214D4000214D4000F8
:10005000214D4000214D4000214D4000214D4000E8
:10006000214D4000394440004D444000214D4000A6
:1000700061444000214D4000214D4000214D400091
:10008000214D4000214D4000214D4000214D4000B8
:10009000214D4000214D4000214D4000214D4000A8
:1000A000214D4000214D4000214D4000214D400098
:1000B000214D4000214D4000BD134000D1134000B0
:1000C000214D4000214D4000214D4000214D400078
:1000D000214D4000392F4000214D4000214D40006E
:1000E000214D4000214D4000214D4000214D400058
:1000F000214D4000214D400010B5054C237833B907
:10010000044B13B10448AFF300800123237010BDEA
:100110007C0A002000000000C89240000C4B43B154
:100120000C480D4910B5AFF300800C48036823B9A3
:1001300010BD0A48036833B97047094B002BF7D04C
:10014000BDE810401847064B002BF5D0184700BFFC
:1001500000000000C8924000800A0020C8924000C1
:1001600000000000034B02225A669A6E024B1A608E
:10017000704700BF00400B4048100020034B032293
:100180005A669A6E024B1A60704700BF00400B40DF
:100190009C10002008B50D4B1B6B13F0006F14D0A2
:1001A00000230B4902E001330C2B08D013F0010FA0
:1001B000F9D131F8132092B221F81320F3E700228D
:1001C0000449054B1868054B984708BD00000B40D3
:1001D00014130020E00F0020241000200517400019
:1001E0002DE9F047474C2046474EB047474D28463B
:1001F000B047474B1978474E3046474B98473146F2
:100200002046464FB84731462846B847444E304608
:10021000444B9847324600212046434FB847324668
:1002200001212046B847324602212046B8473246CF
:1002300003212046B847324604212046B8473246BB
:1002400005212046B847324602212846B8473246A3
:1002500003212846B8474FF00008C4F864804FF4E3
:100260000063E36601276766E36602266666E36667
:100270004FF00309C4F86490E36604226266E36603
:1002800005216166E3666E66EB66C5F86490EB6611
:10029000636823F08F0363606B6823F08F036B60E8
:1002A00067616661626108236361102161612021D9
:1002B00061616A616B61DFF894A01C48CAF80000B4
:1002C0001B491C4B0B600C234B6042461A4B984752
:1002D0003946DAF80000194B98474346184A0A2174
:1002E0002046DFF86C80C0473B46164A3146284618
:1002F000C0473B46144A49462846C04726602E6000
:10030000BDE8F08700000B40E513400000400B40C3
:10031000C50E0020281000200D1240005912400088
:10032000D00F00204D124000DD11400000010B40B5
:10033000E00F002014130020051740001D17400097
:1003400095014000650140007D014000241000201F
:100350006513400030B40D4B1B680D4D0D4C54F827
:100360002320111A2A68521A2A6044F823003F2BCE
:1003700014BF0133002305490B601046002AB8BFA3
:1003800002F13F00801130BC704700BFF00A00202E
:10039000200E00200C0B002030B40B4B1B780B4DB3
:1003A0000B4C34F81320111A2A68521A2A6024F8C8
:1003B00013003F2B1ABF0133DBB2002302490B703D
:1003C000900930BC704700BFF40A0020240E0020C2
:1003D0000C0C002030B40B4B1B780B4D0B4C34F83D
:1003E0001320111A2A68521A2A6024F813003F2B8E
:1003F0001ABF0133DBB2002302490B70900930BCF5
:10040000704700BFF50A0020280E00208C0C002049
:1004100030B40B4B1B780B4C226802440A4931F86C
:100420001350521B226021F813003F2B1ABF0133D7
:10043000DBB2002302490B70900930BC704700BF4B
:10044000F60A00202C0E00200C0D002030B40B4BBF
:100450001B780B4D0B4C34F81320111A2A68521AD2
:100460002A6024F813003F2B1ABF0133DBB20023AC
:1004700002490B70900930BC704700BFF70A00209A
:10048000300E00208C0D002000B583B0104B9B88EF
:100490009BB207EE903AF8EEE77A0E4B93ED007AB6
:1004A00067EE877ADFED0C6A87EEA67ADFED0B7ACE
:1004B00067EE277AFCEEE77ACDED017ABDF804000D
:1004C000074B1880074B984780B203B05DF804FBD8
:1004D000141300200000002000F07F4500007A4443
:1004E0009A0A00205503400000B583B0104B1B88CA
:1004F0009BB207EE903AF8EEE77A0E4B93ED007A56
:1005000067EE877ADFED0C6A87EEA67ADFED0B7A6D
:1005100067EE277AFCEEE77ACDED017ABDF80400AC
:10052000074B1880074B984780B203B05DF804FB77
:10053000141300200000002000F07F4500007A44E2
:10054000980A00209903400000B583B00F4B1B8927
:100550009BB207EE903AF8EEE77A0D4B93ED007AF6
:1005600067EE877ADFED0B6A87EEA67ADFED0A7A0F
:1005700067EE277AFCEEE77ACDED017ABDF804004C
:10058000064B984703B05DF804FB00BF141300202E
:100590000000002000F07F4500F01C45D50340001E
:1005A00008B50D4B9B8A9BB207EE903AF8EEE77ABE
:1005B0000A4B93ED007A67EE877ADFED096A87EEE2
:1005C000A67ADFED087A67EE277AFCEEE77A17EE77
:1005D000900A054B984708BD141300200000002026
:1005E00000F07F45009C6546110440000B4BD3EDA5
:1005F000007AF8EE677A0A4B93ED007A67EE877A15
:10060000DFED086A87EEA67ADFED077A67EE277AD4
:10061000FCEEE77A17EE900A704700BF9C100020AE
:100620000000002000F07F4500007A440B4BD3ED22
:10063000007AF8EE677A0A4B93ED007A67EE877AD4
:10064000DFED086A87EEA67ADFED077A67EE277A94
:10065000FCEEE77A17EE900A704700BF48100020C2
:100660000000002000F07F4500007A4400B583B010
:100670000F4B9B899BB207EE903AF8EEE77A0D4B51
:1006800093ED007A67EE877ADFED0B6A87EEA67A44
:10069000DFED0A7A67EE277AFCEEE77ACDED017A94
:1006A000BDF80400064B984703B05DF804FB00BF9B
:1006B000141300200000002000F07F4500B0A64584
:1006C0004D044000F8B582240F4F104E104D3846AF
:1006D000B047A8470F4B18600F4B98470F4B188037
:1006E0000F4B98470F4B18800F4B98470F4B1880B4
:1006F0000F4B98470F4B188002200F4B9847631EF3
:1007000013F0FF04E3D1F8BD50180E40111B400058
:10071000A1054000040B0020490540001A0E0020EE
:10072000E9044000B60A002089044000BA0A00200B
:100730006D0640001C0E0020D5404000F8B5944BDB
:100740001B78002B40F07B81924B1B68924A126809
:100750009B1AF92B10D9914B08221A6301221A63B4
:1007600004225A6302225A638A4B1A688A4B1A601F
:100770008B4A137801331370894B1B78013B032B91
:1007800000F2CC80DFE813F0040051007900A100F2
:10079000844B1B78002B33D10122824B1A707D4B86
:1007A00019687D4B19607D4B1A6302221A63082277
:1007B0005A6304225A637C4B1B78002B00F03F8164
:1007C0007A4B1A8840F6E7039A4200F21381784B7D
:1007D0001A8840F6E7039A4200F20C81754B1A889A
:1007E00040F6FC039A4240F22681734B1A8840F689
:1007F000FC039A4240F21F810022704B1A70FCE009
:10080000644B1B68644A12689B1A132BD3D96C4A39
:10081000138801339BB213806A4B18686A4B984760
:100820006A4A136818441060C5E7694B1B787BB9A6
:100830000122674B1A70574B1968574B1960574B79
:100840005A6302225A6308221A6304221A63B2E727
:10085000504B1B68504A12689B1A142BABD95D4A47
:10086000138801339BB213805B4B18685B4B98472E
:10087000564A5368184450609DE7594B1B787BB922
:100880000122574B1A70434B1968434B1960434B75
:100890001A6302225A6308225A6304225A638AE7BF
:1008A0003C4B1B683C4A12689B1A142B83D94D4A57
:1008B000138801339BB21380424B1868424B984710
:1008C000424A93681844906075E7474B1B787BB9A0
:1008D0000122454B1A702F4B19682F4B19602F4B73
:1008E0005A6302225A6308221A6304225A6362E797
:1008F000284B1B68284A12689B1A142B7FF65BAFA3
:100900003A4A138801339BB21380334B1868334B38
:1009100098472E4AD3681844D0604CE70124204BF6
:100920001C702A480368264D2A8892B2B3FBF2F362
:100930001E4A13804368274E328892B2B3FBF2F30B
:100940001B4A13808368274F3A8892B2B3FBF2F3B5
:10095000184A1380C368DFF894E0BEF8002092B212
:10096000B3FBF2F3144A13800021AEF80010398073
:10097000318029800B4B1970154B1970184B197069
:10098000194B1970084B1C702822194B984717E710
:10099000B40A00208C0E0020B00A002000140E4083
:1009A000080B00209C0A0020F80A0020E80A00201A
:1009B000EC0A0020EA0A0020EE0A0020A30A002028
:1009C0009E0A00209C100020ED054000C00A002077
:1009D000A80A0020AA0A0020481000202D06400086
:1009E0009D0A0020A00A0020A90A0020AC0A0020CD
:1009F000255740000122124B1A70114B1B78114AE7
:100A000012789A421BD00F4A13700F4B984704225A
:100A10000E4B1A710A4B1B784BB900210B4A91718E
:100A20000A4843710A4B19680A4B9847F8BD0121DF
:100A3000064A9171F4E70222014B1A70DDE7F8BD16
:100A4000A30A0020A20A0020893940000C000020DF
:100A5000FC120020FD39400010B5414B1B8841F2CB
:100A6000941293424DD93F4B1A683F4B1A600022B3
:100A70003E4B1A703E4B1A783C4B1B789A4215D06D
:100A80003C4B98473C4806230371384C23788371CC
:100A9000334B1B88394AA2FB03231B09C371384B14
:100AA0001968384B98472278314B1A70364B1A68C0
:100AB00042F2FC139A4247D92A4B1A68334B1A6008
:100AC0000022334B1A70334B1A78314B1B789A4201
:100AD00016D0284B9847284805230371234B1B78D1
:100AE00083711F4B1B88254AA2FB03231B09C3717B
:100AF000234B1968234B9847254B1A78254B1A70BE
:100B000010BD41F22F1293420FD8214B1B7863B1D5
:100B1000144B1B68204A12689B1AB3F5FA6FA9D3CD
:100B20001E4B98471E4B9847A4E70E4B1B680E4A76
:100B300012689B1AFA2B9DD901220C4B1A70094B93
:100B40001A68154B1A6095E7064B1B680F4A126826
:100B50009B1AFA2BB7D901220D4B1A70B3E700BFCD
:100B60001A0E00208C0E0020140E0020180E0020FB
:100B7000100E0020893940000C0000201F85EB5129
:100B8000FC120020FD394000040B0020FC0A00206C
:100B9000000B0020F90A00200C0E0020AD1C4000C4
:100BA000A54F400008B5094B1B8843F66C129342D1
:100BB00004D843F23D02934204D908BD0448054BD2
:100BC000984708BD0248044B9847F6E71C0E0020E2
:100BD000D40F00202D4140001141400010B582B0DB
:100BE0000446164B1878164B98476268A37A43EA76
:100BF0000263110201F47F010B43120A02F47F42E7
:100C0000134302A840F8083DE17A0E4B984710B113
:100C1000082002B010BDA37A013BDBB2012B218971
:100C2000206894BF074B084B984708B10820F0E7AD
:100C3000024B1878054B98470020EAE70400002093
:100C40001D0F4000650F40004D0F4000350F400064
:100C500000B585B006238DF80E3001238DF80F30D6
:100C600000230193ADF80C30029301A8024B984782
:100C700005B05DF804FB00BFDD0B400008B5024B7A
:100C80009847002008BD00BFE50E4000014B1870DA
:100C9000704700BF0400002000B585B00023039317
:100CA0009F228DF80A2001228DF80B2003AA0092C2
:100CB0000322ADF8082001936846064B9847039835
:100CC00020F07F40044B984214BF0420002005B060
:100CD0005DF804FBDD0B4000C223130000B585B0B6
:100CE00005238DF80E3001238DF80F300190ADF8FB
:100CF0000C300023029301A8024B984705B05DF821
:100D000004FB00BFDD0B400010B582B0064C0DF1B6
:100D10000700A047024620B99DF8073013F0010FE5
:100D2000F5D1104602B010BDDD0C4000B0F5800FCB
:100D300002D90923184670472DE9F04784B00446CC
:100D40000DF10F00284B9847034628B99DF80F3046
:100D500013F0010F04D00623184604B0BDE8F08755
:100D600013F00C0F01D00723F6E7204B98470346FA
:100D70000028F1D124F47F6525F00F0504F5FF501C
:100D80001E30441B240B28D02E020027DFF86C8075
:100D9000DFF86CA0DFF86C9098F80000D04706F4FC
:100DA0007F0343F020032A0A02F47F42134304A87E
:100DB00040F80C3D0421C84798B9002108460C4B67
:100DC000984770B998F800000A4B9847013705F525
:100DD000805506F58016BC42DED1074B9847034686
:100DE000BAE70823B8E700BFDD0C4000510C400013
:100DF0004D0F4000350F4000090D40000400002059
:100E00001D0F4000650F40008B18B3F5800F02D90D
:100E10000923184670472DE9F04F85B007468B46E9
:100E2000164699B3DFF87890DFF87880DFF878A07D
:100E3000F4B2C4F580745C4528BF5C46C847022301
:100E40008DF80A3004238DF80B300097A5B2ADF869
:100E5000085001966846C0470346D0B9D0470346BC
:100E6000B8B90DF10F000D4B9847034688B99DF8AE
:100E70000F2012F0200F0BD12744ABEB05051FFA12
:100E800085FB2644BBF1000FD2D102E0002300E035
:100E90000523184605B0BDE8F08F00BFDD0C40000B
:100EA000510C4000DD0B4000090D40008B18B3F5DC
:100EB000800F01D90920704700B585B003238DF854
:100EC0000E3004238DF80F300190ADF80C10029213
:100ED0000DEB0300024B984705B05DF804FB00BF23
:100EE000DD0B400030B583B0074C2046074B9847D8
:100EF00000220092064B07492046074DA8470123D0
:100F0000236003B030BD00BF008008407D0F40006B
:100F1000001BB700340E0020D10F400008B5024975
:100F20000248034B984708BD340E0020008008405B
:100F30005110400008B502490248034B984708BDCC
:100F4000340E0020008008408110400008B50A4699
:100F500001460248024B984708BD00BF0080084088
:100F6000D710400008B50A4601460248024B984790
:100F700008BD00BF00800840A110400010B5044625
:100F8000104B984780232360636843F0010363603C
:100F9000636843F010036360636823F08003636059
:100FA00000212046084B9847636823F002036360E2
:100FB000636823F00403636000212046034B9847D5
:100FC00010BD00BF35174000451740005B174000BB
:100FD0002DE9F04104460D46164615491846154BB5
:100FE0009847074600231A4629682046DFF85C80A8
:100FF000C0470022296820460F4B9847FAB229685B
:1010000020460E4B98470822296820460C4B9847EB
:101010007208296820460B4B984786F0010202F0BF
:10102000010229682046084B9847BDE8F08100BFBF
:101030000087930303184000EF1740001918400081
:10104000A91740006D1740008B1740004118400061
:1010500008B5436813F0040F06D009680F2900D9BA
:1010600008BD064B984708BD09680329F8D8012335
:1010700003FA01F1C943014B9847F1E745174000D6
:1010800010B50446236913F4007FFBD00F212046DE
:10109000024B98474FF08073236010BD4517400006
:1010A0001AB110B40C46114406E00020704714F841
:1010B000013BC360A1420CD043F69923026912F0B0
:1010C000020FF4D1013BF9D16FF002005DF8044B3F
:1010D00070470020FAE73AB170B415460C460D444B
:1010E000FF2640F2012112E000207047C66043F65F
:1010F0009923026931EA020204D0013BF9D16FF071
:1011000002000EE0836804F8013BA5420BD043F6D1
:101110009923026912F0020FE8D1013BF9D16FF077
:10112000020070BC70470020FBE7000008B5C0EB70
:10113000C00001EB4001034B53F8213003B1984745
:1011400008BD00BF0C1100202DE9F04383B0026BF5
:10115000C36A134001931F4FB84214BF00270127F1
:10116000012500242E46DFF870804FF0060914E0B8
:10117000019B13F4004F0ED049463846C0470AE0A1
:101180000B2C19D8019A04F1110306FA03F3134248
:101190000FD10D2D1AD8013401352146062CEFD878
:1011A000E6D0019B06FA04F21A42F2D03846C04754
:1011B000EFE73846C047ECE7019A04F1120306FA5C
:1011C00003F31342E5D03846C047E2E703B0BDE879
:1011D000F08300BF00400B402D11400030B4046E7E
:1011E00001238B4024EA03041578002D08BF002357
:1011F00023430366446D4B000321994024EA010414
:10120000517899402143416530BC70470023036009
:101210000B4A0C4B00290CBF1946114641600A4B82
:1012200083604FF48023C3600022026102230375B0
:10123000012343758375C2750376437683767047C1
:1012400000093D0000879303808D5B00002303703D
:101250000123437070470000036B13F0807F01D0BF
:101260001920704770B401230360CB7D002B14BF9D
:101270004FF0004500258B7D002B14BF4FF4000478
:1012800000240B7D1B0603F070630A69CE683243AD
:1012900013434A7D120702F0405213438A685600F6
:1012A0004A68B2FBF6F2013A120292B213432B43A0
:1012B000234343600B7E002B14BF4FF08073002349
:1012C0000A6813434A7E002A14BF4FF000720022BE
:1012D000134383608B7E1B0203F44073C0F8943089
:1012E0000E4B984205D00E4B98420CD0002070BC9B
:1012F00070470C4B03F13801002243F8042F8B4256
:10130000FBD10020F3E7084B03F13801002243F83A
:10131000042B8B42FBD10020E9E700BF00000B400B
:1013200000400B4008110020441100200C4B994252
:1013300007D006290BD806D0012303FA01F1416238
:101340007047436270474FF40043436270470B2974
:1013500094BF11311231012303FA01F14162704748
:101360003F8000DF38B5114CA0420CBF0E24002492
:101370000C440F4D45F824200AD10E4A4FF000448A
:10138000C2F880411B01DBB282F81F33146009E010
:10139000084A4FF08044C2F880411B01DBB282F85A
:1013A0001E331460044B984738BD00BF00400B400B
:1013B0000C11002000E100E02D13400008B50248A8
:1013C000024B984708BD00BF00000B404911400088
:1013D00008B50248024B984708BD00BF00400B40CB
:1013E0004911400000B583B0134B98420CBF1F2039
:1013F0001E20124B9847124B9B78FF2B1AD0EFF30D
:101400001083B3FA83F35B09019372B6BFF35F8F66
:1014100000220C4B1A700199094A9378013393709A
:1014200029B10122074B1A70BFF35F8F62B603B078
:101430005DF804FBFEE700BF00400B40454740005D
:101440000411002079000020036843F001030360C9
:101450007047036823F001030360704741607047E1
:101460008160704700697047436A23F0FF031943A6
:101470004162704700EB4111D1F8100270470A78C1
:101480008B791B0403F4702343F4000300EB421038
:10149000C0F81C3270470B680A791AB330B4DBB25B
:1014A00000EB4312D2F80042CD7924F4702444EAD0
:1014B0000544C2F800424C792CB3CC6844F0005487
:1014C000C2F804420C6944F00054C2F80842D2F851
:1014D0000032097923F0E06343EA0163C2F8003285
:1014E00030BC7047DBB200EB43100023C0F8003281
:1014F000C0F80432C0F80832C0F81432C0F818320C
:10150000C0F81C327047CC68C2F804420C6900EB8A
:101510004313C3F80842DAE770B58B6803F0C07272
:10152000B2F1C07F14BF002502250A7800EB4216F5
:10153000D6F80C4224F060444C61C3F303438B7132
:10154000D6F814428C61042B02D9D6F81832CB613C
:1015500000EB4212D2F810328B6013F0807F18BF7C
:1015600045F00405014B9847284670BD7F144000A4
:101570000B7800EB4312D2F810228A6012F4000FAD
:1015800028D010B44A79FAB10A6942F0005200EB4F
:101590004314C4F808228C6900EB4312C2F81442C9
:1015A0008A79042A04D9CC6900EB4312C2F81842A4
:1015B0008A79120402F4702200EB4310C0F81C2256
:1015C00000205DF8044B70470C6900EB4312C2F831
:1015D0000842E0E70120704770B588B00646002455
:1015E0008DF80440044D009469463046A847013404
:1015F000082CF8D108B070BD97144000F8B546F239
:10160000A81303FB02F40B19013BB3FBF4F3802B8B
:1016100066D84FF4FA5404FB02F4B4EB510F61D8CE
:101620004FF47A7303FB02F208274FF0FF363B4674
:1016300004E00133DBB214441A2B0CD0B1FBF4F5F7
:10164000802DF6D804FB1515B542F2D215B12E4601
:101650001F46EEE71F4602FB07F2B1FBF2F1CBB2E9
:10166000012B41D90446A7F10802036823F00103C6
:1016700003601E4D5600B71805EB4707BB78013BCA
:101680001B0103F0700378780138000200F4E06079
:101690000343F878013800F0070003433A79013A30
:1016A000120302F440521343CAB2013A120402F484
:1016B000FE021343636120460D4B9847236843F0B5
:1016C0000103236000230B492269013312F4001F38
:1016D00001D18B42F8D10748181A18BF0120F8BD74
:1016E0000020F8BD0020F8BD0020F8BDAC8F400000
:1016F000D9154000A0860100014BC3F814017047C2
:1017000000020E400B4619B1096801605B68436036
:101710001AB11368036153684361704721F0FE01F9
:10172000C905C90D01627047014B0360704700BFD6
:10173000050000A508B51320014B984708BD00BF60
:1017400045474000436823F470234360436809041D
:1017500001F47021194341607047436823F07F43CF
:101760004360436843EA01614160704732B900EB6E
:101770008100036B23F001030363704700EB8100DA
:10178000036B43F001030363704732B900EB810040
:10179000036B23F002030363704700EB8100036BCC
:1017A00043F0020303637047042A03D06AB1082A96
:1017B00016D0704700EB8100036B23F0080303632E
:1017C000036B43F004030363704700EB8100036B7A
:1017D00023F008030363036B23F0040303637047E0
:1017E00000EB8100036B43F008030363E1E700EBC8
:1017F00081010B6B23F0F0030B630B6B1A430A633D
:101800007047431E1944B1FBF0F0431EFE2B94BFFA
:1018100000B24FF0FF3070477AB110B4144600EBBD
:1018200081010B6B23F47F430B630A6B42EA0422B2
:101830000A6300205DF8044B70474FF0FF3070479B
:1018400010B400EB8101086B80B208630C6B44EAB2
:10185000036343EA02430B635DF8044B70470A439A
:10186000026170472A4B99424AD8A3F57A539942AC
:101870002CD910B4274CA4FB0234A40B043C264BF7
:101880000B449B00B2FBF3F2043AFF2C3AD900213F
:1018900001316408FF2C0ED90729F9D113029BB23C
:1018A000090401F4E0210B43E4B223430361002067
:1018B0005DF8044B7047FF2AF0D90629EED80131B4
:1018C0005208FF2AEAD90629F9D9E7E74900B2FB0D
:1018D000F1F2043AFF2A11D9002301335208FF2AFA
:1018E00001D9072BF9D1110289B21B0403F4E023BB
:1018F0000B43D2B21A430261002070470023F2E783
:1019000001207047FF2A88BF0021D8D80021C5E7F1
:10191000801A0600F11976050012FD3F38B504461D
:101920000D464FF0FF338362036A80230360036B2D
:101930000823036020230360042303600A684968C6
:10194000054B9847012814BF002001206B7A012B1A
:1019500004BF4023236038BD651840000A4659B1D2
:1019600003780129C4BF417841EA0323022A04DD38
:10197000827842EA032300E0002318467047000003
:10198000F8B5CC68002C4FD00B4605468E68002079
:1019900068604A68120202F4407242F48052097C84
:1019A000090401F4FE010A436A60E86059681846B8
:1019B000224B9847E860012C0FD001232B600020B8
:1019C0002B6A13F4807F36D147F22F5147F23057FC
:1019D0004FF0010E4FF0020C19E003232B600120A1
:1019E000EEE70A4670460CE008B9C5F800C013F0EF
:1019F000020FF6D070462B6B3370013C01363A462D
:101A000064B12B6A13F4807F11D1511E8AB1012C6D
:101A1000EAD013F0020FEED10A46F1E72B6A13F079
:101A2000010FFBD02B6A00E001242046F8BD0524FD
:101A3000FBE70924F9E70524F7E700BF5D1940003B
:101A400070B5CD68002D35D00B4604468E68002059
:101A500060600A7C120402F4FE024968090201F483
:101A600040710A436260E06059681846154B984718
:101A7000E060236A13F4807F06D005251BE05DB18A
:101A8000236A13F4807F18D113F0040FF7D0337852
:101A90006363013D0136F2E7236A13F4807F0ED1C0
:101AA00013F0040FF8D002232360236A13F0010F10
:101AB000FBD000E00125284670BD0525FBE7052584
:101AC000F9E700BF5D194000094BB3FBF1F181421A
:101AD00002D94FF6FF707047C1EB0133834202D247
:101AE0004FF6FF707047B0FBF1F0C0F30B0070478A
:101AF0000020A10710B4054C04EA0343C2F30B0213
:101B000013430B4343605DF8044B70470000FF0F25
:101B1000024B984204BF024A1A60704750180E40A8
:101B2000010000A51F4B1B88834231D070B51D4BAF
:101B300018801D4B1980642303FB00F01B4B1860B9
:101B40001B4B1B784BBB1B4A184B9A600D46174921
:101B50004FF08040184B9847184C0326266000230E
:101B600023810123A3720B23636064232361214635
:101B70004FF08040124B984731464FF08040114B58
:101B800098472A4621464FF080400F4B984770BD3A
:101B9000054B1B888B42C9D170470C4A034B9A6096
:101BA000D4E700BF420E0020400E0020E80F0020C6
:101BB000C50E00200087930329484000F40F002041
:101BC0006D484000D3494000B749400000093D003E
:101BD0002DE9F0414FF000402A4FB8470120DFF8CF
:101BE000C880C04732214FF4FA70274CA0476420C8
:101BF000264DA84732214FF47A70A047244E4FF467
:101C0000806333636420A847322140F2DC50A04750
:101C10004FF4005333636420A8474FF00050B84797
:101C200032214FF4FA60A0474FF40063336364201D
:101C3000A847322140F6C410A0474FF480433363D5
:101C40006420A847002140F6C410A0474FF0804010
:101C5000B847104B1879104B984706F50566304683
:101C60000E4DA8470E4B98473046A8474FF080428C
:101C70000C4B5A63282140F6AC50A0470020C047C7
:101C8000BDE8F081892F4000251B4000D540400071
:101C900000100E40C410002035364000111B4000DB
:101CA000C5064000000E0E40FD2F40002DE9F04714
:101CB000DFF8B8804046284FB847284E4FF4006AF6
:101CC000C6F834A032214FF4FA70254CA0474FF0EB
:101CD0008040DFF89C90C8476420224DA8473221FD
:101CE0004FF47A70A0474FF4804333636420A847D1
:101CF0004FF00050C8474046B847322140F2DC5010
:101D0000A047C6F830A06420A84732214FF4FA60FB
:101D1000A0474FF4005333636420A847322140F6B4
:101D2000C410A0474FF4806333636420A8474FF08A
:101D30000040C84701200C4B984732214FF4FA70FD
:101D4000A0476420A84700214FF4FA70A0474046FE
:101D5000B847BDE8F08700BF111B400000100E40DF
:101D6000251B4000D5404000FD2F400050180E407C
:101D7000892F400008B5C8B1012824D02B4B1B681F
:101D80002B4A12689B1A2B4A128893420DD3274B79
:101D90001A68274B1A60284B1B68012B19D0274B58
:101DA0001B78012B28D0002B33D008BD00214FF425
:101DB000FA60234B9847234B1A881E4B1A80012246
:101DC0001E4B1A7008BD282140F6C4101C4B9847C2
:101DD00008BD1A4B1B78022BE1D11B4B1A88154BFF
:101DE0001A800022144B1A600122144B1A700F4BF8
:101DF0001A68164B1A6008BD124B1A880D4B1A80D0
:101E000000220E4B1A70282140F6B8300C4B984730
:101E100008BD0122074B1A800222084B1A700021CC
:101E200040F6B830064B9847BFE700BF8C0E002045
:101E3000380E0020060000209C0E00203C0E0020E2
:101E4000251B40001A90400018904000B80E00205A
:101E500008B52A4B1B78ABB1294B1B7873B1294BC2
:101E60001B78DBB2022B16D0274B1B789BB9274B74
:101E70001B7883B90120264B98470FE00320244BA1
:101E800098470BE01F4B1B78DBB2022B03D01C4B97
:101E90001B78002BE8D100201D4B9847184B1B786E
:101EA000002B2AD0174B1B78DBB2022B25D0194B05
:101EB0001B78012B19D0184B1B78012B19D0174B0D
:101EC0001B78174A12781344DBB2164A12789A42EA
:101ED00008D000220C490A700C490A70124A116895
:101EE000124A11600F4A137008BD01220B4B1A7081
:101EF000E1E701220A4B1A70E1E708BDE80E002075
:101F0000B40A0020C40E0020C70E0020890E002055
:101F1000751D4000B80A0020BC0A00203D0E0020BC
:101F20003E0E0020440E00208C0E0020700E00207B
:101F300038B505460120044CA0472846034B984776
:101F40000020A04738BD00BF751D4000D5404000AF
:101F50001A4B4FF0FF325A60DA601A615A611A76F2
:101F6000174A1288110A03F801199A70154A128843
:101F7000110AD9701A71144B1B78C3B9134B002284
:101F80005A719A71124B1A88104B110A19725A72AF
:101F9000104A1268110A9972DA720F4A1288110AED
:101FA00019735A730D4A12789A7301207047074BC0
:101FB00000225A7101229A71E4E700BF81110020CA
:101FC000B60A0020BA0A0020CE0E002080110020A0
:101FD0001C0E0020040B00201A0E0020F41200201A
:101FE00070B506461F48202404700C0A44708170A6
:101FF000C270FF2202711A0C42711A0A8271C371F7
:1020000019481A4B984710F0804F24D1184C0123DF
:102010002360032222710F22E27163710023E360C7
:10202000114D21462846134B984726610823A3717A
:102030000C4B5A68E2611B68A361214628460E4B8F
:102040009847022128460D4B98470D4B984705208D
:102050000C4B984770BD064901230B600248054BA5
:102060009847D3E728120020000001406514400083
:10207000541000209714400071154000691440006E
:10208000511F4000D540400070B582B00646002385
:1020900000930193414B1B7883B901223F4B1A7087
:1020A00001238DF800303E4B1A68CDF801209A8844
:1020B0009B79ADF805208DF8073005E0012BEFD0B6
:1020C000022B4AD0032B55D0364B9DF800201A70B6
:1020D0009DF801205A709DF802209A709DF8032007
:1020E000DA709DF804201A719DF805205A719DF848
:1020F00006209A719DF80720DA712B482B4B9847E0
:1021000010F0804F43D12A4C0023A371A360E360F9
:1021100023616361A361E3610123236003222271D0
:102120000F22E2716371204D21462846214B9847CA
:1021300026610823A3711B4B5A68E2611B68A361E7
:10214000214628461C4B9847022128461B4B98479E
:1021500005201B4B984702B070BD8DF80030194B1D
:102160001A68CDF801209A889B79ADF805208DF882
:102170000730A9E78DF80030134B1A68CDF801201D
:102180009A889B79ADF805208DF807309CE70849BF
:1021900001230B600448074B9847B4E780110020E7
:1021A000811100209C1100200000014065144000B6
:1021B000541000209714400071154000691440002D
:1021C000D5404000881100208F110020074A137865
:1021D00043F0070303F0F7036FF3041313700023B6
:1021E0005370000240F0E050704700BF181200200A
:1021F0001B4B1B78002B31D11A4B1B78002B2DD198
:10220000194B1B78032B29D810B5B3B14FF46B4091
:10221000164B9847164B1860164B9847124A13787E
:102220000133DBB21370032B06D94FF08072124BCF
:102230005A6300220C4B1A7010BD4FF080720E4B87
:102240001A634FF46C40094B9847094B18604FF6DE
:102250005F3303221821094CA047D7E7704700BF1E
:10226000000B0020E00E002080110020CD21400056
:10227000480E00208920400000140E40E11F40005D
:1022800038B51A4B9B69012B0CBF4FF4FA72FA2236
:10229000174B1A6017491848184B984700B938BDB2
:1022A000154C4FF0FF312046154B98472046154BF3
:1022B0009847154900230B604B718B71CB718B6074
:1022C0004B618B61CB6101250D716FF06043CB6079
:1022D0004FF4E0130B6120460C4B984729462046EB
:1022E0000B4B984720220B4B5A60D8E7C4100020B4
:1022F0004C0E00200087930300000140FD154000B4
:1023000061144000D9154000E010002097144000EF
:102310005D14400000E100E070B5364BDB6B13F05C
:10232000040F24D1344B1B780BBB0022334B1A70A3
:10233000334A13780133DBB21370642B21D90025A3
:10234000304B1D70322140F2DC502F4CA0476420EE
:102350002E4B98470122284B1A702D4B1A682D4B93
:102360001A60294640F2DC50A047022070BD214B84
:10237000DB6B13F0040F04D00023214A13701E4AB4
:1023800013701C4BDB6B13F0020F26D1224B1B7812
:102390001BBB00221A4B1A70184A13780133DBB2A8
:1023A0001370642B01D8002070BD0026154B1E70E1
:1023B000322140F2DC50144DA8476420134B98475B
:1023C0000124154B1C70124B1A68124B1A603146CF
:1023D00040F2DC50A847204670BD064BDB6B13F083
:1023E000020F05D000200C4B1870044B187070BD04
:1023F000002070BD000E0E40670E0020600E002011
:10240000660E002009000020251B4000D54040003A
:102410008C0E0020540E0020610E002010B56420A8
:10242000034CA0473220034B98476420A04710BDBF
:10243000311F4000D540400008B501290AD099B9A4
:102440000022334B1A7004285BD8DFE800F0191E15
:102450002A42560001222E4B1A70042851D8DFE878
:1024600000F00F1B20384500294A137883F0010340
:102470001370042845D8DFE800F00308142C390055
:10248000234B1878234B984708BD214B1B781BB969
:102490000020214B984708BD204B18791E4B9847C8
:1024A00008BD1B4B1B785BB11C4B18791A4B984726
:1024B000174B1B7843B14FF40052194B1A6308BDF8
:1024C0000020154B9847F3E74FF40052144B5A6322
:1024D00008BD0F4B1B7823B14FF40052104B1A6309
:1024E00008BD4FF400520E4B5A6308BD084B1B78D1
:1024F0001BB110220B4B1A6308BD1022094B5A6303
:1025000008BD0020034B98470020034B984708BDA7
:10251000680E0020DD34400035364000C410002035
:1025200000100E4000140E40064B5B684FF4FA7228
:10253000B2FBF3F204490A705B00013B034A1370DB
:10254000704700BFC4100020570000205600002034
:10255000954B1B68954A12689B1A41F28732934249
:1025600000D870472DE9F04F85B0914B1879914B09
:1025700098470020904B98478B4D2B6802938F4BC8
:102580004FF000425A634FF000525A634FF08042BE
:102590005A638B4B98478B480B230371012484713A
:1025A000894B1968894B98472A68894B1A60894B6F
:1025B0001C7000213220884B98474FF4FA70874BEB
:1025C0009847874B98474FF0000BCDF804B05D4615
:1025D000DFF84C92744C7F4E784F9EE0D4F8008028
:1025E000032128467C4B9847A3E07E487E4B9847C2
:1025F00028207E4B984705B0BDE8F08F6A4B1A68DB
:102600006A4B1A6000213220734B9847784B9847E9
:1026100080B2784B188018B12820744B9847EAE7AD
:102620007548764B9847F7E723680293236803932E
:102630002368019B53B94FF0010B042D6DD8DFE8DF
:1026400015F033005F00F3002C0166012268604B37
:102650001A6001233370002132205F4B984700201D
:10266000674B984732214FF4FA70DFF8B8B1D8477A
:102670004FF0005AC7F830A0C820584B98470021A7
:102680004FF4FA70D847C7F834A000205D4B984744
:102690000135052D04D0DDF804B000230193CCE70B
:1026A000DDF804B000230193574B984705460228F4
:1026B00004D0012819D000282FD006E03C4B1B681D
:1026C000632B0FD80A333A4A136001210020424B92
:1026D0009847374D28784D4B984728784C4B98476A
:1026E00000251AE03E4B9847EFE7314B1B680A2B59
:1026F00003D90A3B2E4A1360E7E7394B9847E4E7D2
:1027000000233370404B9847022835D0012840D031
:10271000002838D101203F4B98473F48C8472368DD
:10272000A3EB0803B3F5FA7F03D33378002B7FF4D0
:1027300055AF2368264A12689B1A44F620629342DA
:102740003FF653AFFB6B13F0010F7FF46DAF2368BF
:10275000029A9B1A41F2883293423FF64FAF2368A8
:10276000039A9B1A632B7FF668AF019BBBF1000FA6
:1027700018BF5B46019360E70D4B5B68632B05D880
:102780000A330B4A5360254B9847C3E7144B9847CD
:10279000F9E7074B5B680A2B03D90A3B044A5360ED
:1027A000F1E70F4B9847EEE78C0E0020E40E002077
:1027B000C410002035364000751D4000000E0E404C
:1027C000893940000C000020FC120020FD39400037
:1027D000540E00200900002039244000D54040005C
:1027E0001D2440000000014049144000311F4000FA
:1027F000B5384000640E002000180E402917400034
:1028000005314000E12F40001923400035354000DC
:10281000513540000134400050180E402925400039
:10282000111B4000251B4000002333704D4B98477F
:10283000824664204C4B9847BAF1020F0FD0BAF190
:10284000010F1DD0BAF1000F13D1484BD868484B87
:10285000A3FB0030C0F38710464B98475DE7434B1E
:10286000DB6841F26F72934207D803F57A733F4AEF
:10287000D36000203F4B9847E7E73F4B9847F8E786
:102880003A4BDB68B3F57A7F04D9A3F57A73374AFC
:10289000D360EEE7384B9847EBE700233370314BBA
:1028A0009847824601210846344B9847BAF1020FF7
:1028B0000FD0BAF1010F1DD0BAF1000F13D12B4B7D
:1028C00018692B4BA3FB0030C0F38710294B9847A6
:1028D00023E7264B1B6941F26F72934207D803F539
:1028E0007A73224A13610020224B9847E7E7224B74
:1028F0009847F8E71D4B1B69B3F57A7F04D9A3F518
:102900007A731A4A1361EEE71B4B9847EBE70120F5
:102910001B4B984700233370124B9847022807D06F
:10292000012813D050B9114B187E124B9847F4E68A
:102930000E4B9B69012B05D90F4B984700200D4B7F
:102940009847F0E70222094B9A61F7E7074B9B692A
:10295000022B02D0084B9847F0E70122034B9A6103
:10296000ECE700BF19234000ED314000C410002007
:10297000D34D6210053140001D2440003924400031
:10298000E12F4000F8B51A4B1B7873B1194B0822A0
:102990001A6301221A6304225A6302225A63164BF5
:1029A0001B7813B1154B1B7803B1F8BD0127134BEE
:1029B0001F700520124CA047124D4FF080662E6309
:1029C0003220A0476E634FF4FA70A0472E63322086
:1029D000A0476E633220A0470B4B98470B48082353
:1029E0000371877143710A4B19680A4B9847DCE7FA
:1029F000B40A002000140E40B50A0020880E002002
:102A0000D5404000000E0E40893940000C000020E7
:102A1000FC120020FD39400010B5A04B1A88A2F628
:102A200054339BB2C72B5ED800229D4B1A709D4B2E
:102A30001A689D4B1A609D4B1A78994B1B789A42E5
:102A40001DD09B4B984701229A4B1A71944B1B78CF
:102A5000002B40F0B1800021964A91719548437156
:102A60008E4B1B88944AA2FB03231B09C371934B13
:102A70001968934B98478A4B1A788C4B1A70914B74
:102A80001A88A2F654339BB2C72B00F29980002219
:102A90008D4B1A70834B1A688C4B1A608C4B1A78CA
:102AA000894B1B789A421DD0814B98470222814B5B
:102AB0001A71854B1B78002B40F0EB8000217D4A7A
:102AC00091717C4843717F4B1B887B4AA2FB032397
:102AD0001B09C371794B1968794B98477A4B1A785F
:102AE0007B4B1A7010BDB2F5FA7F25D80023794AC6
:102AF0001370794A127879490C781946012007E059
:102B0000744A13700AE00133DBB20146632B09D823
:102B1000002AF8D0002CF6D00029F1D10122604B18
:102B20001A7088E76B4A137001236B4A13706B4A63
:102B300013705B4A13707EE7B2F5486F10D3684B91
:102B40001B88B3F5486F0BD3564B1B68564A126867
:102B50009B1AFA2B7FF66FAF0222514B1A706AE76D
:102B6000A2F57A7292B2B2F5E16F13D25C4B1B8878
:102B7000A3F57A739BB2B3F5E16F0BD2494B1B6897
:102B8000494A12689B1AFA2B7FF655AF0322444B31
:102B90001A7050E7524B1B88B3F5FA7F7FF64BAFA4
:102BA000404B1B68404A12689B1AFA2B7FF643AFD2
:102BB00003223B4B1A703EE701213E4A91714DE7DB
:102BC000B2F5FA7F25D80023464A1370424A12789C
:102BD00042490C781946012007E0424A13700AE086
:102BE0000133DBB20146632B09D8002AF8D0002C50
:102BF000F6D00029F1D10122334B1A704EE7394A41
:102C000013700123344A1370344A13702E4A137020
:102C100044E7B2F5486F10D3334B1B88B3F5486FC8
:102C20000BD3204B1B68294A12689B1AFA2B7FF69C
:102C300035AF0222244B1A7030E7A2F57A7292B2B5
:102C4000B2F5E16F13D2284B1B88A3F57A739BB2C0
:102C5000B3F5E16F0BD2134B1B681C4A12689B1A29
:102C6000FA2B7FF61BAF0322174B1A7016E71E4B89
:102C70001B88B3F5FA7F7FF611AF0A4B1B68134A26
:102C800012689B1AFA2B7FF609AF03220E4B1A70BB
:102C900004E70121074A917113E700BFB60A00203B
:102CA000B80A00208C0E00207C0E0020790E002037
:102CB000893940000C0000201F85EB51FC120020D8
:102CC000FD394000BA0A0020BC0A0020840E002012
:102CD000810E0020780E0020B40A0020B50A0020E2
:102CE000980A0020800E00209A0A00200B4B1B78C7
:102CF00073B10B4B1B785BB10A4B1B680A4A126815
:102D00009B1A0A4A934207D90022054B1A70704752
:102D1000044B1A68044B1A60704700BFB40A0020C5
:102D2000C70E00208C0E00206C0E00203F771B0089
:102D3000104B1B7823B1104B1B78DBB2022B04D055
:102D40000E4B1A680E4B1A6070470E4B1B78002B07
:102D5000F6D10A4B1B680A4A12689B1A42F20F729C
:102D60009342F1D90022044B1A700122064B1A70CB
:102D7000704700BFB40A0020C40E00208C0E002053
:102D8000740E0020E00E0020CA0E002010B5074C83
:102D90002074217001216160A260E3602146044833
:102DA000044B9847C0B2044B187010BDC8120020E5
:102DB00000800A40411A4000EE12002010B5094C74
:102DC0002074217001216160A260E3602146064801
:102DD000064B9847C0B2064B1870003018BF012050
:102DE00010BD00BF6012002000800A408119400021
:102DF000EE12002008B5064B4361064B8361512358
:102E0000837005490548064B9847002008BD00BF60
:102E1000BD2D40008D2D4000A8100020380000205E
:102E20006136400008B51120074B98470749084B09
:102E30000B60084B4B600848084B984700B108BD31
:102E40000748084B9847FAE745474000B81200206A
:102E500000879303A086010000800A401D194000EE
:102E6000A8100020F52D400008B58369274A13609B
:102E7000C069274A10601071264A106013F0FF03E2
:102E800002D0012B07D008BD234B98472349244883
:102E9000244B984708BD1F4B1A78A2F10A03DBB2F6
:102EA0005A2B9CBF204B1A601A4B5A78A2F10A0386
:102EB000DBB25A2B9CBF1C4B5A60164B9B781A09ED
:102EC00014BF0121002105D04FF47A7202FB01F2F8
:102ED0001549CA60003318BF01232BB14FF47A7231
:102EE00002FB03F3104A13610A4BDB78003318BF6F
:102EF00001231BB90D4B984718B108BD0A4A9361CD
:102F0000F8E70B480B4B9847F7E700BF900E0020FF
:102F1000F0120020940E00203138400014000020F0
:102F2000A810002075374000C4100020B5384000BC
:102F300000180E402917400008B5002109480A4B27
:102F4000984710F4000F02D0084B1B7803B108BD5E
:102F5000074988600348074B98470122034B1A70C2
:102F6000F5E700BF0000014075144000980E0020F6
:102F7000E010002019154000024A13680133136065
:102F8000704700BF8C0E002008B501460148024B77
:102F9000984708BD000E0E4019454000064B1B78AF
:102FA00023B94FF48042054B5A6370474FF4804277
:102FB000024B1A63704700BFC70E002000100E407E
:102FC000054B1B781BB11022044B5A63704710222B
:102FD000024B1A63704700BFE80E002000140E4039
:102FE00020B94FF40062044B5A6370474FF40062FB
:102FF000014B1A63704700BF00100E4018B9102231
:10300000034B5A6370471022014B1A63704700BF8D
:1030100000140E4018B3642829D0284B1B68284997
:1030200009685B1A274909888B4245D3264B1B78D0
:10303000002B31D001281FD0022829D04FF4FA717B
:10304000204A118083F001031F4A13701B4B1A683A
:103050001B4B1A604FF480621C4B5A6370474FF44D
:1030600080621A4B5A630022154B1A6070474FF466
:103070008062164B1A63704742F21072114B1A802D
:103080000022114B1A700D4B1A680D4B1A60E1E7C4
:10309000FA220C4B1A80F3E74FF4FA71094A1180B7
:1030A00083F00103084A1370044B1A68044B1A603A
:1030B0004FF48062054B1A63704700BF8C0E0020EE
:1030C000B00E002058000020B40E002000100E406A
:1030D00008B5094B1B7853B9084B1B781BB102206C
:1030E000074B984708BD0020054B984708BD0120B5
:1030F000034B984708BD00BF000B0020180E0020AE
:1031000015304000034628B364282FD0314A126896
:103110003149086831490988121A8A4232D3304A43
:103120001278934240D92B4B19682B4B19602D49CB
:103130000B7883F001030B704FF4FA702749088075
:10314000002B2CD00132264B1A704FF08042264BB8
:103150001A6370474FF08042234B5A630022204B82
:103160001A704FF4FA721D4B1A8070474FF080426C
:103170001D4B1A6300221A4B1A704FF4FA72174B48
:103180001A807047134A1268101A814203D8144AF1
:1031900012789A420DD2134B1B78002BD5D14FF0E9
:1031A0008042114B5A6370470A4B1B68181A8142C0
:1031B000F1D800220A4B1A70064B1A68064B1A60A7
:1031C0004CF25032054B1A80064A137883F0010303
:1031D0001370E0E78C0E0020A40E002054000020A5
:1031E000A00E0020A80E0020000E0E40034600286E
:1031F00029D0642832D0354A1268354908683549E3
:103200000988121A8A4239D3334A1278934244D930
:10321000324B1B78002B29D0FA222E4B1A802F4AD2
:10322000137883F001031370284B1A68284B1A6037
:1032300000222B4B1A60294B1B784BBB4FF40052DA
:10324000284B5A6370474FF40052264B5A630022B2
:10325000214B1A70FA221F4B1A8070474FF400520C
:10326000204B1A6300221C4B1A7070474FF4FA71FE
:10327000184B19800132184B1A70D0E7134A1268A4
:10328000101A8142D7D8144A12789A42D3D309E04F
:103290004FF40052134B1A6370470C4B1B68181AFB
:1032A0008142C8D800220C4B1A7042F21072094BAE
:1032B0001A800A4A137883F001031370034B1A68CB
:1032C000034B1A600122064B1A60B4E78C0E0020F3
:1032D000B80E00205A000020B50E0020BC0E0020C1
:1032E0009C0E002000100E4008B52D4B1B78FBB142
:1032F0002C4B1B78002B22D12B4B1B78002B25D17C
:103300002A4B1B78002B28D1294B1B78002B2BD163
:10331000284B1B78002B2ED1274B1B78002B31D14B
:10332000264B1B78002B34D10020254B984708BD35
:103330000020234B98470022224B1A7008BD012021
:103340001F4B984701221F4B1A7008BD02201C4BCF
:10335000984702221B4B1A7008BD0320184B984750
:103360000322184B1A7008BD0420154B98470422FD
:10337000144B1A7008BD0520114B98470522114BBC
:103380001A7008BD06200E4B984706220D4B1A7086
:1033900008BD07200A4B984707220A4B1A7008BD40
:1033A000E80E0020B80A0020BC0A0020CD0E002044
:1033B000A30A0020000B0020180E0020CE0E0020D3
:1033C000ED314000F4120020094B1B782BB9094B5A
:1033D0001B7813B9084B1B7823B14FF40062074BDD
:1033E0001A6370474FF40062044B5A63704700BF82
:1033F000E90E0020F00E0020E00E002000100E402C
:1034000008B520B31F4B1B681F4A12689B1A1F4A3E
:10341000127893421AD31E4A13780133DBB2137029
:103420001C4A526893421DD21B4A13780133137011
:10343000144B1A68144B1A60174B1B7813B90122EE
:10344000154B1A70144B1878144B984708BD134B42
:10345000984700230E4A137001210F4A11700A4A3F
:10346000136008BD0E4A12789A4204D90A4A1378AA
:10347000013B1370DCE70122074B1A700022044B5A
:103480001A70D5E78C0E0020AC0E002057000020EB
:10349000A90E0020C4100020AA0E002035364000DE
:1034A0005600002008B5094B1B78DBB2022B02D076
:1034B000074B1B781BB90020064B984708BD01201D
:1034C000044B98470822044B1A7008BDC40E002014
:1034D000B40A002001344000F412002098B1144BCB
:1034E0004FF400621A634FF480421A634FF4806213
:1034F0001A63102102F1804202F5612211634FF438
:1035000000521A6370470A4B4FF400625A634FF43B
:1035100080425A634FF480625A63102102F1804264
:1035200002F5612251634FF400525A63704700BFA5
:1035300000100E4008B5044900230B6002464FF00E
:103540008040024B984708BDF40F0020B749400067
:1035500008B5044901230B6002464FF08040024B3E
:10356000984708BDF40F0020B74940002DE9F0410D
:103570002420234B9847234B1B78002B3CD0224A16
:10358000224B9A602149224B4B604FF08040214BE7
:103590009847214C002626814FF0010884F80A80C4
:1035A0000C236360642323610225256021464FF0CC
:1035B00080401A4FB84729464FF08040184DA84721
:1035C000C4F8008021464FF08040B84741464FF094
:1035D0008040A847266021464FF08040B8473146DA
:1035E0004FF08040A8470F4C20780F4B9847207829
:1035F0000E4B9847BDE8F0810D4A044B9A60C1E735
:1036000045474000C50E002000093D00E80F00209E
:10361000A025260029484000F40F00206D484000F6
:10362000D3494000C41000203535400051354000DA
:103630000087930308B5074B1B78834209D00246E5
:10364000044B1870044902230B604FF08040034B79
:10365000984708BDBD0E0020F40F0020B749400078
:1036600070B582B00C46C57A02AA002302F8013D6B
:103670004E690123C021A078B0470C4B187008B1E7
:1036800002B070BD2D0105F030059DF8073023F024
:103690007F031D4302AA02F8015DA5690123C02131
:1036A000A078A847014B1870EAE700BF001100207E
:1036B00030B583B00A782E4BA3FB0254E40804EB28
:1036C0008405A2EB450242EA04128DF800200A7933
:1036D000A3FB0254E40804EB8405A2EB450242EA92
:1036E00004128DF801200A7AA3FB0254E40804EBCB
:1036F0008405A2EB450242EA04128DF802200A7EFC
:10370000A3FB0254E40804EB8405A2EB450242EA61
:1037100004128DF803200A7BA3FB0254E40804EB97
:103720008405A2EB450242EA04128DF804200A7CCB
:10373000A3FB0254E40804EB8405A2EB450242EA31
:1037400004128DF805200A7DA3FB0213DB0803EBAE
:103750008301A2EB410242EA03138DF8063084692B
:1037600007236A4601218078A04703B030BD00BF1F
:10377000CDCCCCCC30B583B00C46456907236A4626
:1037800001218078A847294B187000284CD19DF85A
:1037900000301A0902EB820203F00F0303EB42032D
:1037A000DBB223609DF801301A0902EB820203F0BC
:1037B0000F0303EB4203DBB263609DF802301A098A
:1037C00002EB820203F00F0303EB4203DBB2A360C0
:1037D0009DF803301A0902EB820203F00F0303EB9A
:1037E0004203DBB2A3619DF804301A0902EB8202A6
:1037F00003F00F0303EB4203DBB2E3609DF80530F7
:103800001A0902EB820203F00F0303EB4203DBB25F
:1038100023619DF806301A0902EB820203F00F03C0
:1038200003EB4203DBB2636103B030BD0011002043
:103830000F4B984200D87047F0B583B0034602A8FA
:1038400040F8043D0B4B9847056846688768C46894
:103850000269436908498F604E600D60CC60013297
:103860000A61643B4B610548054B984703B0F0BDC6
:10387000D3A02E647D54400014000020A810002026
:10388000B136400010B504464FF480510020054B7E
:10389000984705480460054B1C6000220421044B36
:1038A000984710BD2D0D4000F8120020FC1200209A
:1038B000090E400008B54FF480510846054B984763
:1038C0000A20054B98474FF480521C210348044BB3
:1038D000984708BD2D0D4000D5404000C410002081
:1038E000090E400010B50C4C0022042120460B4B61
:1038F00098472368B3F1FF3F02D0094A136010BD17
:103900000028FAD10022064B1A60204622600421CA
:10391000044B984710BD00BFF8120020AD0E4000C8
:10392000FC120020090E400038B5134C4FF48052B1
:103930001C212046114B98472368B3F1FF3F09D063
:1039400038B10D4C0E4D0FCD0FC495E8070084E83B
:10395000070038BD0028F4D1094C4FF480521C21D7
:103960002046084B9847044D0FCC0FC594E807003C
:1039700085E8070038BD00BFC4100020AD0E400030
:103980005C000020090E4000024B00221A605A60C1
:10399000704700BF0C00002010B58AB0124C2146C1
:1039A0001248134B98476369643306932369013BBC
:1039B0000593E3680493A368039363680293236801
:1039C00001934FF0FF33099301A80A4B98470A4B24
:1039D000984203DC002000210AB010BD01A8054B6D
:1039E0009847C117F8E700BF14000020A810002076
:1039F00075374000C9594000E8AA0D6370B582B020
:103A000005460C462048214B9847C4F3080333B1C0
:103A10004FF6E8539C420ED94FF4005405E04FF6A0
:103A2000E8539C4288BF4FF400544FF4805104F592
:103A30000050174B9847174B9847286004F1080629
:103A400004F500540834224608212846124B9847B2
:103A5000224608216846114B98470B480B4B984764
:103A60000822294668460E4B984738B90648074B46
:103A7000984730460B4B984702B070BD4FF48051C9
:103A80002046034B9847F1E750180E40111B4000A9
:103A90002D0D400099394000090E4000AD0E400048
:103AA000C55640008538400008B5044B98470120B2
:103AB000034B9847034B984708BD00BF7D0C40005F
:103AC0008D0C4000990C400008B51B4BDB6B13F0CC
:103AD000010F16D1194B1B789BB9174BDB6B13F0F9
:103AE000040F0ED0164B1B68164A12689B1AB3F5CA
:103AF0007A7F0DD31448154B98470122144B1A7046
:103B000008BD0F4B1A680F4B1A60114B1B7803B995
:103B100008BD104B1879104B98470B480F4B98472E
:103B200000210B4B19700E4B19700E4B19704FF48E
:103B3000FA600D4B9847EBE7000E0E40000B00209B
:103B40008C0E0020E40E00200000014053144000C1
:103B5000E00E0020C410002035364000491440001B
:103B6000580E0020690E0020251B400008B5164B9A
:103B70001B781BB3154BDB6B13F0040F1ED1134BDB
:103B8000DB6B13F0010F19D0114B1B68114A12683F
:103B90009B1A312B16D9104B1B781BB101220E4BEF
:103BA0001A7008BD0D4B98470D480A230371012375
:103BB00083710C4B19680C4B9847EFE7044B1A685C
:103BC000044B1A6008BD00BFB40A0020000E0E406E
:103BD0008C0E0020700E0020C70E00208939400096
:103BE0000C000020FC120020FD3940001F4BDB6B55
:103BF00013F0006F2BD01E4B1B8801339BB240F299
:103C0000E142934219D81A4A13801A4B1A781A4B78
:103C10001B789A4228D010B5184B984718480723AC
:103C20000371144C227882714371164B1968164B3C
:103C300098472278104B1A7010BD00230C4A13804D
:103C40000C4A1370114B1A68114B1A60DDE70F4BC9
:103C50001B680F4A12689B1A42F20F729342D4D922
:103C60000122044B1A70D0E7704700BF00140E40C9
:103C7000C80E0020CE0E0020D40E0020893940004E
:103C80000C000020FC120020FD3940008C0E0020AA
:103C9000D00E002038B53D4BDB6B13F0020F63D123
:103CA0003B4B1B683B4A12689B1AB3F5FA6F0BD368
:103CB0000022394B1A70394B1B782BB9384B1B78C3
:103CC00013B9384B1B78EBB9314B1B68314A12687A
:103CD0009B1AB3F5487F43D22D4B1B689B1A3C2B94
:103CE0004BD82B4B1B689A1A312A46D92D4B1B787F
:103CF000002B42D0284B1B78002B3ED10122264BB3
:103D00001A7038BD1446244B1A70274B1A700120C4
:103D1000264DA847234B1C70254B1C70254B1C704F
:103D2000254B1C70254B1C70254B1C70254B1C70A3
:103D30004FF40002154B5A632046234B9847192035
:103D4000224B98472046A847214B984721480923F2
:103D5000037101238371204B1968204B9847B3E707
:103D600000220D4B1A7038BD094B1A68094B1A60B6
:103D7000094B1B78DBB2012B00D038BD0222064B69
:103D80001A704FF40002014B5A63F6E7000E0E4022
:103D90008C0E0020D80E0020C40E0020B80A00208F
:103DA000BC0A0020B40A0020CA0E0020751D400085
:103DB000B50A0020880E0020890E0020C70E0020C2
:103DC0003D0E00203E0E002001344000D540400052
:103DD000893940000C000020FC120020FD39400011
:103DE00010B50446054B98470548032303718471B9
:103DF0004371044B1968044B984710BD8939400042
:103E00000C000020FC120020FD39400070B5254B4D
:103E1000DB6B13F0200F26D10022234B1A70214CAC
:103E2000224D234EE36B13F0200F1BD12B78ABB147
:103E30000120B0471C4A13780133DBB21370F92B11
:103E4000F0D90022194B1A7001201A4B18701A4B26
:103E500018701A4B18701A4B984770BD0122174BF7
:103E60001A7070BD70BD114B1B789BB9154B1B7838
:103E70000133DBB2C82B0ED90023124A1370012183
:103E80000A4A11700D4A13700F4B1B7833B1002290
:103E90000D4B1A7070BD0B4A137070BD0020084B9B
:103EA0009847F4E7000E0E40CB0E0020CC0E002009
:103EB000D5404000B40A0020B50A0020CD0E0020F5
:103EC000E13D4000D50E00207800002008B50F4BE2
:103ED000DB6B13F0040F14D10C4BDB6B13F0010FF1
:103EE0000FD10B4B1B7863B10A4B1B680A4A12684F
:103EF0009B1AB3F5FA6F08D3084B9847084B9847BD
:103F000008BD044B1A68044B1A6008BD000E0E4031
:103F1000000B00208C0E0020DC0E0020AD1C4000A9
:103F2000A54F400010B5384B1B78002B3DD0374BC8
:103F30001B78002B62D1364B1B68364A12689B1ADD
:103F4000B3F5487F5ED30123304A1370324A1370B1
:103F50000020324B98471020314B98470020314BBE
:103F600098470020304B9847304CA0470028FCD0A1
:103F700000202F4B98472F4B98472F4B40F69F72AE
:103F80005A60F0212D4A82F8231000229A600722FD
:103F90001A602B4B98472B492B4B8B602B4B4B605C
:103FA0004FF080402A4B984710BD184B1B782BB31D
:103FB000174B1B68174A12689B1AB3F5487F21D329
:103FC0000024124B1C70144B1C70224B9847224B40
:103FD00012221A642046214B98474EF66020002199
:103FE0001F4B9847164B984716491E4B8B60174B33
:103FF0004B604FF08040164B984710BD044B1A6839
:10400000044B1A6010BD00BF000B0020C60E00203C
:104010008C0E0020C00E0020C50E0020254540005B
:10402000994640004D46400085454000D546400039
:10403000E54640002547400010E000E000ED00E0CC
:10404000E1014000E80F002000093D00A025260006
:10405000294840007544400000040E409947400044
:104060007D4040000087930310B50920024CA04713
:104070000A20A04710BD00BF454740000138B0F1FD
:10408000807F09D2054B5860F021054A82F8231041
:1040900000229A6007221A60704700BF10E000E01B
:1040A00000ED00E010B54FF400414FF47A7303FBCC
:1040B00000F0054B984782B213464FF40051034875
:1040C000034CA04710BD00BFC91A400050180E4055
:1040D000F51A4000064B1A68014640B11B689B1A4E
:1040E000984204D9024803689B1A9942FBD870474A
:1040F0008C0E00200278530903F5001303F20773B6
:104100005B0202F01F02012101FA02F21A637047FA
:104110008278530903F5001303F207735B0202F080
:104120001F02012101FA02F21A63704782785309D3
:1041300003F5001303F207735B0202F01F02012173
:1041400001FA02F25A637047C278530903F500136B
:1041500003F207735B0202F01F02012101FA02F26F
:104160001A6370478279530903F5001303F207734A
:104170005B0202F01F02012101FA02F21A6370478A
:10418000C279530903F5001303F207735B0202F0CF
:104190001F02012101FA02F21A637047027A5309E1
:1041A00003F5001303F207735B0202F01F02012103
:1041B00001FA02F21A63704710B5134C6E23237094
:1041C0002046124B98477023A3706723E370204664
:1041D0000F4B98476623A37120460E4B98477C23CC
:1041E000E37120460C4B98477123237220460B4BFA
:1041F00098470B4B4FF080621A634FF080425A632E
:104200004FF400221A6310BDD40F0020F540400087
:104210004941400065414000814140009D414000CE
:1042200000140E400F4B1B78C3B90F4B1B78ABB972
:104230000E4B1B7893B90E4B1B787BB90D4B1B783B
:1042400063B90D4B1B784BB90C4B1B7833B90C4B36
:104250001B781BB900220B4B1A7070470122094BC7
:104260001A707047000B0020180E0020B80A0020BA
:10427000BC0A0020A30A0020CD0E0020CE0E002094
:10428000B40A0020E80E002038B5164B1B7843B363
:10429000154B1B780BBB154BDB6B13F0020F1CD1BE
:1042A000134B1B68134A12689B1AB3F5FA6F18D3A5
:1042B0000120114DA84700240A4B1C700F4B1C70A5
:1042C0000A4B4FF080725A634FF400025A63192070
:1042D0000B4B98472046A84738BD054B1A68054B3D
:1042E0001A6038BDF00E0020E80E0020000E0E40CF
:1042F0008C0E0020F80E0020751D4000E90E0020F5
:10430000D5404000154B1B7813B3154B1B78DBB21F
:10431000022B1DD0134B1B78BBB9134B1A69134BDF
:104320001B68134909685B1A9A4215D800220D4B85
:104330001A700E4B1A680E4B1A604FF400020D4BA8
:104340001A6301220C4B1A70704741F28832E6E77B
:10435000064B1A68064B1A60704700BFB40A00206B
:10436000C40E0020CA0E0020C41000208C0E0020B5
:10437000EC0E0020000E0E40E90E00200E4B1B78C4
:10438000A3B10E4B1B680E4A12689B1A0D4AD268E5
:1043900093420FD3094B1A68094B1A604FF0807291
:1043A000094B1A630122094B1A707047034B1A68B4
:1043B000034B1A60704700BFE80E00208C0E0020EF
:1043C000F40E0020C4100020000E0E40F00E00205D
:1043D0002DE9F84381460F46124B9847054648465B
:1043E000114B9847054013D0104C04F1600603E0D0
:1043F000B4420DD010345DB12068B842F8D1616884
:104400002942F5D0E3689847636825EA0305EFE79A
:10441000074B1B6823B1074B1B680BB148469847F5
:10442000BDE8F8831D45400021454000FC0E0020FA
:10443000001300206C0F002008B509210148024B31
:10444000984708BD000E0E40D143400008B50A2130
:104450000148024B984708BD00100E40D143400070
:1044600008B50C210148024B984708BD00140E40C6
:10447000D143400010B50E480E4B984720200E4BFC
:1044800098470E4CA0470028FCD00D4B98470D4A8A
:104490000D4B9A620D4CA0470028FCD010200C4B0D
:1044A00098470C4B98470C48024B984710BD00BFEB
:1044B000000E2707F94E40004D46400015474000CA
:1044C00025474000013F092000040E4035474000C9
:1044D000E9454000ED4D4000008793030AB90166AD
:1044E000704741667047416412F0010F14BF416686
:1044F000016612F00A0F14BF0162416212F0020F4E
:1045000007D112F0080F18BFC0F884104161016094
:104510007047C0F88010F9E781637047C06C70473E
:10452000806C7047164B1A6B22F003021A639B6E65
:1045300013F0080F0AD14FF4006311498A6E12F08C
:10454000080F03D1013BF9D1012070470C4A136BCE
:1045500023F0700318431063936E13F0080F0AD111
:104560004FF4006306498A6E12F0080F05D1013B33
:10457000F9D101207047002070470020704700BF2C
:1045800000040E40174A136B23F0030343F00103AA
:104590001363936E13F0080F0AD14FF400631149AF
:1045A0008A6E12F0080F03D1013BF9D10120704748
:1045B0000C4A136B23F0700318431063936E13F0CF
:1045C000080F0AD14FF4006306498A6E12F0080FF3
:1045D00005D1013BF9D10120704700207047002030
:1045E000704700BF00040E40174A136B23F070039E
:1045F00018431063936E13F0080F0AD14FF4006351
:1046000011498A6E12F0080F03D1013BF9D1012044
:1046100070470D4A136B23F0030343F00203136347
:10462000936E13F0080F0AD14FF4006306498A6EA7
:1046300012F0080F05D1013BF9D10120704700208D
:1046400070470020704700BF00040E4011490A6AFD
:1046500042F45C1242F008020A620A46936E13F4B6
:10466000003FFBD00B4A136A23F45C1323F0700362
:1046700043F45C1318431062936E13F4003FFBD0B5
:10468000044A136A23F09B7323F4803343F45C13CE
:104690001362704700040E400D490A6A42F45C122E
:1046A00042F008020A620A46936E13F4003FFBD000
:1046B000074A136A23F45C1323F0700343F45C137A
:1046C00018431062936E13F4003FFBD0704700BF95
:1046D00000040E40024B986E00F40030704700BF9B
:1046E00000040E4048B90A4A136A23F45C1323F00D
:1046F000010343F45C1313627047054A136A23F401
:104700005C1323F0020343F45C131362704700BF91
:1047100000040E40024B986E00F48030704700BFDA
:1047200000040E404FF00052014B9A62704700BFE8
:1047300000040E40024B986E00F00200704700BF6C
:1047400000040E402F281ED81F280CD8114B9A6940
:1047500001238340934318D0012303FA00F00D4B4B
:1047600018610020704720380A4BD3F80821012334
:10477000834093430BD0012303FA00F0054BC3F8A9
:104780000001002070470120704700207047002082
:10479000704700BF00040E404FF4807303FA00F02E
:1047A000014B1860704700BF00040E40064A1369B1
:1047B00043F004031361054B054A1A609B68BFF37D
:1047C0004F8F20BF30BF704700ED00E010180E4043
:1047D000040000A5F0B48CB007460E4601AC114DA4
:1047E0000FCD0FC40FCD0FC495E8070084E8070074
:1047F00001AA002352F8040BB6FBF0F0B0FBF7F06F
:10480000B0F5807F07D901330B2BF3D14FF6FF7042
:104810000CB0F0BC70470A2B94BF40EA03204FF65F
:10482000FF70F5E71C90400070B506460D460C6819
:1048300044B1896820460C4B984704464FF6FF73F5
:1048400098420CD0686840B1A968074B98474FF66A
:10485000FF73984205D044EA0044346000242046A7
:1048600070BD0446FBE700BFD547400070B40A683E
:104870004B6803F00F038C8A23430C8923438C7A03
:1048800043EA44238C7D43EA0443CC7D43EA44431A
:104890000C7E43EA844300EB4214C4F80032CB6838
:1048A000C4F804320B69C4F80C328B7D3BB18C8B9D
:1048B0004B8B43EA044300EB4214C4F81832856C76
:1048C0004FF001139340DB431D40CC7F04FA02F606
:1048D0008C7F944044EA06442C438464446C234017
:1048E00091F8214004FA02F591F82040944044EAFE
:1048F0000544234343640123934091F82240002C54
:1049000043D0046A1C43046291F82440022C41D035
:10491000D0F8C050DC432540C0F8C05091F8245076
:10492000012D07BF846E1C43856E2C40846691F870
:104930002540022C34D0D0F8C0501B04DC43254065
:10494000C0F8C05091F82550012D30D0836E1C4026
:104950008466D200C46EFF23934024EA030491F8D6
:10496000233003FA02F22243C2660B6853B991F86E
:104970002C30012B8B6A23F07F4308BF43F08073F8
:10498000C0F8A030002070BC7047046A24EA030419
:104990000462B9E7D0F8C0401C43C0F8C040C6E785
:1049A000D0F8C04044EA0343C0F8C030D1E7846E79
:1049B00023438366CDE70B69934202D24FF6FF7023
:1049C00070470B68CA6000EB4310C0F80822002053
:1049D0007047012303FA01F1416070472DE9F84F58
:1049E0000920CB4CA0470A20A0470C20A047C94A69
:1049F0004FF480451561C2F8A050C74B4FF00041FD
:104A00001961C3F8A0104FF000511961C3F8A0104C
:104A10004FF08049C3F81090C3F8A090BF494FF4FD
:104A200000660E61C1F8A0600D61C1F8A0504FF49E
:104A300080600861C1F8A0004FF0100EC2F810E0CD
:104A4000C2F8A0E04FF400570F61C1F8A0704FF01A
:104A5000806CC3F810C0C3F8A0C04FF48030106160
:104A6000C2F8A0004FF0010BC3F814B0C3F8A0B017
:104A700004245C61C3F8A0404FF0020AC3F814A0FC
:104A8000C3F8A0A080201061C2F8A00040201061EF
:104A9000C2F8A0004FF080501061C2F8A0004FF49F
:104AA00000301061C2F8A0004FF08078C2F810808A
:104AB000C2F8A080C2F810C0C2F8A0C008201061DF
:104AC000C2F8A000C2F810B0C2F8A0B01461C2F8D9
:104AD000A040C2F810A0C2F8A0A0C3F810C0C3F84C
:104AE000A0C0C3F81080C3F8A0804FF4000CC3F836
:104AF00010C0C3F8A0C04FF02008C3F81480C3F85A
:104B0000A0804FF0006AC2F814A0C2F8A0A04FF431
:104B1000002AC2F810A0C2F8A0A0C2F81090C2F8F3
:104B2000A090C1F81480C1F8A0804FF48018C2F89A
:104B30006080C2F89080C2F85480C2F82480C2F825
:104B40008080D2F8709029F48019C2F87090D2F861
:104B5000749029F48019C2F87490C2F804804FF45C
:104B60000018C2F86080C2F89080C2F85480C2F881
:104B70002480C2F88080D2F8709029F40019C2F81D
:104B80007090D2F8749029F40019C2F87490C2F8A9
:104B900004804FF48008C2F86080C2F89080C2F8A8
:104BA0005480C2F82480C2F88080D2F8709029F432
:104BB0008009C2F87090D2F8749029F48009C2F884
:104BC0007490C2F80480C2F860C0C2F890C0C2F805
:104BD00054C0C2F824C0C2F880C0D2F8708028F453
:104BE0000008C2F87080D2F8748028F40008C2F877
:104BF0007480C2F804C01866C3F890005865586203
:104C0000C3F880001A6F22F008021A675A6F22F068
:104C100008025A675860C3F860E0C3F890E0C3F830
:104C200054E0C3F824E0C3F880E01A6F22F01002C9
:104C30001A675A6F22F010025A67C3F804E04FF463
:104C400080521A66C3F890205A655A62C3F88020D1
:104C5000D3F870E02EF4805EC3F870E0D3F874E00F
:104C60002EF4805EC3F874E05A601F66C3F890703B
:104C70005F655F62C3F880701A6F22F400521A6792
:104C80005A6F22F400525A675F601D66C3F8905055
:104C90005D655D62C3F880501A6F22F480421A6726
:104CA0005A6F22F480425A675D601E66C3F89060B6
:104CB0005E655E62C3F880601A6F22F400621A6754
:104CC0005A6F22F400625A675E600866C1F890006D
:104CD00048654862C1F880000B6F23F008030B673A
:104CE0004B6F23F008034B6748600C66C1F8904097
:104CF0004C654C62C1F880400B6F23F004030B67D6
:104D00004B6F23F004034B674C60BDE8F88F00BF86
:104D10004547400000140E40000E0E4000100E40AB
:104D2000FEE7000000B583B0254B264A9A4210D01A
:104D3000254B234A9A420CD2013B9B1A23F00303D2
:104D4000043313441F4951F8040B42F8040B9A42F0
:104D5000F9D11E4B1E4A9A420AD2013B9B1A23F0FC
:104D6000030304331344002142F8041B9342FBD194
:104D7000184A194B23F07F039360EFF31083B3FAC3
:104D800083F35B09019372B6BFF35F8F0022134B6D
:104D90001A700199124A136843F470031360BFF349
:104DA0004F8FBFF36F8F29B101220C4B1A70BFF3E5
:104DB0005F8F62B60B4B98470B4B9847FEE700BFDF
:104DC00000000020C89240007C0A002054130020FC
:104DD0007C0A002000ED00E0000040007900002087
:104DE00088ED00E02D544000D95240003B4B1B6B36
:104DF00003F00303012B1DD083B1022B36D0374BB8
:104E00001B6B03F07003702B5FD0344B1A6B34496B
:104E1000C2F302120B68D3400B607047314B5B69E1
:104E200013F0800F14BF4FF400424FF4FA422C4BA2
:104E30001A60E4E7294B1B6A13F0807F03D02A4AEB
:104E4000274B1A60DBE7294A254B1A60234B1B6A64
:104E500003F07003102B05D0202BD0D1224A204B19
:104E60001A60CCE7224A1E4B1A60C8E71B4B1B6A2C
:104E700013F0807F16D01C4A194B1A60174B1B6B1E
:104E800003F00303022BBAD1144A916A926A1448C0
:104E9000C1F30A41036801FB0333D2B2B3FBF2F35F
:104EA0000360ACE7114A0E4B1A600C4B1B6A03F00F
:104EB0007003102B05D0202BE0D10B4A084B1A6051
:104EC000DCE70B4A064B1A60D8E7054A1368094924
:104ED000A1FB03135B081360704700BF00040E4082
:104EE0007C00002010180E40001BB70000093D0098
:104EF00000127A00ABAAAAAA124B984211D9124BFF
:104F0000984213D9114B984214D9114B984215D994
:104F1000104B984294BF4FF004220F4A0F4B1A6077
:104F200070474FF080620D4B1A6070470C4A0B4B74
:104F30001A6070470B4A094B1A6070470A4A074BC0
:104F40001A607047FF2C3101FF596202FF869303FC
:104F5000FFB3C404FFE0F50500050004000A0E409D
:104F60000001000400020004000300040A4B1B6857
:104F700053B1094B1B681A180849914208DB1046C7
:104F8000054A106018467047054A034B1A60F0E75F
:104F90004FF0FF30704700BF700F0020FCFF012072
:104FA00058430020F8B50020224B9847224C4FF47C
:104FB000804363634FF480326263802262634022E5
:104FC00062634FF0805262631C4D4FF400626A636B
:104FD0006B634FF400566E634FF480636B63184F3E
:104FE0004FF000437B6300224FF440612846154B8D
:104FF000984704224FF0FF313846134FB847042238
:105000004FF0FF312846B84704226FF400312046A4
:10501000B847324631460D480D4B984700200D4B9E
:10502000984700200C4B98470C4B98470C4B9847DF
:10503000F8BD00BFFD2F400000140E4000100E40D0
:10504000000E0E40DD444000E744400010180E40C2
:105050005F18400025454000E546400025474000D8
:10506000AD47400038B52C4B98472C4B1B682C4A59
:1050700012689B1A012B1FD9284B1A68284B1A60FB
:10508000284C2378B3FA83F35B092370264D2B78E1
:10509000DBB2012199402548254B98472B780133F5
:1050A000DBB22B70237833B31022224B1A631E4BD2
:1050B0001B78DBB20F2B22D0184B1B681E4A1268DC
:1050C0009B1AB3F5167F13D9144B1A681A4B1A6042
:1050D0001A4A1378B3FA83F35B091370137893B108
:1050E000282140F6B830164B98470520154B9847B5
:1050F000154B984738BD10220E4B5A63D7E70A224A
:10510000094B1A70D8E7002140F6C4100C4B9847A1
:1051100032200C4B9847EBE7C93A40008C0E002038
:10512000500E0020620E00200800002000100E40EB
:105130001945400000140E405C0E0020580E00205F
:10514000251B4000353640005125400008B5344B42
:105150001B68344A12689B1A092B4ED80222324B24
:105160001A60324B9847324B9847324B9847324B34
:105170009847324B9847324B9847324B9847324BBF
:105180009847324B9847324B9847324B9847324BAF
:105190009847324B9847324B9847324B9847324B9F
:1051A0009847324B9847324B9847324B9847324B8F
:1051B0009847324B9847324B9847324B9847324B7F
:1051C0009847324B9847324B9847324B1860324BD6
:1051D0009847324B1880324B9847324B1880324BED
:1051E0009847324B1880324B9847324B1880324BDD
:1051F0009847324B1B7863B908BD31493148324B6F
:1052000098470222314B1A60054B1A68054B1A6009
:10521000A4E72F482F4B98470022284B1A70EBE742
:105220008C0E0020A40A002000400B40C12F40003B
:10523000D1304000E9324000C93340009D2F40008A
:10524000A5344000511E4000953C40006D3B40009D
:10525000C93A40000D3E4000CD3E4000192A4000B2
:10526000ED3B4000590A4000253F400025424000E8
:105270003D07400085294000894240000543400029
:105280007D434000ED2C4000312D4000A50B400037
:10529000A1054000040B0020490540001A0E002023
:1052A000E9044000B60A002089044000BA0A002040
:1052B0006D0640001C0E0020F1214000980E0020D9
:1052C00014000020A81000207537400000000B409B
:1052D000E0100020692E400008B5304B984740F69A
:1052E000B8302F4B98472F4B98474FF442602E4BC6
:1052F00098472E4B98474EF6602000212C4B98473C
:105300002C4B98474FF400322B4B1A6325202B4B24
:1053100098472B4B984764202A4B98472A4B98472D
:105320002A4B98472A4B98472A4B98472A4B98472D
:105330002A4B98472A4B98472A4B98472A4B19687B
:105340002A4A116019682A4A11601968294A1160AD
:105350001968294A11601968284A11601968284A91
:1053600011601968274A11601968274A11601A6884
:10537000264B1A600023264A1370264A1370264DC6
:10538000264E274C03E0B0472046264B98472B7803
:10539000002BF8D0244B9847F6E700BF7544400037
:1053A000A5404000DD494000F9164000694040003A
:1053B0007D404000B941400000140E404547400088
:1053C000252E4000D5404000A93A40002939400030
:1053D000E5384000292540006D354000E1014000DE
:1053E00081224000D11B40008C0E00207C0E00204A
:1053F000840E0020D80E0020140E0020FC0A00208D
:10540000DC0E0020C00E0020A40A0020380E002070
:10541000CA0E0020C40E0020E00E00204D514000B6
:1054200050180E40111B40006550400070B50F4EE3
:105430000F4D761BB61018BF002405D0013455F867
:10544000043B9847A642F9D10A4E0B4D761B03F058
:1054500025FFB61018BF002406D0013455F8043BD0
:105460009847A642F9D170BD70BD00BFA892400018
:10547000A8924000B0924000A8924000024B1968E8
:105480007C3100F003B800BF800000202DE9F0411E
:105490000C46074600F07CFF21468046384600F067
:1054A0007BFF466906F26C76B107044600F0B980CE
:1054B000F5177F4B83FB0623C5EBE3154FF4C87349
:1054C00003FB1565002D0CBF30250025794B1D44CD
:1054D00000F02AFD00F034FD774B1B6843B3D8F889
:1054E00004309E4205D0304600F05CFC002800F0FD
:1054F000A680D8F8003083B93B68D8F81C209342C6
:1055000080F2A180D8F838209342B4BF0123002351
:1055100023620EDAD8F83C600DE03B68D8F81C2016
:10552000934204DBD8F838209342C0F28C800023E9
:105530002362D8F82060614A614FA16882FB06327D
:105540003244F317D212D01A4FF4616E0EFB106082
:1055500087FB00673E18C717C7EB6617C7EB071E28
:105560002668D31AA0EB8E006268301ACB1AD21BC1
:105570003B2884E80D004DDD01323C3884E805000D
:105580003B2A40DD01333C3AA3606260172B1DDDEE
:10559000A269E1690132062AC8BF0022A261E2685D
:1055A0000131E161183B01322169A360E26055F8E5
:1055B00021309A4205DD0131D21A0C29E26045D032
:1055C000216100F0B7FC2046BDE8F081002BF8DA3D
:1055D000A269E169013A48BF0622A261E268013985
:1055E0001833013AE161A360E260002AE9D123693E
:1055F000013B32D423619B00EB58E36000F09AFC3E
:105600002046BDE8F081002AC0DA013B3C32A360AD
:105610006260BBE70028B3DA013A3C3084E8050059
:10562000AEE7234BF51783FB0623C5EB6313642218
:1056300002FB1363002B3FF43CAF302546E74FF0ED
:10564000FF33236275E70123236263E76369002266
:10565000013363612261E261B3E763695A1E0B2182
:1056600062619207216113D003F26B72D317104964
:1056700081FB0201C3EBE1134FF4C87101FB13235B
:10568000B3FA83F35B0903F5B673E3612C23B3E745
:10569000074903F26B7281FB0231D317C3EB61112F
:1056A000642000FB11210029E1D040F26D13ECE7EA
:1056B0001F85EB51AC904000900F0020C5B3A29124
:1056C00089888888032A70B422D940EA01039B079D
:1056D00011D003780C78A3421DD10A44013105E0B2
:1056E00010F8013F11F8014BA34214D19142F7D1B8
:1056F000002070BC70470D680668AE420C46034639
:1057000001F1040100F1040008D1043A032AF2D89F
:10571000002ADED1ECE7181B70BC70472146184602
:10572000D7E700BF70B4860746D0541E002A41D088
:10573000CAB2034602E014F1FF343BD303F8012B55
:105740009D07F8D1032C2ED9CDB245EA05250F2CA3
:1057500045EA054519D903F110022646103E0F2EE1
:1057600042F8105C42F80C5C42F8085C42F8045CB9
:1057700002F11002F2D8A4F1100222F00F0204F09C
:105780000F041032032C13440DD91E462246043A4E
:10579000032A46F8045BFAD8221F22F003020432DF
:1057A000134404F003042CB1C9B21C4403F8011BD8
:1057B0009C42FBD170BC704714460346C2E700BF51
:1057C0002DE9F04101683B2982B0044600F2B68021
:1057D00041683B2900F2A580A168172900F2948056
:1057E00021690B2900F2838063699F0733D17448D4
:1057F000DA1780FB0365C2EB6512642505FB1232E4
:10580000002A64D0E3686F4D002B4FF01D0627DCA3
:105810006B4F4FF0640E4FF4C87C07E0012914BFB2
:1058200055F8212032461344002B37DC11F1FF31AB
:10583000F4D261694A1E9607626140F08C8087FB52
:105840000206D017C0EB66100EFB1022002A00F0F3
:1058500086801D2680E01C26E3685A4D002BD7DD8C
:10586000DFF85CE100274FF0640C4FF4C8784A1C65
:105870000BE055F821009842A3EB000310DA0C2A44
:10588000E36022610FD0013101320129F1D19E4242
:10589000A3EB060304DAE3602261F4E72161E3602D
:1058A00002B0BDE8F081616927614A1C900762611E
:1058B00002D01C260021DAE78EFB0206D017C0EBCF
:1058C00066100CFB1022002A57D01D26F2E703F2C7
:1058D0006C7380FB0320DA17C2EBE0104FF4C87240
:1058E00002FB1033002B14BF1C261D26B4E70C222C
:1058F000684600F0D1FC6369009A019913440029BD
:10590000636157DB216170E71822684600F0C4FC30
:105910009DE80600E368002A0B44E36045DBA260D3
:105920005EE73C22684600F0B7FCA2680099019B44
:105930001144002BA16033DB63604EE73C226846D4
:1059400000F0AAFC9DE80C006168002B1144616026
:1059500021DB23603DE71C260B211F2263E701F2B8
:105960006B7187FB0120CA17C2EBE0120CFB12110E
:10597000002914BF1C261D26EEE701F26D718EFB77
:105980000120CA17C2EBE01208FB1211002914BF54
:105990001C261D268EE73C3301392360616018E721
:1059A0003C3301396360A16017E71832013BA26004
:1059B000E36015E70C31013B2161636115E700BF2E
:1059C0001F85EB514C9040002DE9F84F064600F042
:1059D000DFFC80463046FFF7F3FECE4D3469736836
:1059E0003168F268B06855F82450C3EB031301EB3B
:1059F00083034FF4616E013A012C0EFB003E154407
:105A0000716902DD880700F0C88001F51C5310336E
:105A100044F620629342F56100F27981462900F351
:105A2000938000F0F080452900F07E81BA4845243B
:105A300040F26D1964274FF4C87C16E004F26C7ACA
:105A400080FB0A2B4FEAEA72C2EBEB120CFB12A2AC
:105A5000002B40F0D180002A14BF4B464FF4B7739F
:105A6000013CA142A5EB030510D080FB0423E21703
:105A7000C2EB631314F0030F07FB1343DED0013CAA
:105A800040F26D13A142A5EB0305EED1A10740F052
:105A9000E780A14AE31782FB0401C3EB6113642191
:105AA00001FB1343002B40F0F18004F26C7182FB88
:105AB0000132CB17C3EBE2124FF4C87303FB12138E
:105AC000002B40F26D1308BF4FF4B773ED1A934FDC
:105AD00007FB05E700F028FA00F032FA904BD3F804
