:020000040040BA
:10000000A8430020454C4000414C4000414C40007A
:10001000414C4000414C4000414C40000000000079
:10002000000000000000000000000000414C400003
:10003000414C400000000000414C4000752F400042
:10004000414C4000414C4000414C4000414C40007C
:10005000414C4000414C4000414C4000414C40006C
:10006000414C40002D43400041434000414C400082
:1000700055434000414C4000414C4000414C400041
:10008000414C4000414C4000414C4000414C40003C
:10009000414C4000414C4000414C4000414C40002C
:1000A000414C4000414C4000414C4000414C40001C
:1000B000414C4000414C4000291440003D14400098
:1000C000414C4000414C4000414C4000414C4000FC
:1000D000414C4000E12E4000414C4000414C40006A
:1000E000414C4000414C4000414C4000414C4000DC
:1000F000414C4000414C400010B5054C237833B9C9
:10010000044B13B10448AFF300800123237010BDEA
:10011000840A00200000000008AC40000C4B43B1F2
:100120000C480D4910B5AFF300800C48036823B9A3
:1001300010BD0A48036833B97047094B002BF7D04C
:10014000BDE810401847064B002BF5D0184700BFFC
:100150000000000008AC4000880A002008AC400005
:1001600000000000034B02225A669A6E024B1A608E
:10017000704700BF00400B4034100020034B0322A7
:100180005A669A6E024B1A60704700BF00400B40DF
:100190006810002008B50D4B1B6B13F0006F14D0D6
:1001A00000230B4902E001330C2B08D013F0010FA0
:1001B000F9D131F8132092B221F81320F3E700228D
:1001C0000449054B1868054B984708BD00000B40D3
:1001D00068130020CC0F0020101000207D17400075
:1001E0002DE9F047474C2046474EB047474D28463B
:1001F000B047474B1978474E3046474B98473146F2
:100200002046464FB84731462846B847444E304608
:10021000444B9847324600212046434FB847324668
:1002200001212046B847324602212046B8473246CF
:1002300003212046B847324604212046B8473246BB
:1002400005212046B847324602212846B8473246A3
:1002500003212846B8474FF00008C4F864804FF4E3
:100260000063E36601276766E36602266666E36667
:100270004FF00309C4F86490E36604226266E36603
:1002800005216166E3666E66EB66C5F86490EB6611
:10029000636823F08F0363606B6823F08F036B60E8
:1002A00067616661626108236361102161612021D9
:1002B00061616A616B61DFF894A01C48CAF80000B4
:1002C0001B491C4B0B600C234B6042461A4B984752
:1002D0003946DAF80000194B98474346184A0A2174
:1002E0002046DFF86C80C0473B46164A3146284618
:1002F000C0473B46144A49462846C04726602E6000
:10030000BDE8F08700000B405114400000400B4056
:10031000B00E00201410002079124000C5124000D9
:10032000BC0F0020B91240004912400000010B40F0
:10033000CC0F0020681300207D1740009517400067
:1003400095014000650140007D0140001010002033
:10035000D113400030B40D4B1B680D4D0D4C54F8BB
:100360002320111A2A68521A2A6044F823003F2BCE
:1003700014BF0133002305490B601046002AB8BFA3
:1003800002F13F00801130BC704700BFF40A00202A
:10039000240E0020100B002030B40B4B1B780B4DAB
:1003A0000B4C34F81320111A2A68521A2A6024F8C8
:1003B00013003F2B1ABF0133DBB2002302490B703D
:1003C000900930BC704700BFF80A0020280E0020BA
:1003D000100C002030B40B4B1B780B4D0B4C34F839
:1003E0001320111A2A68521A2A6024F813003F2B8E
:1003F0001ABF0133DBB2002302490B70900930BCF5
:10040000704700BFF90A00202C0E0020900C00203D
:1004100030B40B4B1B780B4C226802440A4931F86C
:100420001350521B226021F813003F2B1ABF0133D7
:10043000DBB2002302490B70900930BC704700BF4B
:10044000FA0A0020300E0020100D002030B40B4BB3
:100450001B780B4D0B4C34F81320111A2A68521AD2
:100460002A6024F813003F2B1ABF0133DBB20023AC
:1004700002490B70900930BC704700BFFB0A002096
:10048000340E0020900D002000B583B00F4B9B88E8
:100490009BB207EE903AF8EEE77A0D4B93ED007AB7
:1004A00067EE877ADFED0B6A87EEA67ADFED0A7AD0
:1004B00067EE277AFCEEE77ACDED017ABDF804000D
:1004C000064B984780B203B05DF804FB6813002028
:1004D0000C00002000F07F4500007A4455034000E6
:1004E00000B583B00F4B1B889BB207EE903AF8EE35
:1004F000E77A0D4B93ED007A67EE877ADFED0B6AB2
:1005000087EEA67ADFED0A7A67EE277AFCEEE77AC5
:10051000CDED017ABDF80400064B984780B203B0D8
:100520005DF804FB681300200C00002000F07F45FC
:1005300000007A449903400000B583B00F4B1B893B
:100540009BB207EE903AF8EEE77A0D4B93ED007A06
:1005500067EE877ADFED0B6A87EEA67ADFED0A7A1F
:1005600067EE277AFCEEE77ACDED017ABDF804005C
:10057000064B984703B05DF804FB00BF68130020EA
:100580000C00002000F07F4500F01C45D503400022
:1005900008B50D4B9B8A9BB207EE903AF8EEE77ACE
:1005A0000A4B93ED007A67EE877ADFED096A87EEF2
:1005B000A67ADFED087A67EE277AFCEEE77A17EE87
:1005C000900A054B984708BD681300200C000020D6
:1005D00000F07F45009C6546110440000B4BD3EDB5
:1005E000007AF8EE677A0A4B93ED007A67EE877A25
:1005F000DFED086A87EEA67ADFED077A67EE277AE5
:10060000FCEEE77A17EE900A704700BF68100020F2
:100610000C00002000F07F4500007A440B4BD3ED26
:10062000007AF8EE677A0A4B93ED007A67EE877AE4
:10063000DFED086A87EEA67ADFED077A67EE277AA4
:10064000FCEEE77A17EE900A704700BF34100020E6
:100650000C00002000F07F4500007A4400B583B014
:100660000F4B9B899BB207EE903AF8EEE77A0D4B61
:1006700093ED007A67EE877ADFED0B6A87EEA67A54
:10068000DFED0A7A67EE277AFCEEE77ACDED017AA4
:10069000BDF80400064B984703B05DF804FB00BFAB
:1006A000681300200C00002000F07F4500B0A64534
:1006B0004D044000F8B582240F4F104E104D3846BF
:1006C000B047A8470F4B18600F4B98470F4B188047
:1006D0000F4B98470F4B18800F4B98470F4B1880C4
:1006E0000F4B98470F4B188002200F4B9847631E03
:1006F00013F0FF04E3D1F8BD50180E40051C400074
:1007000091054000080B0020390540001E0E002016
:10071000E1044000BA0A002089044000BE0A00201B
:100720005D064000200E0020D53F4000F8B5944BF8
:100730001B78002B40F07B81924B1B68924A126819
:100740009B1AF92B10D9914B08221A6301221A63C4
:1007500004225A6302225A638A4B1A688A4B1A602F
:100760008B4A137801331370894B1B78013B032BA1
:1007700000F2CC80DFE813F0040051007900A10002
:10078000844B1B78002B33D10122824B1A707D4B96
:1007900019687D4B19607D4B1A6302221A63082287
:1007A0005A6304225A637C4B1B78002B00F03F8174
:1007B0007A4B1A8840F6E7039A4200F21381784B8D
:1007C0001A8840F6E7039A4200F20C81754B1A88AA
:1007D00040F6FC039A4240F22681734B1A8840F699
:1007E000FC039A4240F21F810022704B1A70FCE019
:1007F000644B1B68644A12689B1A132BD3D96C4A4A
:10080000138801339BB213806A4B18686A4B984770
:100810006A4A136818441060C5E7694B1B787BB9B6
:100820000122674B1A70574B1968574B1960574B89
:100830005A6302225A6308221A6304221A63B2E737
:10084000504B1B68504A12689B1A142BABD95D4A57
:10085000138801339BB213805B4B18685B4B98473E
:10086000564A5368184450609DE7594B1B787BB932
:100870000122574B1A70434B1968434B1960434B85
:100880001A6302225A6308225A6304225A638AE7CF
:100890003C4B1B683C4A12689B1A142B83D94D4A67
:1008A000138801339BB21380424B1868424B984720
:1008B000424A93681844906075E7474B1B787BB9B0
:1008C0000122454B1A702F4B19682F4B19602F4B83
:1008D0005A6302225A6308221A6304225A6362E7A7
:1008E000284B1B68284A12689B1A142B7FF65BAFB3
:1008F0003A4A138801339BB21380334B1868334B49
:1009000098472E4AD3681844D0604CE70124204B06
:100910001C702A480368264D2A8892B2B3FBF2F372
:100920001E4A13804368274E328892B2B3FBF2F31B
:100930001B4A13808368274F3A8892B2B3FBF2F3C5
:10094000184A1380C368DFF894E0BEF8002092B222
:10095000B3FBF2F3144A13800021AEF80010398083
:10096000318029800B4B1970154B1970184B197079
:10097000194B1970084B1C702822194B984717E720
:10098000B80A00207C0E0020B40A002000140E409B
:100990000C0B0020A00A0020FC0A0020EC0A00201A
:1009A000F00A0020EE0A0020F20A0020A70A002028
:1009B000A20A002068100020DD054000C40A0020C3
:1009C000AC0A0020AE0A0020341000201D064000B2
:1009D000A10A0020A40A0020AD0A0020B00A0020CD
:1009E000995440000122124B1A70114B1B78114A86
:1009F00012789A421BD00F4A13700F4B984704226B
:100A00000E4B1A710A4B1B784BB900210B4A91719E
:100A10000A4843710A4B19680A4B9847F8BD0121EF
:100A2000064A9171F4E70222014B1A70DDE7F8BD26
:100A3000A70A0020A60A0020A938400018000020BC
:100A4000501300201D39400010B5414B1B8841F266
:100A5000941293424DD93F4B1A683F4B1A600022C3
:100A60003E4B1A703E4B1A783C4B1B789A4215D07D
:100A70003C4B98473C4806230371384C23788371DC
:100A8000334B1B88394AA2FB03231B09C371384B24
:100A90001968384B98472278314B1A70364B1A68D0
:100AA00042F2FC139A4247D92A4B1A68334B1A6018
:100AB0000022334B1A70334B1A78314B1B789A4211
:100AC00016D0284B9847284805230371234B1B78E1
:100AD00083711F4B1B88254AA2FB03231B09C3718B
:100AE000234B1968234B9847254B1A78254B1A70CE
:100AF00010BD41F22F1293420FD8214B1B7863B1E6
:100B0000144B1B68204A12689B1AB3F5FA6FA9D3DD
:100B10001E4B98471E4B9847A4E70E4B1B680E4A86
:100B200012689B1AFA2B9DD901220C4B1A70094BA3
:100B30001A68154B1A6095E7064B1B680F4A126836
:100B40009B1AFA2BB7D901220D4B1A70B3E700BFDD
:100B50001E0E00207C0E0020180E00201C0E00200F
:100B6000140E0020A9384000180000201F85EB510A
:100B7000501300201D394000080B0020000B0020FE
:100B8000040B0020FD0A0020100E0020951D4000DF
:100B9000E54F400008B5054B1A8843F2B0639A420E
:100BA00003488CBF034B044B984708BD200E002020
:100BB000C00F00202D4040001140400010B582B011
:100BC0000446164B1878164B98476268A37A43EA96
:100BD0000263110201F47F010B43120A02F47F4207
:100BE000134302A840F8083DE17A0E4B984710B134
:100BF000082002B010BDA37A013BDBB2012B218992
:100C0000206894BF074B084B984708B10820F0E7CD
:100C1000024B1878054B98470020EAE710000020A7
:100C2000FD0E4000450F40002D0F4000150F400005
:100C300000B585B006238DF80E3001238DF80F30F6
:100C400000230193ADF80C30029301A8024B9847A2
:100C500005B05DF804FB00BFBD0B400008B5024BBA
:100C60009847002008BD00BFC50E4000014B18701A
:100C7000704700BF1000002000B585B0002303932B
:100C80009F228DF80A2001228DF80B2003AA0092E2
:100C90000322ADF8082001936846064B9847039855
:100CA00020F07F40044B984214BF0420002005B080
:100CB0005DF804FBBD0B4000C223130000B585B0F6
:100CC00005238DF80E3001238DF80F300190ADF81B
:100CD0000C300023029301A8024B984705B05DF841
:100CE00004FB00BFBD0B400010B582B0064C0DF1F7
:100CF0000700A047024620B99DF8073013F0010F06
:100D0000F5D1104602B010BDBD0C4000B0F5800F0B
:100D100002D90923184670472DE9F04784B00446EC
:100D20000DF10F00284B9847034628B99DF80F3066
:100D300013F0010F04D00623184604B0BDE8F08775
:100D400013F00C0F01D00723F6E7204B984703461A
:100D50000028F1D124F47F6525F00F0504F5FF503C
:100D60001E30441B240B28D02E020027DFF86C8095
:100D7000DFF86CA0DFF86C9098F80000D04706F41C
:100D80007F0343F020032A0A02F47F42134304A89E
:100D900040F80C3D0421C84798B9002108460C4B87
:100DA000984770B998F800000A4B9847013705F545
:100DB000805506F58016BC42DED1074B98470346A6
:100DC000BAE70823B8E700BFBD0C4000310C400073
:100DD0002D0F4000150F4000E90C400010000020CE
:100DE000FD0E4000450F40008B18B3F5800F02D96F
:100DF0000923184670472DE9F04F85B007468B460A
:100E0000164699B3DFF87890DFF87880DFF878A09D
:100E1000F4B2C4F580745C4528BF5C46C847022321
:100E20008DF80A3004238DF80B300097A5B2ADF889
:100E3000085001966846C0470346D0B9D0470346DC
:100E4000B8B90DF10F000D4B9847034688B99DF8CE
:100E50000F2012F0200F0BD12744ABEB05051FFA32
:100E600085FB2644BBF1000FD2D102E0002300E055
:100E70000523184605B0BDE8F08F00BFBD0C40004B
:100E8000310C4000BD0B4000E90C40008B18B3F55D
:100E9000800F01D90920704700B585B003238DF874
:100EA0000E3004238DF80F300190ADF80C10029233
:100EB0000DEB0300024B984705B05DF804FB00BF43
:100EC000BD0B400030B583B0074C2046074B984718
:100ED00000220092064B07492046074DA8470123F0
:100EE000236003B030BD00BF008008405D0F4000AC
:100EF000001BB700380E0020B10F400008B50249B2
:100F00000248034B984708BD380E00200080084077
:100F10003110400008B502490248034B984708BD0C
:100F2000380E0020008008406110400008B50A46D5
:100F300001460248024B984708BD00BF00800840A8
:100F4000B710400008B50A4601460248024B9847D0
:100F500008BD00BF008008408110400010B5044665
:100F6000104B984780232360636843F0010363605C
:100F7000636843F010036360636823F08003636079
:100F800000212046084B9847636823F00203636002
:100F9000636823F00403636000212046034B9847F5
:100FA00010BD00BFA1174000B1174000C717400097
:100FB0002DE9F04104460D46164615491846154BD5
:100FC0009847074600231A4629682046DFF85C80C8
:100FD000C0470022296820460F4B9847FAB229687B
:100FE00020460E4B98470822296820460C4B98470C
:100FF0007208296820460B4B984786F0010202F0E0
:10100000010229682046084B9847BDE8F08100BFDF
:10101000008793036F1840005B184000851840005C
:1010200015184000D9174000F7174000AD184000D0
:1010300008B5436813F0040F06D009680F2900D9DA
:1010400008BD064B984708BD09680329F8D8012355
:1010500003FA01F1C943014B9847F1E7B11740008A
:1010600010B50446236913F4007FFBD00F212046FE
:10107000024B98474FF08073236010BDB1174000BA
:101080001AB110B40C46114406E00020704714F861
:10109000013BC360A1420CD043F69923026912F0D0
:1010A000020FF4D1013BF9D16FF002005DF8044B5F
:1010B00070470020FAE73AB170B415460C460D446B
:1010C000FF2640F2012112E000207047C66043F67F
:1010D0009923026931EA020204D0013BF9D16FF091
:1010E00002000EE0836804F8013BA5420BD043F6F2
:1010F0009923026912F0020FE8D1013BF9D16FF098
:10110000020070BC70470020FBE700002DE9F041B1
:1011100080B90C469046002A0FDD8F18084E094D05
:10112000306821462B6898470134BC42F8D14046CC
:10113000BDE8F0814FF0FF38F9E78046F7E700BFE0
:10114000BC100020B41000200138022815D82DE969
:10115000F0410E4614469AB10D46DFF838800C4F28
:10116000D8F8000015F8011B3B68984700280ADBF7
:10117000A81B013CF4D1BDE8F0814FF0FF3070476F
:101180001046BDE8F0814FF0FF30BDE8F08100BFB0
:10119000B8100020BC10002008B5C0EBC00001EB67
:1011A0004001034B53F8213003B1984708BD00BFFD
:1011B000C01000202DE9F04383B0026BC36A1340D6
:1011C00001931F4FB84214BF0027012701250024B7
:1011D0002E46DFF870804FF0060914E0019B13F4EF
:1011E000004F0ED049463846C0470AE00B2C19D8AC
:1011F000019A04F1110306FA03F313420FD10D2DE6
:101200001AD8013401352146062CEFD8E6D0019BCF
:1012100006FA04F21A42F2D03846C047EFE73846E1
:10122000C047ECE7019A04F1120306FA03F31342F4
:10123000E5D03846C047E2E703B0BDE8F08300BF21
:1012400000400B409911400030B4046E01238B40E4
:1012500024EA03041578002D08BF00232343036606
:10126000446D4B000321994024EA010451789940D0
:101270002143416530BC7047002303600B4A0C4B8F
:1012800000290CBF1946114641600A4B83604FF498
:101290008023C3600022026102230375012343758A
:1012A0008375C275037643768376704700093D00E7
:1012B00000879303808D5B0000230370012343703C
:1012C00070470000036B13F0807F01D01920704736
:1012D00070B401230360CB7D002B14BF4FF0004599
:1012E00000258B7D002B14BF4FF4000400240B7DE0
:1012F0001B0603F070630A69CE68324313434A7DCC
:10130000120702F0405213438A6856004A68B2FB43
:10131000F6F2013A120292B213432B432343436085
:101320000B7E002B14BF4FF0807300230A68134319
:101330004A7E002A14BF4FF00072002213438360DC
:101340008B7E1B0203F44073C0F894300E4B98421E
:1013500005D00E4B98420CD0002070BC70470C4B4F
:1013600003F13801002243F8042F8B42FBD1002007
:10137000F3E7084B03F13801002243F8042B8B42BA
:10138000FBD10020E9E700BF00000B4000400B400C
:10139000BC100020F81000200C4B994207D0062901
:1013A0000BD806D0012303FA01F141627047436272
:1013B00070474FF40043436270470B2994BF1131CB
:1013C0001231012303FA01F1416270473F8000DFCF
:1013D00038B5114CA0420CBF0E2400240C440F4D14
:1013E00045F824200AD10E4A4FF00044C2F880414B
:1013F0001B01DBB282F81F33146009E0084A4FF08A
:101400008044C2F880411B01DBB282F81E331460B5
:10141000044B984738BD00BF00400B40C01000206F
:1014200000E100E09913400008B50248024B9847DC
:1014300008BD00BF00000B40B511400008B50248D0
:10144000024B984708BD00BF00400B40B51140005B
:1014500000B583B0134B98420CBF1F201E20124BC7
:101460009847124B9B78FF2B1AD0EFF31083B3FAF7
:1014700083F35B09019372B6BFF35F8F00220C4BBD
:101480001A700199094A93780133937029B10122A6
:10149000074B1A70BFF35F8F62B603B05DF804FBB1
:1014A000FEE700BF00400B4039464000AC10002072
:1014B00085000020036843F0010303607047036860
:1014C00023F00103036070474160704781607047FB
:1014D00000697047436A23F0FF0319434162704774
:1014E000836A23F0FF0319438162704700EB4111C7
:1014F000D1F8100270470A788B791B0403F470232B
:1015000043F4000300EB4210C0F81C3270470B6834
:101510000A791AB330B4DBB200EB4312D2F80042BE
:10152000CD7924F4702444EA0544C2F800424C7991
:101530002CB3CC6844F00054C2F804420C6944F067
:101540000054C2F80842D2F80032097923F0E0636F
:1015500043EA0163C2F8003230BC7047DBB200EBF3
:1015600043100023C0F80032C0F80432C0F808323B
:10157000C0F81432C0F81832C0F81C327047CC687A
:10158000C2F804420C6900EB4313C3F80842DAE7DF
:1015900070B58B6803F0C072B2F1C07F14BF002534
:1015A00002250A7800EB4216D6F80C4224F060447B
:1015B0004C61C3F303438B71D6F814428C61042B46
:1015C00002D9D6F81832CB6100EB4212D2F81032B1
:1015D0008B6013F0807F18BF45F00405014B9847DE
:1015E000284670BDF71440000B7800EB4312D2F888
:1015F00010228A6012F4000F28D010B44A79FAB190
:101600000A6942F0005200EB4314C4F808228C69C6
:1016100000EB4312C2F814428A79042A04D9CC6937
:1016200000EB4312C2F818428A79120402F47022C5
:1016300000EB4310C0F81C2200205DF8044B7047FB
:101640000C6900EB4312C2F80842E0E70120704742
:1016500070B588B0064600248DF80440044D00940F
:1016600069463046A8470134082CF8D108B070BD4F
:101670000F154000F8B546F2A81303FB02F40B194E
:10168000013BB3FBF4F3802B66D84FF4FA5404FB10
:1016900002F4B4EB510F61D84FF47A7303FB02F2FA
:1016A00008274FF0FF363B4604E00133DBB2144419
:1016B0001A2B0CD0B1FBF4F5802DF6D804FB1515D0
:1016C000B542F2D215B12E461F46EEE71F4602FB89
:1016D00007F2B1FBF2F1CBB2012B41D90446A7F1DD
:1016E0000802036823F0010303601E4D5600B7187B
:1016F00005EB4707BB78013B1B0103F070037878CB
:101700000138000200F4E0600343F878013800F08B
:10171000070003433A79013A120302F4405213439B
:10172000CAB2013A120402F4FE0213436361204676
:101730000D4B9847236843F00103236000230B49B6
:101740002269013312F4001F01D18B42F8D10748FE
:10175000181A18BF0120F8BD0020F8BD0020F8BD00
:101760000020F8BDA4A7400051164000A08601004B
:10177000014BC3F81401704700020E400B4619B12B
:10178000096801605B6843601AB1136803615368BC
:101790004361704721F0FE01C905C90D0162704720
:1017A00008B51320014B984708BD00BF39464000DB
:1017B000436823F4702343604368090401F47021F3
:1017C000194341607047436823F07F434360436897
:1017D00043EA01614160704732B900EB8100036B5D
:1017E00023F001030363704700EB8100036B43F0B8
:1017F00001030363704732B900EB8100036B23F0F0
:1018000002030363704700EB8100036B43F00203A4
:1018100003637047042A03D06AB1082A16D07047C0
:1018200000EB8100036B23F008030363036B43F0B9
:1018300004030363704700EB8100036B23F008038C
:101840000363036B23F004030363704700EB810021
:10185000036B43F008030363E1E700EB81010B6BCB
:1018600023F0F0030B630B6B1A430A637047431EAC
:101870001944B1FBF0F0431EFE2B94BF00B24FF0B1
:10188000FF3070477AB110B4144600EB81010B6B46
:1018900023F47F430B630A6B42EA04220A630020AD
:1018A0005DF8044B70474FF0FF30704710B400EB09
:1018B0008101086B80B208630C6B44EA036343EA5E
:1018C00002430B635DF8044B70470A4302617047A3
:1018D0002A4B99424AD8A3F57A5399422CD910B48D
:1018E000274CA4FB0234A40B043C264B0B449B0066
:1018F000B2FBF3F2043AFF2C3AD90021013164081B
:10190000FF2C0ED90729F9D113029BB2090401F467
:10191000E0210B43E4B22343036100205DF8044B54
:101920007047FF2AF0D90629EED801315208FF2A64
:10193000EAD90629F9D9E7E74900B2FBF1F2043AFE
:10194000FF2A11D9002301335208FF2A01D9072B9E
:10195000F9D1110289B21B0403F4E0230B43D2B284
:101960001A430261002070470023F2E7012070470C
:10197000FF2A88BF0021D8D80021C5E7801A0600B9
:10198000F11976050012FD3F38B504460D464FF0BB
:10199000FF338362036A80230360036B08230360C1
:1019A00020230360042303600A684968054B9847B5
:1019B000012814BF002001206B7A012B04BF4023B3
:1019C000236038BDD11840000A4659B10378012977
:1019D000C4BF417841EA0323022A04DD827842EA47
:1019E000032300E00023184670470000F8B5CC68D8
:1019F000002C4FD00B4605468E68002068604A6870
:101A0000120202F4407242F48052097C090401F48B
:101A1000FE010A436A60E86059681846224B9847FD
:101A2000E860012C0FD001232B6000202B6A13F4F7
:101A3000807F36D147F22F5147F230574FF0010ED9
:101A40004FF0020C19E003232B600120EEE70A4659
:101A500070460CE008B9C5F800C013F0020FF6D0CC
:101A600070462B6B3370013C01363A4664B12B6AE9
:101A700013F4807F11D1511E8AB1012CEAD013F0EA
:101A8000020FEED10A46F1E72B6A13F0010FFBD0EB
:101A90002B6A00E001242046F8BD0524FBE7092459
:101AA000F9E70524F7E700BFC919400070B5CD6814
:101AB000002D35D00B4604468E68002060600A7CFD
:101AC000120402F4FE024968090201F440710A435B
:101AD0006260E06059681846154B9847E060236AD9
:101AE00013F4807F06D005251BE05DB1236A13F453
:101AF000807F18D113F0040FF7D033786363013D72
:101B00000136F2E7236A13F4807F0ED113F0040F3D
:101B1000F8D002232360236A13F0010FFBD000E00A
:101B20000125284670BD0525FBE70525F9E700BF1F
:101B3000C919400010B4AC2303600B684A68B3FBBA
:101B4000F2F31B095C1E4FF6FE7294420CD803623E
:101B50008B68436040F20223C0F8203150230360B9
:101B600000205DF8044B70470120FAE7436913F049
:101B7000020F1ABFC161002001207047436913F0B2
:101B8000010F1DBF83690B7000200120704743695E
:101B900013F0020F1DBFC1F30801C1610020012035
:101BA0007047436913F0010F05D08369C3F308033D
:101BB0000B6000207047012070470000094BB3FB09
:101BC000F1F1814202D94FF6FF707047C1EB01334A
:101BD000834202D24FF6FF707047B0FBF1F0C0F3C2
:101BE0000B0070470020A10710B4054C04EA034322
:101BF000C2F30B0213430B4343605DF8044B704781
:101C00000000FF0F024B984204BF024A1A6070475F
:101C100050180E40010000A538B51E4B1B888342AA
:101C20002AD01C4B18801C4B1980642303FB00F046
:101C30001A4B18601A4B1B783BBB1A4A174B9A6019
:101C40000C4616494FF08040174B9847174903251B
:101C50000D60CC6000230B8101238B720B234B6042
:101C600064230B614FF08040114B984729464FF099
:101C70008040104B984738BD074B1B888B42D0D112
:101C80000D4B1B78002BCCD1F5E70C4A034B9A6027
:101C9000D6E700BF460E0020440E0020D40F0020DF
:101CA000B00E0020008793031D474000E00F002086
:101CB00061474000C7484000CC0E002000093D00AD
:101CC000F8B54FF00040284FB8470120274B984700
:101CD00019214FF4FA70264CA0476420254DA847DF
:101CE00019214FF47A70A047234E4FF48063336379
:101CF0006420A847192140F2DC50A0474FF400535C
:101D000033636420A8474FF00050B84719214FF4BF
:101D1000FA60A0474FF4006333636420A847192199
:101D200040F6C410A0474FF4804333636420A847B3
:101D3000002140F6C410A0474FF08040B8470F4D37
:101D400028790F4B98470F4F38460F4EB0470F4B2F
:101D500098473846B0474FF080420D4B5A63298967
:101D600040F6AC50A047F8BD852F40000930400038
:101D7000191C4000D53F400000100E40901000207C
:101D80001536400050180E40051C4000B5064000B6
:101D9000000E0E402DE9F047DFF8B8804046284F8E
:101DA000B847284E4FF4006AC6F834A019214FF402
:101DB000FA70254CA0474FF08040DFF89C90C84750
:101DC0006420224DA84719214FF47A70A0474FF4A0
:101DD000804333636420A8474FF00050C847404613
:101DE000B847192140F2DC50A047C6F830A0642063
:101DF000A84719214FF4FA60A0474FF4005333630A
:101E00006420A847192140F6C410A0474FF480630E
:101E100033636420A8474FF00040C84701200C4BB3
:101E2000984719214FF4FA70A0476420A847002171
:101E30004FF4FA70A0474046B847BDE8F08700BFAE
:101E4000051C400000100E40191C4000D53F40000A
:101E50000930400050180E40852F400008B5C8B129
:101E6000012824D02C4B1B682C4A12689B1A2C4A40
:101E7000128893420DD3284B1A68284B1A60294BBD
:101E80001B68012B1AD0284B1B78012B29D0002B63
:101E900035D008BD00214FF4FA60244B9847244BFD
:101EA0001A881F4B1A8001221F4B1A7008BD214B44
:101EB000198940F6C4101D4B984708BD1A4B1B7872
:101EC000022BE0D11C4B1A88154B1A800022154BAF
:101ED0001A600122144B1A700F4B1A68174B1A60C4
:101EE00008BD134B1A880E4B1A8000220E4B1A7035
:101EF000104B198940F6B8300C4B984708BD0122A9
:101F0000074B1A800222084B1A70002140F6B830A5
:101F1000064B9847BDE700BF7C0E00203C0E00201A
:101F200012000020880E0020400E0020191C4000E6
:101F30004AA840009010002048A84000A40E0020AD
:101F400008B5254B1B787BB9244B1B78A3B1244BD8
:101F50001B786BB1234B1B7893B9234B1B787BB950
:101F60000120224B98470EE00120204B98470AE0C1
:101F700003201E4B984706E0194B1B78002BE9D134
:101F800000201A4B9847164B1B78E3B1184B1B786F
:101F9000012B19D0174B1B78012B19D0164B1B782E
:101FA000164A12781344DBB2154A12789A4208D0C6
:101FB00000220C490A700C490A70124A1168124A30
:101FC00011600F4A137008BD01220B4B1A70E1E734
:101FD00001220A4B1A70E1E7CC0E0020D40E00203B
:101FE000B80A0020B20E0020790E00205D1E4000CD
:101FF000BC0A0020C00A0020410E0020420E002032
:10200000480E00207C0E0020640E002038B50546E6
:102010000120044CA0472846034B98470020A047C6
:1020200038BD00BF5D1E4000D53F40000023036067
:10203000037143718371C3718360C3600361436142
:102040008361C3617047000010B408482024047005
:102050000C0A44708170C270FF2202711A0C427126
:102060001A0A8271C3715DF8044B70475C1200203C
:1020700010B4334B4FF0FF321A605A609A60DA6046
:102080001A615A611A762F4A11882F4CA4FB01213C
:1020900089092E480160012203F801290168090A13
:1020A00099700268DA702A4A1288A4FB0212920917
:1020B00028490A600A68120A1A710A685A71264B7E
:1020C0001B78002B35D0254B02225A720022DA727F
:1020D00001221A73224B1A681B4CA4FB023292098C
:1020E0002048026002681D49120ACA7303680B7413
:1020F00003234B741C4B1B88A4FB03239B091B4A23
:10210000136013681B0A8B741368CB740A46184B50
:102110001C315078187090785870D078987012F8F8
:10212000040FD87004338A42F3D101205DF8044BC8
:1021300070470A4B02225A720022DA721A73C9E7F8
:1021400055110020BA0A0020D34D62103011002032
:10215000BE0A0020B0120020B90E00205411002049
:10216000080B0020481200201E0E002058120020EC
:10217000D0110020074A137843F0070303F0F70358
:102180006FF30413137000235370000240F0E0500B
:10219000704700BF4C120020F8B51C4B1B7803B1F0
:1021A000F8BD1B481B4B984710F0804FF8D11A4BD5
:1021B00098471A4E1A4C6368F3612368B361144D53
:1021C00031462846174FB8476368F3612368B36107
:1021D00031462846B8471449A3688B61E368CB6150
:1021E0002846B847114923698B616369CB6128464A
:1021F000B8471E2128460E4B984745F2B5300D4B87
:1022000098471E2128460C4B9847C9E7040B00202D
:1022100000000140D114400071204000B0110020A6
:10222000D0110020E9154000701100203411002069
:10223000D514400001000020E11440002DE9F84FC2
:102240004E4B9B69012B0CBF4FF4FA72FA224C4B98
:102250001A604C494C484D4B984708B9BDE8F88F77
:102260004FF0FF3148484A4B98474748494B9847F9
:10227000494C2046DFF85491C8474FF00008C4F895
:102280000080012525716FF06043E3604FF4E01397
:10229000236121463C48414FB847414C2046C8473E
:1022A0002560032626714FF00F0B84F807B0657187
:1022B000C4F80C8021463448B8474FF46B40394B82
:1022C000984720614FF0080A84F806A0364C204653
:1022D000C84702232360267184F807B06571C4F8EB
:1022E0000C8021462848B8474FF46B402D4B984747
:1022F000206184F806A02D4C2046C8472660267130
:1023000084F807B06571C4F80C8021461E48B847B0
:102310004FF46B40234B9847206184F806A0244C6F
:102320002046C84704232360267184F807B06571EE
:10233000C4F80C8021461448B8474FF46C40194B40
:10234000984720614FF65F333246182119480068DC
:10235000194EB04784F806A0184B1A68A2615B6852
:10236000E36121460848164B984729460648154B15
:1023700098472022144B5A6070E700BF901000204D
:10238000500E0020008793030000014075164000A6
:10239000CD14400051164000901200200F1540004F
:1023A000B011002075214000701100203411002070
:1023B000901100204C0E0020492040005C120020AB
:1023C000E9154000C914400000E100E02D20400064
:1023D00070B5364BDB6B13F0040F24D1344B1B78F4
:1023E0000BBB0022334B1A70334A13780133DBB234
:1023F0001370642B21D90025304B1D70192140F238
:10240000DC502F4CA04764202E4B98470122284BCC
:102410001A702D4B1A682D4B1A60294640F2DC5079
:10242000A047022070BD214BDB6B13F0040F04D0DA
:102430000023214A13701E4A13701C4BDB6B13F0F0
:10244000020F26D1224B1B781BBB00221A4B1A709D
:10245000184A13780133DBB21370642B01D80020C3
:1024600070BD0026154B1E70192140F2DC50144D32
:10247000A8476420134B98470124154B1C70124B3E
:102480001A68124B1A60314640F2DC50A8472046C9
:1024900070BD064BDB6B13F0020F05D000200C4B18
:1024A0001870044B187070BD002070BD000E0E40F7
:1024B0005D0E0020580E00205C0E0020140000204D
:1024C000191C4000D53F40007C0E0020540E002017
:1024D000590E002010B56420034CA0473220034B56
:1024E00098476420A04710BD0D204000D53F400014
:1024F00008B501290AD099B90022334B1A70042873
:102500005BD8DFE800F0191E2A42560001222E4B4C
:102510001A70042851D8DFE800F00F1B203845005E
:10252000294A137883F001031370042845D8DFE8A3
:1025300000F00308142C3900234B1878234B9847DC
:1025400008BD214B1B781BB90020214B984708BDC3
:10255000204B18791E4B984708BD1B4B1B785BB16D
:102560001C4B18791A4B9847174B1B7843B14FF403
:102570000052194B1A6308BD0020154B9847F3E72A
:102580004FF40052144B5A6308BD0F4B1B7823B114
:102590004FF40052104B1A6308BD4FF400520E4B1B
:1025A0005A6308BD084B1B781BB110220B4B1A63F2
:1025B00008BD1022094B5A6308BD0020034B984701
:1025C0000020034B984708BD5E0E0020BD3440003C
:1025D000153640009010002000100E4000140E40F0
:1025E000064B5B684FF4FA72B2FBF3F204490A70CF
:1025F0005B00013B034A1370704700BF901000203E
:1026000063000020620000209A4B1B689A4A1268FF
:102610009B1A41F28732934200D870472DE9F04F60
:1026200085B00020954B9847924D2B680293944BB0
:102630004FF000425A634FF000525A634FF080420D
:102640005A63904B984790480B230371012484717F
:102650008E4B19688E4B98472A688E4B1A608E4BAA
:102660001C70002132208D4B98474FF4FA708C4B30
:1026700098478C4B98474FF0000BCDF804B05D465F
:10268000DFF860827B4C844F7D4EA1E0D4F800904F
:1026900003212846814B9847A6E08348834B9847FF
:1026A0002820834B984705B0BDE8F08F714B1A681E
:1026B000714B1A6000213220784B98477D4B984728
:1026C00080B27D4B188020B94FF4FA707B4B98474D
:1026D000FEE72820764B9847E5E7236802932368B6
:1026E00003932368019B63B94FF0010B062D6FD84C
:1026F000DFE815F035006100B500290162016E00C8
:102700009C012268634B1A6001233B700021322038
:10271000624B984700206A4B984719214FF4FA7092
:10272000DFF8C4B1D8474FF0005AC6F830A0C8202F
:102730005B4B984700214FF4FA70D847C6F834A095
:102740000020604B98470135072D04D0DDF804B018
:1027500000230193CAE7DDF804B0002301935A4B2C
:1027600098470546022804D0012819D000282FD008
:1027700006E0564B1B68632B0FD80A33534A13608D
:1027800001210020454B9847504D2878504B9847E1
:102790002878504B984700251AE0424B9847EFE7BE
:1027A0004A4B1B680A2B03D90A3B484A1360E7E7E8
:1027B0003C4B9847E4E700233B70434B9847022883
:1027C00035D0012840D0002838D10120424B98470D
:1027D0004248C0472368A3EB0903B3F5FA7F03D34C
:1027E0003B78002B7FF452AF23682A4A12689B1A69
:1027F00044F6206293423FF650AFF36B13F0010FA3
:102800007FF46BAF2368029A9B1A41F2883293429D
:102810003FF64CAF2368039A9B1A632B7FF666AF93
:10282000019BBBF1000F18BF5B4601935EE7274B8E
:102830005B68632B05D80A33244A5360284B9847BA
:10284000C3E7184B9847F9E7204B5B680A2B03D97D
:102850000A3B1E4A5360F1E7124B9847EEE701230B
:102860003B70194B9847022840D0012860D00028BF
:10287000AED042E07C0E0020D00E00205D1E400055
:10288000000E0E40A9384000180000205013002010
:102890001D394000540E002014000020F124400097
:1028A000D53F4000D524400000000140B514400051
:1028B0000D204000893740005A0E0020A53F4000FF
:1028C00021314000ED2F4000D12340009010002026
:1028D0001535400031354000ED33400050180E40B2
:1028E000E1254000051C4000191C4000644B9B681A
:1028F000312B1AD80A33624A936001210220614BBE
:1029000098474FF44870604B98475D4B198940F6E3
:10291000C410DFF890A1D0474FF4FA705A4B984793
:10292000002140F6C410D04752E7584B9847E4E7DF
:10293000534B9B680A2B03D90A3B514A9360DCE74F
:10294000524B9847D9E700233B70514B984782463A
:102950006420504B9847BAF1020F0FD0BAF1010F23
:102960001DD0BAF1000F13D1454BD8684A4BA3FBD9
:102970000030C0F38710494B984729E7404BDB688C
:1029800041F26F72934207D803F57A733C4AD360E1
:102990000020424B9847E7E73C4B9847F8E7384B15
:1029A000DB68B3F57A7F04D9A3F57A73344AD36030
:1029B000EEE7364B9847EBE700233B70344B9847E4
:1029C0008246012108462F4B9847BAF1020F0FD0DB
:1029D000BAF1010F1DD0BAF1000F13D1284B1869BD
:1029E0002D4BA3FB0030C0F387102C4B9847EFE62C
:1029F000234B1B6941F26F72934207D803F57A7338
:102A00001F4A13610020254B9847E7E71F4B984763
:102A1000F8E71B4B1B69B3F57A7F04D9A3F57A73EA
:102A2000174A1361EEE7194B9847EBE701201C4B5F
:102A3000984700233B70164B9847022807D001287F
:102A400013D070B90E4B187E144B9847C0E60C4B50
:102A50009B69012B02D90D4B984702E00222084BDB
:102A60009A6100200D4B9847ECE7054B9B69022BC0
:102A700003D10122024B9A61F3E7044B9847F0E738
:102A800090100020F1244000D53F4000D5244000A4
:102A9000D123400009324000D34D62102131400063
:102AA000ED2F4000191C4000F8B51A4B1B7873B18C
:102AB000194B08221A6301221A6304225A63022264
:102AC0005A63164B1B7813B1154B1B7803B1F8BD35
:102AD0000127134B1F700520124CA047124D4FF0D9
:102AE00080662E633220A0476E634FF4FA70A047D1
:102AF0002E633220A0476E633220A0470B4B9847CD
:102B00000B4808230371877143710A4B19680A4BFC
:102B10009847DCE7B80A002000140E40B90A0020EC
:102B2000780E0020D53F4000000E0E40A93840002E
:102B300018000020501300201D39400070B58D4B47
:102B40001A88A2F654339BB2C72B5ED800228A4B58
:102B50001A708A4B1A688A4B1A608A4B1A78864B0D
:102B60001B789A421DD0884B98470122874B1A71D7
:102B7000814B1B78002B40F09F800021834A91718C
:102B8000824843717B4B1B88814AA2FB03231B09AC
:102B9000C371804B1968804B9847774B1A78794BF3
:102BA0001A707E4B1A88A2F654339BB2C72B00F2E0
:102BB000878000227A4B1A70704B1A68794B1A6022
:102BC000794B1A78764B1B789A421DD06E4B9847FA
:102BD00002226E4B1A71724B1B78002B40F0C6809C
:102BE00000216A4A9171694843716C4B1B88684A9D
:102BF000A2FB03231B09C371664B1968664B9847F8
:102C0000674B1A78684B1A7070BDB2F5FA7F26D8F8
:102C10000022664B1A70664C664E674D0DE001202F
:102C2000A847624A13780133DBB21370632B0ED8C6
:102C3000504B1B88B3F5FA7F8FD82378002BEED04A
:102C40003378002BEBD001224B4B1A7085E7012320
:102C5000574A1370574A1370474A13707DE7B2F50D
:102C6000486F0BD3454B1B68454A12689B1AFA2BD9
:102C70007FF673AF0222404B1A706EE7A2F57A72AC
:102C800092B2B2F5E16F0BD23C4B1B683C4A126822
:102C90009B1AFA2B7FF661AF0322374B1A705CE761
:102CA000364B1B68364A12689B1AFA2B7FF655AFD3
:102CB0000322314B1A7050E70121344A91715FE7CA
:102CC000B2F5FA7F25D800233C4A1370384A1278AF
:102CD00038490C781946012007E0384A13700AE099
:102CE0000133DBB20146632B09D8002AF8D0002C4F
:102CF000F6D00029F1D10122294B1A7060E72F4A42
:102D0000137001232A4A13702A4A1370244A13703D
:102D100056E7B2F5486F0BD3184B1B68214A12686F
:102D20009B1AFA2B7FF64CAF02221D4B1A7047E715
:102D3000A2F57A7292B2B2F5E16F0BD20F4B1B681B
:102D4000184A12689B1AFA2B7FF63AAF0322144BEB
:102D50001A7035E7094B1B68124A12689B1AFA2B46
:102D60007FF62EAF03220E4B1A7029E70121074A86
:102D7000917138E7BA0A0020BC0A00207C0E0020BE
:102D80006C0E0020690E0020A938400018000020B9
:102D90001F85EB51501300201D394000BE0A002052
:102DA000C00A0020740E0020710E0020680E002062
:102DB000B80A0020B90A0020D53F4000700E00205C
:102DC0000B4B1B7873B10B4B1B785BB10A4B1B6829
:102DD0000A4A12689B1A0A4A934207D90022054BF5
:102DE0001A707047044B1A68044B1A60704700BF92
:102DF000B80A0020B20E00207C0E0020600E0020D9
:102E00003F771B0010B5074C2074217001216160D1
:102E1000A260E36021460448044B9847C0B2044BCB
:102E2000187010BD1C13002000800A40AD1A40002D
:102E30004413002010B5094C2074217001216160F9
:102E4000A260E36021460648064B9847C0B2064B95
:102E50001870003018BF012010BD00BFB412002050
:102E600000800A40ED1940004413002008B5064BCD
:102E70004361064B83615123837005490548064B26
:102E80009847002008BD00BF352E4000052E4000A9
:102E900074100020440000205536400008B5112071
:102EA000074B98470749084B0B60084B4B60084895
:102EB000084B984700B108BD0748084B9847FAE708
:102EC000394640000C13002000879303A0860100C0
:102ED00000800A4089194000741000206D2E4000C7
:102EE000F8B500211848194B984710F4000F00D18D
:102EF000F8BD174CA06021461348164B984716485A
:102F0000164B9847A369164A13601371154D2B6031
:102F10002C460435144F154E14F8011B3846B047A3
:102F2000AC42F9D10A4BDB690D4A13601371104DA5
:102F30002B602C4604350C4F0C4E14F8011B384600
:102F4000B047AC42F9D1D3E700000140ED14400096
:102F5000901200209115400010A84000B55B400081
:102F600048130020800E002038A840001154400073
:102F7000840E0020024A136801331360704700BFBB
:102F80007C0E002008B501460148024B984708BD59
:102F9000000E0E400D444000074B1B7813B9074B41
:102FA0001B7823B14FF48042054B1A6370474FF4EE
:102FB0008042034B5A637047B20E0020CC0E0020B3
:102FC00000100E40064B1B7813B1064B1B781BB14B
:102FD0001022054B1A6370471022034B5A63704747
:102FE000D40E0020CC0E002000140E4020B94FF467
:102FF0000062044B5A6370474FF40062014B1A633E
:10300000704700BF00100E4018B91022034B5A63DE
:1030100070471022014B1A63704700BF00140E4026
:1030200018B3642829D0284B1B68284909685B1A03
:10303000274909888B4245D3264B1B78002B31D07A
:1030400001281FD0022829D04FF4FA71204A11809C
:1030500083F001031F4A13701B4B1A681B4B1A6045
:103060004FF480621C4B5A6370474FF480621A4BD6
:103070005A630022154B1A6070474FF48062164B5A
:103080001A63704742F21072114B1A800022114BE2
:103090001A700D4B1A680D4B1A60E1E7FA220C4BBF
:1030A0001A80F3E74FF4FA71094A118083F00103A3
:1030B000084A1370044B1A68044B1A604FF480627C
:1030C000054B1A63704700BF7C0E00209C0E002049
:1030D00064000020A00E002000100E4008B50C4B2C
:1030E0001B784BB90B4B1B7873B90B4B1B783BB15F
:1030F00002200A4B984708BD6420084B984708BD3A
:103100000020064B984708BD0120044B984708BD96
:10311000CC0E0020040B00201C0E002021304000AB
:10312000034628B364282FD0314A12683149086811
:1031300031490988121A8A4232D3304A12789342AE
:1031400040D92B4B19682B4B19602D490B7883F014
:1031500001030B704FF4FA7027490880002B2CD024
:103160000132264B1A704FF08042264B1A6370478B
:103170004FF08042234B5A630022204B1A704FF4C9
:10318000FA721D4B1A8070474FF080421D4B1A6334
:1031900000221A4B1A704FF4FA72174B1A807047BC
:1031A000134A1268101A814203D8144A12789A42BC
:1031B0000DD2134B1B78002BD5D14FF08042114B11
:1031C0005A6370470A4B1B68181A8142F1D80022D3
:1031D0000A4B1A70064B1A68064B1A604CF25032B2
:1031E000054B1A80064A137883F001031370E0E759
:1031F0007C0E0020900E0020600000208C0E00202D
:10320000940E0020000E0E400346002829D06428AA
:1032100032D0354A12683549086835490988121A8A
:103220008A4239D3334A1278934244D9324B1B78BD
:10323000002B29D0FA222E4B1A802F4A137883F0C4
:1032400001031370284B1A68284B1A6000222B4B7D
:103250001A60294B1B784BBB4FF40052284B5A6322
:1032600070474FF40052264B5A630022214B1A70CC
:10327000FA221F4B1A8070474FF40052204B1A63FA
:1032800000221C4B1A7070474FF4FA71184B1980CA
:103290000132184B1A70D0E7134A1268101A814293
:1032A000D7D8144A12789A42D3D309E04FF4005287
:1032B000134B1A6370470C4B1B68181A8142C8D80D
:1032C00000220C4B1A7042F21072094B1A800A4A03
:1032D000137883F001031370034B1A68034B1A60D1
:1032E0000122064B1A60B4E77C0E0020A40E0020D9
:1032F00066000020A10E0020A80E0020880E0020ED
:1033000000100E4008B5214B1B78DBB9204B1B7811
:10331000E3B1204B1B78EBB91F4B1B78F3B91F4B64
:103320001B78FBB91E4B1B7803BB1E4B1B780BBBDA
:103330001D4B1B7813BB1D4B1B781BBB00201C4B6C
:10334000984708BD64201A4B984708BD0020184BC9
:10335000984708BD0120164B984708BD0220144B22
:10336000984708BD0320124B984708BD0420104B16
:10337000984708BD05200E4B984708BD06200C4B0A
:10338000984708BD07200A4B984708BDCC0E00207F
:10339000D40E0020BC0A0020C00A0020B80E002075
:1033A000A70A0020040B00201C0E0020B90E0020EC
:1033B00009324000094B1B782BB9094B1B7813B914
:1033C000084B1B7823B14FF40062074B1A63704718
:1033D0004FF40062044B5A63704700BFD50E0020C3
:1033E000DC0E0020CC0E002000100E4008B520B3EB
:1033F0001F4B1B681F4A12689B1A1F4A1278934280
:103400001AD31E4A13780133DBB213701C4A526878
:1034100093421DD21B4A137801331370144B1A6860
:10342000144B1A60174B1B7813B90122154B1A70F5
:10343000144B1878144B984708BD134B984700233A
:103440000E4A137001210F4A11700A4A136008BD19
:103450000E4A12789A4204D90A4A1378013B137033
:10346000DCE70122074B1A700022044B1A70D5E7E3
:103470007C0E0020980E002063000020960E002095
:1034800090100020970E00201536400062000020AA
:1034900008B5074B1B7813B9064B1B781BB10120ED
:1034A000054B984708BD0020034B984708BD00BF57
:1034B000B80A0020CC0E0020ED33400098B1144B28
:1034C0004FF400621A634FF480421A634FF4806233
:1034D0001A63102102F1804202F5612211634FF458
:1034E00000521A6370470A4B4FF400625A634FF45C
:1034F00080425A634FF480625A63102102F1804285
:1035000002F5612251634FF400525A63704700BFC5
:1035100000100E4008B5044900230B6002464FF02E
:103520008040024B984708BDE00F0020AB484000A8
:1035300008B5044901230B6002464FF08040024B5E
:10354000984708BDE00F0020AB4840002DE9F0414E
:103550002420234B9847234B1B78002B3CD0224A36
:10356000224B9A602149224B4B604FF08040214B07
:103570009847214C002626814FF0010884F80A80E4
:103580000C236360642323610225256021464FF0EC
:1035900080401A4FB84729464FF08040184DA84741
:1035A000C4F8008021464FF08040B84741464FF0B4
:1035B0008040A847266021464FF08040B8473146FA
:1035C0004FF08040A8470F4C20780F4B9847207849
:1035D0000E4B9847BDE8F0810D4A044B9A60C1E755
:1035E00039464000B00E002000093D00D40F0020F5
:1035F000A02526001D474000E00F00206147400045
:10360000C74840009010002015354000313540007B
:103610000087930308B5074B1B78834209D0024605
:10362000044B1870044902230B604FF08040034B99
:10363000984708BDA90E0020E00F0020AB484000CD
:1036400038B51C469D6913460A460146A078A8472E
:1036500038BD000070B582B00D46C47A02AA0023BE
:1036600002F8013D4E690123C021A878B047034606
:1036700010B1184602B070BD240104F030049DF86A
:10368000073023F07F031C4302A901F8014D2B46AC
:103690000122C020014CA0470346EAE74136400022
:1036A00030B583B00C46456907236A46012180780E
:1036B000A847024600284CD19DF80030190901EBBB
:1036C000810103F00F0303EB4103DBB223609DF89C
:1036D0000130190901EB810103F00F0303EB4103F2
:1036E000DBB263609DF80230190901EB810103F040
:1036F0000F0303EB4103DBB2A3609DF8033019090C
:1037000001EB810103F00F0303EB4103DBB2A36183
:103710009DF80430190901EB810103F00F0303EB5D
:103720004103DBB2E3609DF80530190901EB81012B
:1037300003F00F0303EB4103DBB223619DF8063076
:10374000190901EB810103F00F0303EB4103DBB225
:103750006361104603B030BD10B504464FF480518C
:103760000020054B984705480460054B1C6000226B
:103770000421044B984710BD0D0D40004C13002050
:1037800050130020E90D400008B54FF48051084661
:10379000054B98470A20054B98474FF480521C214F
:1037A0000348044B984708BD0D0D4000D53F40002D
:1037B00090100020E90D400010B50C4C00220421AF
:1037C00020460B4B98472368B3F1FF3F02D0094ACC
:1037D000136010BD0028FAD10022064B1A60204663
:1037E00022600421044B984710BD00BF4C130020F9
:1037F0008D0E400050130020E90D400038B51E4CDE
:103800004FF480521C2120461C4B98472368B3F18B
:10381000FF3F20D038B1184C194D0FCD0FC495E89B
:10382000070084E80700144D29681648164CA04785
:1038300069681648A047A9681548A047E96815486F
:10384000A04729691448A04769691448A047A96995
:103850001348A04738BD0028DDD1094C4FF48052F1
:103860001C2120460F4B9847034D0FCC0FC594E801
:10387000070085E80700D6E7901000208D0E400075
:10388000680000204CA840001154400060A840008F
:1038900074A8400088A84000A0A84000B8A8400034
:1038A000CCA84000E90D4000024B00221A605A608B
:1038B000704700BF1800002010B58AB0124C214696
:1038C0001248134B98476369643306932369013B9D
:1038D0000593E3680493A3680393636802932368E2
:1038E00001934FF0FF33099301A80A4B98470A4B05
:1038F000984203DC002000210AB010BD01A8054B4E
:103900009847C117F8E700BF20000020741000207E
:10391000A13640003D574000E8AA0D6370B582B063
:1039200005460C462048214B9847C4F3080333B1A1
:103930004FF6E8539C420ED94FF4005405E04FF681
:10394000E8539C4288BF4FF400544FF4805104F573
:103950000050174B9847174B9847286004F108060A
:1039600004F500540834224608212846124B984793
:10397000224608216846114B98470B480B4B984745
:103980000822294668460E4B984738B90648074B27
:10399000984730460B4B984702B070BD4FF48051AA
:1039A0002046034B9847F1E750180E40051C400095
:1039B0000D0D4000B9384000E90D40008D0E40006B
:1039C000395440005937400008B5044B984701204E
:1039D000034B9847034B984708BD00BF5D0C400060
:1039E0006D0C4000790C400010B5224BDB6B13F0DE
:1039F000010F16D1204B1B789BB91E4BDB6B13F0CC
:103A0000040F0ED01D4B1B681D4A12689B1AB3F59C
:103A10007A7F0DD31B481C4B984701221B4B1A7011
:103A200010BD164B1A68164B1A60184B1B7803B959
:103A300010BD1448164B98470024144B1C702146A7
:103A40004FF4FA60134B9847134B4FF400525A63EC
:103A50004FF480625A63A3F500734FF000425A633B
:103A60004FF000525A634FF080425A630B4B1C7068
:103A7000DEE700BF000E0E40040B00207C0E00208D
:103A8000D00E002000000140BF144000CC0E0020EA
:103A9000B5144000191C400000100E40950E002087
:103AA00008B5164B1B7823B3154BDB6B13F0040FD3
:103AB0001FD1134BDB6B13F0010F1AD0114B1B6896
:103AC000114A12689B1AB3F5FA6F16D30F4B1B7885
:103AD0001BB101220D4B1A7008BD0D4B98470D48C4
:103AE0000A230371012383710B4B19680B4B984711
:103AF000EFE7044B1A68044B1A6008BDB80A0020AF
:103B0000000E0E407C0E0020640E0020B20E00203D
:103B1000A938400018000020501300201D39400033
:103B20001F4BDB6B13F0006F2BD01E4B1B88013338
:103B30009BB240F2E142934219D81A4A13801A4BC1
:103B40001A781A4B1B789A4228D010B5184B984710
:103B5000184807230371144C227882714371164B65
:103B60001968164B98472278104B1A7010BD002325
:103B70000C4A13800C4A1370114B1A68114B1A60CF
:103B8000DDE70F4B1B680F4A12689B1A42F20F7257
:103B90009342D4D90122044B1A70D0E7704700BF7A
:103BA00000140E40B40E0020B90E0020C00E0020FC
:103BB000A938400018000020501300201D39400093
:103BC0007C0E0020BC0E0020244BDB6B13F0020F98
:103BD0003FD1234B1B68234A12689B1AB3F5FA6F37
:103BE00008D3214B1B782BB9204B1B7813B9204BE2
:103BF0001B7803B9704710B501201E4B984700246D
:103C00001B4B1C701C4B1C701C4B1C701C4B1C70E9
:103C10001C4B1C701C4B1C701C4B1C704FF4000286
:103C20000E4B5A6320461A4B98471920194B984758
:103C300021464FF4FA60184B9847184B984718489C
:103C40000923037101238371164B1968164B98479A
:103C500010BD034B1A68034B1A607047000E0E40EC
:103C60007C0E0020C40E0020BC0A0020C00A0020E8
:103C7000B80A00205D1E4000B90A0020780E00201E
:103C8000790E0020B20E0020410E0020420E0020CE
:103C9000ED334000D53F4000191C4000A9384000DA
:103CA00018000020501300201D39400010B50446B4
:103CB000054B984705480323037184714371044BF6
:103CC0001968044B984710BDA9384000180000201F
:103CD000501300201D39400070B5254BDB6B13F0ED
:103CE000200F26D10022234B1A70214C224D234E47
:103CF000E36B13F0200F1BD12B78ABB10120B04741
:103D00001C4A13780133DBB21370F92BF0D900226F
:103D1000194B1A7001201A4B18701A4B18701A4B55
:103D200018701A4B984770BD0122174B1A7070BD5E
:103D300070BD114B1B789BB9154B1B780133DBB25F
:103D4000C82B0ED90023124A137001210A4A1170A0
:103D50000D4A13700F4B1B7833B100220D4B1A70B4
:103D600070BD0B4A137070BD0020084B9847F4E7F4
:103D7000000E0E40B60E0020B70E0020D53F4000CA
:103D8000B80A0020B90A0020B80E0020AD3C40005F
:103D9000C10E00208400002008B50F4BDB6B13F030
:103DA000040F14D10C4BDB6B13F0010F0FD10B4B35
:103DB0001B7863B10A4B1B680A4A12689B1AB3F559
:103DC000FA6F08D3084B9847084B984708BD044B37
:103DD0001A68044B1A6008BD000E0E40040B002048
:103DE0007C0E0020C80E0020951D4000E54F4000CD
:103DF00010B584B0404B1B78002B45D03F4B1B784F
:103E0000002B73D13E4B1B683E4A12689B1AC72B8E
:103E100070D90123394A13703B4A137000203B4B81
:103E2000984710203A4B984700203A4B984700207B
:103E3000394B9847394CA0470028FCD00020384B1C
:103E40009847384B9847384A01AB07CA83E80700C0
:103E500019463648364B9847364B40F69F725A60A3
:103E6000F021354A82F8231000229A6007221A6056
:103E7000324B98473249334B8B60334B4B604FF09A
:103E80008040324B984735E01C4B1B78002B2DD0DF
:103E90001B4B1B681B4A12689B1AC72B2AD900248C
:103EA000164B1C70184B1C70294B9847294B12223B
:103EB0001A642046284B984701AB284A07CA83E872
:103EC0000700194619481A4B98474EF66020002102
:103ED000234B9847194B98471949224B8B601A4B33
:103EE0004B604FF08040194B984703E0044B1A6831
:103EF000044B1A6004B010BD040B0020B10E00206A
:103F00007C0E0020AC0E0020B00E002019444000B2
:103F10008D4540004145400079444000C94540007E
:103F2000D945400019464000E0A8400000060E4078
:103F3000351B400010E000E000ED00E0E101400032
:103F4000D40F002000093D00A02526001D47400099
:103F50006943400000040E408D464000ECA840003C
:103F60007D3F40000087930310B50920024CA04715
:103F70000A20A04710BD00BF394640000138B0F10B
:103F8000807F09D2054B5860F021054A82F8231042
:103F900000229A6007221A60704700BF10E000E01C
:103FA00000ED00E010B54FF400414FF47A7303FBCD
:103FB00000F0054B984782B213464FF40051034876
:103FC000034CA04710BD00BFBD1B400050180E4061
:103FD000E91B4000064B1A68014640B11B689B1A5A
:103FE000984204D9024803689B1A9942FBD870474B
:103FF0007C0E00200278530903F5001303F20773C7
:104000005B0202F01F02012101FA02F21A637047FB
:104010008278530903F5001303F207735B0202F081
:104020001F02012101FA02F21A63704782785309D4
:1040300003F5001303F207735B0202F01F02012174
:1040400001FA02F25A637047C278530903F500136C
:1040500003F207735B0202F01F02012101FA02F270
:104060001A6370478279530903F5001303F207734B
:104070005B0202F01F02012101FA02F21A6370478B
:10408000C279530903F5001303F207735B0202F0D0
:104090001F02012101FA02F21A637047027A5309E2
:1040A00003F5001303F207735B0202F01F02012104
:1040B00001FA02F21A63704710B5184C6E23237090
:1040C0002046174B98477023A3702046154B9847FE
:1040D0006723E3702046144B98476623A37120465C
:1040E000124B98477C23E3712046114B984771236C
:1040F000237220460F4B98470F4B4FF080725A6344
:104100004FF080625A634FF080425A634FF40022AE
:104110001A632022A3F580635A6310BDC00F0020EC
:10412000F53F4000114040004940400065404000DC
:10413000814040009D40400000140E400F4B1B7812
:10414000C3B90F4B1B78ABB90E4B1B7893B90E4B11
:104150001B787BB90D4B1B7863B90D4B1B784BB9A2
:104160000C4B1B7833B90C4B1B781BB900220B4B43
:104170001A7070470122094B1A707047040B002017
:104180001C0E0020BC0A0020C00A0020A70A002044
:10419000B80E0020B90E0020B80A0020D40E00206E
:1041A00038B5164B1B7843B3154B1B780BBB154B1F
:1041B000DB6B13F0020F1CD1134B1B68134A126800
:1041C0009B1AB3F5FA6F18D30120114DA8470024AC
:1041D0000A4B1C700F4B1C700A4B4FF080725A63D5
:1041E0004FF400025A6319200B4B98472046A8470A
:1041F00038BD054B1A68054B1A6038BDDC0E00202F
:10420000D40E0020000E0E407C0E0020E40E002094
:104210005D1E4000D50E0020D53F40000E4B1B78A0
:10422000A3B10E4B1B680E4A12689B1A0D4A126905
:1042300093420FD3094B1A68094B1A604FF40002DE
:10424000094B1A630122094B1A707047034B1A6815
:10425000034B1A60704700BFB80A00207C0E002094
:10426000D80E002090100020000E0E40D50E002029
:104270000E4B1B78A3B10E4B1B680E4A12689B1A9B
:104280000D4AD26893420FD3094B1A68094B1A6042
:104290004FF08072094B1A630122094B1A70704764
:1042A000034B1A68034B1A60704700BFD40E0020FE
:1042B0007C0E0020E00E002090100020000E0E402A
:1042C000DC0E00202DE9F84381460F46124B98473B
:1042D00005464846114B9847054013D0104C04F151
:1042E000600603E0B4420DD010345DB12068B842DE
:1042F000F8D161682942F5D0E3689847636825EAF8
:104300000305EFE7074B1B6823B1074B1B680BB195
:1043100048469847BDE8F8831144400015444000E2
:10432000E80E002054130020580F002008B5092182
:104330000148024B984708BD000E0E40C5424000A0
:1043400008B50A210148024B984708BD00100E40ED
:10435000C542400008B50C210148024B984708BDF2
:1043600000140E40C542400010B50E480E4B984751
:1043700020200E4B98470E4CA0470028FCD00D4B38
:1043800098470D4A0D4B9A620D4CA0470028FCD06F
:1043900010200C4B98470C4B98470C48024B984701
:1043A00010BD00BF000E2707194E400041454000D8
:1043B0000946400019464000013F092000040E4014
:1043C00029464000DD4440000D4D40000087930326
:1043D0000AB90166704741667047416412F0010FE7
:1043E00014BF4166016612F00A0F14BF01624162F8
:1043F00012F0020F07D112F0080F18BFC0F8841096
:10440000416101607047C0F88010F9E7816370472F
:10441000C06C7047806C7047164B1A6B22F0030219
:104420001A639B6E13F0080F0AD14FF40063114911
:104430008A6E12F0080F03D1013BF9D101207047B9
:104440000C4A136B23F0700318431063936E13F040
:10445000080F0AD14FF4006306498A6E12F0080F64
:1044600005D1013BF9D101207047002070470020A1
:10447000704700BF00040E40174A136B23F003037C
:1044800043F001031363936E13F0080F0AD14FF446
:10449000006311498A6E12F0080F03D1013BF9D174
:1044A000012070470C4A136B23F07003184310630C
:1044B000936E13F0080F0AD14FF4006306498A6E19
:1044C00012F0080F05D1013BF9D1012070470020FF
:1044D00070470020704700BF00040E40174A136B5E
:1044E00023F0700318431063936E13F0080F0AD182
:1044F0004FF4006311498A6E12F0080F03D1013B9B
:10450000F9D1012070470D4A136B23F0030343F0E8
:1045100002031363936E13F0080F0AD14FF4006384
:1045200006498A6E12F0080F05D1013BF9D101202E
:104530007047002070470020704700BF00040E4005
:1045400011490A6A42F45C1242F008020A620A4601
:10455000936E13F4003FFBD00B4A136A23F45C13F1
:1045600023F0700343F45C1318431062936E13F44A
:10457000003FFBD0044A136A23F09B7323F480337B
:1045800043F45C131362704700040E400D490A6A3D
:1045900042F45C1242F008020A620A46936E13F477
:1045A000003FFBD0074A136A23F45C1323F0700327
:1045B00043F45C1318431062936E13F4003FFBD076
:1045C000704700BF00040E40024B986E00F40030AC
:1045D000704700BF00040E4048B90A4A136A23F42A
:1045E0005C1323F0010343F45C1313627047054A24
:1045F000136A23F45C1323F0020343F45C13136285
:10460000704700BF00040E40024B986E00F48030EB
:10461000704700BF00040E404FF00052014B9A62F9
:10462000704700BF00040E40024B986E00F002007D
:10463000704700BF00040E402F281ED81F280CD83A
:10464000114B9A6901238340934318D0012303FA45
:1046500000F00D4B18610020704720380A4BD3F84A
:1046600008210123834093430BD0012303FA00F078
:10467000054BC3F80001002070470120704700205F
:1046800070470020704700BF00040E404FF4807355
:1046900003FA00F0014B1860704700BF00040E40A1
:1046A000064A136943F004031361054B054A1A6077
:1046B0009B68BFF34F8F20BF30BF704700ED00E015
:1046C00010180E40040000A5F0B48CB007460E464A
:1046D00001AC114D0FCD0FC40FCD0FC495E80700ED
:1046E00084E8070001AA002352F8040BB6FBF0F09F
:1046F000B0FBF7F0B0F5807F07D901330B2BF3D176
:104700004FF6FF700CB0F0BC70470A2B94BF40EA24
:1047100003204FF6FF70F5E7F8A8400070B5064695
:104720000D460C6844B1896820460C4B98470446F6
:104730004FF6FF7398420CD0686840B1A968074BE8
:1047400098474FF6FF73984205D044EA004434601E
:104750000024204670BD0446FBE700BFC946400068
:1047600070B40A684B6803F00F038C8A23430C89EA
:1047700023438C7A43EA44238C7D43EA0443CC7D73
:1047800043EA44430C7E43EA844300EB4214C4F8FA
:104790000032CB68C4F804320B69C4F80C328B7D4C
:1047A0003BB18C8B4B8B43EA044300EB4214C4F8BF
:1047B0001832856C4FF001139340DB431D40CC7FD2
:1047C00004FA02F68C7F944044EA06442C43846445
:1047D000446C234091F8214004FA02F591F82040FE
:1047E000944044EA0544234343640123934091F8F1
:1047F0002240002C43D0046A1C43046291F82440F8
:10480000022C41D0D0F8C050DC432540C0F8C05045
:1048100091F82450012D07BF846E1C43856E2C40F7
:10482000846691F82540022C34D0D0F8C0501B0487
:10483000DC432540C0F8C05091F82550012D30D000
:10484000836E1C408466D200C46EFF23934024EA2A
:10485000030491F8233003FA02F22243C2660B6884
:1048600053B991F82C30012B8B6A23F07F4308BF9A
:1048700043F08073C0F8A030002070BC7047046A19
:1048800024EA03040462B9E7D0F8C0401C43C0F82E
:10489000C040C6E7D0F8C04044EA0343C0F8C03087
:1048A000D1E7846E23438366CDE70B69934202D23E
:1048B0004FF6FF7070470B68CA6000EB4310C0F8FA
:1048C000082200207047012303FA01F1416070477C
:1048D0002DE9F84F0920D54CA0470A20A0470C200D
:1048E000A047D34A4FF480451561C2F8A050D14B80
:1048F0004FF000411961C3F8A0104FF00051196149
:10490000C3F8A0104FF08049C3F81090C3F8A090EE
:10491000C9494FF400660E61C1F8A0600D61C1F88D
:10492000A0504FF480600861C1F8A0004FF0100E55
:10493000C2F810E0C2F8A0E04FF400570F61C1F8D0
:10494000A0704FF0806CC3F810C0C3F8A0C04FF443
:1049500080301061C2F8A0004FF0010BC3F814B012
:10496000C3F8A0B004245C61C3F8A0404FF0020A71
:10497000C3F814A0C3F8A0A080201061C2F8A00062
:1049800040201061C2F8A0004FF080501061C2F8C2
:10499000A0004FF400301061C2F8A0004FF0807802
:1049A000C2F81080C2F8A080C2F810C0C2F8A0C03F
:1049B00008201061C2F8A000C2F810B0C2F8A0B080
:1049C0001461C2F8A040C2F810A0C2F8A0A0C3F8B9
:1049D00010C0C3F8A0C0C3F81080C3F8A0804FF483
:1049E000000CC3F810C0C3F8A0C04FF02008C3F8F3
:1049F0001480C3F8A0804FF0006AC2F814A0C2F877
:104A0000A0A04FF4002AC2F810A0C2F8A0A0C2F8DB
:104A10001090C2F8A090C1F81480C1F8A0804FF4A3
:104A20008018C2F86080C2F89080C2F85480C2F842
:104A30002480C2F88080D2F8709029F48019C2F8DE
:104A40007090D2F8749029F48019C2F87490C2F86A
:104A500004804FF40018C2F86080C2F89080C2F859
:104A60005480C2F82480C2F88080D2F8709029F473
:104A70000019C2F87090D2F8749029F40019C2F8A5
:104A80007490C2F804804FF48008C2F86080C2F8C5
:104A90009080C2F85480C2F82480C2F88080D2F896
:104AA000709029F48009C2F87090D2F8749029F4BB
:104AB0008009C2F87490C2F80480C2F860C0C2F8DD
:104AC00090C0C2F854C0C2F824C0C2F880C0D2F866
:104AD000708028F40008C2F87080D2F8748028F43E
:104AE0000008C2F87480C2F804C01866C3F89000C9
:104AF00058655862C3F880001A6F22F008021A67DE
:104B00005A6F22F008025A675860C3F860E0C3F891
:104B100090E0C3F854E0C3F824E0C3F880E01A6FD3
:104B200022F010021A675A6F22F010025A67C3F877
:104B300004E04FF4C0621A66C3F890205A655A62C6
:104B4000C3F88020D3F870E02EF4C06EC3F870E094
:104B5000D3F874E02EF4C06EC3F874E05A604FF4DA
:104B600080521A66C3F890205A655A62C3F88020B2
:104B7000D3F870E02EF4805EC3F870E0D3F874E0F0
:104B80002EF4805EC3F874E05A601F66C3F890701C
:104B90005F655F62C3F880701A6F22F400521A6773
:104BA0005A6F22F400525A675F601D66C3F8905036
:104BB0005D655D62C3F880501A6F22F480421A6707
:104BC0005A6F22F480425A675D601E66C3F8906097
:104BD0005E655E62C3F880601A6F22F400621A6735
:104BE0005A6F22F400625A675E600866C1F890004E
:104BF00048654862C1F880000B6F23F008030B671B
:104C00004B6F23F008034B6748600C66C1F8904077
:104C10004C654C62C1F880400B6F23F004030B67B6
:104C20004B6F23F004034B674C6007E039464000AC
:104C300000140E40000E0E4000100E40BDE8F88F2C
:104C4000FEE7000000B583B0254B264A9A4210D0FB
:104C5000254B234A9A420CD2013B9B1A23F00303B3
:104C6000043313441F4951F8040B42F8040B9A42D1
:104C7000F9D11E4B1E4A9A420AD2013B9B1A23F0DD
:104C8000030304331344002142F8041B9342FBD175
:104C9000184A194B23F07F039360EFF31083B3FAA4
:104CA00083F35B09019372B6BFF35F8F0022134B4E
:104CB0001A700199124A136843F470031360BFF32A
:104CC0004F8FBFF36F8F29B101220C4B1A70BFF3C6
:104CD0005F8F62B60B4B98470B4B9847FEE700BFC0
:104CE0000000002008AC4000840A0020A813002027
:104CF000840A002000ED00E0000040008500002054
:104D000088ED00E0C1534000A55040003B4B1B6BB9
:104D100003F00303012B1DD083B1022B36D0374B98
:104D20001B6B03F07003702B5FD0344B1A6B34494C
:104D3000C2F302120B68D3400B607047314B5B69C2
:104D400013F0800F14BF4FF400424FF4FA422C4B83
:104D50001A60E4E7294B1B6A13F0807F03D02A4ACC
:104D6000274B1A60DBE7294A254B1A60234B1B6A45
:104D700003F07003102B05D0202BD0D1224A204BFA
:104D80001A60CCE7224A1E4B1A60C8E71B4B1B6A0D
:104D900013F0807F16D01C4A194B1A60174B1B6BFF
:104DA00003F00303022BBAD1144A916A926A1448A1
:104DB000C1F30A41036801FB0333D2B2B3FBF2F340
:104DC0000360ACE7114A0E4B1A600C4B1B6A03F0F0
:104DD0007003102B05D0202BE0D10B4A084B1A6032
:104DE000DCE70B4A064B1A60D8E7054A1368094905
:104DF000A1FB03135B081360704700BF00040E4063
:104E00008800002010180E40001BB70000093D006C
:104E100000127A00ABAAAAAA124B984211D9124BDF
:104E2000984213D9114B984214D9114B984215D975
:104E3000104B984294BF4FF004220F4A0F4B1A6058
:104E400070474FF080620D4B1A6070470C4A0B4B55
:104E50001A6070470B4A094B1A6070470A4A074BA1
:104E60001A607047FF2C3101FF596202FF869303DD
:104E7000FFB3C404FFE0F50500050004000A0E407E
:104E80000001000400020004000300040A4B1B6838
:104E900053B1094B1B681A180849914208DB1046A8
:104EA000054A106018467047054A034B1A60F0E740
:104EB0004FF0FF30704700BF5C0F0020FCFF012067
:104EC000A84300204FF0FF3070474FF400534B6071
:104ED000002070470120704700207047F0B583B074
:104EE00005460C4600230193184B98420AD0184BF4
:104EF00098420FD0174B984214D0174B9D421BD0AD
:104F000003B0F0BD1F46154E21463846B047002875
:104F1000FAD1F2E71E46114D21463046A847002837
:104F2000FAD1EDE71E460E4D01A93046A8470028EC
:104F3000FAD1019B2370E3E71E46094D01A93046D3
:104F4000A8470028FAD1019B2370D9E700060E403C
:104F50000006064000000A4000400A407D1B400059
:104F6000A31B400070B50C46184B98420AD0184B52
:104F7000984210D0174B984216D0174B98421CD02D
:104F8000002070BD1E46154D21463046A84700281A
:104F9000FAD1012070BD1E46104D21463046A8476B
:104FA0000028FAD1012070BD1E460D4D2146304625
:104FB000A8470028FAD1012070BD1E46084D2146A1
:104FC0003046A8470028FAD1012070BD00060E40E7
:104FD0000006064000000A4000400A406D1B4000E9
:104FE0008F1B4000F8B50020224B9847224C4FF40D
:104FF000804363634FF480326263802262634022A5
:1050000062634FF0805262631C4D4FF400626A632A
:105010006B634FF400566E634FF480636B63184FFD
:105020004FF000437B6300224FF440612846154B4C
:10503000984704224FF0FF313846134FB8470422F7
:105040004FF0FF312846B84704226FF40031204664
:10505000B847324631460D480D4B984700200D4B5E
:10506000984700200C4B98470C4B98470C4B98479F
:10507000F8BD00BF0930400000140E4000100E4083
:10508000000E0E40D1434000DB43400010180E409C
:10509000CB18400019444000D94540001946400053
:1050A000A146400000B589B0714B984740F6B83032
:1050B000704B9847704B98470720704CA047704D35
:1050C000704B1D60704A714B1A60714A714B1A60C7
:1050D000714B05934FF4E13306934FF4006307934C
:1050E0000720A04705A928466C4B98476C4E3368AB
:1050F000002198686B4DA847336800215868A8477D
:105100004FF44260684B9847684B98474EF66020D2
:105110000021674B9847674B98474FF40032664B26
:105120001A632520A047654B98476420644B984735
:10513000644B9847644B9847644B9847644B984737
:10514000644B9847644B9847644B9847644B984727
:10515000644B1968644A11601968644A11601968DF
:10516000634A11601968634A11601968624A1160E4
:105170001968624A11601968614A11601A68614BC6
:105180001A60614C21466148614B98472368626808
:10519000A1686069029020690190E06800905D4814
:1051A0005D4CA0474F4D574C5C4E0BE0564957485D
:1051B000574B984702225A4B1A602B68236006E02F
:1051C000584B98472B6822689B1A092BEED802226D
:1051D000554B1A603046554B9847554B9847554BA1
:1051E0009847554B9847554B9847554B9847554BC3
:1051F0009847554B9847554B9847554B9847554BB3
:105200009847554B9847554B9847554B9847554BA2
:105210009847554B9847554B9847554B9847554B92
:105220009847554B9847554B9847554B9847554B82
:105230009847554B9847554B9847554B9847554B72
:105240001860554B9847554B1880554B9847554B10
:105250001880554B9847554B1880554B9847554BE0
:105260001880554B1B78002BAAD0544B9847A7E7C2
:1052700069434000A53F4000D14840003946400006
:1052800000060E40BC100020654F4000B810002002
:10529000DD4E4000B410002000879303351B400012
:1052A0008C000020C55B400071174000693F400042
:1052B0007D3F4000B940400000140E409D2E40004C
:1052C000D53F4000C9394000FD374000B9374000A4
:1052D000E12540004D354000E10140003D22400005
:1052E000C11C40007C0E00206C0E0020740E0020BB
:1052F000C40E0020180E0020000B0020C80E002055
:10530000AC0E0020A80A002020000020741000200D
:10531000A136400024A940001154400050180E400E
:1053200000000B409921400000400B40051C40004C
:10533000C52F4000DD30400005334000B53340004C
:10534000992F400091344000411F4000C93B40006C
:10535000A13A4000E9394000D93C4000993D400065
:105360003D2B4000213B4000490A4000F13D4000F8
:105370003D4140002D074000A92A4000A1414000C6
:105380001D42400071424000C12D4000950B40007D
:1053900091054000080B0020390540001E0E00203A
:1053A000E1044000BA0A002089044000BE0A00203F
:1053B0005D064000200E0020CC0E00200926400093
:1053C00070B50F4E0F4D761BB61018BF002405D0D8
:1053D000013455F8043B9847A642F9D10A4E0B4DCB
:1053E000761B05F0FBFBB61018BF002406D0013475
:1053F00055F8043B9847A642F9D170BD70BD00BF77
:10540000E8AB4000E8AB4000F0AB4000E8AB400048
:105410000FB400B5074983B004AB086853F8042BF8
:105420008168019300F0C4FF03B05DF804EB04B0A1
:10543000704700BF8C000020032A70B422D940EAD4
:1054400001039B0711D003780C78A3421DD10A44B5
:10545000013105E010F8013F11F8014BA34214D1CE
:105460009142F7D1002070BC70470D680668AE42CB
:105470000C46034601F1040100F1040008D1043A8E
:10548000032AF2D8002ADED1ECE7181B70BC704763
:1054900021461846D7E700BF70B4860746D0541E91
:1054A000002A41D0CAB2034602E014F1FF343BD3D4
:1054B00003F8012B9D07F8D1032C2ED9CDB245EA74
:1054C00005250F2C45EA054519D903F1100226469A
:1054D000103E0F2E42F8105C42F80C5C42F8085C5B
:1054E00042F8045C02F11002F2D8A4F1100222F09A
:1054F0000F0204F00F041032032C13440DD91E4682
:105500002246043A032A46F8045BFAD8221F22F006
:1055100003020432134404F003042CB1C9B21C4446
:1055200003F8011B9C42FBD170BC70471446034634
:10553000C2E700BF2DE9F04101683B2982B0044673
:1055400000F2B68041683B2900F2A580A1681729C6
:1055500000F2948021690B2900F2838063699F0720
:1055600033D17448DA1780FB0365C2EB65126425FA
:1055700005FB1232002A64D0E3686F4D002B4FF018
:105580001D0627DC6B4F4FF0640E4FF4C87C07E01C
:10559000012914BF55F8212032461344002B37DC73
:1055A00011F1FF31F4D261694A1E9607626140F041
:1055B0008C8087FB0206D017C0EB66100EFB102212
:1055C000002A00F086801D2680E01C26E3685A4DE4
:1055D000002BD7DDDFF85CE100274FF0640C4FF4BF
:1055E000C8784A1C0BE055F821009842A3EB000351
:1055F00010DA0C2AE36022610FD001310132012957
:10560000F1D19E42A3EB060304DAE3602261F4E7E2
:105610002161E36002B0BDE8F081616927614A1C45
:105620009007626102D01C260021DAE78EFB020699
:10563000D017C0EB66100CFB1022002A57D01D2695
:10564000F2E703F26C7380FB0320DA17C2EBE01081
:105650004FF4C87202FB1033002B14BF1C261D260A
:10566000B4E70C22684601F0A1FD6369009A019934
:1056700013440029636157DB216170E718226846F3
:1056800001F094FD9DE80600E368002A0B44E36006
:1056900045DBA2605EE73C22684601F087FDA26818
:1056A0000099019B1144002BA16033DB63604EE73E
:1056B0003C22684601F07AFD9DE80C006168002BF1
:1056C0001144616021DB23603DE71C260B211F2272
:1056D00063E701F26B7187FB0120CA17C2EBE0128E
:1056E0000CFB1211002914BF1C261D26EEE701F247
:1056F0006D718EFB0120CA17C2EBE01208FB12117C
:10570000002914BF1C261D268EE73C330139236077
:10571000616018E73C3301396360A16017E7183214
:10572000013BA260E36015E70C31013B216163613D
:1057300015E700BF1F85EB5140A940002DE9F84F48
:10574000064602F03BFA80463046FFF7F3FECE4DA8
:10575000346973683168F268B06855F82450C3EB57
:10576000031301EB83034FF4616E013A012C0EFB2E
:10577000003E1544716902DD880700F0C88001F51C
:105780001C53103344F620629342F56100F2798194
:10579000462900F3938000F0F080452900F07E81D7
:1057A000BA48452440F26D1964274FF4C87C16E0CE
:1057B00004F26C7A80FB0A2B4FEAEA72C2EBEB121E
:1057C0000CFB12A2002B40F0D180002A14BF4B46E4
:1057D0004FF4B773013CA142A5EB030510D080FB49
:1057E0000423E217C2EB631314F0030F07FB134308
:1057F000DED0013C40F26D13A142A5EB0305EED1D2
:10580000A10740F0E780A14AE31782FB0401C3EB44
:105810006113642101FB1343002B40F0F18004F27B
:105820006C7182FB0132CB17C3EBE2124FF4C873E9
:1058300003FB1213002B40F26D1308BF4FF4B77334
:10584000ED1A934F07FB05E700F0CAFB00F0D4FB0D
:10585000904BD3F80090B9F1000F00F08A80336AC2
:105860007069D8F80420012B00F26C70A8BF0123E6
:10587000904299465AD000F0F1FA002856D1B9F179
:10588000010F40F0B880D8F83C108A4657444FF0DA
:10589000010900F0ABFB804BC6F82090043583FB78
:1058A00005235A19EB17C3EBA203C3EBC303EB1A8F
:1058B00048BF0733B3613846BDE8F88F73484624C4
:1058C00040F26D1964274FF4C87C13E004F26C7A3F
:1058D00080FB0A2B4FEAEA72C2EBEB120CFB12A21E
:1058E0000BBB002A14BF4B464FF4B7730134A142DF
:1058F0001D44A6D080FB0423E217C2EB631314F00F
:10590000030F07FB1343E1D040F26D13EEE75F4A4C
:10591000CB1782FB0140C3EB6013642000FB131321
:105920006BB301352BE74FF4B773DFE7D8F82020CE
:10593000D8F83830D8F83C10A3EB020C6745104675
:105940008A4602DB5B1A9F4299DBD8F81C30A3EB36
:10595000010ED8F800300BB377453EDAB9F1000FED
:1059600080F2CF804FF00009074492E74FF4B773FD
:1059700030E7D8F8200007448BE70C4661E701F2D6
:105980006C7082FB0032C317C3EBE2124FF4C87392
:1059900003FB1202002A7FF4F2AEC2E777451CDB5C
:1059A000B9F1000FFFF672AF7FF46FAF511A336891
:1059B000D6F80C900B44336030460F44FFF7BAFD25
:1059C000F368B3EB090318BF4FF001092ED1D8F8E3
:1059D0003CA05BE740F26D1332E76745ACBF0023A4
:1059E0000123B9F1000F04DB83EA0909B9F1010FC2
:1059F00009D0994643E7D8F820201046074448E7E5
:105A00004FF4B7731CE7511A002BD0D13368D6F886
:105A10000C905B1A336030467F1AFFF78BFDF368FA
:105A2000B3EB0909A5D04B464FF00009012B3CDD33
:105A30004FF0FF33F2691D449B183AD4A20731D1CD
:105A40001249E21781FB04E0C2EB6012642000FB04
:105A50001242002A4CD104F26C7481FB0421E2173B
:105A6000C2EBE1124FF4C87101FB1242002A40F26E
:105A70006D1208BF4FF4B7729A42D8BF9B1AF361F8
:105A8000FDE64FF0FF3716E770A940001F85EB5188
:105A9000805101007C0F0020932449920C4640F273
:105AA0006D13CDE640F26D12E6E79A1CD8BF0123D4
:105AB000C0E7611E88071ED1164ACB1782FB01E0A2
:105AC000C3EB6013642000FB1313BBB904F26B74C7
:105AD00082FB0432E317C3EBE2134FF4C87202FBFC
