:020000040042B8
:10000000404700204D5F4200495F4200495F420087
:10001000495F4200495F4200495F42000000000022
:10002000000000000000000000000000495F4200E6
:10003000495F420000000000495F4200A53C4200C9
:10004000495F4200495F4200495F4200495F420008
:10005000495F4200495F4200495F4200495F4200F8
:10006000495F42003556420049564200495F42000E
:100070005D564200495F4200495F4200495F4200CD
:10008000495F4200495F4200495F4200495F4200C8
:10009000495F4200B53C4200495F4200495F42006F
:1000A000495F4200495F4200495F4200495F4200A8
:1000B000495F4200495F4200DD154200F1154200F0
:1000C000495F4200495F4200495F4200495F420088
:1000D000495F420071364200495F4200495F420079
:1000E000495F4200495F4200495F4200495F420068
:1000F000495F4200495F420010B5054C237833B98F
:10010000044B13B10448AFF300800123237010BDEA
:10011000C40A00200000000040FA42000C4B43B12A
:100120000C480D4910B5AFF300800C48036823B9A3
:1001300010BD0A48036833B97047094B002BF7D04C
:10014000BDE810401847064B002BF5D0184700BFFC
:100150000000000040FA4200C80A002040FA4200B5
:1001600000000000034B02225A669A6E024B1A608E
:10017000704700BF00400B4018150020034B0322BE
:100180005A669A6E024B1A60704700BF00400B40DF
:100190005815002008B50D4B1B6B13F0006F14D0E1
:1001A00000230B4902E001330C2B08D013F0010FA0
:1001B000F9D131F8132092B221F81320F3E700228D
:1001C0000449054B1868054B984708BD00000B40D3
:1001D000FC16002084140020C81400209D19420041
:1001E0002DE9F047474C2046474EB047474D28463B
:1001F000B047474B1978474E3046474B98473146F2
:100200002046464FB84731462846B847444E304608
:10021000444B9847324600212046434FB847324668
:1002200001212046B847324602212046B8473246CF
:1002300003212046B847324604212046B8473246BB
:1002400005212046B847324602212846B8473246A3
:1002500003212846B8474FF00008C4F864804FF4E3
:100260000063E36601276766E36602266666E36667
:100270004FF00309C4F86490E36604226266E36603
:1002800005216166E3666E66EB66C5F86490EB6611
:10029000636823F08F0363606B6823F08F036B60E8
:1002A00067616661626108236361102161612021D9
:1002B00061616A616B61DFF894A01C48CAF80000B4
:1002C0001B491C4B0B600C234B6042461A4B984752
:1002D0003946DAF80000194B98474346184A0A2174
:1002E0002046DFF86C80C0473B46164A3146284618
:1002F000C0473B46144A49462846C04726602E6000
:10030000BDE8F08700000B400516420000400B409E
:1003100059130020CC1400202D14420079144200FF
:10032000741400206D144200FD13420000010B40C4
:1003300084140020FC1600209D194200B5194200CB
:1003400095014200650142007D014200C814002071
:100350008515420030B40B4B1B780B4C22680244CD
:100360000A4951F82350521B226041F823003F2BC9
:100370001ABF0133DBB2002302490B70900930BC75
:10038000704700BF440B0020701000205C0B002061
:1003900030B40B4B1B780B4C226802440A4951F8CD
:1003A0002350521B226041F823003F2B1ABF013318
:1003B000DBB2002302490B70900930BC704700BFCC
:1003C000450B0020741000205C0C002030B40B4B57
:1003D0001B780B4C226802440A4951F82350521BE7
:1003E000226041F823003F2B1ABF0133DBB2002308
:1003F00002490B70900930BC704700BF460B0020CB
:10040000781000205C0D002030B40B4B1B780B4C97
:10041000226802440A4951F82350521B226041F8D5
:1004200023003F2B1ABF0133DBB2002302490B70BC
:10043000900930BC704700BF470B00207C100020A3
:100440005C0E002030B40B4B1B780B4C226802442E
:100450000A4951F82350521B226041F823003F2BD8
:100460001ABF0133DBB2002302490B70900930BC84
:10047000704700BF480B0020801000205C0F002058
:1004800008B50F4B9B889BB207EE903AF8EEE77ADF
:100490000C4B93ED007A67EE877ADFED0B6A87EEFF
:1004A000A67ADFED0A7A67EE277AFCEEE77A17EE96
:1004B000900A074BC3ED007A064B984708BD00BF72
:1004C000FC1600208C00002000F07F4500007A44DC
:1004D000E40A00205503420008B50F4B1B889BB26D
:1004E00007EE903AF8EEE77A0C4B93ED007A67EE60
:1004F000877ADFED0B6A87EEA67ADFED0A7A67EE80
:10050000277AFCEEE77A17EE900A074BC3ED007AE4
:10051000064B984708BD00BFFC1600208C00002049
:1005200000F07F4500007A44E00A00209103420079
:1005300008B50F4B1B899BB207EE903AF8EEE77AAD
:100540000C4B93ED007A67EE877ADFED0B6A87EE4E
:10055000A67ADFED0A7A67EE277AFCEEE77A17EEE5
:10056000900A074BC3ED007A064B984708BD00BFC1
:10057000FC1600208C00002000F07F4500F01C4598
:1005800098150020CD03420008B50D4B9B8A9BB205
:1005900007EE903AF8EEE77A0A4B93ED007A67EEB1
:1005A000877ADFED096A87EEA67ADFED087A67EED3
:1005B000277AFCEEE77A17EE900A054B984708BDBC
:1005C000FC1600208C00002000F07F45009C654652
:1005D000090442000B4BD3ED007AF8EE677A0A4B20
:1005E00093ED007A67EE877ADFED086A87EEA67AE8
:1005F000DFED077A67EE277AFCEEE77A17EE900ACE
:10060000704700BF581500208C00002000F07F4587
:1006100000007A440B4BD3ED007AF8EE677A0A4B70
:1006200093ED007A67EE877ADFED086A87EEA67AA7
:10063000DFED077A67EE277AFCEEE77A17EE900A8D
:10064000704700BF181500208C00002000F07F4587
:1006500000007A4408B50D4B9B899BB207EE903A97
:10066000F8EEE77A0A4B93ED007A67EE877ADFEDD2
:10067000096A87EEA67ADFED087A67EE277AFCEE44
:10068000E77A17EE900A054B984708BDFC16002044
:100690008C00002000F07F4500B0A64545044200D4
:1006A000F8B582240F4F104E104D3846B047A8477A
:1006B0000F4B18600F4B98470F4B18800F4B984704
:1006C0000F4B18800F4B98470F4B18800F4B9847D4
:1006D0000F4B188002200F4B9847631E13F0FF0446
:1006E000E3D1F8BD50180E40A51D42008905420017
:1006F000540B0020310542006A100020D90442004A
:100700000A0B0020810442000E0B00205506420017
:100710006C1000207D524200F8B5944B1B78002BE2
:1007200040F07C81924B1B68924A12689B1AF92B0D
:1007300010D9914B08221A6301221A6304225A63CA
:1007400002225A638A4B1A688A4B1A608B4A1378C2
:1007500001331370894B1B78013B032B00F2CC80D3
:10076000DFE813F0040051007900A100844B1B78EE
:10077000002B33D10122824B1A707D4B19687D4BBF
:1007800019607D4B1A6302221A6308225A630422FD
:100790005A637C4B1B78002B00F040817A4B1A88FF
:1007A00040F6E7039A4200F21381784B1A8840F62C
:1007B000E7039A4200F20C81754B1A8840F6FC035D
:1007C0009A4240F22781734B1A8840F6FC039A4202
:1007D00040F220810022704B1A70FCE0644B1B68D1
:1007E000644A12689B1A132BD3D96C4A13880133BD
:1007F0009BB213806A4B18686A4B98476A4A136821
:1008000018441060C5E7694B1B787BB90122674B20
:100810001A70574B1968574B1960574B5A6302228D
:100820005A6308221A6304221A63B2E7504B1B680A
:10083000504A12689B1A142BABD95D4A13880133B6
:100840009BB213805B4B18685B4B9847564A5368C2
:10085000184450609DE7594B1B787BB90122574BD8
:100860001A70434B1968434B1960434B1A630222B9
:100870005A6308225A6304225A638AE73C4B1B6876
:100880003C4A12689B1A142B83D94D4A13880133B2
:100890009BB21380424B1868424B9847424A936878
:1008A0001844906075E7474B1B787BB90122454B94
:1008B0001A702F4B19682F4B19602F4B5A63022265
:1008C0005A6308221A6304225A6362E7284B1B68A2
:1008D000284A12689B1A142B7FF65BAF3A4A13889A
:1008E00001339BB21380334B1868334B98472E4A21
:1008F000D3681844D0604CE70124204B1C702A4870
:100900000368264D2A8892B2B3FBF2F31E4A138085
:100910004368274E328892B2B3FBF2F31B4A13802E
:100920008368274F3A8892B2B3FBF2F3184A1380D8
:10093000C368DFF894E0BEF8002092B2B3FBF2F394
:10094000144A13800021AEF80010398031802980CC
:100950000B4B1970154B1970184B1970194B1970F6
:10096000084B1C702822194B984717E7080B0020EA
:10097000F8120020040B002000140E40580B002039
:10098000E90A0020490B00203C0B0020400B00200E
:100990003E0B0020420B0020F10A0020EC0A002050
:1009A00058150020D5054200140B0020F80A00203D
:1009B000FA0A00201815002015064200EA0A002055
:1009C000EE0A0020F90A0020FC0A0020F56B420024
:1009D0000122134B1A70124B1B78124A12789A425A
:1009E0001CD0104A1370104B984704220F4B1A71F9
:1009F0000B4B1B7853B900210C4A91710B48437182
:100A00000B4B984704220B4B1A70F8BD0121074A83
:100A10009171F3E70222024B1A70DCE7F8BD00BFC8
:100A2000F10A0020F00A0020A549420098000020A9
:100A3000294742008810002010B5574B1B8841F20F
:100A4000EC32934210D9554A116841F2EC3291428E
:100A50000AD9534B1968534A11601A68524B1A60ED
:100A60000022524B1A703EE04C4A116841F2873224
:100A7000914222D8934220D84D4B1B78EBB1484B82
:100A80001B68494A12689B1AB3F5FA6F2BD3494B7E
:100A900098474948102303713F4B1B88474AA2FBE4
:100AA00003231B09C371464B98474648464B98475A
:100AB000464B9847464B984715E0394B1B68394AD7
:100AC00012689B1A4CF2503293420CD90122374BD8
:100AD0001A70334B1968344A11601A68314B1A6026
:100AE00006223C4B1A703C4B1A78304B1B789A42CA
:100AF00013D0304B98473048062303712B4C237892
:100B00008371254B1B882D4AA2FB03231B09C3714C
:100B10002B4B98472278304B1A70304B1A6842F2B0
:100B2000FC139A4225D91E4B1A682D4B1A600022DD
:100B30001F4B1A702B4B1A781D4B1B789A4217D0FB
:100B40001C4B98471C4805230371194C237883716B
:100B5000224B1B68194AA2FB03231B09C371184BC4
:100B6000984722781F4B1A704FF080721E4B5A63C1
:100B700010BD0B4B1B681A4A12689B1AB3F52F7FE6
:100B8000D8D9074B1A68164B1A600122084B1A7005
:100B90000522104B1A70CDE76A100020981500202E
:100BA000F8120020641000205C1000206810002063
:100BB000500B0020A5494200980000201F85EB51F2
:100BC0002947420084F34200516842004D1F420011
:100BD000ED6242008810002060100020540B0020BD
:100BE0004C0B00204A0B002000140E402D4B1B68BC
:100BF0002D4A12689B1AB3F57A7F52D910B52B4B48
:100C00001B8843F66C12934233D9294A1378591E34
:100C10001170012B23D9274B1A78274B1B789A4246
:100C200018D0264B984726480E230371214C237871
:100C300083711E4B1B88234AA2FB0323C3F3C70304
:100C4000214AA2FB03231B09C371204B984722783A
:100C5000194B1A70134B1A68134B1A6010BD1C48BD
:100C60001C4B9847B422124B1A700022114B1A7079
:100C7000D1E743F2BB4293420FD80D4A1378591E75
:100C80001170012BC7D81248134B9847B422084B58
:100C90001A700122074B1A70BDE7B422044B1A7078
:100CA000B9E77047F8120020000B00206C100020FC
:100CB000880000206E100020E80A0020A5494200AC
:100CC00098000020CDCCCCCC1F85EB5129474200A9
:100CD00078140020D5524200B952420010B582B0BB
:100CE0000446164B1878164B98476268A37A43EA75
:100CF0000263110201F47F010B43120A02F47F42E6
:100D0000134302A840F8083DE17A0E4B984710B112
:100D1000082002B010BDA37A013BDBB2012B218970
:100D2000206894BF074B084B984708B10820F0E7AC
:100D3000024B1878054B98470020EAE79000002006
:100D4000B1104200F9104200E1104200C910420007
:100D500000B585B006238DF80E3001238DF80F30D5
:100D600000230193ADF80C30029301A8024B984781
:100D700005B05DF804FB00BFDD0C420008B5024B76
:100D80009847002008BD00BF79104200014B187041
:100D9000704700BF9000002000B585B0002303938A
:100DA0009F228DF80A2001228DF80B2003AA0092C1
:100DB0000322ADF8082001936846064B9847039834
:100DC00020F07F40044B984214BF0420002005B05F
:100DD0005DF804FBDD0C4200C223130000B585B0B2
:100DE00005238DF80E3001238DF80F300190ADF8FA
:100DF0000C300023029301A8024B984705B05DF820
:100E000004FB00BFDD0C420010B582B0064C0DF1B2
:100E10000700A047024620B99DF8073013F0010FE4
:100E2000F5D1104602B010BDDD0D4200B0F5800FC7
:100E300034D82DE9F04184B0044600F500381C4D4B
:100E40001C4E1D4F0DF10F00A847034650BB9DF8E7
:100E50000F3013F0010F24D113F00C0F26D1B0473F
:100E60000346F8B9D8238DF80A3004238DF80B30E7
:100E700000230093ADF8083001946846B847034654
:100E800080B90E4B9847034660B944450AD004F533
:100E90008034B4F5800FD5D9092303E0092318461F
:100EA00070470623184604B0BDE8F0810723F9E730
:100EB000DD0D4200510D4200DD0C4200090E4200E2
:100EC000B0F5800F02D90923184670472DE9F04785
:100ED00084B004460DF10F00284B9847034628B90B
:100EE0009DF80F3013F0010F04D00623184604B00C
:100EF000BDE8F08713F00C0F01D00723F6E7204B75
:100F0000984703460028F1D124F47F6525F00F05AA
:100F100004F5FF501E30441B240B28D02E0200275E
:100F2000DFF86C80DFF86CA0DFF86C9098F80000B8
:100F3000D04706F47F0343F020032A0A02F47F42DD
:100F4000134304A840F80C3D0421C84798B9002178
:100F500008460C4B984770B998F800000A4B984720
:100F6000013705F5805506F58016BC42DED1074BEA
:100F700098470346BAE70823B8E700BFDD0D4200F3
:100F8000510D4200E1104200C9104200090E42001A
:100F900090000020B1104200F91042008B18B3F508
:100FA000800F02D90923184670472DE9F04F85B00C
:100FB00007468B46164699B3DFF87890DFF87880BD
:100FC000DFF878A0F4B2C4F580745C4528BF5C46B5
:100FD000C84702238DF80A3004238DF80B300097A0
:100FE000A5B2ADF8085001966846C0470346D0B98F
:100FF000D0470346B8B90DF10F000D4B9847034693
:1010000088B99DF80F2012F0200F0BD12744ABEBCD
:1010100005051FFA85FB2644BBF1000FD2D102E083
:10102000002300E00523184605B0BDE8F08F00BF9F
:10103000DD0D4200510D4200DD0C4200090E420060
:101040008B18B3F5800F01D90920704700B585B022
:1010500003238DF80E3004238DF80F300190ADF886
:101060000C1002920DEB0300024B984705B05DF89F
:1010700004FB00BFDD0C420030B583B0074C2046B6
:10108000074B984700220092064B07492046074D20
:10109000A8470123236003B030BD00BF0080084093
:1010A00011114200001BB70084100020651142009E
:1010B00008B502490248034B984708BD8410002038
:1010C00000800840E511420008B502490248034B80
:1010D000984708BD84100020008008401512420087
:1010E00008B50A4601460248024B984708BD00BFB2
:1010F000008008406B12420008B50A4601460248CB
:10110000024B984708BD00BF0080084035124200DE
:1011100010B50446104B984780232360636843F062
:1011200001036360636843F010036360636823F046
:101130008003636000212046084B9847636823F0D2
:1011400002036360636823F00403636000212046A8
:10115000034B984710BD00BFCD194200DD19420076
:10116000F31942002DE9F04104460D461646154993
:101170001846154B9847074600231A46296820460B
:10118000DFF85C80C0470022296820460F4B984753
:10119000FAB2296820460E4B984708222968204653
:1011A0000C4B98477208296820460B4B984786F0ED
:1011B000010202F0010229682046084B9847BDE869
:1011C000F08100BF008793039B1A4200871A4200F8
:1011D000B11A4200411A4200051A4200231A420085
:1011E000D91A420008B5436813F0040F06D0096805
:1011F0000F2900D908BD064B984708BD0968032987
:10120000F8D8012303FA01F1C943014B9847F1E7EC
:10121000DD19420010B50446236913F4007FFBD0AA
:101220000F212046024B98474FF08073236010BD7A
:10123000DD1942001AB110B40C46114406E000203A
:10124000704714F8013BC360A1420CD043F69923C8
:10125000026912F0020FF4D1013BF9D16FF00200E4
:101260005DF8044B70470020FAE73AB170B41546B8
:101270000C460D44FF2640F2012112E00020704789
:10128000C66043F69923026931EA020204D0013BA9
:10129000F9D16FF002000EE0836804F8013BA5422B
:1012A0000BD043F69923026912F0020FE8D1013BFB
:1012B000F9D16FF0020070BC70470020FBE700001E
:1012C0002DE9F04180B90C469046002A0FDD8F18B9
:1012D000084E094D306821462B6898470134BC42BE
:1012E000F8D14046BDE8F0814FF0FF38F9E780467D
:1012F000F7E700BFB0150020A8150020013802282C
:1013000015D82DE9F0410E4614469AB10D46DFF886
:1013100038800C4FD8F8000015F8011B3B6898473F
:1013200000280ADBA81B013CF4D1BDE8F0814FF096
:10133000FF3070471046BDE8F0814FF0FF30BDE848
:10134000F08100BFAC150020B015002008B5C0EB3F
:10135000C00001EB4001034B53F8213003B1984723
:1013600008BD00BFB41500202DE9F04383B0026B27
:10137000C36A134001931F4FB84214BF00270127CF
:10138000012500242E46DFF870804FF0060914E096
:10139000019B13F4004F0ED049463846C0470AE07F
:1013A0000B2C19D8019A04F1110306FA03F3134226
:1013B0000FD10D2D1AD8013401352146062CEFD856
:1013C000E6D0019B06FA04F21A42F2D03846C04732
:1013D000EFE73846C047ECE7019A04F1120306FA3A
:1013E00003F31342E5D03846C047E2E703B0BDE857
:1013F000F08300BF00400B404D13420030B4046E38
:1014000001238B4024EA03041578002D08BF002334
:1014100023430366446D4B000321994024EA0104F1
:10142000517899402143416530BC704700230360E7
:101430000B4A0C4B00290CBF1946114641600A4B60
:1014400083604FF48033C36000220261022303757E
:10145000012343758375C27503764376837670479F
:1014600000093D000087930340420F0000230370F2
:101470000123437070470000036B13F0807F01D09D
:101480001920704770B401230360CB7D002B14BF7B
:101490004FF0004500258B7D002B14BF4FF4000456
:1014A00000240B7D1B0603F070630A69CE6832438B
:1014B00013434A7D120702F0405213438A685600D4
:1014C0004A68B2FBF6F2013A120292B213432B437E
:1014D000234343600B7E002B14BF4FF08073002327
:1014E0000A6813434A7E002A14BF4FF0007200229C
:1014F000134383608B7E1B0203F44073C0F8943067
:101500000E4B984205D00E4B98420CD0002070BC78
:1015100070470C4B03F13801002243F8042F8B4233
:10152000FBD10020F3E7084B03F13801002243F818
:10153000042B8B42FBD10020E9E700BF00000B40E9
:1015400000400B40B0150020EC1500200C4B9942D8
:1015500007D006290BD806D0012303FA01F1416216
:101560007047436270474FF40043436270470B2952
:1015700094BF11311231012303FA01F14162704726
:101580003F8000DF38B5114CA0420CBF0E24002470
:101590000C440F4D45F824200AD10E4A4FF0004468
:1015A000C2F880411B01DBB282F81F33146009E0EE
:1015B000084A4FF08044C2F880411B01DBB282F838
:1015C0001E331460044B984738BD00BF00400B40E9
:1015D000B415002000E100E04D15420008B50248B6
:1015E000024B984708BD00BF00000B406913420042
:1015F00008B50248024B984708BD00BF00400B40A9
:101600006913420000B583B0134B98420CBF1F20F2
:101610001E20124B9847124B9B78FF2B1AD0EFF3EA
:101620001083B3FA83F35B09019372B6BFF35F8F44
:1016300000220C4B1A700199094A93780133937078
:1016400029B10122074B1A70BFF35F8F62B603B056
:101650005DF804FBFEE700BF00400B40415942002B
:10166000A0150020C1000020036843F001030360BF
:101670007047036823F001030360704741607047BF
:101680008160704700697047436A23F0FF03194384
:101690004162704700EB4111D1F8100270470A789F
:1016A0008B791B0403F4702343F4000300EB421016
:1016B000C0F81C3270470B680A791AB330B4DBB239
:1016C00000EB4312D2F80042CD7924F4702444EAAE
:1016D0000544C2F800424C792CB3CC6844F0005465
:1016E000C2F804420C6944F00054C2F80842D2F82F
:1016F0000032097923F0E06343EA0163C2F8003263
:1017000030BC7047DBB200EB43100023C0F800325E
:10171000C0F80432C0F80832C0F81432C0F81832E9
:10172000C0F81C327047CC68C2F804420C6900EB68
:101730004313C3F80842DAE770B58B6803F0C07250
:10174000B2F1C07F14BF002502250A7800EB4216D3
:10175000D6F80C4224F060444C61C3F303438B7110
:10176000D6F814428C61042B02D9D6F81832CB611A
:1017700000EB4212D2F810328B6013F0807F18BF5A
:1017800045F00405014B9847284670BD9F1642005E
:101790000B7800EB4312D2F810228A6012F4000F8B
:1017A00028D010B44A79FAB10A6942F0005200EB2D
:1017B0004314C4F808228C6900EB4312C2F81442A7
:1017C0008A79042A04D9CC6900EB4312C2F8184282
:1017D0008A79120402F4702200EB4310C0F81C2234
:1017E00000205DF8044B70470C6900EB4312C2F80F
:1017F0000842E0E70120704770B588B00646002433
:101800008DF80440044D009469463046A8470134E1
:10181000082CF8D108B070BDB7164200F8B546F2F2
:10182000A81303FB02F40B19013BB3FBF4F3802B69
:1018300066D84FF4FA5404FB02F4B4EB510F61D8AC
:101840004FF47A7303FB02F208274FF0FF363B4652
:1018500004E00133DBB214441A2B0CD0B1FBF4F5D5
:10186000802DF6D804FB1515B542F2D215B12E46DF
:101870001F46EEE71F4602FB07F2B1FBF2F1CBB2C7
:10188000012B41D90446A7F10802036823F00103A4
:1018900003601E4D5600B71805EB4707BB78013BA8
:1018A0001B0103F0700378780138000200F4E06057
:1018B0000343F878013800F0070003433A79013A0E
:1018C000120302F440521343CAB2013A120402F462
:1018D000FE021343636120460D4B9847236843F093
:1018E0000103236000230B492269013312F4001F16
:1018F00001D18B42F8D10748181A18BF0120F8BD52
:101900000020F8BD0020F8BD0020F8BD98F342008B
:10191000F9174200A086010008B5120202F47062B5
:1019200041F080611143024B9847002008BD00BF81
:1019300069000020A1F10E03012B02D84FF0FF3007
:10194000704710B582B0EFF31083B3FA83F35B09ED
:10195000019372B6BFF35F8F00240B4B1C70019C88
:10196000120222F07F4222F0FF0242F0B442C9B2DA
:101970001143064B98472CB10122034B1A70BFF359
:101980005F8F62B602B010BDC10000206D00002064
:10199000014BC3F81401704700020E400B4619B109
:1019A000096801605B6843601AB11368036153689A
:1019B0004361704721F0FE01C905C90D01627047FE
:1019C000014B0360704700BF050000A508B5132058
:1019D000014B984708BD00BF41594200436823F4BA
:1019E000702343604368090401F470211943416086
:1019F0007047436823F07F434360436843EA0161D3
:101A00004160704732B900EB8100036B23F00103A2
:101A10000363704700EB8100036B43F00103036332
:101A2000704732B900EB8100036B23F002030363BC
:101A3000704700EB8100036B43F0020303637047C0
:101A4000042A03D06AB1082A16D0704700EB81003F
:101A5000036B23F008030363036B43F00403036386
:101A6000704700EB8100036B23F008030363036BF3
:101A700023F004030363704700EB8100036B43F022
:101A800008030363E1E700EB81010B6B23F0F00334
:101A90000B630B6B1A430A637047431E1944B1FB77
:101AA000F0F0431EFE2B94BF00B24FF0FF307047A2
:101AB0007AB110B4144600EB81010B6B23F47F4321
:101AC0000B630A6B42EA04220A6300205DF8044BB0
:101AD00070474FF0FF30704710B400EB8101086B86
:101AE00080B208630C6B44EA036343EA02430B636E
:101AF0005DF8044B70470A430261704710B48901D6
:101B00004318022444504FF0FF319962196A5A6019
:101B10005DF8044B704789010523435070478901E4
:101B200002234350704700EB8111CA61704700EBFC
:101B300081114A62704700EB8111086A704700000A
:101B40002A4B99424AD8A3F57A5399422CD910B41A
:101B5000274CA4FB0234A40B043C264B0B449B00F3
:101B6000B2FBF3F2043AFF2C3AD9002101316408A8
:101B7000FF2C0ED90729F9D113029BB2090401F4F5
:101B8000E0210B43E4B22343036100205DF8044BE2
:101B90007047FF2AF0D90629EED801315208FF2AF2
:101BA000EAD90629F9D9E7E74900B2FBF1F2043A8C
:101BB000FF2A11D9002301335208FF2A01D9072B2C
:101BC000F9D1110289B21B0403F4E0230B43D2B212
:101BD0001A430261002070470023F2E7012070479A
:101BE000FF2A88BF0021D8D80021C5E7801A060047
:101BF000F11976050012FD3F38B504460D464FF049
:101C0000FF338362036A80230360036B082303604E
:101C100020230360042303600A684968054B984742
:101C2000012814BF002001206B7A012B04BF402340
:101C3000236038BD411B42000A4659B1037801298F
:101C4000C4BF417841EA0323022A04DD827842EAD4
:101C5000032300E00023184670470000F8B5CC6865
:101C6000002C4FD00B4605468E68002068604A68FD
:101C7000120202F4407242F48052097C090401F419
:101C8000FE010A436A60E86059681846224B98478B
:101C9000E860012C0FD001232B6000202B6A13F485
:101CA000807F36D147F22F5147F230574FF0010E67
:101CB0004FF0020C19E003232B600120EEE70A46E7
:101CC00070460CE008B9C5F800C013F0020FF6D05A
:101CD00070462B6B3370013C01363A4664B12B6A77
:101CE00013F4807F11D1511E8AB1012CEAD013F078
:101CF000020FEED10A46F1E72B6A13F0010FFBD079
:101D00002B6A00E001242046F8BD0524FBE70924E6
:101D1000F9E70524F7E700BF391C420010B4AC23F3
:101D200003600B684A68B3FBF2F31B095C1E4FF6B5
:101D3000FE7294420CD803628B68436040F2022327
:101D4000C0F820315023036000205DF8044B704739
:101D50000120FAE7436913F0020F1ABFC1610020A6
:101D600001207047436913F0010F1DBF83690B7099
:101D7000002001207047436913F0020F1DBFC1F31B
:101D80000801C161002001207047436913F0010F71
:101D900005D08369C3F308030B600020704701205E
:101DA00070470000024B984204BF024A1A60704715
:101DB00050180E40010000A538B51C4B1B8883420B
:101DC0002AD01A4B18801A4B1980642303FB00F0A9
:101DD000184B1860184B1B781BBB184A154B9A60A0
:101DE0000C4614494FF08040154B98471549032580
:101DF0000D60CC6000230B8101238B720B234B60A1
:101E000064230B614FF080400F4B984729464FF0F9
:101E100080400E4B984738BD054B1B888B42D0D174
:101E2000F9E70B4A034B9A60DAE700BF96100020EF
:101E3000941000208C140020591300200087930375
:101E4000255A420098140020695A4200CF5B420094
:101E500000093D00F8B54FF00040324FB84701206F
:101E6000314B984732214FF4FA70304CA047642030
:101E70002F4DA84732214FF47A70A0472D4E4FF4D2
:101E8000806333636420A847322140F2DC50A047CE
:101E90004FF4005333636420A8474FF00050B84715
:101EA00032214FF4FA60A0474FF40063336364209B
:101EB000A847322140F6C410A0474FF48043336353
:101EC0006420A847002140F6C410A0474FF080408E
:101ED000B847194CA078194B984706F50566304667
:101EE000174DA847174B98473046A8474FF08042F8
:101EF000154B5A63637B5BB14FF08072124B1A63D0
:101F00000D4B9B7B4BB94FF400020F4B5A63F8BD4E
:101F10004FF080720C4B5A63F2E74FF400020A4B09
:101F20001A63F8BD293D42009D3D4200B91D4200A3
:101F30007D52420000100E4088150020914442005E
:101F4000A51D4200A1064200000E0E402DE9F047FB
:101F5000DFF8B8804046284FB847284E4FF4006A53
:101F6000C6F834A032214FF4FA70254CA0474FF048
:101F70008040DFF89C90C8476420224DA84732215A
:101F80004FF47A70A0474FF4804333636420A8472E
:101F90004FF00050C8474046B847322140F2DC506D
:101FA000A047C6F830A06420A84732214FF4FA6059
:101FB000A0474FF4005333636420A847322140F612
:101FC000C410A0474FF4806333636420A8474FF0E8
:101FD0000040C84701200C4B984732214FF4FA705B
:101FE000A0476420A84700214FF4FA70A04740465C
:101FF000B847BDE8F08700BFA51D420000100E40A5
:10200000B91D42007D5242009D3D420050180E40D5
:10201000293D420008B5C8B1012824D02D4B1B68CA
:102020002D4A12689B1A2D4A128893420DD3294BD0
:102030001A68294B1A602A4B1B68012B1DD0294BAB
:102040001B78012B2CD0002B37D008BD00214FF47A
:10205000FA60254B9847254B1A88204B1A8001229D
:10206000204B1A7008BD322140F6C4101E4B984711
:10207000184B1A68184B1A6008BD1A4B1B78022BB4
:10208000DDD11B4B1A88154B1A800022144B1A60A5
:102090000122144B1A700F4B1A68164B1A6008BDB8
:1020A000124B1A880D4B1A8000220E4B1A703221E7
:1020B00040F6C4100C4B984708BD0122074B1A800C
:1020C0000222084B1A70002140F6C410064B9847B4
:1020D000BBE700BFF81200208C1000209200002007
:1020E0002813002090100020B91D4200C8F44200BF
:1020F000C6F442004413002010B5334B1B7863B183
:10210000324B1B78F3B9324B1B7813B1314B1B7830
:1021100021E00320304B984720E02E4B1B78DBB2A8
:10212000022B18D0294B1B78ABB110E001202A4BB1
:10213000984713E00122294B1A701CE00122284B1A
:102140001A701CE0234B1B78DBB2022B03D0204B10
:102150001B78002BEAD000201F4B98471B4B1B78A5
:10216000002B2FD01B4B1B78DBB2022B2AD01D4B30
:102170001B78012BDED01C4B1B78012BDED0174BBC
:102180001B78174A12781344184A12781344DBB2AA
:10219000174A1370174A12789A420ED000240C4B3B
:1021A0001C7021461448154B9847154B1C70154B55
:1021B0001C70154B1A68154B1A600D4B1A780D4B95
:1021C0001A7010BD10BD00BF8C130020080B00203A
:1021D00060130020581300201520420091100020A9
:1021E000921000200C0B0020100B00207213002016
:1021F0009310002098100020000009401F1B42008F
:10220000F3120020F4120020F8120020C810002061
:1022100038B505460120044CA0472846034B984793
:102220000020A04738BD00BF152042007D5242006B
:1022300000230360037143718371C3718360C360C2
:10224000036143618361C36170470000194B4FF024
:10225000FF325A60DA601A615A611A76164A128899
:10226000110A03F801199A70144A1288110AD970D8
:102270001A71134B1B78BBB9124B00225A719A7119
:10228000114B1A880F4B110A19725A720F4A1268B1
:10229000110A9972DA720E4A1288110A19735A7366
:1022A0000C4A12789A737047064B00225A71012229
:1022B0009A71E5E7291600200A0B00200E0B00207A
:1022C00073130020281600206C100020540B0020EF
:1022D0006A100020D4160020F8B5074620482024B4
:1022E00004700C0A44708170C270FF2202711A0CD3
:1022F00042711A0A8271C3711A481B4B984710F039
:10230000804F25D1194C05262660032323710F2306
:10231000E371012363710023E360124D21462846D7
:10232000134B984727610823A3710D4B5A68E2614C
:102330001B68A361214628460E4B98470221284678
:102340000D4B98470D4B984730460D4B9847F8BDBD
:10235000064905230B600348054B9847D2E700BFA9
:102360007C15002000000140851642004416002024
:10237000B716420091174200891642004D224200D2
:102380007D52420070B582B0054600230093019350
:102390000E4600297BD1484B1B7883B90122464B5E
:1023A0001A7001238DF80030444B1A68CDF80120D3
:1023B0009A889B79ADF805208DF8073005E0012B50
:1023C000EFD0022B49D0032B54D03D4B9DF8002079
:1023D0001A709DF801205A709DF802209A709DF89D
:1023E0000320DA709DF804201A719DF805205A71B7
:1023F0009DF806209A719DF80720DA713148324B1A
:10240000984710F0804F50D1304C2046304B9847C1
:1024100005232360032323710F23E37101236371D9
:102420000023E360214627482A4B9847002E18BF17
:102430004FF4E015214625610823A371204B5A680B
:10244000E2611B68A3611F4C2046234B9847022181
:102450002046224B984702B070BD8DF80030204BCB
:102460001A68CDF801209A889B79ADF805208DF87F
:102470000730AAE78DF800301A4B1A68CDF8012012
:102480009A889B79ADF805208DF807309DE70523E4
:102490008DF80030144B1A68CDF801209A889B798A
:1024A000ADF805208DF807308FE7084905230B604C
:1024B0000448084B9847A7E7281600202916002053
:1024C000241500200000014085164200441600201B
:1024D00031224200B716420091174200891642008D
:1024E0003016002037160020D8160020074A13782F
:1024F00043F0070303F0F7036FF304131370002393
:102500005370000240F0E050704700BF6816002092
:10251000364B1B78002B67D1354B1B78002B63D1D2
:10252000344B1B68344A12689B1AB3F5FA6F5BD9B7
:10253000324B1B68002B57D1314B1B78002B53D1EA
:10254000304B1B7B002B4FD010B52A4B1A682A4BFF
:102550001A602D4B1B78032B2CD82C4A12784ABBBF
:10256000F3B94FF080722A4B1A634FF46C40294B39
:102570009847294B18604FF65F3303221821274CE8
:10258000A047214A13780133DBB21370032B15D90E
:102590004FF080721E4B5A6300221B4B1A7010BD05
:1025A0004FF46B401B4B98471B4B186000211C4B92
:1025B0009847E6E7154B1B78012B00D010BD194B4F
:1025C0001B681BB1184A1068834205D200230F4ACA
:1025D0001370154A1360F1E780B2144B9847124A02
:1025E00013680133136010BD704700BF500B00200B
:1025F00084130020F81200209C10002018130020E3
:102600001C13002088150020281600201413002019
:1026100000140E40ED244200A4100020D9224200F4
:102620008523420010150020A010002039484200E8
:102630002DE9F843204B1B7B0BB9BDE8F8834FF421
:10264000FA721E4B1A601E491E481F4B98470028FD
:10265000F3D01C4D4FF0FF3128461C4B98472846BD
:102660001B4B98471B4C2046DFF87890C847002644
:102670002660012727716FF06043E3604FF4E01399
:10268000236121462846DFF86080C047124C20466F
:10269000C84705232360032323710F23E371667169
:1026A000E66021462846C047394628460B4B9847E6
:1026B00020220B4B5A60C0E788150020A81000208C
:1026C00000879303000001401D184200811642005C
:1026D000F917420078160020441600207D164200AB
:1026E00000E100E031224200B716420070B5364BDF
:1026F000DB6B13F0040F24D1344B1B780BBB00228F
:10270000334B1A70334A13780133DBB21370642BE6
:1027100021D90025304B1D70322140F2DC502F4C66
:10272000A04764202E4B98470122284B1A702D4B4E
:102730001A682D4B1A60294640F2DC50A04702204F
:1027400070BD214BDB6B13F0040F04D00023214A32
:1027500013701E4A13701C4BDB6B13F0020F26D153
:10276000224B1B781BBB00221A4B1A70184A137895
:102770000133DBB21370642B01D8002070BD00263A
:10278000154B1E70322140F2DC50144DA8476420D6
:10279000134B98470124154B1C70124B1A68124BAF
:1027A0001A60314640F2DC50A847204670BD064B07
:1027B000DB6B13F0020F05D000200C4B1870044B9C
:1027C000187070BD002070BD000E0E40C3100020B8
:1027D000BC100020C210002095000020B91D42004E
:1027E0007D524200F8120020B0100020BD100020E1
:1027F00010B56420034CA0473220034B9847642057
:10280000A04710BD112242007D52420008B50129A7
:102810000AD099B90022334B1A7004285BD8DFE83C
:1028200000F0191E2A42560001222E4B1A7004286D
:1028300051D8DFE800F00F1B20384500294A1378F3
:1028400083F001031370042845D8DFE800F0030883
:10285000142C3900234B1878234B984708BD214B83
:102860001B781BB90020214B984708BD204B987856
:102870001E4B984708BD1B4B1B785BB11C4B9878CF
:102880001A4B9847174B1B7843B14FF40052194B22
:102890001A6308BD0020154B9847F3E74FF4005228
:1028A000144B5A6308BD0F4B1B7823B14FF40052F1
:1028B000104B1A6308BD4FF400520E4B5A6308BD0B
:1028C000084B1B781BB110220B4B1A6308BD10225A
:1028D000094B5A6308BD0020034B98470020034B67
:1028E000984708BDC41000207D4242009144420038
:1028F0008815002000100E4000140E40064B5B8827
:102900004FF4FA7292FBF3F204490A705B00013B48
:10291000034A1370704700BF88150020A9000020EB
:10292000A80000208E4B1B688E4A12689B1A41F249
:102930008732934200D870472DE9F04F85B08A4B1B
:1029400098788A4B98470020894B9847844CD4F854
:1029500000802368019323680293864B4FF0004266
:102960005A634FF000525A634FF080425A63824BD1
:10297000984782480B23037101258571804B984746
:102980002268804B1A60804B1D70002132207F4BE3
:1029900098474FF4FA707E4B98477E4B98474FF01C
:1029A000000BDA465D46DFF82C92774F714E22E13C
:1029B000D4F800800321E8B2744B984727E16D4BAF
:1029C0004FF000425A634FF000525A634FF080427A
:1029D0005A63654B1B7B2BB928206F4B984705B07A
:1029E000BDE8F08F6D486E4B9847F5E75C4B1A6871
:1029F0005C4B1A6000213220644B98475A480123EF
:102A0000C373684B984780B2674B1880012803D086
:102A10002820614B9847E2E76448654B9847F7E701
:102A20002368019323680293BAF1000F0DD14FF090
:102A3000010B062D00F2DF80DFE815F06600D00004
:102A4000220145009A01D2012A0222684D4B1A60E8
:102A500001233B70002132204C4B98470020554BFE
:102A6000984732214FF4FA70DFF86CB1D8474FF035
:102A700000533363C820464B984700214FF4FA7047
:102A8000D8474FF00053736300204B4B98470135F4
:102A9000032D05D0072D31D0D3464FF0000AC8E7EB
:102AA0004FF000437363454B4FF400625A634FF499
:102AB00080425A634FF0005373634FF08043736357
:102AC000D3464FF0000A00233B703D4B9847054624
:102AD00064203C4B9847022D00F02C81012D00F022
:102AE0003A81002D40F030811F4BD888364BA3FB34
:102AF000003080092F4B984703257CE04FF00043BE
:102B00007363D3464FF0000A2D4B984705460228C1
:102B100004D0012819D000286DD006E0124B1B8884
:102B2000632B0FD80A33104A138001210020174B62
:102B300098470D4D2878254B98472878244B98477F
:102B4000002558E0134B9847EFE7074B1B880A2BEB
:102B500003D90A3B044A1380E7E70E4B9847E4E7A2
:102B6000F8120020881300208815002091444200AC
:102B700015204200000E0E40A5494200980000209A
:102B800029474200B0100020950000200D28420087
:102B90007D524200F1274200112242000000014014
:102BA0006916420001474200C010002000180E4084
:102BB000C1194200A53E4200813D420000100E4076
:102BC000ED2642008D3F4200D34D621091434200FA
:102BD000AD434200A51D4200B91D420000233B70D9
:102BE0009F4B9847022833D001283ED0002836D189
:102BF00001209C4B98479C48C8472368A3EB0803D7
:102C0000B3F5FA7F03D33B78002B7FF4D1AE236872
:102C1000964A12689B1A44F6206293423FF6CFAE62
:102C2000F36B13F0010F7FF4FBAE2368019A9B1A3C
:102C300041F2883293423FF6D9AE2368029A9B1A3A
:102C4000632B7FF6F6AEBBF1000F18BFDA46F0E655
:102C5000874B5B88632B05D80A33854A5380854BA5
:102C60009847C5E7844B9847F9E7814B5B880A2B67
:102C700003D90A3B7E4A5380F1E77F4B9847EEE742
:102C800000233B70764B9847794B1B7BCBB94FF0B9
:102C900000423263794A4FF4006151634FF480413E
:102CA00051634FF0005272634FF08042726302280A
:102CB00039D001289FD1002B39D0013B6C4A1373C6
:102CC00099E7012B06D0022B15D0022826D0012827
:102CD00091D1F2E74FF000427263684A4FF400610D
:102CE00011634FF4804151634FF0005232634FF053
:102CF00080427263DBE74FF0004272635F4A4FF439
:102D0000006151634FF4804111634FF00052326310
:102D10004FF0804232630228D9D101E0012B02D961
:102D2000554B984767E70133514A137363E7524B9A
:102D3000984760E74E4BDB8841F26F72934207D8A9
:102D400003F57A734A4AD38000204D4B9847CBE66F
:102D5000494B9847F8E7464BDB88B3F57A7F04D9AF
:102D6000A3F57A73424AD380EEE7434B9847EBE7EB
:102D700000233B703A4B9847039001210846414B92
:102D80009847039B022B0DD0039B012B1BD0039B69
:102D900093B9374B18893C4BA3FB00308009384B63
:102DA000984728E7324B1B8941F26F72934207D84C
:102DB00003F57A732E4A13810020314B9847E8E7D8
:102DC0002D4B9847F8E72A4B1B89B3F57A7F04D936
:102DD000A3F57A73264A1381EEE7274B9847EBE772
:102DE00064202A4B9847224B5B7B012B1CD0234B42
:102DF0004FF480425A634FF400621A634FF000535D
:102E000033634FF00043736300233B70144B9847C8
:102E1000022817D001287FF4EEAE154B5B7B012B07
:102E20001AD0154B9847E6E6144B4FF480421A63CC
:102E30004FF400625A634FF0004333634FF0005386
:102E40007363E1E70A4B5B7B1BB90122084B5A73A2
:102E5000D1E6094B9847CEE60022054B5A73CAE6E5
:102E6000ED264200A141420050180E40B010002053
:102E700088150020FD284200F127420000100E4076
:102E8000A53E42000D284200D34D62108D3F420006
:102E9000012108461F4B98471F4B9B7B012B1CD0E1
:102EA0001E4B4FF480425A634FF400621A634FF096
:102EB000005333634FF00043736300233B70184BA0
:102EC0009847022817D001287FF495AE124B9B7BC0
:102ED000012B1AD0134B98478DE6104B4FF48042CC
:102EE0001A634FF400625A634FF0004333634FF0AC
:102EF00000537363E1E7084B9B7B1BB90122064B30
:102F00009A7378E6074B984775E60022024B9A734E
:102F100071E600BF0D2842008815002000100E4009
:102F2000ED264200F1274200F8B5224B1B7873B121
:102F3000214B08221A6301221A6304225A630222D7
:102F40005A631E4B1B7813B11D4B1B7803B1F8BDA0
:102F500001271B4B1F7005201A4CA0471A4D4FF03C
:102F600080662E633220A0476E634FF4FA70A0474C
:102F70002E633220A0476E633220A047134B984740
:102F8000134B08221A719F71124B1B789B00DBB206
:102F9000114A1278BA420CBF022200220C480F4993
:102FA0000978B94208BF43F00103134343710C4B46
:102FB0009847CCE7080B002000140E40090B0020B6
:102FC000E01000207D524200000E0E40A549420054
:102FD0009800002071130020100B00200C0B002023
:102FE0002947420008B5964B1B88A3F6543292B28B
:102FF000C72A6DD8934A1268A2F65432C72A67D8F6
:103000000022914B1A70914B1A68914B1A60914BA8
:103010001A788D4B1B789A421ED08F4B984701220D
:103020008E4B1A71884B1B78002B40F0C680002114
:103030008A4A917189484371814B1B88884AA2FB57
:1030400003231B09C371874B98477F4B1A78814B29
:103050001A700122844B1A70844B1B88A3F65432D9
:1030600092B2C72A00F2AD80814A1268A2F65432A9
:10307000C72A00F2A68000227E4B1A70734B1A6892
:103080007D4B1A607D4B1A787A4B1B789A421ED082
:10309000714B98470222714B1A71764B1B78002BAB
:1030A00040F0298100216D4A91716C4843716F4B4A
:1030B0001B886B4AA2FB03231B09C371694B98470A
:1030C0006C4B1A786D4B1A700222674B1A7008BD50
:1030D000B3F5FA7F22D85B4A1268B2F5FA7F1DD8A1
:1030E000674B1B7833B1674B1B781BB10122564BE2
:1030F0001A708CE7554B1B68554A12689B1AB3F53A
:10310000FA7F84D9514B1A68514B1A6001235C4AEB
:1031100013705C4A13704C4A137078E7B3F5486F2C
:1031200014D3484A1268B2F5486F0FD3474B1B6857
:10313000474A12689B1AFA2B7FF669AF434B1A680D
:10314000434B1A600222404B1A7060E7A3F57A7273
:1031500092B2B2F5E16F16D23A4A1268A2F57A72CB
:10316000B2F5E16F0FD2394B1B68394A12689B1ACE
:10317000FA2B7FF64CAF354B1A68354B1A60032299
:10318000314B1A7043E7B3F5FA7F7FF640AF2D4B12
:103190001B68B3F5FA7F7FF63AAF2C4B1B682C4ABD
:1031A00012689B1AFA2B7FF632AF284B1A68284B0D
:1031B0001A600422244B1A7029E70121274A9171D1
:1031C00038E7B3F5FA7F23D8294A1268B2F5FA7FB7
:1031D0001ED82B4B1B7833B12A4B1B781BB1012215
:1031E000244B1A704EE7194B1B68234A12689B1A2E
:1031F000B3F5FA7F7FF646AF144B1A681E4B1A6080
:1032000001231F4A13701F4A13701A4A137039E7BB
:10321000B3F5486F38D3164A1268B2F5486F33D306
:103220000A4B1B68144A12689B1AFA2B7FF62AAFC6
:10323000064B1A68104B1A6002220E4B1A7021E7D7
:103240000A0B0020E00A00200C0B0020F8120020DE
:10325000D4100020D0100020A54942009800002082
:103260001F85EB5129474200881000200E0B0020DB
:10327000E40A0020100B0020DC100020D8100020F1
:10328000080B0020090B0020A3F57A7292B2B2F568
:10329000E16F16D21A4A1268A2F57A72B2F5E16F9E
:1032A0000FD2184B1B68184A12689B1AFA2B7FF62C
:1032B000E9AE144B1A68144B1A600322134B1A70B0
:1032C000E0E6B3F5FA7F7FF6DDAE0D4B1B68B3F594
:1032D000FA7F7FF6D7AE0B4B1B680B4A12689B1A1E
:1032E000FA2B7FF6CFAE074B1A68074B1A60042201
:1032F000064B1A70C6E60121054A9171D5E600BF5A
:10330000E40A0020F8120020DC100020100B00203E
:1033100098000020104B1B7823B1104B1B78DBB2B8
:10332000022B04D00E4B1A680E4B1A6070470E4BDE
:103330001B78002BF6D10A4B1B680A4A12689B1AAD
:1033400042F20F729342F1D90022044B1A7001220B
:10335000064B1A70704700BF080B0020581300205E
:10336000F8120020CC1000208413002068130020E5
:1033700008B50A4601460248024B9847002008BD9E
:10338000000A0E4019194200032901D91120704783
:1033900008B5C0F308030BB1112008BDA0F58002E9
:1033A000C2F34F220A4307210348044B98470028E1
:1033B00018BF102008BD00BF000A0E40351942009A
:1033C0002DE9F04F85B000910393A0F58003C3F37E
:1033D0004F2AC0F308079346002A4DD0DFF8A89083
:1033E00009F5FE7511E0019A01212448244B984704
:1033F00000283ED1009B234400930AF1010A1FFAE2
:103400008AFA0027BBEB040B32D0C7F50073029396
:103410001C465B4528BF5C46CDF804A00AF5005366
:103420004FEA43283A4641464846164EB0472246A0
:10343000009909EB0700B0473819029A121B04EBF8
:10344000080192B239444844B047A9F10403A8F1F5
:10345000040253F8041F42F8041FAB42F9D1039B46
:10346000002BC0D0019A03210448054B9847BFE7C1
:10347000584605B0BDE8F08F1046FAE7000A0E4046
:1034800035194200C16A4200E410002010B5084C12
:103490002074217001216160A260E3606420054B0B
:1034A000984721460448054B9847C0B210BD00BF5D
:1034B0009C1600207D52420000800A405D1C4200A4
:1034C00008B511200C4B98470C4B1B7853B90C4A8C
:1034D0000C4B1A600B490C4B4B600C480C4B98473B
:1034E00020B108BD0B4A074B1A60F3E70A4B0B4AA1
:1034F0005A6051221A70F4E74159420059130020D2
:1035000000879303B0160020A086010000800A40C7
:10351000F91B420000093D00641500208D34420073
:1035200010B4082341F2210402B2400080B211F02D
:10353000800F18BF40F00100002AB8BF604049006A
:10354000C9B2013B13F0FF03EED15DF8044B7047A5
:1035500038B58369364A1360C469364A14601471F9
:10356000354A1460DBB2052B11D8DFE803F00312F3
:103570001010525921463148314DA8472046314B51
:1035800098473148314B984701463148A8470020B9
:1035900038BD294B1A78A2F10A03DBB25A2BF6D8B0
:1035A0002C4B1A80244B5A78A2F10A03DBB25A2B17
:1035B000EDD8284B5A80204B9B781A09511EC9B26E
:1035C0000529E4D8C2EB421102EB8102D200214965
:1035D000CA8003F00F035A1ED2B2052AD7D8C3EB14
:1035E000431203EB8203DB000B81134BDB7803F008
:1035F0000F035A1ED2B2012AC9D808460B73012301
:10360000CB73154B98470128C1D11448144B9847E8
:10361000BDE714480A4B98470122134B1A70B6E7CE
:103620001248074B98470D480D4B9847AFE700BF2E
:10363000FC120020D0160020041300206CF442007D
:103640005168420039464200641500206D45420031
:1036500084F44200881500200147420000180E4003
:10366000C11942009CF4420014130020B0F442003F
:1036700008B500210748084B984710F4000F00D107
:1036800008BD064988600348054B98470122054B51
:103690001A60F5E7000001409516420078160020F8
:1036A000391742001813002010B509494FF4402380
:1036B0000B6101238B7103788B610023CB61054C77
:1036C0002046054B984720212046044B984710BDC3
:1036D0004416002000000140911742008916420064
:1036E0002DE9F04F85B0044601219C489C4B98473A
:1036F0009C4B1A689C4B1A60E3699C4A1360A26950
:103700009B490A600A719B490A60DBB2012B4ED0CB
:10371000022B00F0AF80954B1B78032B40F06581A6
:10372000924B5B78032B46D1904B9B78032B42D175
:103730008E4BDB78032B3ED18F4B1B78012B3AD17C
:103740008E4B4FF000425A634FF000525A634FF0D5
:1037500080421A63874C6378217841EA0321884BC1
:1037600019808848884B9847884D00232B70032187
:103770002046874B98472870E378834200F02881E1
:1037800040F44C0040F46E40824B9861814908231C
:103790008B710023CB614FF440230B616F4C2046AB
:1037A0007D4B9847202120467C4B98470BE06F4B80
:1037B0005B78012B1AD07A4B1B6823B16E4B1B78B8
:1037C000052B00F0518101216448764B9847012276
:1037D000754B1A70BFF35F8F62B62022734B5A602D
:1037E0000022734B1A6005B0BDE8F08F5F4B9B78E9
:1037F000012BE0D15D4BDB78012BDCD15E4B1B78DC
:10380000012BD8D15D4B4FF000421A634FF00052AC
:103810005A634FF080425A635C4E002333700D466A
:10382000022128465A4B98473070AB78834216D015
:1038300040F44C0040F46E40564B986155494FF4AB
:1038400040230B6108238B710023CB61434D284635
:10385000514B984720212846504B98475BE7554BE2
:10386000297819706A785A701B6840EA0320494B1E
:103870009861E3E73D4B5B78022B9CD13B4B9B78F7
:10388000022B98D1394BDB78022B94D13A4B1B7821
:10389000012B90D1394B4FF000425A634FF0005248
:1038A0001A634FF080425A63324DAA786B781B023C
:1038B00043EA02432A781343394A13603E4A1360AD
:1038C000324E0023337003212846314B9847307025
:1038D000EB7883421BD02F4A40F44C0040F46E40FA
:1038E0009061082393712B494FF440230B6100230F
:1038F000CB611A4D2846284B984720212846274B54
:103900009847274B19682D481F4B984703E7244BCE
:103910001B68B3F5FA6FDED90020294B186001222D
:10392000284B1A701E4B1A681A60274B9847274B72
:1039300018704FF00042114B5A631E4B29781970D2
:1039400069785970AA789A70124A1968337843EAEC
:103950000123936108239371C5E700BF0000014074
:1039600081164200F812002054130020001300209A
:10397000D016002008130020A4000020000E0E40E6
:10398000F012002014F44200516842002413002079
:1039900095464200441600209117420089164200C5
:1039A000201300207D164200C100002000E100E04D
:1039B0001813002070150020E412002004F44200C7
:1039C000101300201C1300202D0E42000C130020A9
:1039D0007E4B2178197061785970A2789A701B68B3
:1039E00040EA03207A4B9861D0E6042B7FF4E3AEE3
:1039F000784B5B78042B7FF4DEAE764B9B78042B00
:103A00007FF4D9AE734BDB78042B7FF4D4AE724BCA
:103A10001B78012B7FF4CFAE704B4FF000421A633E
:103A20004FF000521A634FF080421A636C4D2978B0
:103A3000674CA1614FF4402323610823A371002345
:103A4000E3616848684B98472A78684B1A700522EA
:103A5000614B1A70664D21462846664B98472021D7
:103A60002846654B9847AEE664485D4B1B6803608B
:103A7000584B1B6843600821614B9847614B187095
:103A80005A4B1B7883421CD05F4B1B68002B3BD1E9
:103A90000122514B1A705C4B1B68002B40F08B804D
:103AA0005A4B1A68584B1A600025594B1D60DFF8B5
:103AB0004C919A46DFF890B109F10707DFF8488189
:103AC00044E0534B1A68A1794C48524B9847524BEB
:103AD0001870A3794C4A1268934226BF4A4A10686C
:103AE00018464B490A6802440A60474A12689342E2
:103AF00024BF454B1B6844490A68D31A0B603F4BEF
:103B000000221A605A60C3E74448374B9847BFE722
:103B1000D8F80030082B94BFD8F800200822DAF833
:103B200000301344CAF80030D8F80030082B94BF96
:103B3000D8F800200822D8F800309B1AC8F80030C6
:103B40003748384B9847D8F80030B3B10023C9F84C
:103B50000030C9F80430DAF8002008214846D84778
:103B60002D4B187009F1FF342F4E14F8011F284611
:103B7000B0470546A742F8D1CAE72C4C228829460F
:103B80002B48194B98472388AB4218D00023009349
:103B9000019303932248234B98474FF480514FF4ED
:103BA0008E00244B984769464FF48E00224B98476D
:103BB0002248234B98471348224B984703E6134B60
:103BC0001B680093012301930395E3E77015002020
:103BD0004416002000130020A4000020000E0E4018
:103BE0000813002054F4420051684200F2120020F1
:103BF000000001409117420089164200E81200209F
:103C0000954642002413002020130020E4120020D7
:103C1000101300209D0F42000C13002024F44200DA
:103C200050180E40A51D420021354200F012002020
:103C300034F44200E54242004943420000180E407D
:103C4000C1194200A93642004110420010B51520AA
:103C50000E4B98470E4C44F20402002120460D4BB7
:103C600098474FF40042002120460B4B9847102202
:103C700000212046094B9847094B4FF40012C3F826
:103C80008021002183F815131A6010BD41594200AC
:103C900000000940FD1A4200271B42002F1B420072
:103CA00000E100E0024A136801331360704700BF6F
:103CB000F812002010B500211348144B984710F05B
:103CC000100F14D0124A13780133DBB2137013783B
:103CD000DBB2382B0BD900220D4B1A700D4A13782A
:103CE0000133DBB213701378DBB21D2B00D810BD8B
:103CF000002414700848094B9847094B1C70214652
:103D00000148084B9847F2E700000940371B420082
:103D1000F3120020F41200205CF4420051684200CB
:103D2000601300201F1B420008B501460148024BEA
:103D3000984708BD000E0E4015574200064B1B78F1
:103D400023B94FF48042054B5A6370474FF48042C9
:103D5000024B1A63704700BF6013002000100E4032
:103D6000054B1B781BB11022044B5A63704710227D
:103D7000024B1A63704700BF8C13002000140E40E2
:103D800020B94FF40062044B5A6370474FF400624D
:103D9000014B1A63704700BF00100E4018B9102283
:103DA000034B5A6370471022014B1A63704700BFE0
:103DB00000140E4018B3642829D0284B1B682849EA
:103DC00009685B1A274909888B4245D3264B1B7823
:103DD000002B31D001281FD0022829D04FF4FA71CE
:103DE000204A118083F001031F4A13701B4B1A688D
:103DF0001B4B1A604FF480621C4B5A6370474FF4A0
:103E000080621A4B5A630022154B1A6070474FF4B8
:103E10008062164B1A63704742F21072114B1A807F
:103E20000022114B1A700D4B1A680D4B1A60E1E716
:103E3000FA220C4B1A80F3E74FF4FA71094A118009
:103E400083F00103084A1370044B1A68044B1A608C
:103E50004FF48062054B1A63704700BFF8120020D0
:103E60003C130020AA0000204013002000100E4048
:103E700008B5094B1B7853B9084B1B781BB10220BE
:103E8000074B984708BD0020054B984708BD012007
:103E9000034B984708BD00BF500B0020681000205E
:103EA000B53D4200034628B364282FD0314A12683A
:103EB0003149086831490988121A8A4232D3304A96
:103EC0001278934240D92B4B19682B4B19602D491E
:103ED0000B7883F001030B704FF4FA7027490880C8
:103EE000002B2CD00132264B1A704FF08042264B0B
:103EF0001A6370474FF08042234B5A630022204BD5
:103F00001A704FF4FA721D4B1A8070474FF08042BE
:103F10001D4B1A6300221A4B1A704FF4FA72174B9A
:103F20001A807047134A1268101A814203D8144A43
:103F300012789A420DD2134B1B78002BD5D14FF03B
:103F40008042114B5A6370470A4B1B68181A814212
:103F5000F1D800220A4B1A70064B1A68064B1A60F9
:103F60004CF25032054B1A80064A137883F0010355
:103F70001370E0E7F812002030130020A6000020A4
:103F80002C13002034130020000E0E40034600289E
:103F900029D0642832D0354A126835490868354935
:103FA0000988121A8A4239D3334A1278934244D983
:103FB000324B1B78002B29D0FA222E4B1A802F4A25
:103FC000137883F001031370284B1A68284B1A608A
:103FD00000222B4B1A60294B1B784BBB4FF400522D
:103FE000284B5A6370474FF40052264B5A63002205
:103FF000214B1A70FA221F4B1A8070474FF400525F
:10400000204B1A6300221C4B1A7070474FF4FA7150
:10401000184B19800132184B1A70D0E7134A1268F6
:10402000101A8142D7D8144A12789A42D3D309E0A1
:104030004FF40052134B1A6370470C4B1B68181A4D
:104040008142C8D800220C4B1A7042F21072094B00
:104050001A800A4A137883F001031370034B1A681D
:10406000034B1A600122064B1A60B4E7F8120020D5
:1040700044130020AC00002041130020481300200E
:104080002813002000100E4008B52D4B1B78FBB103
:104090002C4B1B78002B22D12B4B1B78002B25D1CE
:1040A0002A4B1B78002B28D1294B1B78002B2BD1B6
:1040B000284B1B78002B2ED1274B1B78002B31D19E
:1040C000264B1B78002B34D10020254B984708BD88
:1040D0000020234B98470022224B1A7008BD012074
:1040E0001F4B984701221F4B1A7008BD02201C4B22
:1040F000984702221B4B1A7008BD0320184B9847A3
:104100000322184B1A7008BD0420154B984704224F
:10411000144B1A7008BD0520114B98470522114B0E
:104120001A7008BD06200E4B984706220D4B1A70D8
:1041300008BD07200A4B984707220A4B1A7008BD92
:104140008C1300200C0B0020100B0020711300209A
:10415000F10A0020500B002068100020731300208B
:104160008D3F4200D4160020094B1B782BB9094B18
:104170001B7813B9084B1B7823B14FF40062074B2F
:104180001A6370474FF40062044B5A63704700BFD4
:104190008D130020941300208413002000100E4083
:1041A00008B520B31F4B1B681F4A12689B1A1F4A91
:1041B000127893421AD31E4A13780133DBB213707C
:1041C0001C4A52889A421DD91B4A13780133137036
:1041D000144B1A68144B1A60174B1B7813B9012241
:1041E000154B1A70144B1878144B984708BD134B95
:1041F000984700230E4A137001210F4A11700A4A92
:10420000136008BD0E4A12789A4204D90A4A1378FC
:10421000013B1370DCE70122074B1A700022044BAC
:104220001A70D5E7F812002038130020A9000020EA
:1042300035130020881500203613002091444200D9
:10424000A800002008B5094B1B78DBB2022B02D076
:10425000074B1B781BB90020064B984708BD01206F
:10426000044B98470822044B1A7008BD58130020CD
:10427000080B0020A1414200D416002098B1144B35
:104280004FF400621A634FF480421A634FF4806265
:104290001A63102102F1804202F5612211634FF48A
:1042A00000521A6370470A4B4FF400625A634FF48E
:1042B00080425A634FF480625A63102102F18042B7
:1042C00002F5612251634FF400525A63704700BFF8
:1042D00000100E4008B506210020014B984708BD8C
:1042E000713342002DE9F0410E460446C0F30B073E
:1042F00087B93546DEB100254FF001080D4F414624
:104300002046B84705F5805504F5805458B9AE42AB
:10431000F5D80CE00848DFF82C80C047E41B2146A4
:104320000648C047E5E721460548064B984728461A
:10433000BDE8F08189334200CCF44200FCF4420035
:1043400014F542005168420038B5BFF34F8FBFF3F8
:104350006F8F72B6BFF35F8F0B4C00232370BFF3D8
:104360005F8F4FF40072094DA847BFF35F8FBFF313
:104370004F8FBFF36F8F01232370BFF35F8F62B640
:10438000B0FA80F0400938BDC1000020C1334200BE
:1043900008B5044900230B6002464FF08040024BF1
:1043A000984708BD98140020B35B420008B5044943
:1043B00001230B6002464FF08040024B984708BD36
:1043C00098140020B35B42002DE9F0412420234BD8
:1043D0009847234B1B78002B3CD0224A224B9A60F3
:1043E0002149224B4B604FF08040214B9847214C94
:1043F000002626814FF0010884F80A800C236360B0
:10440000642323610225256021464FF080401A4F26
:10441000B84729464FF08040184DA847C4F800809F
:1044200021464FF08040B84741464FF08040A847B2
:10443000266021464FF08040B84731464FF080401B
:10444000A8470F4C20780F4B984720780E4B984781
:10445000BDE8F0810D4A044B9A60C1E74159420022
:104460005913002000093D008C140020A0252600CF
:10447000255A420098140020695A4200CF5B42003E
:104480008815002091434200AD434200008793030A
:1044900008B5074B1B78834209D00246044B1870BD
:1044A000044902230B604FF08040034B984708BD3E
:1044B0004913002098140020B35B420030B583B04C
:1044C0000A78294BA3FB0254E40804EB8405A2EB11
:1044D000450242EA04128DF800204A78A3FB0254F8
:1044E000E40804EB8405A2EB450242EA04128DF8CD
:1044F00001208A78A3FB0254E40804EB8405A2EBB4
:10450000450242EA04128DF80220CA788DF8032091
:104510000A79A3FB0254E40804EB8405A2EB4502EC
:1045200042EA04128DF804204A79A3FB0254E408FD
:1045300004EB8405A2EB450242EA04128DF8052043
:104540008A79A3FB0213DB0803EB8301A2EB410290
:1045500042EA03138DF80630846807236A46012176
:104560000078A04703B030BDCDCCCCCC70B58CB0BA
:10457000446807230AAA01210078A0472B4B187032
:1045800008B10CB070BD9DF828109DF829009DF869
:104590002A409DF82C509DF82D309DF82E201609AC
:1045A00006EB860602F00F0202EB4602D2B264323C
:1045B00006921A0902EB820203F00F0303EB420397
:1045C000DBB2013B05932B0903EB830305F00F05D9
:1045D00005EB4305EDB20495230903EB830304F0D7
:1045E0000F0404EB4304E4B20394030903EB8303D5
:1045F00000F00F0000EB4300C0B202900B0903EB88
:10460000830301F00F0101EB4301C9B201914FF0A7
:10461000FF33099301A8064B9847064B984201DCEB
:104620000020AEE701A8024B9847AAE79C1500209E
:10463000996E420029301565124B984200D8704798
:1046400030B585B0034604A840F8043D0E4B9847AA
:1046500004684568C1680269436980688DF806008E
:104660008DF805508DF804408DF8081001328DF852
:104670000920643B8DF80A3001A90448044B98478F
:1046800005B030BD293015657968420064150020F9
:10469000BD444200E1B170B4441E4B1E10FA83F5D4
:1046A0000020082601E0AC4214D014F8011F334664
:1046B00080EA010212F0010F4FEA50001CBF80F0A7
:1046C0008C00C0B24908013B13F0FF03F0D1EAE7C8
:1046D0000020704770BC704738B50546054C4FF454
:1046E00080512046044B984729462046034B984763
:1046F00038BD00BF00204700E54242004943420068
:1047000038B50546054C4FF480512046044B984778
:1047100029462046034B984738BD00BF001047008C
:10472000E542420049434200F8B50646334F3A6835
:10473000334CA4FB0235531B05EB53052D0A02EB4A
:1047400042039B0003EB850529462E482E4B9847D4
:104750002E482F4B98473B68A4FB03241A1B04EBFD
:104760005204240A40F2551202FB1434002C2CD0BF
:10477000736803F0FF13052B31D02648264B98476A
:1047800030600C213046254B984730722A460C2168
:104790003046234B98470446327A014621481A4B4B
:1047A00098478CB9154B1B6801334AF2D572934276
:1047B00020D8124A1360114C012323711348144B63
:1047C00098472046184B9847F8BD4FF4805128462B
:1047D000164B9847294616480B4B9847C8E70B4F8E
:1047E00038460B4CA0474FF44870124B9847384658
:1047F000A047C2E70022014B1A60DCE71015002039
:10480000071860802CF542005168420050180E4095
:10481000A51D4200641500206D45420095464200EA
:104820009D0F420058F54200D9464200C10E420099
:1048300044F542007D52420010B5BAB002462F4BFB
:10484000A3FB0013C11A03EB5103C3F30F2300EBC7
:104850004004A40004EB830421462948294B9847CF
:1048600022460C2105A8284B984760B99DF81C40AA
:1048700000238DF81C300C2105A8244B98478DF897
:104880001C00844201D03AB010BD9DF818309DF84C
:104890001B2002929DF81A2001929DF81920009287
:1048A000059A1B4908A81B4CA04708A91A48154B94
:1048B00098471A4A059B1A490B600B7119490B60FE
:1048C0001370C3F307215170C3F3074191701B0E9E
:1048D000D3709DF818109DF81A3043EA0113137134
:1048E0009DF8193053719DF81B3093710523D371D6
:1048F00001210D4B18680D4B9847C4E707186080DD
:104900006CF5420051684200411042009546420059
:1049100084F542001574420094F54200D816002038
:10492000E01600204C130020A41000208523420034
:1049300008B50368B3F1FF3F08BF00230B6003799C
:104940000B71012B1CBF00230B6009680148024B4F
:10495000984708BD9CF542005168420003880B80CF
:1049600043884B8083888B80C388CB8003890B81ED
:1049700043894B81037B0B73437B4B73837B8B732B
:10498000C37BCB73012B08D030B4044D044C0FCC47
:1049900028606960AA60EB6030BC70478815002011
:1049A000B0000020024B00221A605A609A607047E3
:1049B0009800002008B5044B98470120034B984706
:1049C000034B984708BD00BF7D0D42008D0D42008E
:1049D000990D420010B51F4BDB6B13F0010F1BD17B
:1049E0001D4B1B78C3B91B4BDB6B13F0040F13D0AB
:1049F000184BDB6B13F0020F0ED0184B1B68184AD4
:104A000012689B1AB3F57A7F0DD31648164B984758
:104A10000122164B1A7010BD104B1A68104B1A6009
:104A2000124B1B7803B910BD114CA078114B98475D
:104A3000237B5BB900210D4B19700F4B19700F4B85
:104A400019704FF4FA600E4B9847ECE705480D4B90
:104A50009847EFE7000E0E40500B0020F8120020A0
:104A600088130020000001407316420084130020C8
:104A70008815002091444200B4100020C510002089
:104A8000B91D42006916420008B52A4B1B78002B5D
:104A90004AD0294BDB6B13F0040F45D1264BDB6B5F
:104AA00013F0010F40D0254B1B68254A12689B1A52
:104AB000C72B1BD9234B1B7833B9204B1B689A1A81
:104AC00040F6B7339A421CD91C4B1A681C4B1A602B
:104AD0001D4B1B78B3B100211C481D4B98471D4846
:104AE0001D4B98470122184B1A7008BD134B1B68C9
:104AF0009A1A40F6B7339A4203D9124B1B78002B0F
:104B0000E2D008BD154B98470E4B1B7843B10A22E3
:104B1000134B1A71124801238371124B9847DAE73D
:104B20000D220F4B1A71F5E7044B1A68044B1A60FB
:104B300008BD00BF8C130020000E0E40F8120020AC
:104B4000C8100020080B002060130020000009405E
:104B5000171B4200CCF5420051684200A5494200B3
:104B600098000020294742001F4BDB6B13F0006FB9
:104B700029D01E4B1B8801339BB240F2E142934285
:104B800017D81A4A13801A4B1A781A4B1B789A4274
:104B900029D010B5184B9847184807230371144CB7
:104BA000227882714371164B98472278114B1A7004
:104BB00010BD00230D4A13800D4A1370114B1A6863
:104BC000114B1A60DFE70F4B1B680F4A12689B1AE4
:104BD00042F20F729342D6D907220C4B1A7001226F
:104BE000034B1A70CFE7704700140E406213002089
:104BF0007313002078130020A5494200980000207C
:104C000029474200F8120020741300208810002069
:104C100008B502220B4B1A700B4B9B7B6BB94FF400
:104C200000020A4B5A630A4B98470A480C23037147
:104C300001238371084B984708BD4FF40002034BD2
:104C40001A63F0E75813002088150020000E0E406C
:104C5000A5494200980000202947420010B5404B6A
:104C6000DB6B13F0020F5ED13E4B1B683E4A1268AD
:104C70009B1AB3F5FA6F48D33C4B1B78002B5BD1E2
:104C80003B4B1B78002B57D13A4B1B78002B53D052
:104C90000024394B1C70394B1C700120384B98474D
:104CA000344B1C70374B1C70374B1C70374B1C70CF
:104CB00021463748374B9847374B1C70374B1C7091
:104CC000374B1C70374B1C70374B1C70374B9B7B22
:104CD000B3B14FF40002224B1A630020344B9847C3
:104CE0001920344B98470020254B9847324B984762
:104CF00032480923037101238371314B984710BD5A
:104D00004FF40002164B5A63E7E71A4B1B789BB12E
:104D1000194B1B7883B9134B1A682A4B1A6001226E
:104D2000154B1A7010BD0F4B1A680F4B1A60124BBF
:104D30001B78DBB2012B00D010BD0A4B1B68214A47
:104D400011685B1A1360323B40F2AA52934203D9B6
:104D50000022094B1A70EFE71B4B984710BD00BFAC
:104D6000000E0E40F81200207C1300200C0B0020D7
:104D7000100B0020080B002058130020681300209F
:104D800015204200090B0020E010002060130020D5
:104D9000000009401F1B4200F3120020F412002003
:104DA000911000209210002072130020881500201E
:104DB000A14142007D524200A549420098000020D6
:104DC0002947420064130020114C420010B50446EC
:104DD000044B98470448032303718471034B98479D
:104DE00010BD00BFA549420098000020294742009D
:104DF00008B5284BDB6B13F0200F27D10322264B7D
:104E00001A70264B1B7843B1254B1B68254A126844
:104E10009B1AB3F5FA7F06D808BD0123224A137006
:104E2000224A137008BD1E4B1A681E4B1A600022DE
:104E30001A4B1A7001201E4B18701E4B18701B4B1A
:104E40001870194B18701C4B984708BD144B1A6802
:104E5000144B1A60114B1B78002BDDD1174B1B78BC
:104E60000133DBB2C82B0ED90023144A1370012181
:104E70000A4A11700D4A1370114B1B7833B100228E
:104E80000F4B1A70C8E70D4A137008BD00200A4B7B
:104E90009847F4E7000E0E408810002070130020A1
:104EA000F81200206C1300207213002071130020F0
:104EB000080B0020090B0020CD4D42007913002083
:104EC000C0000020494BDB6B13F0020F04D1474BAD
:104ED000DB6B13F0010F04D0454B1A68454B1A6089
:104EE00070472DE9F0474448444B9847404B1B68B6
:104EF000404A12689B1A40F6B732934274D9012295
:104F00003F4B1A703F4C20463F4B98470523236088
:104F1000032323710F23E37100256571E5602146AA
:104F20003A483B4B984728463A4B98473A4B4FF400
:104F300000625A634FF480425A634FF400525A633E
:104F40004FF480625A63A3F500734FF000425A6336
:104F50004FF080421A63264B1A68304B1A60304873
:104F6000304B9847244E214FDFF8D080234D2E4CF4
:104F700002E02368012B2FD03046A8471C4B1B684A
:104F8000264A12689B1A42F210729342F1D94FF0EE
:104F900000433B634FF080437B632448214B984799
:104FA0006420DFF89CA0D0474FF47A70DFF894902B
:104FB000C8476420D0474FF47A70C8476420D04770
:104FC0004FF47A70C8476420D0474FF47A70C847CE
:104FD0004046174B9847CCE73046A8471548164B34
:104FE000984700232360C7E7BDE8F087000E0E4016
:104FF000F81200205C13002050180E40A51D42003E
:105000001C13002044160020312242000000014001
:10501000B71642009D3D420000100E405413002080
:10502000DCF542005168420018130020F0F5420000
:10503000C119420078160020E136420000180E40E7
:10504000112242007D52420008B5134BDB6B13F076
:10505000040F1BD1104BDB6B13F0010F16D10F4B5C
:105060001B789BB10E4B1B680E4A12689B1AB3F556
:10507000FA6F0FD30C4B98470C480F2303710C4B5E
:1050800098470C4B98470C4B984708BD044B1A683F
:10509000044B1A6008BD00BF000E0E40500B0020EC
:1050A000F812002080130020A5494200980000203B
:1050B000294742004D1F4200ED62420010B584B006
:1050C000424B1B78002B47D0414B1B78002B77D1EC
:1050D000404B1B68404A12689B1A092B74D9012364
:1050E0003B4A13703D4A137000203D4B98471020F7
:1050F0003C4B984700203C4B984700203B4B98473F
:105100003B4CA0470028FCD000203A4B98473A4B34
:1051100098473A4A01AB07CA83E80700194638485E
:10512000384B9847384B40F69F725A60F021374A07
:1051300082F8231000229A6007221A60344B9847A5
:10514000344B98473449354B8B60354B4B604FF0AF
:105150008040344B984737E01D4B1B78002B2FD0F5
:105160001C4B1B681C4A12689B1A092B2CD9002463
:10517000174B1C70194B1C702B4B98472B4B122252
:105180001A6420462A4B984701AB2A4A07CA83E88B
:10519000070019461A481B4B98474EF6602000211D
:1051A000254B98471A4B98471A4B98471A49234B57
:1051B0008B601B4B4B604FF080401A4B984703E0CD
:1051C000044B1A68044B1A6004B010BD500B002049
:1051D0005A130020F8120020501300205913002009
:1051E00021574200955842004958420081574200D9
:1051F000D1584200E158420021594200B4F5420022
:1052000000060E401D1D420010E000E000ED00E031
:10521000C1344200E10142008C14002000093D002D
:10522000A0252600255A42007156420000040E4077
:1052300095594200C0F54200555242000087930341
:1052400010B50920024CA0470A20A04710BD00BF9E
:10525000415942000138B0F1807F09D2054B5860B6
:10526000F021054A82F8231000229A6007221A6072
:10527000704700BF10E000E000ED00E0064B1A6848
:10528000014640B11B689B1A984204D90248036842
:105290009B1A9942FBD87047F812002002785309F4
:1052A00003F5001303F207735B0202F01F020121F2
:1052B00001FA02F21A6370478278530903F500136A
:1052C00003F207735B0202F01F02012101FA02F2EE
:1052D0001A6370478278530903F5001303F20773CA
:1052E0005B0202F01F02012101FA02F25A637047C9
:1052F000C278530903F5001303F207735B0202F04F
:105300001F02012101FA02F21A63704782795309E0
:1053100003F5001303F207735B0202F01F02012181
:1053200001FA02F21A637047C279530903F50013B8
:1053300003F207735B0202F01F02012101FA02F27D
:105340001A637047027A530903F5001303F20773D7
:105350005B0202F01F02012101FA02F21A63704798
:1053600010B5134C6E2323702046124B98477023C0
:10537000A3706723E37020460F4B98476623A37101
:1053800020460E4B98477C23E37120460C4B9847F0
:105390007123237220460B4B98470B4B4FF08062D2
:1053A0001A634FF080425A634FF400221A6310BD13
:1053B000781400209D524200F15242000D534200E9
:1053C000295342004553420000140E40104B1B78F5
:1053D000D3B9104B1B78BBB90F4B1B78A3B90F4B3C
:1053E0001B788BB90E4B1B7873B90E4B1B785BB9CE
:1053F0000D4B1B7843B90D4B1B782BB900230C4A7E
:1054000013700C4A137070470122094B1A707047D1
:10541000500B0020681000200C0B0020100B002007
:10542000F10A00207113002073130020080B0020E4
:105430008C1300208810002008B5204B1B78002B0F
:105440003BD01F4B1B78002B33D11E4BDB6B13F073
:10545000020F2ED11C4B1B681C4A12689B1AB3F515
:10546000FA6F2AD301201A4B98470023134A13706E
:10547000184A1370184B9B7B8BB14FF08072114B05
:105480001A63154B5B7B7BB14FF400020D4B1A6323
:105490001920124B984700200D4B984708BD4FF03C
:1054A0008072084B5A63ECE74FF40002054B5A63D5
:1054B000EEE7054B1A68054B1A6008BD94130020EF
:1054C0008C130020000E0E40F81200209C130020C8
:1054D000152042008D130020881500207D524200C7
:1054E000194B1B78002B2AD0184B1B78DBB2022BF0
:1054F00025D0174B1B78D3B9164B1A89164B1B684E
:10550000164909685B1A9A421DD80022104B1A707E
:10551000114B1A68114B1A600E4B9B7B53B94FF419
:1055200000020F4B1A6301220E4B1A70704741F2B2
:105530008832E3E74FF40002094B5A63F3E7064B66
:105540001A68064B1A607047080B00205813002099
:105550006813002088150020F81200209013002006
:10556000000E0E408D130020124B1B78E3B1124B3E
:105570001B68124A12689B1A114AD288934217D3A9
:105580000D4B1A680D4B1A600D4B5B7B3BB94FF00E
:1055900080720C4B1A6301220B4B1A7070474FF04C
:1055A0008072084B5A63F6E7034B1A68034B1A6084
:1055B000704700BF8C130020F812002098130020C1
:1055C00088150020000E0E40941300202DE9F843AA
:1055D00081460F46124B984705464846114B98475F
:1055E000054013D0104C04F1600603E0B4420DD026
:1055F00010345DB12068B842F8D161682942F5D015
:10560000E3689847636825EA0305EFE7074B1B68E3
:1056100023B1074B1B680BB148469847BDE8F88398
:10562000195742001D574200A0130020E816002021
:105630001014002008B509210148024B984708BD05
:10564000000E0E40CD55420008B50A210148024B1C
:10565000984708BD00100E40CD55420008B50C21FA
:105660000148024B984708BD00140E40CD5542003A
:1056700010B50E480E4B984720200E4B98470E4C05
:10568000A0470028FCD00D4B98470D4A0D4B9A625D
:105690000D4CA0470028FCD010200C4B98470C4B19
:1056A00098470C48024B984710BD00BF000E2707D3
:1056B00021614200495842001159420021594200DB
:1056C000013F092000040E4031594200E5574200D5
:1056D00015604200008793030AB90166704741666E
:1056E0007047416412F0010F14BF4166016612F069
:1056F0000A0F14BF0162416212F0020F07D112F0CB
:10570000080F18BFC0F88410416101607047C0F8ED
:105710008010F9E781637047C06C7047806C7047F8
:10572000164B1A6B22F003021A639B6E13F0080FDC
:105730000AD14FF4006311498A6E12F0080F03D1A9
:10574000013BF9D1012070470C4A136B23F0700321
:1057500018431063936E13F0080F0AD14FF40063DF
:1057600006498A6E12F0080F05D1013BF9D10120DC
:105770007047002070470020704700BF00040E40B3
:10578000174A136B23F0030343F001031363936E73
:1057900013F0080F0AD14FF4006311498A6E12F01A
:1057A000080F03D1013BF9D1012070470C4A136B5C
:1057B00023F0700318431063936E13F0080F0AD19F
:1057C0004FF4006306498A6E12F0080F05D1013BC1
:1057D000F9D101207047002070470020704700BFBA
:1057E00000040E40174A136B23F070031843106334
:1057F000936E13F0080F0AD14FF4006311498A6EBB
:1058000012F0080F03D1013BF9D1012070470D4A76
:10581000136B23F0030343F002031363936E13F03F
:10582000080F0AD14FF4006306498A6E12F0080F80
:1058300005D1013BF9D101207047002070470020BD
:10584000704700BF00040E4011490A6A42F45C121E
:1058500042F008020A620A46936E13F4003FFBD03E
:105860000B4A136A23F45C1323F0700343F45C13B4
:1058700018431062936E13F4003FFBD0044A136A7E
:1058800023F09B7323F4803343F45C13136270475B
:1058900000040E400D490A6A42F45C1242F008020C
:1058A0000A620A46936E13F4003FFBD0074A136A5C
:1058B00023F45C1323F0700343F45C131843106269
:1058C000936E13F4003FFBD0704700BF00040E40FE
:1058D000024B986E00F40030704700BF00040E4089
:1058E00048B90A4A136A23F45C1323F0010343F412
:1058F0005C1313627047054A136A23F45C1323F0A8
:10590000020343F45C131362704700BF00040E40AF
:10591000024B986E00F48030704700BF00040E40C8
:105920004FF00052014B9A62704700BF00040E40D6
:10593000024B986E00F00200704700BF00040E405A
:105940002F281ED81F280CD8114B9A690123834099
:10595000934318D0012303FA00F00D4B1861002087
:10596000704720380A4BD3F8082101238340934322
:105970000BD0012303FA00F0054BC3F8000100200F
:10598000704701207047002070470020704700BF1B
:1059900000040E404FF4807303FA00F0014B1860CE
:1059A000704700BF00040E40064A136943F0040329
:1059B0001361054B054A1A609B68BFF34F8F20BFE8
:1059C00030BF704700ED00E010180E40040000A545
:1059D000F0B48CB007460E4601AC114D0FCD0FC48C
:1059E0000FCD0FC495E8070084E8070001AA002343
:1059F00052F8040BB6FBF0F0B0FBF7F0B0F5807F87
:105A000007D901330B2BF3D14FF6FF700CB0F0BC6C
:105A100070470A2B94BF40EA03204FF6FF70F5E76A
:105A200004F6420070B506460D460C6844B189681C
:105A300020460C4B984704464FF6FF7398420CD013
:105A4000686840B1A968074B98474FF6FF739842C2
:105A500005D044EA004434600024204670BD04466A
:105A6000FBE700BFD159420070B40A684B6803F0ED
:105A70000F038C8A23430C8923438C7A43EA442303
:105A80008C7D43EA0443CC7D43EA44430C7E43EAE5
:105A9000844300EB4214C4F80032CB68C4F80432EB
:105AA0000B69C4F80C328B7D3BB18C8B4B8B43EA7A
:105AB000044300EB4214C4F81832856C4FF0011314
:105AC0009340DB431D40CC7F04FA02F68C7F944068
:105AD00044EA06442C438464446C234091F82140FA
