:020000040040BA
:1000000068410020F1434000ED434000ED434000D3
:10001000ED434000ED434000ED4340000000000090
:10002000000000000000000000000000ED43400060
:10003000ED43400000000000ED43400095284000E3
:10004000ED434000ED434000ED434000ED434000F0
:10005000ED434000ED434000ED434000ED434000E0
:10006000ED434000E13C4000F53C4000ED434000E2
:10007000093D4000ED434000ED434000ED434000AA
:10008000ED434000ED434000ED434000ED434000B0
:10009000ED434000ED434000ED434000ED434000A0
:1000A000ED434000ED434000ED434000ED43400090
:1000B000ED434000ED434000F91240000D134000B5
:1000C000ED434000ED434000ED434000ED43400070
:1000D000ED434000ED434000ED434000ED43400060
:1000E000ED434000ED434000ED434000ED43400050
:1000F000ED434000ED43400010B5054C237833B983
:10010000044B13B10448AFF300800123237010BDEA
:10011000840A00200000000018A140000C4B43B1ED
:100120000C480D4910B5AFF300800C48036823B9A3
:1001300010BD0A48036833B97047094B002BF7D04C
:10014000BDE810401847064B002BF5D0184700BFFC
:100150000000000018A14000880A002018A14000FB
:1001600000000000034B02225A669A6E024B1A608E
:10017000704700BF00400B407C0F0020034B032260
:100180005A669A6E024B1A60704700BF00400B40DF
:10019000B00F002008B50D4B1B6B13F0006F14D08F
:1001A00000230B4902E001330C2B08D013F0010FA0
:1001B000F9D131F8132092B221F81320F3E700228D
:1001C0000449054B1868054B984708BD00000B40D3
:1001D00024110020140F0020580F0020911340001C
:1001E0002DE9F047464C2046464EB047464D28463E
:1001F000B047464E3046464B984731462046454F1D
:10020000B84731462846B847434E3046434B984797
:10021000324600212046424FB8473246012120464F
:10022000B847324602212046B847324603212046CD
:10023000B847324604212046B847324605212046B9
:10024000B847324602212846B8473246032128469D
:10025000B8474FF00008C4F864804FF40063E366C9
:1002600001276766E36602266666E3664FF00309C8
:10027000C4F86490E36604226266E3660521616661
:10028000E3666E66EB66C5F86490EB66636823F020
:100290008F0363606B6823F08F036B606761666137
:1002A00062610823636110216161202161616A61DB
:1002B0006B61DFF890A01B48CAF800001A491B4B7D
:1002C0000B600C234B604246194B98473946DAF8CD
:1002D0000000184B98474346174A0A212046DFF88A
:1002E0006880C0473B46154A31462846C0473B46D2
:1002F000134A49462846C04726602E60BDE8F0876D
:1003000000000B402113400000400B405C0F002018
:100310005911400095114000100F00208911400034
:100320002911400000010B40140F0020241100206F
:1003300091134000A9134000950140006501400061
:100340007D014000580F0020A112400030B40D4B39
:100350001B680D4D0D4C54F82320111A2A68521AAF
:100360002A6044F823003F2B14BF013300230549C2
:100370000B601046002AB8BF02F13F00801130BC6C
:10038000704700BFF40A00209C0D0020100B0020D5
:1003900030B40B4B1B780B4D0B4C34F81320111A57
:1003A0002A68521A2A6024F813003F2B1ABF01331F
:1003B000DBB2002302490B70900930BC704700BFCC
:1003C000F80A0020A00D0020100C002030B40B4BC8
:1003D0001B780B4D0B4C34F81320111A2A68521A53
:1003E0002A6024F813003F2B1ABF0133DBB200232D
:1003F00002490B70900930BC704700BFF90A002019
:10040000A40D0020900C002030B40B4B1B780B4C3B
:10041000226802440A4931F81350521B226021F825
:1004200013003F2B1ABF0133DBB2002302490B70CC
:10043000900930BC704700BFFA0A0020A80D0020C8
:10044000100D002000B583B00F4B9B889BB207EEC8
:10045000903AF8EEE77A0D4B93ED007A67EE877AE3
:10046000DFED0B6A87EEA67ADFED0A7A67EE277A70
:10047000FCEEE77ACDED017ABDF80400064B984713
:1004800080B203B05DF804FB2411002000000020BE
:1004900000F07F4500007A444D03400000B583B072
:1004A0000F4B1B889BB207EE903AF8EEE77A0D4BA4
:1004B00093ED007A67EE877ADFED0B6A87EEA67A16
:1004C000DFED0A7A67EE277AFCEEE77ACDED017A66
:1004D000BDF80400064B984780B203B05DF804FBFA
:1004E000241100200000002000F07F4500007A4425
:1004F0009103400000B583B00F4B1B899BB207EE00
:10050000903AF8EEE77A0D4B93ED007A67EE877A32
:10051000DFED0B6A87EEA67ADFED0A7A67EE277ABF
:10052000FCEEE77ACDED017ABDF80400064B984762
:1005300003B05DF804FB00BF241100200000002080
:1005400000F07F450000FA44CD03400008B50D4B94
:100550009B8A9BB207EE903AF8EEE77A0A4B93ED4E
:10056000007A67EE877ADFED096A87EEA67ADFED1B
:10057000087A67EE277AFCEEE77A17EE900A054BC9
:10058000984708BD241100200000002000F07F459E
:1005900000D45F46090440000B4BD3ED007AF8EE1F
:1005A000677A0A4B93ED007A67EE877ADFED086A87
:1005B00087EEA67ADFED077A67EE277AFCEEE77A18
:1005C00017EE900A704700BFB00F00200000002017
:1005D00000F07F4500007A440B4BD3ED007AF8EE33
:1005E000677A0A4B93ED007A67EE877ADFED086A47
:1005F00087EEA67ADFED077A67EE277AFCEEE77AD8
:1006000017EE900A704700BF7C0F0020000000200A
:1006100000F07F4500007A44F8B582240B4F0C4E61
:100620000C4DB8473060A8470B4B18800B4B9847D0
:100630000B4B18800B4B98470B4B188002200B4B31
:100640009847631E13F0FF04EBD1F8BD4D05400041
:10065000080B0020F50440009A0D00209D04400086
:10066000BA0A002045044000BE0A00203539400087
:10067000F8B5944B1B78002B40F07B81924B1B68A4
:10068000924A12689B1AF92B10D9914B08221A63CF
:1006900001221A6304225A6302225A638A4B1A689F
:1006A0008A4B1A608B4A137801331370894B1B787D
:1006B000013B032B00F2CC80DFE813F00400510073
:1006C0007900A100844B1B78002B33D10122824B8F
:1006D0001A707D4B19687D4B19607D4B1A6302229D
:1006E0001A6308225A6304225A637C4B1B78002B3E
:1006F00000F03F817A4B1A8840F6E7039A4200F2F5
:100700001381784B1A8840F6E7039A4200F20C8175
:10071000754B1A8840F6FC039A4240F22681734BCF
:100720001A8840F6FC039A4240F21F810022704B67
:100730001A70FCE0644B1B68644A12689B1A132B06
:10074000D3D96C4A138801339BB213806A4B186863
:100750006A4B98476A4A136818441060C5E7694BAA
:100760001B787BB90122674B1A70574B1968574B9E
:100770001960574B5A6302225A6308221A630422F3
:100780001A63B2E7504B1B68504A12689B1A142B2D
:10079000ABD95D4A138801339BB213805B4B186859
:1007A0005B4B9847564A5368184450609DE7594B35
:1007B0001B787BB90122574B1A70434B1968434B86
:1007C0001960434B1A6302225A6308225A630422B7
:1007D0005A638AE73C4B1B683C4A12689B1A142BED
:1007E00083D94D4A138801339BB21380424B18685A
:1007F000424B9847424A93681844906075E7474BCC
:100800001B787BB90122454B1A702F4B19682F4B6F
:1008100019602F4B5A6302225A6308221A6304227A
:100820005A6362E7284B1B68284A12689B1A142BEC
:100830007FF65BAF3A4A138801339BB21380334B88
:100840001868334B98472E4AD3681844D0604CE759
:100850000124204B1C702A480368264D2A8892B236
:10086000B3FBF2F31E4A13804368274E328892B2DC
:10087000B3FBF2F31B4A13808368274F3A8892B286
:10088000B3FBF2F3184A1380C368DFF894E0BEF8B4
:10089000002092B2B3FBF2F3144A13800021AEF8A9
:1008A00000103980318029800B4B1970154B19705D
:1008B000184B1970194B1970084B1C702822194BD2
:1008C000984717E7B80A0020E40D0020B40A00207A
:1008D00000140E400C0B0020A00A0020FB0A002090
:1008E000EC0A0020F00A0020EE0A0020F20A0020A4
:1008F000A70A0020A20A0020B00F0020990540009E
:10090000C40A0020AC0A0020AE0A00207C0F0020A0
:10091000D9054000A10A0020A40A0020AD0A002049
:10092000B00A00201D4B40000122124B1A70114BDF
:100930001B78114A12789A421BD00F4A13700F4B42
:10094000984704220E4B1A710A4B1B784BB90021B1
:100950000B4A91710A4843710A4B19680A4B984730
:10096000F8BD0121064A9171F4E70222014B1A7089
:10097000DDE7F8BDA70A0020A60A002021344000C8
:100980000C000020001100209534400010B5354BBC
:100990001A8841F268039A424DD9334B1A68334B97
:1009A0001A600022324B1A70324B1A78304B1B7887
:1009B0009A4215D0304B98473048062303712C4C8F
:1009C00023788371274B1B882D4AA2FB03231B0925
:1009D000C3712C4B19682C4B98472278254B1A7001
:1009E0002A4B1A6842F234139A422FD91E4B1A68C6
:1009F000274B1A600022274B1A70274B1A78254B79
:100A00001B789A4216D01C4B98471C48052303714B
:100A1000174B1B788371134B1B88194AA2FB0323C6
:100A20001B09C371174B1968174B9847194B1A7854
:100A3000194B1A7010BD0C4B1B680C4A12689B1A9C
:100A4000FA2BB1D901220A4B1A70ADE7064B1B688D
:100A50000F4A12689B1AFA2BCFD901220D4B1A703C
:100A6000CBE700BF9A0D0020E40D0020940D00207C
:100A7000980D0020900D0020213440000C00002033
:100A80001F85EB510011002095344000080B002019
:100A9000000B0020040B0020FC0A002010B582B0DF
:100AA0000446164B1878164B98476268A37A43EAB7
:100AB0000263110201F47F010B43120A02F47F4228
:100AC000134302A840F8083DE17A0E4B984710B155
:100AD000082002B010BDA37A013BDBB2012B2189B3
:100AE000206894BF074B084B984708B10820F0E7EF
:100AF000024B1878054B98470020EAE704000020D5
:100B0000DD0D4000250E40000D0E4000F50D4000AB
:100B100000B585B006238DF80E3001238DF80F3017
:100B200000230193ADF80C30029301A8024B9847C3
:100B300005B05DF804FB00BF9D0A400008B5024BFC
:100B40009847002008BD00BFA50D4000014B18705C
:100B5000704700BF0400002000B585B00023039358
:100B60009F228DF80A2001228DF80B2003AA009203
:100B70000322ADF8082001936846064B9847039876
:100B800020F07F40044B984214BF0420002005B0A1
:100B90005DF804FB9D0A4000C223130000B585B038
:100BA00005238DF80E3001238DF80F300190ADF83C
:100BB0000C300023029301A8024B984705B05DF862
:100BC00004FB00BF9D0A400010B582B0064C0DF139
:100BD0000700A047024620B99DF8073013F0010F27
:100BE000F5D1104602B010BD9D0B4000B0F5800F4E
:100BF00002D90923184670472DE9F04784B004460E
:100C00000DF10F00284B9847034628B99DF80F3087
:100C100013F0010F04D00623184604B0BDE8F08796
:100C200013F00C0F01D00723F6E7204B984703463B
:100C30000028F1D124F47F6525F00F0504F5FF505D
:100C40001E30441B240B28D02E020027DFF86C80B6
:100C5000DFF86CA0DFF86C9098F80000D04706F43D
:100C60007F0343F020032A0A02F47F42134304A8BF
:100C700040F80C3D0421C84798B9002108460C4BA8
:100C8000984770B998F800000A4B9847013705F566
:100C9000805506F58016BC42DED1074B98470346C7
:100CA000BAE70823B8E700BF9D0B4000110B4000D6
:100CB0000D0E4000F50D4000C90B4000040000205F
:100CC000DD0D4000250E40008B18B3F5800F02D9D2
:100CD0000923184670472DE9F04F85B007468B462B
:100CE000164699B3DFF87890DFF87880DFF878A0BF
:100CF000F4B2C4F580745C4528BF5C46C847022343
:100D00008DF80A3004238DF80B300097A5B2ADF8AA
:100D1000085001966846C0470346D0B9D0470346FD
:100D2000B8B90DF10F000D4B9847034688B99DF8EF
:100D30000F2012F0200F0BD12744ABEB05051FFA53
:100D400085FB2644BBF1000FD2D102E0002300E076
:100D50000523184605B0BDE8F08F00BF9D0B40008D
:100D6000110B40009D0A4000C90B40008B18B3F5E1
:100D7000800F01D90920704700B585B003238DF895
:100D80000E3004238DF80F300190ADF80C10029254
:100D90000DEB0300024B984705B05DF804FB00BF64
:100DA0009D0A400030B583B0074C2046074B98475A
:100DB00000220092064B07492046074DA847012311
:100DC000236003B030BD00BF008008403D0E4000EE
:100DD000001BB700AC0D0020910E400008B5024981
:100DE0000248034B984708BDAC0D00200080084026
:100DF000110F400008B502490248034B984708BD4F
:100E0000AC0D002000800840410F400008B50A46A4
:100E100001460248024B984708BD00BF00800840C9
:100E2000970F400008B50A4601460248024B984712
:100E300008BD00BF00800840610F400010B50446A7
:100E4000104B984780232360636843F0010363607D
:100E5000636843F010036360636823F0800363609A
:100E600000212046084B9847636823F00203636023
:100E7000636823F00403636000212046034B984716
:100E800010BD00BFB5134000C5134000DB13400088
:100E90002DE9F04104460D46164615491846154BF6
:100EA0009847074600231A4629682046DFF85C80E9
:100EB000C0470022296820460F4B9847FAB229689C
:100EC00020460E4B98470822296820460C4B98472D
:100ED0007208296820460B4B984786F0010202F001
:100EE000010229682046084B9847BDE8F08100BF01
:100EF00000879303831440006F144000991440004E
:100F000029144000ED1340000B144000C1144000B0
:100F100008B5436813F0040F06D009680F2900D9FB
:100F200008BD064B984708BD09680329F8D8012376
:100F300003FA01F1C943014B9847F1E7C51340009B
:100F400010B50446236913F4007FFBD00F2120461F
:100F5000024B98474FF08073236010BDC5134000CB
:100F60001AB110B40C46114406E00020704714F882
:100F7000013BC360A1420CD043F69923026912F0F1
:100F8000020FF4D1013BF9D16FF002005DF8044B80
:100F900070470020FAE73AB170B415460C460D448C
:100FA000FF2640F2012112E000207047C66043F6A0
:100FB0009923026931EA020204D0013BF9D16FF0B2
:100FC00002000EE0836804F8013BA5420BD043F613
:100FD0009923026912F0020FE8D1013BF9D16FF0B9
:100FE000020070BC70470020FBE700002DE9F041D3
:100FF00080B90C469046002A0FDD8F18084E094D27
:10100000306821462B6898470134BC42F8D14046ED
:10101000BDE8F0814FF0FF38F9E78046F7E700BF01
:10102000E80F0020E00F00200138022815D82DE934
:10103000F0410E4614469AB10D46DFF838800C4F49
:10104000D8F8000015F8011B3B68984700280ADB18
:10105000A81B013CF4D1BDE8F0814FF0FF30704790
:101060001046BDE8F0814FF0FF30BDE8F08100BFD1
:10107000E40F0020E80F002008B5C0EBC00001EB32
:101080004001034B53F8213003B1984708BD00BF1E
:10109000EC0F00202DE9F04383B0026BC36A1340CC
:1010A00001931F4FB84214BF0027012701250024D8
:1010B0002E46DFF870804FF0060914E0019B13F410
:1010C000004F0ED049463846C0470AE00B2C19D8CD
:1010D000019A04F1110306FA03F313420FD10D2D07
:1010E0001AD8013401352146062CEFD8E6D0019BF1
:1010F00006FA04F21A42F2D03846C047EFE7384603
:10110000C047ECE7019A04F1120306FA03F3134215
:10111000E5D03846C047E2E703B0BDE8F08300BF42
:1011200000400B407910400030B4046E01238B4026
:1011300024EA03041578002D08BF00232343036627
:10114000446D4B000321994024EA010451789940F1
:101150002143416530BC704700220260084B436068
:10116000084B83604FF48023C36002610223037540
:10117000012343758375C275037643768376704782
:1011800000879303808D5B0000230370012343706D
:1011900070470000036B13F0807F01D01920704767
:1011A00070B401230360CB7D002B14BF4FF00045CA
:1011B00000258B7D002B14BF4FF4000400240B7D11
:1011C0001B0603F070630A69CE68324313434A7DFD
:1011D000120702F0405213438A6856004A68B2FB75
:1011E000F6F2013A120292B213432B4323434360B7
:1011F0000B7E002B14BF4FF0807300230A6813434B
:101200004A7E002A14BF4FF000720022134383600D
:101210008B7E1B0203F44073C0F894300E4B98424F
:1012200005D00E4B98420CD0002070BC70470C4B80
:1012300003F13801002243F8042F8B42FBD1002038
:10124000F3E7084B03F13801002243F8042B8B42EB
:10125000FBD10020E9E700BF00000B4000400B403D
:10126000E80F0020241000200C4B994207D00629DB
:101270000BD806D0012303FA01F1416270474362A3
:1012800070474FF40043436270470B2994BF1131FC
:101290001231012303FA01F1416270473F8000DF00
:1012A00038B5114CA0420CBF0E2400240C440F4D45
:1012B00045F824200AD10E4A4FF00044C2F880417C
:1012C0001B01DBB282F81F33146009E0084A4FF0BB
:1012D0008044C2F880411B01DBB282F81E331460E7
:1012E000044B984738BD00BF00400B40EC0F002076
:1012F00000E100E06912400008B50248024B98473F
:1013000008BD00BF00000B409510400008B5024822
:10131000024B984708BD00BF00400B4095104000AD
:1013200000B583B0134B98420CBF1F201E20124BF8
:101330009847124B9B78FF2B1AD0EFF31083B3FA28
:1013400083F35B09019372B6BFF35F8F00220C4BEE
:101350001A700199094A93780133937029B10122D7
:10136000074B1A70BFF35F8F62B603B05DF804FBE2
:10137000FEE700BF00400B40713E4000D80F002048
:1013800084000020014BC3F81401704700020E4096
:101390000B4619B1096801605B6843601AB11368B4
:1013A000036153684361704721F0FE01C905C90D0F
:1013B0000162704708B51320014B984708BD00BF74
:1013C000713E4000436823F470234360436809047E
:1013D00001F47021194341607047436823F07F4353
:1013E0004360436843EA01614160704732B900EBF2
:1013F0008100036B23F001030363704700EB81005E
:10140000036B43F001030363704732B900EB8100C3
:10141000036B23F002030363704700EB8100036B4F
:1014200043F0020303637047042A03D06AB1082A19
:1014300016D0704700EB8100036B23F008030363B1
:10144000036B43F004030363704700EB8100036BFD
:1014500023F008030363036B23F004030363704763
:1014600000EB8100036B43F008030363E1E700EB4B
:1014700081010B6B23F0F0030B630B6B1A430A63C0
:101480007047431E1944B1FBF0F0431EFE2B94BF7E
:1014900000B24FF0FF3070477AB110B4144600EB41
:1014A00081010B6B23F47F430B630A6B42EA042236
:1014B0000A6300205DF8044B70474FF0FF3070471F
:1014C00010B400EB8101086B80B208630C6B44EA36
:1014D000036343EA02430B635DF8044B704700006B
:1014E0002A4B99424AD8A3F57A5399422CD910B481
:1014F000274CA4FB0234A40B043C264B0B449B005A
:10150000B2FBF3F2043AFF2C3AD90021013164080E
:10151000FF2C0ED90729F9D113029BB2090401F45B
:10152000E0210B43E4B22343036100205DF8044B48
:101530007047FF2AF0D90629EED801315208FF2A58
:10154000EAD90629F9D9E7E74900B2FBF1F2043AF2
:10155000FF2A11D9002301335208FF2A01D9072B92
:10156000F9D1110289B21B0403F4E0230B43D2B278
:101570001A430261002070470023F2E70120704700
:10158000FF2A88BF0021D8D80021C5E7801A0600AD
:10159000F11976050012FD3F38B504460D464FF0AF
:1015A000FF338362036A80230360036B08230360B5
:1015B00020230360042303600A684968054B9847A9
:1015C000012814BF002001206B7A012B04BF4023A7
:1015D000236038BDE11440000A4659B1037801295F
:1015E000C4BF417841EA0323022A04DD827842EA3B
:1015F000032300E00023184670470000F8B5CC68CC
:10160000002C4FD00B4605468E68002068604A6863
:10161000120202F4407242F48052097C090401F47F
:10162000FE010A436A60E86059681846224B9847F1
:10163000E860012C0FD001232B6000202B6A13F4EB
:10164000807F36D147F22F5147F230574FF0010ECD
:101650004FF0020C19E003232B600120EEE70A464D
:1016600070460CE008B9C5F800C013F0020FF6D0C0
:1016700070462B6B3370013C01363A4664B12B6ADD
:1016800013F4807F11D1511E8AB1012CEAD013F0DE
:10169000020FEED10A46F1E72B6A13F0010FFBD0DF
:1016A0002B6A00E001242046F8BD0524FBE709244D
:1016B000F9E70524F7E700BFD915400070B5CD68FC
:1016C000002D35D00B4604468E68002060600A7CF1
:1016D000120402F4FE024968090201F440710A434F
:1016E0006260E06059681846154B9847E060236ACD
:1016F00013F4807F06D005251BE05DB1236A13F447
:10170000807F18D113F0040FF7D033786363013D65
:101710000136F2E7236A13F4807F0ED113F0040F31
:10172000F8D002232360236A13F0010FFBD000E0FE
:101730000125284670BD0525FBE70525F9E700BF13
:10174000D915400010B4AC2303600B684A68B3FBA2
:10175000F2F31B095C1E4FF6FE7294420CD8036232
:101760008B68436040F20223C0F8203150230360AD
:1017700000205DF8044B70470120FAE7436913F03D
:10178000020F1ABFC161002001207047436913F0A6
:10179000010F1DBF83690B70002001207047436952
:1017A00013F0020F1DBFC1F30801C1610020012029
:1017B0007047436913F0010F05D08369C3F3080331
:1017C0000B6000207047012070470000094BB3FBFD
:1017D000F1F1814202D94FF6FF707047C1EB01333E
:1017E000834202D24FF6FF707047B0FBF1F0C0F3B6
:1017F0000B0070470020A10710B4054C04EA034316
:10180000C2F30B0213430B4343605DF8044B704774
:101810000000FF0F024B984204BF024A1A60704753
:1018200050180E40010000A5F8B51A4B1B888342E2
:101830002BD00D46174B1880174B1980174964277A
:1018400007FB00F00860164B8B604FF08040154B93
:101850009847154C03262660E56000232381012369
:10186000A3720B236360276121464FF080400F4B2A
:10187000984731464FF080400D4B98472A46214605
:101880004FF080400B4B9847F8BD034B1B888B42B1
:10189000CFD1F9E7BA0D0020B80D00201C0F0020B1
:1018A00000879303193F4000280F00205D3F400050
:1018B000C3404000A7404000F8B54FF00040274F1C
:1018C000B8470120264B984732214FF4FA70254C37
:1018D000A0476420244DA84732214FF47A70A047D6
:1018E000224E4FF4806333636420A847322140F2D4
:1018F000DC50A0474FF4005333636420A8474FF0F7
:101900000050B84732214FF4FA60A0474FF400630B
:1019100033636420A847322140F6C410A0474FF437
:10192000804333636420A847002140F6C410A047D9
:101930004FF08040B8470E4B18780E4B98470E4B2F
:1019400098470E480E4B98474FF080420D4B5A6314
:101950000D4B197840F6AC50A047F8BDA5284000C3
:1019600091294000291840003539400000100E40F0
:10197000F0100020752F40001906400050180E404E
:1019800015184000000E0E405C10002008B5F0B1A4
:10199000012826D01C4B1B681C4A12689B1A1C4A43
:1019A0001288934212D3184B1A68184B1A60194ABE
:1019B000137883F001031370D3B9174B1A88144BB3
:1019C0001A80002140F6B830144B984708BD00211A
:1019D0004FF4FA60114B9847114B1A880C4B1A8040
:1019E00008BD104B197840F6C4100C4B984708BD41
:1019F0000B4B1A88064B1A800A4B197840F6B83000
:101A0000064B984708BD00BFE40D0020B00D002034
:101A100006000020B40D00209C9D400029184000C5
:101A20009E9D40005C10002008B5244B1B787BB9BC
:101A3000234B1B78A3B1234B1B786BB1224B1B7834
:101A400093B9224B1B787BB90120214B98470EE0BC
:101A500001201F4B98470AE003201D4B984706E0E2
:101A6000184B1B78002BE9D10020194B9847154BD8
:101A70001B78D3B1174B1B78012B17D0164B1B7853
:101A8000012B17D0154B1B785B00DBB2144A127880
:101A90009A4208D000220C490A700C490A70114A77
:101AA0001168114A11600E4A137008BD01220B4BD8
:101AB0001A70E3E701220D4B1A70E3E7200E0020B5
:101AC000280E0020B80A00200A0E0020E10D002098
:101AD0008D194000BC0A0020C00A0020B50D00206E
:101AE000BC0D0020E40D0020CC0D0020B60D002020
:101AF00038B505460120044CA0472846034B9847BB
:101B00000020A04738BD00BF8D1940003539400086
:101B100070B5364BDB6B13F0040F24D1344B1B78BC
:101B20000BBB0022334B1A70334A13780133DBB2FC
:101B30001370642B21D90025304B1D70322140F2E7
:101B4000DC502F4CA04764202E4B98470122284B95
:101B50001A702D4B1A682D4B1A60294640F2DC5042
:101B6000A047022070BD214BDB6B13F0040F04D0A3
:101B70000023214A13701E4A13701C4BDB6B13F0B9
:101B8000020F26D1224B1B781BBB00221A4B1A7066
:101B9000184A13780133DBB21370642B01D800208C
:101BA00070BD0026154B1E70322140F2DC50144DE2
:101BB000A8476420134B98470124154B1C70124B07
:101BC0001A68124B1A60314640F2DC50A847204692
:101BD00070BD064BDB6B13F0020F05D000200C4BE1
:101BE0001870044B187070BD002070BD000E0E40C0
:101BF000C70D0020C40D0020C60D002008000020E5
:101C00002918400035394000E40D0020C00D0020A7
:101C1000C50D002010B56420034CA0473220034BB3
:101C200098476420A04710BDF11A400035394000A4
:101C300008B501290AD099B90022334B1A7004283B
:101C40005BD8DFE800F0191E2A42560001222E4B15
:101C50001A70042851D8DFE800F00F1B2038450027
:101C6000294A137883F001031370042845D8DFE86C
:101C700000F00308142C3900234B1878234B9847A5
:101C800008BD214B1B781BB90020214B984708BD8C
:101C9000204B18781E4B984708BD1B4B1B785BB137
:101CA0001C4B18781A4B9847174B1B7843B14FF4CD
:101CB0000052194B1A6308BD0020154B9847F3E7F3
:101CC0004FF40052144B5A6308BD0F4B1B7823B1DD
:101CD0004FF40052104B1A6308BD4FF400520E4BE4
:101CE0005A6308BD084B1B781BB110220B4B1A63BB
:101CF00008BD1022094B5A6308BD0020034B9847CA
:101D00000020034B984708BDC80D00203D2E400021
:101D1000752F4000F010002000100E4000140E40FF
:101D200007490B78DAB24FF4FA7393FBF2F3054AE2
:101D300013700B785B00013B034A1370704700BFC0
:101D4000F01000207F0000207E0000209F4B1B68C9
:101D50009F4A12689B1A41F28732934200D870471B
:101D60002DE9F04F85B000209A4B9847974D2B688E
:101D70000293994B4FF000425A634FF000525A635E
:101D80004FF080425A63954B984795480B23037157
:101D900001248471934B1968934B98472A68934B9D
:101DA0001A60934B1C7000213220924B98474FF4DD
:101DB000FA70914B9847914B98474FF0000BCDF834
:101DC00004B05D46DFF88892804C894E824F5EE118
:101DD000D4F8008003212846864B984763E14FF4EE
:101DE0009670854EB047864B1A78864D032128465B
:101DF000854CA047854B1A7804212846A047844B80
:101E00001A7805212846A047824B1A780A212846CD
:101E1000A047814B1A780B212846A0477F4B1A8890
:101E200092B27F4FA7FB0232C2F347120621284627
:101E3000A0477C4B1A8892B2A7FB0232C2F347122A
:101E400008212846A0474FF49670B047764B984734
:101E50002820764B984705B0BDE8F08F5B4B1A6899
:101E60005B4B1A6000213220624B9847644B1A7812
:101E7000644E03213046644DA84784B2634B1A7800
:101E800004213046A8470444A4B2614B1A780521C6
:101E90003046A8470444A4B25E4B1A780A21304663
:101EA000A8470444A4B25C4B1A780B213046A847DB
:101EB0000444A4B2594B1A8892B2594FA7FB02327C
:101EC000C2F3471206213046A8470444A4B2554B3A
:101ED0001A8892B2A7FB0232C2F347120821304699
:101EE000A8470444A4B221465148524B9847072CB6
:101EF000B1D14FF4FA70504B9847FEE72368029334
:101F0000236803932368019B6BB94FF0010B062DE7
:101F100000F2BD80DFE815F03500AE000801460193
:101F20008501BB00C5012268304B1A600123337064
:101F3000002132202F4B98470020404B98473221F8
:101F40004FF4FA70DFF80CB1D8474FF0005AC7F8D9
:101F500030A0C820284B984700214FF4FA70D8478A
:101F6000C7F834A00020364B98470135072D04D020
:101F7000DDF804B000230193C9E7DDF804B00023C5
:101F80000193304B98470546022804D0012863D0BE
:101F900000287CD009E01A4B1B78DBB2632B11D8E8
:101FA000174A13780A33DBB2137001210020114B5A
:101FB0009847134D2878244B98472878234B984707
:101FC000002564E00D4B9847EFE700BFE40D0020CB
:101FD000240E00208D194000000E0E4021344000D8
:101FE0000C0000200011002095344000C00D00209E
:101FF00008000020311C400035394000151C40000D
:10200000F1100020BC0F0020D1314000F010002062
:102010005C100020BA100020B6100020EE10002046
:102020001F85EB51B4100020211D4000F11A400023
:10203000889D4000954A400005394000A92A40008B
:1020400075294000111B4000952E4000F12E4000E4
:1020500015184000291840009A4B1B78DBB20A2B58
:1020600005D9984A13780A3BDBB213709DE7964B6B
:1020700098479AE700233370944B9847022835D04D
:10208000012843D000283BD10120914B984791482B
:10209000C8472368A3EB0803B3F5FA7F03D333786B
:1020A000002B7FF495AE23688B4A12689B1A44F686
:1020B000206293423FF693AEFB6B13F0010F7FF467
:1020C0001DAF2368029A9B1A40F6AC5293423FF62A
:1020D000C5AE2368039A9B1A632B7FF618AF019B4A
:1020E000BBF1000F18BF5B46019310E77B4B1B78D9
:1020F000DBB2632B07D8794A13780A33DBB213704B
:10210000774B9847C0E7704B9847F9E7734B1B78BC
:10211000DBB20A2B05D9714A13780A3BDBB2137084
:10212000EEE7694B9847EBE701233370674B98471D
:10213000022804D0012827D00028A8D009E0694B44
:102140001B78DBB2312B1CD8664A13780A33DBB21A
:10215000137001210220644B98474FF44870634B81
:102160009847604B197840F6C410DFF8A0A1D0471B
:102170004FF4FA705D4B9847002140F6C410D047E9
:1021800085E7514B9847E4E7564B1B78DBB20A2BA7
:1021900005D9544A13780A3BDBB21370D9E74A4B8E
:1021A0009847D6E700233370484B9847824664200F
:1021B0004F4B9847BAF1020F0FD0BAF1010F20D060
:1021C000BAF1000F16D14B4B188880B24A4BA3FBD3
:1021D00000308009494B984759E7464B1B889BB212
:1021E00041F26F72934209D8424A138803F57A7319
:1021F0009BB213800020414B9847E4E7324B98474D
:10220000F8E73C4B1B889BB2B3F57A7F06D9394A75
:102210001388A3F57A739BB21380EBE72A4B984798
:10222000E8E700233370294B98478246012108468E
:102230002D4B9847BAF1020F0FD0BAF1010F20D001
:10224000BAF1000F16D12E4B188880B22A4BA3FB8F
:1022500000308009294B984719E7294B1B889BB20E
:1022600041F26F72934209D8254A138803F57A73B5
:102270009BB213800020214B9847E4E7124B98470C
:10228000F8E71F4B1B889BB2B3F57A7F06D91C4A2F
:102290001388A3F57A739BB21380EBE70A4B984738
:1022A000E8E70120174B984700233370074B984706
:1022B00002282DD001283AD088BB134B18780F4B39
:1022C0009847E4E6F1100020151C4000111B400067
:1022D000612D400050180E40C00D0020F01000206D
:1022E000211D40005C100020311C400035394000A9
:1022F000912B4000EE100020D34D6210A92A40001F
:10230000B410002075294000B610002029184000A4
:102310000D4B1B78DBB2012B05D90C4B98470020E5
:102320000B4B9847C9E70222074B1A70F7E7064B99
:102330001B78DBB2022B03D10122034B1A70EEE7AC
:10234000024B9847EBE700BFB6100020151C400079
:10235000A92A4000F8B51A4B1B7873B1194B082213
:102360001A6301221A6304225A6302225A63164B2B
:102370001B7813B1154B1B7803B1F8BD0127134B24
:102380001F700520124CA047124D4FF080662E633F
:102390003220A0476E634FF4FA70A0472E633220BC
:1023A000A0476E633220A0470B4B98470B48082389
:1023B0000371877143710A4B19680A4B9847DCE730
:1023C000B80A002000140E40B90A0020E00D0020D9
:1023D00035394000000E0E40213440000C00002032
:1023E000001100209534400070B58D4B1A88A2F67C
:1023F00054339BB2C72B5ED800228A4B1A708A4B8B
:102400001A688A4B1A608A4B1A78864B1B789A4254
:102410001DD0884B98470122874B1A71814B1B783E
:10242000002B40F09F800021834A917182484371C4
:102430007B4B1B88814AA2FB03231B09C371804B82
:102440001968804B9847774B1A78794B1A707E4BF6
:102450001A88A2F654339BB2C72B00F28780002261
:102460007A4B1A70704B1A68794B1A60794B1A784C
:10247000764B1B789A421DD06E4B984702226E4BCA
:102480001A71724B1B78002B40F0C68000216A4AFB
:102490009171694843716C4B1B88684AA2FB032306
:1024A0001B09C371664B1968664B9847674B1A78CE
:1024B000684B1A7070BDB2F5FA7F26D80022664BC1
:1024C0001A70664C664E674D0DE00120A847624ABF
:1024D00013780133DBB21370632B0ED8504B1B887B
:1024E000B3F5FA7F8FD82378002BEED03378002B0A
:1024F000EBD001224B4B1A7085E70123574A13702A
:10250000574A1370474A13707DE7B2F5486F0BD3F3
:10251000454B1B68454A12689B1AFA2B7FF673AF2E
:102520000222404B1A706EE7A2F57A7292B2B2F5AF
:10253000E16F0BD23C4B1B683C4A12689B1AFA2B8A
:102540007FF661AF0322374B1A705CE7364B1B688E
:10255000364A12689B1AFA2B7FF655AF0322314B8D
:102560001A7050E70121344A91715FE7B2F5FA7FA2
:1025700025D800233C4A1370384A127838490C7821
:102580001946012007E0384A13700AE00133DBB234
:102590000146632B09D8002AF8D0002CF6D0002978
:1025A000F1D10122294B1A7060E72F4A13700123E1
:1025B0002A4A13702A4A1370244A137056E7B2F558
:1025C000486F0BD3184B1B68214A12689B1AFA2BD1
:1025D0007FF64CAF02221D4B1A7047E7A2F57A72C4
:1025E00092B2B2F5E16F0BD20F4B1B68184A12681A
:1025F0009B1AFA2B7FF63AAF0322144B1A7035E779
:10260000094B1B68124A12689B1AFA2B7FF62EAFF1
:1026100003220E4B1A7029E70121074A917138E70E
:10262000BA0A0020BC0A0020E40D0020D40D0020CE
:10263000D10D0020213440000C0000201F85EB51FB
:102640000011002095344000BE0A0020C00A00207E
:10265000DC0D0020D90D0020D00D0020B80A00208C
:10266000B90A002035394000D80D002010B5094CBA
:102670002074217001216160A260E3602146064858
:10268000064B9847C0B2064B1870003018BF0120A7
:1026900010BD00BFCC10002000800A40BD164000D5
:1026A000F810002010B5094C2074217001216160E0
:1026B000A260E36021460648064B9847C0B2064B2D
:1026C0001870003018BF012010BD00BF601000203E
:1026D00000800A40FD154000F810002080B110B5C0
:1026E0000446094909480A4B98470A4B187048B1F3
:1026F000094B6361094BA3615223A370002010BDF5
:1027000001207047012010BDBC0F002038000020C0
:1027100005314000F4100020A52640006D26400041
:1027200030B583B04FF4FA70244B9847244D6A4675
:1027300003212846234CA0479DF80020224B1A7005
:102740006A4604212846A0479DF800201F4B1A70B6
:102750006A4605212846A0479DF800201C4B1A70A8
:102760006A460A212846A0479DF80020194B1A7096
:102770006A460B212846A0479DF80020164B1A7088
:102780006A4606212846A0479DF8003003EB8303E4
:1027900003EB83039B009BB2104A13806A46082117
:1027A0002846A0479DF8003003EB830303EB830327
:1027B0009B009BB20A4A138003B030BD35394000FC
:1027C000BC0F002051324000F1100020F01000201A
:1027D0005C100020BA100020B6100020EE1000207F
:1027E000B410002008B51120174B98471749184B13
:1027F0000B60184B4B601848184B984718B1184B92
:102800001A78184B1A801848184B9847A0B16323C0
:10281000174A1370174A13703222174B1A704FF46D
:102820007A73164A1380164A13800022154B1A70C9
:102830000122154B1A7008BD002201210A48134BD2
:102840009847134B984708BD713E4000BC100020CC
:1028500000879303801A060000800A409915400003
:10286000F4100020B8100020BC0F0020DD2640002E
:10287000F1100020F01000205C100020EE1000206D
:10288000B4100020BA100020B6100020A131400082
:1028900021274000024A136801331360704700BFCC
:1028A000E40D002008B501460148024B984708BDD9
:1028B000000E0E40853D4000074B1B7813B9074BB7
:1028C0001B7823B14FF48042054B1A6370474FF4D5
:1028D0008042034B5A6370470A0E0020200E0020EE
:1028E00000100E40134B1B78FBB1134B1B68134AAF
:1028F00012689B1AB3F5967F00D2704710B50E4B45
:102900001A680E4B1A600E4C22780E4B53F82200B8
:102910000D4B984723780133DBB2072B01D023708E
:1029200010BD0022064B1A7010BD034B1A68034BF2
:102930001A607047200E0020E40D0020F80D0020E2
:10294000F10D002054000020A5284000064B1B7804
:1029500013B1064B1B781BB11022054B1A6370474D
:102960001022034B5A637047280E0020200E0020CF
:1029700000140E4020B94FF40062044B5A637047B4
:102980004FF40062014B1A63704700BF00100E4005
:1029900018B91022034B5A6370471022014B1A6377
:1029A000704700BF00140E4018B3642829D0284B8C
:1029B0001B68284909685B1A274909888B4245D357
:1029C000264B1B78002B31D001281FD0022829D09C
:1029D0004FF4FA71204A118083F001031F4A1370EB
:1029E0001B4B1A681B4B1A604FF480621C4B5A63D6
:1029F00070474FF480621A4B5A630022154B1A60DD
:102A000070474FF48062164B1A63704742F210729F
:102A1000114B1A800022114B1A700D4B1A680D4B86
:102A20001A60E1E7FA220C4B1A80F3E74FF4FA71CF
:102A3000094A118083F00103084A1370044B1A6895
:102A4000044B1A604FF48062054B1A63704700BF55
:102A5000E40D0020FC0D002080000020000E00206E
:102A600000100E4008B50C4B1B784BB90B4B1B7874
:102A700073B90B4B1B783BB102200A4B984708BD3A
:102A80006420084B984708BD0020064B984708BDB6
:102A90000120044B984708BD200E0020040B0020A5
:102AA000980D0020A9294000034628B364282FD0A0
:102AB000314A12683149086831490988121A8A4234
:102AC00032D3304A1278934240D92B4B19682B4BA2
:102AD00019602D490B7883F001030B704FF4FA70E5
:102AE00027490880002B2CD00132264B1A704FF05A
:102AF0008042264B1A6370474FF08042234B5A6343
:102B00000022204B1A704FF4FA721D4B1A80704746
:102B10004FF080421D4B1A6300221A4B1A704FF47B
:102B2000FA72174B1A807047134A1268101A8142C2
:102B300003D8144A12789A420DD2134B1B78002BFB
:102B4000D5D14FF08042114B5A6370470A4B1B6836
:102B5000181A8142F1D800220A4B1A70064B1A68E3
:102B6000064B1A604CF25032054B1A80064A137815
:102B700083F001031370E0E7E40D0020EC0D00206A
:102B80007C000020E80D0020F00D0020000E0E401B
:102B9000034628B364282ED0314A126831490868A8
:102BA00031490988121A8A4235D3304A1278934241
:102BB00040D92F4B1B7833B3FA222B4B1A802C4A67
:102BC000137883F001031370254B1A68254B1A60A4
:102BD000274B1B784BBB4FF40052264B5A63704770
:102BE0004FF40052234B5A630022204B1A70FA22F2
:102BF0001D4B1A8070474FF400521E4B1A6300227F
:102C00001A4B1A7070474FF4FA71174B1980013242
:102C1000164B1A70D3E7124A1268101A8142D7D89D
:102C2000124A12789A42D3D309E04FF40052114B62
:102C30001A6370470A4B1B68181A8142C8D80022D1
:102C40000A4B1A7042F21072074B1A80084A137826
:102C500083F001031370024B1A68024B1A60B7E746
:102C6000E40D0020040E002082000020010E002050
:102C7000080E002000100E4008B5214B1B78DBB970
:102C8000204B1B78E3B1204B1B78EBB91F4B1B7813
:102C9000F3B91F4B1B78FBB91E4B1B7803BB1E4BB4
:102CA0001B780BBB1D4B1B7813BB1D4B1B781BBB31
:102CB00000201C4B984708BD64201A4B984708BD5C
:102CC0000020184B984708BD0120164B984708BDB7
:102CD0000220144B984708BD0320124B984708BDAB
:102CE0000420104B984708BD05200E4B984708BD9F
:102CF00006200C4B984708BD07200A4B984708BD93
:102D0000200E0020280E0020BC0A0020C00A00204F
:102D1000100E0020A70A0020040B0020980D0020B0
:102D2000110E0020912B4000094B1B782BB9094B49
:102D30001B7813B9084B1B7823B14FF40062074B83
:102D40001A6370474FF40062044B5A63704700BF28
:102D5000290E0020300E0020200E002000100E4012
:102D600008B528B3224B1B68224A12689B1A224AD4
:102D7000127893421BD3214A13780133DBB21370CC
:102D80001F4A1278D2B293421DD21E4A13780133E1
:102D90001370174B1A68174B1A601A4B1B7813B92C
:102DA0000122184B1A70174B1878174B984708BD1B
:102DB000154B98470023114A13700121114A1170D5
:102DC0000C4A136008BD0E4A1278D2B2934208D35F
:102DD0000E4A12789A4204D90A4A1378013B1370BA
:102DE000D7E70122074B1A700022044B1A70D0E774
:102DF000E40D0020F40D00207F000020F20D0020E3
:102E0000F0100020F30D0020752F40007E00002000
:102E100008B5074B1B7813B9064B1B781BB1012073
:102E2000054B984708BD0020034B984708BD00BFDD
:102E3000B80A0020200E0020612D400098B1144BEC
:102E40004FF400621A634FF480421A634FF48062B9
:102E50001A63102102F1804202F5612211634FF4DE
:102E600000521A6370470A4B4FF400625A634FF4E2
:102E700080425A634FF480625A63102102F180420B
:102E800002F5612251634FF400525A63704700BF4C
:102E900000100E4038B505460E490F4B8B600F4BA6
:102EA0004B604FF080400E4B98470E4900240C8138
:102EB00001238B720C234B6064230B61CD600C608B
:102EC0004FF08040084B984721464FF08040074B19
:102ED000984738BD1C0F002000879303A0252600CB
:102EE000193F4000280F00205D3F4000C3404000D4
:102EF00038B505460E490F4B8B600F4B4B604FF0BA
:102F000080400E4B98470E4900230B8101248C72A0
:102F10000C234B6064230B61CD600C604FF080404C
:102F2000084B984721464FF08040074B984738BDE3
:102F30001C0F002000879303A0252600193F4000A6
:102F4000280F00205D3F4000C340400010B5242002
:102F5000044B9847044C2078044B98472078044B46
:102F6000984710BD713E4000F1100020952E4000A2
:102F7000F12E400038B505460F49104B8B60104BC1
:102F80004B604FF080400F4B98470F4900230B8157
:102F900001238B720C234B6064230B6102240C60B1
:102FA000CD604FF08040094B984721464FF080405C
:102FB000074B984738BD00BF1C0F002000879303C4
:102FC000A0252600193F4000280F00205D3F40004B
:102FD000C340400073B170B51C465D6965B169B10D
:102FE000DE780EB9032070BD13460A460146A0786C
:102FF000A84770BD01207047012070BD012070BD41
:1030000073B170B51C469D6965B169B1DE780EB9C2
:10301000032070BD13460A460146A078A84770BD3C
:1030200001207047012070BD012070BD2DE9F041E5
:1030300082B080460C4617461E4602A9002201F8BF
:10304000012D01220B4DA8470B4B187010B102B097
:10305000BDE8F0819DF8073023EA04033C401C439F
:1030600002A901F8014D334601224046034CA04716
:10307000EDE700BFD52F4000090E002001304000D1
:10308000F0B583B00C4600238DF804308DF80500B0
:103090000B46012201A92720114DA847114B18709A
:1030A00008B103B0F0BD234601220DF10501272030
:1030B000A8470C4B18700028F3D102AD002305F887
:1030C000053D094F074E2346012229460E20B847E9
:1030D00030700028E5D19DF90330002BF3DBE0E7E9
:1030E00001304000090E0020D52F400010B56FEAD6
:1030F000C0020B46D2B208210F20014CA04710BDE0
:103100002D3040000123CB70D0B170B504460D4680
:1031100043798279D20042EAC312037B03F00703AA
:103120001A43037883F0010342EA83120B46D2B2BA
:10313000CF213520184EB047184B187020B170BD04
:103140000023CB7001207047A3792B7163792B7317
:10315000237BAB74627B02F0030242F01002E3793E
:1031600042EA8312237A42EA4312E37A9B0003F095
:103170000C031A432B46D2B27F213720B047074BAE
:1031800018700028DBD1E3796B71637BEB74E37A11
:103190002B74237A6B73D2E72D304000090E002088
:1031A00070B504460D4682F00103CA0142EA83125B
:1031B000034602F0C002C0213520034EB047034B46
:1031C000187000B9257370BD2D304000090E002025
:1031D00030B583B004468DF807108DF806200146FF
:1031E0000020174B9847174B187008B103B030BD3B
:1031F000234601220DF107012520134DA847114B4D
:1032000018700028F2D1234601220DF10601262074
:10321000A8470C4B18700028E8D1214621200B4B01
:103220009847084B18700028E0D121460120044B34
:103230009847044B18700028D8D10120D6E700BF6A
:10324000ED304000090E0020013040008130400088
:1032500070B582B08DF80710002A31D015460446AB
:1032600001460020174B9847174B187008B102B061
:1032700070BD234601220DF107012520134EB047F2
:10328000114B18700028F2D121462220104B98478C
:103290000D4B18700028EAD123460122294626202A
:1032A0000C4DA847084B18700028E0D1214601209A
:1032B000044B9847044B18700028D8D10120D6E75A
:1032C0000120D4E7ED304000090E0020013040001D
:1032D00081304000D52F400000295BD030B583B04D
:1032E0000C4603460722694600202B4DA8472B4B6E
:1032F000187000284CD19DF800301A0902EB8202A8
:1033000003F00F0303EB4203DBB223609DF80130AF
:103310001A0902EB820203F00F0303EB4203DBB254
:1033200063609DF802301A0902EB820203F00F037A
:1033300003EB4203DBB2A3609DF803301A0902EBF2
:10334000820203F00F0303EB4203DBB2A3619DF89B
:1033500004301A0902EB820203F00F0303EB42036D
:10336000DBB2E3609DF805301A0902EB820203F03C
:103370000F0303EB4203DBB223619DF806301A0909
:1033800002EB820203F00F0303EB4203DBB2636143
:1033900003B030BD01207047D52F4000090E00203A
:1033A00010B504464FF480510020054B984705485E
:1033B0000460054B1C6000220421044B984710BD9B
:1033C000ED0B4000FC10002000110020C90C400053
:1033D00010B50D4C0022042120460C4B9847236861
:1033E000B3F1FF3F07D00A4A1360094B1968094837
:1033F000094B984710BD0022054B1A6020462260F9
:103400000421064B9847F0E7FC1000206D0D4000AA
:1034100000110020D49D4000954A4000C90C400096
:10342000024B00221A605A60704700BF0C00002057
:1034300010B58AB0124C21461248134B9847636965
:10344000643306932369013B0593E3680493A368FF
:10345000039363680293236801934FF0FF3309934A
:1034600001A80A4B98470A4B984203DC0020002130
:103470000AB010BD01A8054B9847C117F8E700BF77
:1034800014000020BC0F0020D9324000C14D400084
:10349000E8AA0D6370B582B005460C4601F580516F
:1034A0002748284B98472848284B9847C4F30803D7
:1034B000002B31D04FF6E8539C4208D92448214BC9
:1034C000984700244FF480516018224B9847224BB4
:1034D00098470146286021481A4B984704F108068E
:1034E00004F5805408342246082128461C4B98478E
:1034F0002246082168461B4B984708222946684601
:10350000194B984788B94FF00042184B5A63304620
:10351000174B984702B070BD0D480A4B98474FF6BD
:10352000E8539C4288BF0024CCE74FF480512046EA
:10353000084B98474FF000420C4B1A63E7E700BF77
:10354000A09D4000954A400050180E4015184000BC
:10355000B09D4000ED0B400031344000C09D400064
:10356000C90C40006D0D4000BD4A400000140E40E3
:10357000A133400008B5044B98470120034B9847FE
:10358000034B984708BD00BF3D0B40004D0B40006A
:10359000590B40001A4BDB6B13F0010F0BD1194B89
:1035A0001B68194A12689B1AB3F57A7F0AD3012265
:1035B000164B1A707047134B1A68134B1A60134B53
:1035C0001B7803B9704710B50024104B1C702046BF
:1035D0000F4B98470F4B4FF400525A634FF48062E1
:1035E0005A63A3F500734FF000425A634FF0005244
:1035F0005A634FF080425A63074B1C7010BD00BFE6
:10360000000E0E40E40D0020240E0020200E0020AD
:103610008D19400000100E40F10D002008B5144B2C
:103620001B78FBB1134BDB6B13F0040F1AD1124B59
:103630001B68124A12689B1AB3F5FA6F16D3104B27
:103640001B781BB101220E4B1A7008BD0D4B984719
:103650000D480A230371012383710C4B19680C4B2D
:103660009847EFE7044B1A68044B1A6008BD00BF87
:10367000B80A0020000E0E40E40D0020CC0D002002
:103680000A0E0020213440000C0000200011002010
:1036900095344000204BDB6B13F0200F25D170B523
:1036A00000221E4B1A701C4C1D4D1E4EE36B13F076
:1036B000200F19D12B789BB10120B047174A1378FE
:1036C0000133DBB21370F92BF0D90022144B1A70BE
:1036D0000123154A1370154A1370154A137070BDF3
:1036E0000122134B1A7070BD70BD0D4B1B788BB946
:1036F000104B1B780133DBB2C82B08D900230D4ACD
:1037000013700121064A1170094A13707047094A63
:1037100013707047704700BF000E0E400E0E002061
:103720000F0E002035394000B80A0020B90A0020E9
:10373000100E0020190E00201F4BDB6B13F0006FE2
:103740002BD01E4B1B8801339BB240F2E1429342C7
:1037500019D81A4A13801A4B1A781A4B1B789A42B6
:1037600028D010B5184B9847184807230371144CFC
:10377000227882714371164B1968164B984722784C
:10378000104B1A7010BD00230C4A13800C4A1370A2
:10379000114B1A68114B1A60DDE70F4B1B680F4A7B
:1037A00012689B1A42F20F729342D4D90122044B41
:1037B0001A70D0E7704700BF00140E400C0E0020B6
:1037C000110E0020180E0020213440000C000020B3
:1037D0000011002095344000E40D0020140E00205C
:1037E00038B5254BDB6B13F0020F40D1234B1B6820
:1037F000234A12689B1AB3F5FA6F3CD3214B1B780E
:10380000002B38D1204B1B78002B34D11F4B1B7859
:10381000002B30D001201E4DA84700241B4B1C70EC
:103820001C4B1C701C4B1C701C4B1C701C4B1C70CC
:103830001C4B1C701C4B1C704FF400020E4B5A6347
:1038400020461A4B98471920194B98472046A847FD
:103850001848194B9847194B984719480923037181
:1038600001238371174B1968174B984738BD034BD9
:103870001A68034B1A6038BD000E0E40E40D00209C
:103880001C0E0020BC0A0020C00A0020B80A00203C
:103890008D194000B90A0020E00D0020E10D002044
:1038A0000A0E0020B50D0020B60D0020612D40004D
:1038B00035394000F09D4000954A400021344000D9
:1038C0000C000020001100209534400010B50920A4
:1038D000024CA0470A20A04710BD00BF713E400027
:1038E000054B064A5A60F021054A82F8231000224F
:1038F0009A6007221A60704710E000E06904010036
:1039000000ED00E010B54FF400414FF47A7303FB73
:1039100000F0054B984782B213464FF4005103481C
:10392000034CA04710BD00BFCD17400050180E40FB
:10393000F9174000064B1A68014640B11B689B1AF4
:10394000984204D9024803689B1A9942FBD87047F1
:10395000E40D00200278530903F5001303F2077306
:103960005B0202F01F02012101FA02F21A637047A2
:103970004278530903F5001303F207735B0202F068
:103980001F02012101FA02F21A637047827853097B
:1039900003F5001303F207735B0202F01F0201211B
:1039A00001FA02F25A637047C278530903F5001313
:1039B00003F207735B0202F01F02012101FA02F217
:1039C0001A6370470279530903F5001303F2077372
:1039D0005B0202F01F02012101FA02F21A63704732
:1039E0004279530903F5001303F207735B0202F0F7
:1039F0001F02012101FA02F21A637047827953090A
:103A000003F5001303F207735B0202F01F020121AA
:103A100001FA02F21A637047C279530903F50013E1
:103A200003F207735B0202F01F02012101FA02F2A6
:103A30001A637047027A530903F5001303F2077300
:103A40005B0202F01F02012101FA02F21A637047C1
:103A500010B51C4C6E23237020461B4B98476C23DB
:103A600063702046194B98477023A3702046184B6B
:103A700098476723E3702046164B98470623237127
:103A80002046154B98477C2363712046134B98477B
:103A90006623A3712046124B98476D23E37120469D
:103AA000104B98477123237220460F4B98470F4BBA
:103AB0004FF080725A634FF000725A634FF0806289
:103AC0005A6310BD0411002055394000713940007F
:103AD0008D394000A9394000C5394000E139400026
:103AE000FD394000193A4000353A400000140E40BC
:103AF0000F4B1B78C3B90F4B1B78ABB90E4B1B7820
:103B000093B90E4B1B787BB90D4B1B7863B90D4BEA
:103B10001B784BB90C4B1B7833B90C4B1B781BB97A
:103B200000220B4B1A7070470122094B1A70704724
:103B3000040B0020980D0020BC0A0020C00A0020C1
:103B4000A70A0020100E0020110E0020B80A002045
:103B5000280E002038B5164B1B7843B3154B1B7845
:103B60000BBB154BDB6B13F0020F1CD1134B1B6807
:103B7000134A12689B1AB3F5FA6F18D30120114D3E
:103B8000A84700240A4B1C700F4B1C700A4B4FF0C7
:103B900080725A634FF400025A6319200B4B984706
:103BA0002046A84738BD054B1A68054B1A6038BD3A
:103BB000300E0020280E0020000E0E40E40D0020E4
:103BC000380E00208D194000290E002035394000A4
:103BD0000E4B1B78ABB10E4B1A680E4B1B889BB279
:103BE0000D490968521A9A420FD3094B1A680A4BB9
:103BF0001A604FF40002094B1A630122084B1A7035
:103C00007047034B1A68044B1A607047B80A0020CB
:103C1000E40D0020B41000202C0E0020000E0E40F9
:103C2000290E00200E4B1B78ABB10E4B1A680E4BC1
:103C30001B889BB20D490968521A9A420FD3094B4F
:103C40001A680A4B1A604FF08072094B1A630122FE
:103C5000084B1A707047034B1A68044B1A60704780
:103C6000280E0020E40D0020EE100020340E00206D
:103C7000000E0E40300E00202DE9F84381460F461D
:103C8000124B984705464846114B9847054013D0BC
:103C9000104C04F1600603E0B4420DD010345DB165
:103CA0002068B842F8D161682942F5D0E3689847A6
:103CB000636825EA0305EFE7074B1B6823B1074B51
:103CC0001B680BB148469847BDE8F883893D400022
:103CD0008D3D40003C0E002010110020AC0E002055
:103CE00008B509210148024B984708BD000E0E4057
:103CF000793C400008B50A210148024B984708BDAD
:103D000000100E40793C400008B50C210148024BE0
:103D1000984708BD00140E40793C400010B50E488D
:103D20000E4B984720200E4B98470E4CA04700287A
:103D3000FCD00D4B98470D4A0D4B9A620D4CA04795
:103D40000028FCD010200C4B98470C4B98470C488F
:103D5000024B984710BD00BF000E2707C545400025
:103D6000F53D4000413E4000513E4000013F0920EA
:103D700000040E40613E4000913D4000B9444000C7
:103D80000087930381637047C06C7047806C7047F5
:103D9000174A136B23F0700318431063936E13F0EC
:103DA000080F0AD14FF4006311498A6E12F0080F10
:103DB00003D1013BF9D1012070470D4A136B23F069
:103DC000030343F002031363936E13F0080F0AD149
:103DD0004FF4006306498A6E12F0080F05D1013BCB
:103DE000F9D101207047002070470020704700BFC4
:103DF00000040E4011490A6A42F45C1242F00802C3
:103E00000A620A46936E13F4003FFBD00B4A136A12
:103E100023F45C1323F0700343F45C131843106223
:103E2000936E13F4003FFBD0044A136A23F09B7394
:103E300023F4803343F45C131362704700040E4094
:103E4000024B986E00F48030704700BF00040E40B3
:103E50004FF00052014B9A62704700BF00040E40C1
:103E6000024B986E00F00200704700BF00040E4045
:103E70002F281ED81F280CD8114B9A690123834084
:103E8000934318D0012303FA00F00D4B1861002072
:103E9000704720380A4BD3F808210123834093430D
:103EA0000BD0012303FA00F0054BC3F800010020FA
:103EB000704701207047002070470020704700BF06
:103EC00000040E40F0B48CB007460E4601AC114D14
:103ED0000FCD0FC40FCD0FC495E8070084E807008D
:103EE00001AA002352F8040BB6FBF0F0B0FBF7F088
:103EF000B0F5807F07D901330B2BF3D14FF6FF705C
:103F00000CB0F0BC70470A2B94BF40EA03204FF678
:103F1000FF70F5E7089E400070B506460D460C6838
:103F200044B1896820460C4B984704464FF6FF730E
:103F300098420CD0686840B1A968074B98474FF683
:103F4000FF73984205D044EA0044346000242046C0
:103F500070BD0446FBE700BFC53E400070B40A6870
:103F60004B6803F00F038C8A23430C8923438C7A1C
:103F700043EA44238C7D43EA0443CC7D43EA444333
:103F80000C7E43EA844300EB4214C4F80032CB6851
:103F9000C4F804320B69C4F80C328B7D3BB18C8BB6
:103FA0004B8B43EA044300EB4214C4F81832856C8F
:103FB0004FF001139340DB431D40CC7F04FA02F61F
:103FC0008C7F944044EA06442C438464446C234030
:103FD00091F8214004FA02F591F82040944044EA17
:103FE0000544234343640123934091F82240002C6D
:103FF00043D0046A1C43046291F82440022C41D04F
:10400000D0F8C050DC432540C0F8C05091F824508F
:10401000012D07BF846E1C43856E2C40846691F889
:104020002540022C34D0D0F8C0501B04DC4325407E
:10403000C0F8C05091F82550012D30D0836E1C403F
:104040008466D200C46EFF23934024EA030491F8EF
:10405000233003FA02F22243C2660B6853B991F887
:104060002C30012B8B6A23F07F4308BF43F0807311
:10407000C0F8A030002070BC7047046A24EA030432
:104080000462B9E7D0F8C0401C43C0F8C040C6E79E
:10409000D0F8C04044EA0343C0F8C030D1E7846E92
:1040A00023438366CDE70B69934202D24FF6FF703C
:1040B00070470B68CA6000EB4310C0F8082200206C
:1040C0007047012303FA01F1416070472DE9F04781
:1040D0000920C24CA0470A20A0470C20A047C04A94
:1040E0004FF480411161C2F8A0104FF00040106100
:1040F000C2F8A000BB4B1861C3F8A0004FF00050FD
:104100001861C3F8A0004FF080401861C3F8A00008
:10411000B54D4FF400642C61C5F8A0402961C5F885
:10412000A0104FF480602861C5F8A0001026166129
:10413000C2F8A0604FF400502861C5F8A0004FF00D
:10414000806EC3F810E0C3F8A0E04FF4805515610D
:10415000C2F8A0504FF480371761C2F8A0704FF03A
:10416000010AC3F814A0C3F8A0A04FF00409C3F8D3
:104170001490C3F8A0904FF00208C3F81480C3F85D
:10418000A08080271761C2F8A07040271F61C3F884
:10419000A0704FF0805CC2F810C0C2F8A0C01761D8
:1041A000C2F8A0701061C2F8A0004FF40037176188
:1041B000C2F8A0704FF0807CC2F810C0C2F8A0C056
:1041C0004FF000771761C2F8A070C2F810E0C2F893
:1041D000A0E008271761C2F8A070C2F810A0C2F8CA
:1041E000A0A0C2F81090C2F8A090C2F81080C2F847
:1041F000A080C3F810E0C3F8A0E0C3F810C0C3F873
:10420000A0C04FF4000EC3F810E0C3F8A0E04FF0D8
:10421000200CC3F814C0C3F8A0C04FF0006CC2F863
:1042200014C0C2F8A0C04FF4801CC2F860C0C2F82D
:1042300090C0C2F854C0C2F824C0C2F880C0D2F8FE
:10424000708028F48018C2F87080D2F8748028F446
:104250008018C2F87480C2F804C04FF4001CC2F881
:1042600060C0C2F890C0C2F854C0C2F824C0C2F8FE
:1042700080C0D2F8708028F40018C2F87080D2F89C
:10428000748028F40018C2F87480C2F804C04FF497
:10429000800CC2F860C0C2F890C0C2F854C0C2F826
:1042A00024C0C2F880C0D2F8708028F48008C2F818
:1042B0007080D2F8748028F48008C2F87480C2F844
:1042C00004C0C2F860E0C2F890E0C2F854E0C2F85E
:1042D00024E0C2F880E0D2F870C02CF4000CC2F8E0
:1042E00070C0D2F874C02CF4000CC2F874C0C2F8CC
:1042F00004E01F66C3F890705F655F62C3F880706A
:104300001A6F22F008021A675A6F22F008025A67E1
:104310005F601E66C3F890605E655E62C3F8806091
:104320001A6F22F010021A675A6F22F010025A67B1
:104330005E604FF4C0621A66C3F890205A655A62F4
:10434000C3F880201E6F26F4C0661E675E6F26F4D9
:10435000C0665E675A601D66C3F890505D655D6219
:10436000C3F880501A6F22F480521A675A6F22F4F1
:1043700080525A675D601866C3F8900058655862AD
:10438000C3F880001A6F22F400521A675A6F22F4A1
:1043900000525A6758601966C3F8901059655962FF
:1043A000C3F880101A6F22F480421A675A6F22F401
:1043B00080425A6759601C66C3F890405C655C6235
:1043C000C3F880401A6F22F400621A675A6F22F411
:1043D00000625A675C60BDE8F08700BF713E400034
:1043E00000140E40000E0E4000100E40FEE70000CC
:1043F00000B583B0254B264A9A4210D0254B234A5C
:104400009A420CD2013B9B1A23F00303043313445A
:104410001F4951F8040B42F8040B9A42F9D11E4B84
:104420001E4A9A420AD2013B9B1A23F0030304332B
:104430001344002142F8041B9342FBD1184A194B44
:1044400023F07F039360EFF31083B3FA83F35B09E8
:10445000019372B6BFF35F8F0022134B1A7001995C
:10446000124A136843F470031360BFF34F8FBFF316
:104470006F8F29B101220C4B1A70BFF35F8F62B6A8
:104480000B4B98470B4B9847FEE700BF00000020FE
:1044900018A14000840A002064110020840A002032
:1044A00000ED00E0000040008400002088ED00E006
:1044B000454A4000914740003B4B1B6B03F0030310
:1044C000012B1DD083B1022B36D0374B1B6B03F071
:1044D0007003702B5FD0344B1A6B3449C2F3021255
:1044E0000B68D3400B607047314B5B6913F0800F52
:1044F00014BF4FF400424FF4FA422C4B1A60E4E729
:10450000294B1B6A13F0807F03D02A4A274B1A607D
:10451000DBE7294A254B1A60234B1B6A03F0700323
:10452000102B05D0202BD0D1224A204B1A60CCE78B
:10453000224A1E4B1A60C8E71B4B1B6A13F0807F90
:1045400016D01C4A194B1A60174B1B6B03F0030360
:10455000022BBAD1144A916A926A1448C1F30A41F3
:10456000036801FB0333D2B2B3FBF2F30360ACE7A1
:10457000114A0E4B1A600C4B1B6A03F07003102B90
:1045800005D0202BE0D10B4A084B1A60DCE70B4A20
:10459000064B1A60D8E7054A13680949A1FB0313C3
:1045A0005B081360704700BF00040E4088000020C5
:1045B00010180E40001BB70000093D0000127A00E1
:1045C000ABAAAAAA124B984211D9124B984213D9FE
:1045D000114B984214D9114B984215D9104B98425F
:1045E00094BF4FF004220F4A0F4B1A6070474FF0F0
:1045F00080620D4B1A6070470C4A0B4B1A60704773
:104600000B4A094B1A6070470A4A074B1A607047F9
:10461000FF2C3101FF596202FF869303FFB3C404EC
:10462000FFE0F50500050004000A0E40000100044B
:1046300000020004000300040A4B1B6853B1094B3D
:104640001B681A180849914208DB1046054A106099
:1046500018467047054A034B1A60F0E74FF0FF30E9
:10466000704700BFB00E0020FCFF01206841002011
:104670004FF0FF3070474FF400534B6000207047FD
:104680000120704700207047F0B583B005460C4606
:1046900000230193184B98420AD0184B98420FD030
:1046A000174B984214D0174B9D421BD003B0F0BD5E
:1046B0001F46154E21463846B0470028FAD1F2E78A
:1046C0001E46114D21463046A8470028FAD1EDE795
:1046D0001E460E4D01A93046A8470028FAD1019B7D
:1046E0002370E3E71E46094D01A93046A84700287C
:1046F000FAD1019B2370D9E700060E400006064060
:1047000000000A4000400A408D174000B3174000E7
:1047100070B50C46184B98420AD0184B984210D0EE
:10472000174B984216D0174B98421CD0002070BDF2
:104730001E46154D21463046A8470028FAD10120D3
:1047400070BD1E46104D21463046A8470028FAD1BC
:10475000012070BD1E460D4D21463046A847002859
:10476000FAD1012070BD1E46084D21463046A847AB
:104770000028FAD1012070BD00060E400006064058
:1047800000000A4000400A407D1740009F1740008B
:1047900080B588B0624B984740F6B830614B984777
:1047A000614B98470720614DA847614C614B1C60E5
:1047B000614A624B1A60624A624B1A60624B05930F
:1047C0004FF4E13306934FF4006307930720A847A3
:1047D00005A920465D4B98475D4D2B6800219868E0
:1047E0005C4CA0472B6800215868A0474FF44060FC
:1047F000594B9847594B9847594B9847594B9847AD
:104800003220594B9847594B9847594B9847594B29
:104810009847594B9847594B9847594B9847594B8C
:104820009847594B1968594A11601A681968584ACB
:1048300011601968574A11601968574A11601A685F
:10484000564B1A60564C21465648574B984723689A
:104850006268A1686069029020690190E068009038
:104860005248534CA047484E524D534FDFF83081C9
:1048700043E00222514B1A603846514B9847514B46
:104880009847514B9847514B9847514B9847514B3C
:104890009847514B9847514B9847514B9847514B2C
:1048A0009847514B9847514B9847514B9847514B1C
:1048B0009847514B9847514B9847514CA047514B03
:1048C0009847514B9847514B9847514B9847514BFC
:1048D0009847A047504B9847504B1860504B98470B
:1048E000504B1880504B9847504B1880504B98476E
:1048F000504B1880504B1B7873B933682A689B1A49
:10490000092BB6D941462748274B984702224B4BE3
:104910001A6033682B60ACE7494B9847EDE700BF5E
:104920001D3D400005394000CD404000713E400033
:1049300000060E40E80F002011474000E40F002061
:1049400089464000E00F0020008793034517400090
:104950008C0000209D51400085134000CD38400060
:10496000E1384000513A400035394000E527400029
:10497000211D40004D2F4000E101400075354000F1
:10498000D1334000B9184000E40D0020D40D0020C0
:104990001C0E0020940D0020000B0020DC0D0020D8
:1049A00014000020BC0F0020D9324000349E40008B
:1049B000954A4000A80A002050180E4000400B40C5
:1049C000151840004D294000652A4000792C400010
:1049D000292D4000B9284000112E4000291A40001E
:1049E000E13740001D3640009535400095364000C7
:1049F000E5284000E9234000393740008D09400098
:104A0000F13A40007106400055234000553B4000FC
:104A1000D13B4000253C40004D054000080B0020E4
:104A2000F50440009A0D00209D044000BA0A0020C1
:104A300045044000BE0A0020200E002000000B406C
:104A40004D1D400070B50F4E0F4D761BB61018BFB0
:104A5000002405D0013455F8043B9847A642F9D10B
:104A60000A4E0B4D761B05F041FBB61018BF002413
:104A700006D0013455F8043B9847A642F9D170BDE1
:104A800070BD00BFF8A04000F8A0400000A14000A9
:104A9000F8A040000FB400B5074983B004AB086824
:104AA00053F8042B8168019300F0F2FE03B05DF827
:104AB00004EB04B0704700BF8C000020032A70B4E0
:104AC00022D940EA01039B0711D003780C78A34256
:104AD0001DD10A44013105E010F8013F11F8014BE6
:104AE000A34214D19142F7D1002070BC70470D68E9
:104AF0000668AE420C46034601F1040100F10400D1
:104B000008D1043A032AF2D8002ADED1ECE7181BB8
:104B100070BC704721461846D7E700BF70B48607BF
:104B200046D0541E002A41D0CAB2034602E014F116
:104B3000FF343BD303F8012B9D07F8D1032C2ED96A
:104B4000CDB245EA05250F2C45EA054519D903F1F3
:104B500010022646103E0F2E42F8105C42F80C5C04
:104B600042F8085C42F8045C02F11002F2D8A4F1A9
:104B7000100222F00F0204F00F041032032C134431
:104B80000DD91E462246043A032A46F8045BFAD899
:104B9000221F22F003020432134404F003042CB158
:104BA000C9B21C4403F8011B9C42FBD170BC704786
:104BB00014460346C2E700BF2DE9F04101683B29D6
:104BC00082B0044600F2B68041683B2900F2A5801D
:104BD000A168172900F2948021690B2900F28380D3
:104BE00063699F0733D17448DA1780FB0365C2EB12
:104BF0006512642505FB1232002A64D0E3686F4D0C
:104C0000002B4FF01D0627DC6B4F4FF0640E4FF466
:104C1000C87C07E0012914BF55F82120324613440F
:104C2000002B37DC11F1FF31F4D261694A1E96077F
:104C3000626140F08C8087FB0206D017C0EB6610E3
:104C40000EFB1022002A00F086801D2680E01C2624
:104C5000E3685A4D002BD7DDDFF85CE100274FF009
:104C6000640C4FF4C8784A1C0BE055F821009842B8
:104C7000A3EB000310DA0C2AE36022610FD00131AC
:104C800001320129F1D19E42A3EB060304DAE3606D
:104C90002261F4E72161E36002B0BDE8F08161695F
:104CA00027614A1C9007626102D01C260021DAE7C6
:104CB0008EFB0206D017C0EB66100CFB1022002AF8
:104CC00057D01D26F2E703F26C7380FB0320DA173E
:104CD000C2EBE0104FF4C87202FB1033002B14BF7C
:104CE0001C261D26B4E70C22684601F0CFFC636940
:104CF000009A019913440029636157DB216170E731
:104D00001822684601F0C2FC9DE80600E368002A0C
:104D10000B44E36045DBA2605EE73C22684601F09D
:104D2000B5FCA2680099019B1144002BA16033DB04
:104D300063604EE73C22684601F0A8FC9DE80C0049
:104D40006168002B1144616021DB23603DE71C2674
:104D50000B211F2263E701F26B7187FB0120CA1749
:104D6000C2EBE0120CFB1211002914BF1C261D26F9
:104D7000EEE701F26D718EFB0120CA17C2EBE01263
:104D800008FB1211002914BF1C261D268EE73C3398
:104D900001392360616018E73C3301396360A16029
:104DA00017E71832013BA260E36015E70C31013BC5
:104DB0002161636115E700BF1F85EB51509E4000E4
:104DC0002DE9F84F064602F069F980463046FFF7B4
:104DD000F3FECE4D346973683168F268B06855F8F7
:104DE0002450C3EB031301EB83034FF4616E013ACC
:104DF000012C0EFB003E1544716902DD880700F0AE
:104E0000C88001F51C53103344F620629342F561CB
:104E100000F27981462900F3938000F0F080452963
:104E200000F07E81BA48452440F26D1964274FF4A2
:104E3000C87C16E004F26C7A80FB0A2B4FEAEA7217
:104E4000C2EBEB120CFB12A2002B40F0D180002A27
:104E500014BF4B464FF4B773013CA142A5EB0305C9
:104E600010D080FB0423E217C2EB631314F0030F8E
:104E700007FB1343DED0013C40F26D13A142A5EBCA
:104E80000305EED1A10740F0E780A14AE31782FBBA
:104E90000401C3EB6113642101FB1343002B40F0B9
:104EA000F18004F26C7182FB0132CB17C3EBE2128A
:104EB0004FF4C87303FB1213002B40F26D1308BFAD
:104EC0004FF4B773ED1A934F07FB05E700F0F8FABC
:104ED00000F002FB904BD3F80090B9F1000F00F006
:104EE0008A80336A7069D8F80420012B00F26C7054
:104EF000A8BF0123904299465AD000F01FFA00281B
:104F000056D1B9F1010F40F0B880D8F83C108A466C
:104F100057444FF0010900F0D9FA804BC6F82090B1
:104F2000043583FB05235A19EB17C3EBA203C3EB2C
:104F3000C303EB1A48BF0733B3613846BDE8F88FA7
:104F40007348462440F26D1964274FF4C87C13E07F
:104F500004F26C7A80FB0A2B4FEAEA72C2EBEB1286
:104F60000CFB12A20BBB002A14BF4B464FF4B773C5
:104F70000134A1421D44A6D080FB0423E217C2EBFA
:104F8000631314F0030F07FB1343E1D040F26D13DA
:104F9000EEE75F4ACB1782FB0140C3EB601364204E
:104FA00000FB13136BB301352BE74FF4B773DFE747
:104FB000D8F82020D8F83830D8F83C10A3EB020CF1
:104FC000674510468A4602DB5B1A9F4299DBD8F898
:104FD0001C30A3EB010ED8F800300BB377453EDA56
:104FE000B9F1000F80F2CF804FF00009074492E73B
:104FF0004FF4B77330E7D8F8200007448BE70C462E
:1050000061E701F26C7082FB0032C317C3EBE2125E
:105010004FF4C87303FB1202002A7FF4F2AEC2E71A
:1050200077451CDBB9F1000FFFF672AF7FF46FAF6D
:10503000511A3368D6F80C900B44336030460F4455
:10504000FFF7BAFDF368B3EB090318BF4FF001098E
:105050002ED1D8F83CA05BE740F26D1332E76745EC
:10506000ACBF00230123B9F1000F04DB83EA090977
:10507000B9F1010F09D0994643E7D8F8202010462E
:10508000074448E74FF4B7731CE7511A002BD0D1FF
:105090003368D6F80C905B1A336030467F1AFFF7FE
:1050A0008BFDF368B3EB0909A5D04B464FF000091F
:1050B000012B3CDD4FF0FF33F2691D449B183AD4BD
:1050C000A20731D11249E21781FB04E0C2EB601262
:1050D000642000FB1242002A4CD104F26C7481FB64
:1050E0000421E217C2EBE1124FF4C87101FB124236
:1050F000002A40F26D1208BF4FF4B7729A42D8BF2F
:105100009B1AF361FDE64FF0FF3716E7809E4000E3
:105110001F85EB5180510100D00E0020932449924D
:105120000C4640F26D13CDE640F26D12E6E79A1C94
:10513000D8BF0123C0E7611E88071ED1164ACB17CE
:1051400082FB01E0C3EB6013642000FB1313BBB9C7
:1051500004F26B7482FB0432E317C3EBE2134FF4E7
:10516000C87202FB1343002B40F26D1318BF4FF4BB
:10517000B673C6E74FF4B772C0E74FF4B673C0E733
:1051800040F26D13BDE7B9F1010F03D04FF00009F4
:10519000104675E7511A7BE71F85EB5100290CBFBC
:1051A000022200224FF4806300F000B82DE9F043A2
:1051B000614C256883B004460F4690461E4615B1E3
:1051C000AB6B002B64D0B8F1020F06D0B8F1010F21
:1051D00000F29F80002EC0F29C80636ED80734D509
:1051E0002146284601F00EFB216B41B104F140033A
:1051F000994202D0284601F083FC00232363B4F9CE
:105200000C300022A26162601A063AD423F44A6389
:1052100023F00303B8F1020FA3811DD001AB6A464E
:105220002146284601F06AFFA3891843A081002E79
:1052300032D1009E304601F0D9FF074600286BD0DE
:10524000A38943F08003A38128E0A3899905C7D4EB
:10525000A06D01F04DFFC3E70025616E002604F14B
:10526000430243F002030120A660CE07A38122601F
:105270002261606101D498053ED5284603B0BDE89F
:10528000F0832169284601F03BFCB4F90C30BDE7FE
:10529000284601F00FFB96E7002FCBD0AB6B002B1D
:1052A00033D0009BB4F90C2027609E421CBF42F40F
:1052B0000062A281B8F1010F04BF42F00102A28195
:1052C00092B212F00803276166610ED0D1071AD599
:1052D000656E7642002315F00105A661A36009D032
:1052E0000025284603B0BDE8F083A360656E15F085
:1052F0000105F5D19305C0D4A06D01F0FDFE28464F
:1053000003B0BDE8F083A660F0E7284601F0D2FACA
:10531000C7E74FF0FF35B0E7DDF80090B14504D0A6
:10532000484601F063FF074620B9B4F90C304FF04E
:10533000FF3592E74E4683E78C0000202DE9F04FC1
:1053400083B0054601F0AAFE40F2B1739D4240F3DE
:105350009380574CDFF8648145606FF4F663EE1874
:10536000A5F26D7284FB0231B71040F26D1E6FF42E
:10537000C86CA5F2B276D21705EB0C030EFB0676CD
:10538000A2EB6112EF1784FB05C1164484FB03E412
:105390004FF4C872C7EBE11EDB17C3EBE41302FB4B
:1053A0001E5EC7EB611764221E44BEF1000F0CBFE6
:1053B0003023002302FB1757019305F00305044631
:1053C00000F1380C237A4A2B5AD0442B68D0002D98
:1053D0004BD0DDF80490E368364A012B914462DD3E
:1053E00003F1804BABF1020B4FEA8B0B09EB0B0A7D
:1053F000A9F10403324653F8041F9A450A44FAD12E
:105400000BF1040B2C4B59F80B90111D83FB01A3DE
:105410000B444FEAE17ACAEBA30ACAEBCA0A6369F2
:10542000A1EB0A01591A236903F1FF3348BF073181
:10543000C3EBC3030B444B4502DB073B4B45FCDA94
:105440001A44A169236A08FB02110B4444F81C3F6B
:10545000A445B7D1C369826B9342ACBF002301233B
:105460000360012003B0BDE8F08F019B002F0CBF4B
:1054700099464FF03009AEE7002003B0BDE8F08F49
:105480006269B1183DB937B13B2AD4BF002201226D
:105490000A44013AD5E7BEF1000FF5D00022F7E744
:1054A00062693244CDE732464FF0000BAAE700BFF5
:1054B0001F85EB51649F4000932449928051010065
:1054C000014801F013BE00BF58110020014801F04F
:1054D00011BE00BF58110020014B186800F002B83F
:1054E0008C0000202DE9F04F8BB0074601F0D6FD6F
:1054F000BB49BC4D0646384601F0C8FD04460028AD
:1055000000F0F780296831B102F0DEFC10B90BB071
:10551000BDE8F08F2968084601F070FE204602F0D1
:10552000AFFE411C384601F071FE286010B12146E3
:1055300002F034FE2378AC4AAC493A2B08BF013460
:1055400008AD2B46204602F03DFC0028DFDD089B1D
:10555000E25C2D2A1C4400F0C8802B2A08BF0134CD
:105560004FF0010806AB02930DF1160300270093DC
:105570000395019505AA2B469D49ADF81670204666
:10558000ADF8187002F01EFCB842C0DDBDF8163050
:10559000BDF81810BDF814200898DFF86CA2DFF8E9
:1055A0005C92C3EB031301EB83034FF4616101FBD6
:1055B000023308FB03F3336204448B4BC9F8003019
:1055C0002046524689492B4602F0FCFBB84240F384
:1055D00082800898C9F804A0235C2D2B044400F0B5
:1055E00095802B2B08BF01344FF0010806AB0293C6
:1055F0000DF1160300270093039501952B4605AA8C
:105600007B49ADF814702046ADF81670ADF81870EF
:10561000089702F0D7FBB8427CDDBDF81630BDF824
:105620001810BDF81420C3EB031301EB83034FF4F0
:10563000616101FB023308FB03F3F363089BDFF8AE
:10564000CCB11C44B0464FF0000A27782C2F04BF81
:10565000677801344D2F62D04A2F08BF01344FF0D4
:105660000A0209A9204618BF442702F07FFFDDF88F
:105670002490ADF81E004C4500F09C8080B2C8F824
:10568000140088F8087000240223ADF81430ADF837
:105690001640ADF81840089499F800302F2B6CD0C4
:1056A0004FF4E1530AF1010ABAF1020FC8F81830B9
:1056B0004C4408F11C08C8D17068FFF73FFE326AFD
:1056C000F36B4C484C499B1A18BF012303600A60D6
:1056D0000BB0BDE8F08F4849464A306AD9F800302F
:1056E00008601760C9F8043011E701344FF0FF3843
:1056F00038E7424B3F49404E414A286834600C60CD
:105700001A605A6001F07AFD2C6000E701344FF016
:10571000FF386BE7336AA3F56163F3638EE70DF13E
:105720001E0207AB02920093039501952B460DF1E3
:105730001A025946204602F045FB03287FF4E7AEE3
:10574000BDF81A305A1E0B2A3FF6E1AEBDF81C20F8
:10575000511E04293FF6DBAEBDF81E1006293FF6A8
:10576000D6AE88F80870C8F80C30C8F81020C8F811
:105770001410089B04EB030985E706AB02930DF1B7
:105780001603009305AA2B461E490395019548462A
:1057900002F018FBBDF81620BDF81810BDF8143043
:1057A000089CC2EB021201EB82024FF4616101FB23
:1057B000032377E7BAF1000F09D04D220B2386F8B7
:1057C0002420B36201220023F26233635BE74D239E
:1057D000032233720223C6F814A0F260336152E749
:1057E000B09E4000CC0E0020C00E0020B89E4000AD
:1057F000C89E4000D00E0020D40E0020B804002027
:10580000B49E4000F09E4000B40E0020DC9E40009C
:105810002DE9F84F4B6E9C0493462FD59368126880
:1058200053B30E46074602F1080919E920045FEA5E
:105830009A0817D0043D002401E0A04510D032465C
:1058400055F8041F384601F0D7F8431C04F1010451
:10585000F3D10023CBF80830CBF80430BDE8F88F43
:10586000DBF808302AF0030AA3EB0A03CBF8083070
:1058700009F10809002BD8D10020EAE701F026FA47
:105880000023CBF80830CBF80430BDE8F88F00BF18
:105890002DE9F04FADB01D468B469046079306901C
:1058A00018B1836B002B00F0F380DBF86430BBF998
:1058B0000C00DF0781B202D48E0540F1FC808C041D
:1058C0000AD4DBF8643040F4005123F40053ABF801
:1058D0000C10CBF8643089B2080740F1B380DBF8D4
:1058E0001030002B00F0AE8001F01A030A2B00F0FC
:1058F000B58000230DF170090B931193109303935E
:10590000CDF83C90CA46CDF810B098F80030444627
:10591000FBB1252B02D11CE0252B03D014F8013F4D
:10592000002BF9D1A4EB08059DB1109B119ACAF880
:10593000008001332A44072BCAF8045011921093B7
:105940007ADD002A40F0B084039B10922B44CA46B3
:1059500003932378002B00F0E08300204FF0000336
:105960008DF8373004F10108627805460646034693
:105970004FF0FF3408F10108A2F12001582900F28C
:10598000DE82DFE811F02102DC02DC022902DC0207
:10599000DC02DC02DC02DC02DC0289029502DC02B1
:1059A000A200BD02DC029F01A401A401A401A40184
:1059B000A401A401A401A401A401DC02DC02DC0214
:1059C000DC02DC02DC02DC02DC02DC02DC02B20112
:1059D000DC02DC02DC02DC02DC02DC02DC02DC02D7
:1059E000DC02DC029701DC02DC02DC02DC02DC020D
:1059F0009B01DC02DC025302DC02DC02DC02DC0282
:105A0000DC02DC02DC02DC02DC02DC025A021B02E9
:105A1000DC02DC02DC026E021B02DC02DC0273022E
:105A2000DC02F50182010902D702DC029A02DC02E3
:105A3000A700DC02DC022E020AF1080A039B2B44B9
:105A4000039386E75946069800F0ACFD18BBBBF8F7
:105A50000C1001F01A030A2B7FF44BAFBBF90E3088
:105A6000002BFFF646AFDBF86430DB0705D48F056B
:105A700003D4DBF8580001F03FFB2B464246594661
:105A8000069800F04DFD039003982DB0BDE8F08F0F
:105A900000F010FF09E7DBF86430D90704D4BBF845
:105AA0000C309A0540F1AA844FF0FF33039303981A
:105AB0002DB0BDE8F08FDBF8580001F019FBBBF901
:105AC0000C0081B2FBE67642079243F0040398F89B
:105AD00000204FE708969E0600F150840799DD06E6
