:020000040040BA
:100000002035002019064000150640001506400066
:1000100015064000150640001506400000000000CF
:100020000000000000000000000000001506400075
:1000300015064000000000001506400015064000AF
:100040001506400015064000150640001506400044
:100050001506400015064000150640001506400034
:1000600015064000D9014000ED0140001506400092
:10007000010240001506400015064000150640002C
:100080001506400015064000150640001506400004
:1000900015064000150640001506400015064000F4
:1000A00015064000150640001506400015064000E4
:1000B00015064000150640001506400015064000D4
:1000C00015064000150640001506400015064000C4
:1000D00015064000150640001506400015064000B4
:1000E00015064000150640001506400015064000A4
:1000F000150640001506400010B5054C237833B9AD
:10010000044B13B10448AFF300800123237010BDEA
:1001100034040020000000002C0B40000C4B43B1C5
:100120000C480D4910B5AFF300800C48036823B9A3
:1001300010BD0A48036833B97047094B002BF7D04C
:10014000BDE810401847064B002BF5D0184700BFFC
:10015000000000002C0B4000380400202C0B400055
:1001600000000000014BC3F81401704700020E406C
:100170002DE9F84381460F46124B984705464846FD
:10018000114B9847054013D0104C04F1600603E072
:10019000B4420DD010345DB12068B842F8D1616826
:1001A0002942F5D0E3689847636825EA0305EFE73D
:1001B000074B1B6823B1074B1B680BB14846984798
:1001C000BDE8F8837D024000810240005004002019
:1001D000C4040020C004002008B509210148024BD6
:1001E000984708BD000E0E407101400008B50A2175
:1001F0000148024B984708BD00100E4071014000B5
:1002000008B50C210148024B984708BD00140E4068
:100210007101400010B50E480E4B98473E2100205A
:100220000D4B98470D4CA0470028FCD00C4B98472D
:100230000C4A0D4B9A620D4CA0470028FCD01020B0
:100240000B4B98470B4B98470B48024B984710BDF8
:10025000000E2707ED074000E90240003D03400083
:100260004D034000013F0F2000040E405D0340009D
:1002700085024000E106400000D8B805C06C704718
:10028000806C7047174A136B23F070031843106398
:10029000936E13F0080F0AD14FF4006311498A6E70
:1002A00012F0080F03D1013BF9D1012070470D4A2C
:1002B000136B23F0030343F002031363936E13F0F5
:1002C000080F0AD14FF4006306498A6E12F0080F36
:1002D00005D1013BF9D10120704700207047002073
:1002E000704700BF00040E40C8B9114A136A0902E2
:1002F00089B223F45C1323F0030343F45C1343F04B
:1003000001030B431362936E13F0010FFBD0084AF5
:10031000136A43F09B7343F48033136270470449BC
:100320000B6A044A1A40044B13430B62704700BF28
:1003300000040E40FCFFC8FE02003701024B986E1D
:1003400000F48030704700BF00040E404FF00052B0
:10035000014B9A62704700BF00040E40024B986E3A
:1003600000F00200704700BF00040E402F281ED886
:100370001F280CD8114B9A6901238340934318D04E
:10038000012303FA00F00D4B18610020704720385C
:100390000A4BD3F808210123834093430BD0012358
:1003A00003FA00F0054BC3F800010020704701205C
:1003B0007047002070470020704700BF00040E40C7
:1003C000F0B48CB007460E4601AC114D0FCD0FC4F2
:1003D0000FCD0FC495E8070084E8070001AA0023A9
:1003E00052F8040BB6FBF0F0B0FBF7F0B0F5807FED
:1003F00007D901330B2BF3D14FF6FF700CB0F0BCD3
:1004000070470A2B94BF40EA03204FF6FF70F5E7D0
:10041000D80A400070B506460D460C6844B189689C
:1004200020460C4B984704464FF6FF7398420CD079
:10043000686840B1A968074B98474FF6FF73984228
:1004400005D044EA004434600024204670BD0446D0
:10045000FBE700BFC103400070B40A684B6803F0BB
:100460000F038C8A23430C8923438C7A43EA442369
:100470008C7D43EA0443CC7D43EA44430C7E43EA4B
:10048000844300EB4214C4F80032CB68C4F8043251
:100490000B69C4F80C328B7D3BB18C8B4B8B43EAE0
:1004A000044300EB4214C4F81832856C4FF001137A
:1004B0009340DB431D40CC7F04FA02F68C7F9440CE
:1004C00044EA06442C438464446C234091F8214060
:1004D00004FA02F591F82040944044EA054423438D
:1004E00043640123934091F82240002C43D0046AD6
:1004F0001C43046291F82440022C41D0D0F8C05033
:10050000DC432540C0F8C05091F82450012D07BFAE
:10051000846E1C43856E2C40846691F82540022C25
:1005200034D0D0F8C0501B04DC432540C0F8C05084
:1005300091F82550012D30D0836E1C408466D20086
:10054000C46EFF23934024EA030491F8233003FA96
:1005500002F22243C2660B6853B991F82C30012B8A
:100560008B6A23F07F4308BF43F08073C0F8A0304C
:10057000002070BC7047046A24EA03040462B9E7EF
:10058000D0F8C0401C43C0F8C040C6E7D0F8C04017
:1005900044EA0343C0F8C030D1E7846E2343836646
:1005A000CDE70B69934202D24FF6FF7070470B689C
:1005B000CA6000EB4310C0F80822002070470123F6
:1005C00003FA01F141607047012303FA01F18160F0
:1005D0007047000010B509200C4CA0470A20A04726
:1005E0000C20A0470A4B4FF480121A66C3F89020E3
:1005F0005A655A62C3F88020196F21F48011196777
:10060000596F21F4801159675A6010BD6D03400085
:1006100000140E40FEE7000000B583B0254B264ACB
:100620009A4210D0254B234A9A420CD2013B9B1A86
:1006300023F00303043313441F4951F8040B42F819
:10064000040B9A42F9D11E4B1E4A9A420AD2013B30
:100650009B1A23F0030304331344002142F8041BC4
:100660009342FBD1184A194B23F07F039360EFF3B9
:100670001083B3FA83F35B09019372B6BFF35F8F04
:100680000022134B1A700199124A136843F4700345
:100690001360BFF34F8FBFF36F8F29B101220C4B53
:1006A0001A70BFF35F8F62B60B4B98470B4B98479E
:1006B000FEE700BF000000202C0B400034040020A7
:1006C0001C0500203404002000ED00E00000400084
:1006D0000000002088ED00E069094000BD084000EE
:1006E0003B4B1B6B03F00303012B1DD083B1022B8B
:1006F00036D0374B1B6B03F07003702B5FD0344B3D
:100700001A6B3449C2F302120B68D3400B60704776
:10071000314B5B6913F0800F14BF4FF400424FF46C
:10072000FA422C4B1A60E4E7294B1B6A13F0807FD6
:1007300003D02A4A274B1A60DBE7294A254B1A6067
:10074000234B1B6A03F07003102B05D0202BD0D154
:10075000224A204B1A60CCE7224A1E4B1A60C8E797
:100760001B4B1B6A13F0807F16D01C4A194B1A6072
:10077000174B1B6B03F00303022BBAD1144A916A87
:10078000926A1448C1F30A41036801FB0333D2B2F1
:10079000B3FBF2F30360ACE7114A0E4B1A600C4B4B
:1007A0001B6A03F07003102B05D0202BE0D10B4AFD
:1007B000084B1A60DCE70B4A064B1A60D8E7054A7B
:1007C00013680949A1FB03135B081360704700BF5E
:1007D00000040E400400002010180E40001BB7005B
:1007E00000093D0000127A00ABAAAAAA124B984257
:1007F00011D9124B984213D9114B984214D9114B6D
:10080000984215D9104B984294BF4FF004220F4ADA
:100810000F4B1A6070474FF080620D4B1A607047A3
:100820000C4A0B4B1A6070470B4A094B1A60704711
:100830000A4A074B1A607047FF2C3101FF596202C8
:10084000FF869303FFB3C404FFE0F5050005000431
:10085000000A0E400001000400020004000300042E
:10086000F0B4144B4FF480471F61C3F8A0704FF4ED
:1008700080011961C3F8A0104FF480101861C3F80B
:10088000A0004FF400141C61C3F8A0400A4A4FF4C2
:1008900080661661C2F8A0604FF400651561C2F869
:1008A000A0501F63166315631C6318631963F0BCC3
:1008B000704700BF00140E4000100E4030B585B0E8
:1008C0001D4B98471D4B98474FF440601C4B984771
:1008D00024201C4B984700214FF080401A4B98472A
:1008E00040F6C413019300250295184B039301A908
:1008F0004FF08040164B9847164C2581A5720B236C
:10090000636032232361E560256021464FF080401B
:10091000114B9847114B984725600A2221464FF00A
:1009200080400F4B984729464FF080400D4B984729
:10093000284605B030BD00BF15024000D505400077
:10094000650140006D034000C905400000D8B805AE
:1009500015044000C804002059044000610840000C
:10096000A3054000BF05400070B50F4E0F4D761B2C
:10097000B61018BF002405D0013455F8043B984741
:10098000A642F9D10A4E0B4D761B00F0BDF8B61009
:1009900018BF002406D0013455F8043B9847A642FE
:1009A000F9D170BD70BD00BF140B4000140B4000A6
:1009B0001C0B4000140B4000024B13B1024800F026
:1009C00005B8704700000000D90940000023014627
:1009D0001A46184600F01EB838B50A4C0A4D641B7A
:1009E000A4100AD004F18043013B05EB8305013CD0
:1009F00055F804399847002CF9D1BDE8384000F08B
:100A00008DB800BF2C0B4000280B4000704700BF82
:100A1000704700BF2DE9F8432C4D064628689846DC
:100A20000F469146FFF7F2FF294B1C68D4F8483176
:100A3000002B3ED05A681F2A1CDC02F1010E76B151
:100A400003EB82010124C1F88890D3F88801944017
:100A50002043022EC3F88801C1F8088123D0023256
:100A6000C3F804E0286843F82270FFF7D1FF0020A4
:100A7000BDE8F883174B0BB34FF4C870AFF3008099
:100A80000346D8B1D4F848210260002141600A46EB
:100A9000C4F848014FF0010EC0F88811C0F88C115D
:100AA000002EDCD0CCE7D3F88C110C43C3F88C417A
:100AB000D5E704F5A673C4F84831BBE72868FFF70B
:100AC000A7FF4FF0FF30BDE8F88300BF30040020DF
:100AD000040B4000000000000100000002000000C4
:100AE00004000000080000001000000020000000CA
:100AF0004000000080000000000100000002000033
:100B00000004000008000020F8B500BFF8BC08BCD5
:100B10009E467047B90940001D014000F8B500BF6E
:0C0B2000F8BC08BC9E467047F90040007D
:100B2C000100000000093D0000000000F40200205C
:100B3C005C030020C4030020000000000000000043
:100B4C000000000000000000000000000000000099
:100B5C000000000000000000000000000000000089
:100B6C000000000000000000000000000000000079
:100B7C000000000000000000000000000000000069
:100B8C000000000000000000000000000000000059
:100B9C000000000000000000000000000000000049
:100BAC000000000000000000000000000000000039
:100BBC000000000000000000000000000000000029
:100BCC000000000000000000000000000000000019
:100BDC0001000000000000000E33CDAB34126DE6B6
:100BEC00ECDE05000B00000000000000000000001F
:100BFC0000000000000000000000000000000000E9
:100C0C0000000000000000000000000000000000D8
:100C1C0000000000000000000000000000000000C8
:100C2C0000000000000000000000000000000000B8
:040F5C00F804002075
:040000050040061998
:00000001FF
